{
  "contracts/Bingo18.sol": {
    "Bingo18": {
      "abi": [
        {
          "inputs": [
            {
              "internalType": "address",
              "name": "vrfCoordinator",
              "type": "address"
            },
            {
              "internalType": "bytes32",
              "name": "keyHash",
              "type": "bytes32"
            },
            {
              "internalType": "uint256",
              "name": "subscriptionId",
              "type": "uint256"
            },
            {
              "internalType": "uint16",
              "name": "requestConfirmations",
              "type": "uint16"
            },
            {
              "internalType": "uint32",
              "name": "callbackGasLimit",
              "type": "uint32"
            }
          ],
          "stateMutability": "nonpayable",
          "type": "constructor"
        },
        {
          "inputs": [
            {
              "internalType": "address",
              "name": "have",
              "type": "address"
            },
            {
              "internalType": "address",
              "name": "want",
              "type": "address"
            }
          ],
          "name": "OnlyCoordinatorCanFulfill",
          "type": "error"
        },
        {
          "anonymous": false,
          "inputs": [
            {
              "indexed": false,
              "internalType": "uint256",
              "name": "requestId",
              "type": "uint256"
            },
            {
              "indexed": false,
              "internalType": "uint256[]",
              "name": "randomWords",
              "type": "uint256[]"
            }
          ],
          "name": "RequestFulfilled",
          "type": "event"
        },
        {
          "anonymous": false,
          "inputs": [
            {
              "indexed": false,
              "internalType": "uint256",
              "name": "requestId",
              "type": "uint256"
            },
            {
              "indexed": false,
              "internalType": "uint32",
              "name": "numWords",
              "type": "uint32"
            }
          ],
          "name": "RequestSent",
          "type": "event"
        },
        {
          "inputs": [
            {
              "internalType": "bytes",
              "name": "",
              "type": "bytes"
            }
          ],
          "name": "checkUpkeep",
          "outputs": [
            {
              "internalType": "bool",
              "name": "upkeepNeeded",
              "type": "bool"
            },
            {
              "internalType": "bytes",
              "name": "",
              "type": "bytes"
            }
          ],
          "stateMutability": "view",
          "type": "function"
        },
        {
          "inputs": [
            {
              "components": [
                {
                  "internalType": "enum Bingo18.Option",
                  "name": "option",
                  "type": "uint8"
                },
                {
                  "components": [
                    {
                      "internalType": "uint32",
                      "name": "value",
                      "type": "uint32"
                    },
                    {
                      "internalType": "uint16",
                      "name": "amount",
                      "type": "uint16"
                    }
                  ],
                  "internalType": "struct Bingo18.Value[]",
                  "name": "values",
                  "type": "tuple[]"
                }
              ],
              "internalType": "struct Bingo18.Ticket[]",
              "name": "options",
              "type": "tuple[]"
            }
          ],
          "name": "enterBingo",
          "outputs": [],
          "stateMutability": "payable",
          "type": "function"
        },
        {
          "inputs": [],
          "name": "getBingoState",
          "outputs": [
            {
              "internalType": "enum Bingo18.BingoState",
              "name": "",
              "type": "uint8"
            }
          ],
          "stateMutability": "view",
          "type": "function"
        },
        {
          "inputs": [],
          "name": "getListOfPlayer",
          "outputs": [
            {
              "internalType": "address payable[]",
              "name": "",
              "type": "address[]"
            }
          ],
          "stateMutability": "view",
          "type": "function"
        },
        {
          "inputs": [
            {
              "internalType": "bytes",
              "name": "",
              "type": "bytes"
            }
          ],
          "name": "performUpkeep",
          "outputs": [],
          "stateMutability": "nonpayable",
          "type": "function"
        },
        {
          "inputs": [
            {
              "internalType": "uint256",
              "name": "requestId",
              "type": "uint256"
            },
            {
              "internalType": "uint256[]",
              "name": "randomWords",
              "type": "uint256[]"
            }
          ],
          "name": "rawFulfillRandomWords",
          "outputs": [],
          "stateMutability": "nonpayable",
          "type": "function"
        },
        {
          "inputs": [
            {
              "internalType": "uint256",
              "name": "",
              "type": "uint256"
            }
          ],
          "name": "requestIds",
          "outputs": [
            {
              "internalType": "uint256",
              "name": "",
              "type": "uint256"
            }
          ],
          "stateMutability": "view",
          "type": "function"
        },
        {
          "inputs": [
            {
              "internalType": "uint256",
              "name": "",
              "type": "uint256"
            },
            {
              "internalType": "uint256",
              "name": "",
              "type": "uint256"
            }
          ],
          "name": "s_pastResults",
          "outputs": [
            {
              "internalType": "uint256",
              "name": "",
              "type": "uint256"
            }
          ],
          "stateMutability": "view",
          "type": "function"
        },
        {
          "inputs": [
            {
              "internalType": "uint256",
              "name": "",
              "type": "uint256"
            }
          ],
          "name": "s_players",
          "outputs": [
            {
              "internalType": "address payable",
              "name": "",
              "type": "address"
            }
          ],
          "stateMutability": "view",
          "type": "function"
        },
        {
          "inputs": [
            {
              "internalType": "uint256",
              "name": "",
              "type": "uint256"
            }
          ],
          "name": "s_requests",
          "outputs": [
            {
              "internalType": "bool",
              "name": "fulfilled",
              "type": "bool"
            },
            {
              "internalType": "bool",
              "name": "exists",
              "type": "bool"
            }
          ],
          "stateMutability": "view",
          "type": "function"
        }
      ],
      "evm": {
        "bytecode": {
          "linkReferences": {},
          "object": "6101406040523480156200001257600080fd5b50604051620031cb380380620031cb833981810160405281019062000038919062000271565b848073ffffffffffffffffffffffffffffffffffffffff1660808173ffffffffffffffffffffffffffffffffffffffff1681525050508473ffffffffffffffffffffffffffffffffffffffff1660a08173ffffffffffffffffffffffffffffffffffffffff16815250508360c081815250508260e081815250508161ffff166101008161ffff16815250508063ffffffff166101208163ffffffff16815250506001601160006101000a81548160ff02191690836001811115620001015762000100620002f9565b5b0217905550505050505062000328565b600080fd5b600073ffffffffffffffffffffffffffffffffffffffff82169050919050565b6000620001438262000116565b9050919050565b620001558162000136565b81146200016157600080fd5b50565b60008151905062000175816200014a565b92915050565b6000819050919050565b62000190816200017b565b81146200019c57600080fd5b50565b600081519050620001b08162000185565b92915050565b6000819050919050565b620001cb81620001b6565b8114620001d757600080fd5b50565b600081519050620001eb81620001c0565b92915050565b600061ffff82169050919050565b6200020a81620001f1565b81146200021657600080fd5b50565b6000815190506200022a81620001ff565b92915050565b600063ffffffff82169050919050565b6200024b8162000230565b81146200025757600080fd5b50565b6000815190506200026b8162000240565b92915050565b600080600080600060a0868803121562000290576200028f62000111565b5b6000620002a08882890162000164565b9550506020620002b3888289016200019f565b9450506040620002c688828901620001da565b9350506060620002d98882890162000219565b9250506080620002ec888289016200025a565b9150509295509295909350565b7f4e487b7100000000000000000000000000000000000000000000000000000000600052602160045260246000fd5b60805160a05160c05160e0516101005161012051612e4c6200037f60003960006105a80152600061058701526000610566015260006105450152600061050901526000818161028f01526102e30152612e4c6000f3fe6080604052600436106100915760003560e01c8063a168fa8911610059578063a168fa891461017f578063a4c6e86c146101bd578063ae771f6b146101e8578063dd09ea3c14610225578063e2f412d41461026257610091565b80631fe543e3146100965780632a8136e0146100bf5780634585e33b146100db5780636e04ff0d146101045780638796ba8c14610142575b600080fd5b3480156100a257600080fd5b506100bd60048036038101906100b89190611eb2565b61028d565b005b6100d960048036038101906100d49190612213565b61034d565b005b3480156100e757600080fd5b5061010260048036038101906100fd91906122b7565b61047c565b005b34801561011057600080fd5b5061012b600480360381019061012691906123b9565b610774565b60405161013992919061249c565b60405180910390f35b34801561014e57600080fd5b50610169600480360381019061016491906124cc565b610799565b6040516101769190612508565b60405180910390f35b34801561018b57600080fd5b506101a660048036038101906101a191906124cc565b6107bd565b6040516101b4929190612523565b60405180910390f35b3480156101c957600080fd5b506101d26107fb565b6040516101df91906125c3565b60405180910390f35b3480156101f457600080fd5b5061020f600480360381019061020a91906124cc565b610812565b60405161021c919061261f565b60405180910390f35b34801561023157600080fd5b5061024c6004803603810190610247919061263a565b610851565b6040516102599190612508565b60405180910390f35b34801561026e57600080fd5b5061027761087f565b6040516102849190612738565b60405180910390f35b7f000000000000000000000000000000000000000000000000000000000000000073ffffffffffffffffffffffffffffffffffffffff163373ffffffffffffffffffffffffffffffffffffffff161461033f57337f00000000000000000000000000000000000000000000000000000000000000006040517f1cf993f400000000000000000000000000000000000000000000000000000000815260040161033692919061277b565b60405180910390fd5b610349828261090d565b5050565b67016345785d8a00003414610397576040517f08c379a000000000000000000000000000000000000000000000000000000000815260040161038e90612801565b60405180910390fd5b6001808111156103aa576103a961254c565b5b601160009054906101000a900460ff1660018111156103cc576103cb61254c565b5b1461040c576040517f08c379a00000000000000000000000000000000000000000000000000000000081526004016104039061286d565b60405180910390fd5b6104163382611737565b6010339080600181540180825580915050600190039060005260206000200160009091909190916101000a81548173ffffffffffffffffffffffffffffffffffffffff021916908373ffffffffffffffffffffffffffffffffffffffff16021790555050565b600061049660405180602001604052806000815250610774565b50905080156104da576040517f08c379a00000000000000000000000000000000000000000000000000000000081526004016104d1906128d9565b60405180910390fd5b6000601160006101000a81548160ff02191690836001811115610500576104ff61254c565b5b021790555060007f000000000000000000000000000000000000000000000000000000000000000073ffffffffffffffffffffffffffffffffffffffff1663d33d44c17f00000000000000000000000000000000000000000000000000000000000000007f00000000000000000000000000000000000000000000000000000000000000007f00000000000000000000000000000000000000000000000000000000000000007f000000000000000000000000000000000000000000000000000000000000000060036040518663ffffffff1660e01b81526004016105e9959493929190612930565b6020604051808303816000875af1158015610608573d6000803e3d6000fd5b505050506040513d601f19601f8201168201806040525081019061062c9190612998565b90506040518060600160405280600015158152602001600115158152602001600067ffffffffffffffff81111561066657610665611d6f565b5b6040519080825280602002602001820160405280156106945781602001602082028036833780820191505090505b508152506012600083815260200190815260200160002060008201518160000160006101000a81548160ff02191690831515021790555060208201518160000160016101000a81548160ff0219169083151502179055506040820151816001019080519060200190610707929190611b6f565b5090505060138190806001815401808255809150506001900390600052602060002001600090919091909150557fcc58b13ad3eab50626c6a6300b1d139cd6ebb1688a7cced9461c2f7e762665ee8160036040516107669291906129c5565b60405180910390a150505050565b600060606000601080549050111561078f5760019150610794565b600091505b915091565b601381815481106107a957600080fd5b906000526020600020016000915090505481565b60126020528060005260406000206000915090508060000160009054906101000a900460ff16908060000160019054906101000a900460ff16905082565b6000601160009054906101000a900460ff16905090565b6010818154811061082257600080fd5b906000526020600020016000915054906101000a900473ffffffffffffffffffffffffffffffffffffffff1681565b6000826005811061086157600080fd5b60030201816003811061087357600080fd5b01600091509150505481565b6060601080548060200260200160405190810160405280929190818152602001828054801561090357602002820191906000526020600020905b8160009054906101000a900473ffffffffffffffffffffffffffffffffffffffff1673ffffffffffffffffffffffffffffffffffffffff16815260200190600101908083116108b9575b5050505050905090565b6012600083815260200190815260200160002060000160019054906101000a900460ff16610970576040517f08c379a000000000000000000000000000000000000000000000000000000000815260040161096790612a3a565b60405180910390fd5b60005b601080549050811015611663576000806010838154811061099757610996612a5a565b5b9060005260206000200160009054906101000a900473ffffffffffffffffffffffffffffffffffffffff1690506000600f60008373ffffffffffffffffffffffffffffffffffffffff1673ffffffffffffffffffffffffffffffffffffffff168152602001908152602001600020805480602002602001604051908101604052809291908181526020016000905b82821015610b3357838290600052602060002090600202016040518060400160405290816000820160009054906101000a900460ff166004811115610a6d57610a6c61254c565b5b6004811115610a7f57610a7e61254c565b5b815260200160018201805480602002602001604051908101604052809291908181526020016000905b82821015610b1c578382906000526020600020016040518060400160405290816000820160009054906101000a900463ffffffff1663ffffffff1663ffffffff1681526020016000820160049054906101000a900461ffff1661ffff1661ffff168152505081526020019060010190610aa8565b505050508152505081526020019060010190610a25565b50505050905060005b8151811015611559576000828281518110610b5a57610b59612a5a565b5b6020026020010151905060008160200151905060016004811115610b8157610b8061254c565b5b82600001516004811115610b9857610b9761254c565b5b03610d4f57600088600281518110610bb357610bb2612a5a565b5b602002602001015189600181518110610bcf57610bce612a5a565b5b60200260200101518a600081518110610beb57610bea612a5a565b5b6020026020010151610bfd9190612ab8565b610c079190612ab8565b905060005b8251811015610d48576000838281518110610c2a57610c29612a5a565b5b6020026020010151905060038310158015610c46575060098311155b8015610c5c57506000816000015163ffffffff16145b80610c8b5750600c8310158015610c74575060128311155b8015610c8a57506002816000015163ffffffff16145b5b15610cd6576002600367016345785d8a0000836020015161ffff16610cb09190612aec565b610cba9190612aec565b610cc49190612b5d565b89610ccf9190612ab8565b9850610d3a565b600a8310158015610ce85750600b8311155b8015610cfe57506001816000015163ffffffff16145b15610d3957600267016345785d8a0000826020015161ffff16610d219190612aec565b610d2b9190612aec565b89610d369190612ab8565b98505b5b508080600101915050610c0c565b505061154a565b60006004811115610d6357610d6261254c565b5b82600001516004811115610d7a57610d7961254c565b5b036110d457600088600281518110610d9557610d94612a5a565b5b602002602001015189600181518110610db157610db0612a5a565b5b60200260200101518a600081518110610dcd57610dcc612a5a565b5b6020026020010151610ddf9190612ab8565b610de99190612ab8565b905060005b82518110156110cd576000838281518110610e0c57610e0b612a5a565b5b6020026020010151905082816000015163ffffffff16036110bf576003831480610e365750601283145b15610e7557607867016345785d8a0000826020015161ffff16610e599190612aec565b610e639190612aec565b89610e6e9190612ab8565b98506110be565b6004831480610e845750601183145b15610ec357602867016345785d8a0000826020015161ffff16610ea79190612aec565b610eb19190612aec565b89610ebc9190612ab8565b98506110bd565b6005831480610ed25750601083145b15610f1157601467016345785d8a0000826020015161ffff16610ef59190612aec565b610eff9190612aec565b89610f0a9190612ab8565b98506110bc565b6006831480610f205750600f83145b15610f5f57600c67016345785d8a0000826020015161ffff16610f439190612aec565b610f4d9190612aec565b89610f589190612ab8565b98506110bb565b6007831480610f6e5750600e83145b15610fad57600867016345785d8a0000826020015161ffff16610f919190612aec565b610f9b9190612aec565b89610fa69190612ab8565b98506110ba565b6008831480610fbc5750600d83145b15611007576002600b67016345785d8a0000836020015161ffff16610fe19190612aec565b610feb9190612aec565b610ff59190612b5d565b896110009190612ab8565b98506110b9565b60098314806110165750600c83145b1561106157600a602f67016345785d8a0000836020015161ffff1661103b9190612aec565b6110459190612aec565b61104f9190612b5d565b8961105a9190612ab8565b98506110b8565b600a8314806110705750600b83145b156110b7576005601667016345785d8a0000836020015161ffff166110959190612aec565b61109f9190612aec565b6110a99190612b5d565b896110b49190612ab8565b98505b5b5b5b5b5b5b5b5b508080600101915050610dee565b5050611549565b600260048111156110e8576110e761254c565b5b826000015160048111156110ff576110fe61254c565b5b036112695760005b815181101561126357600082828151811061112557611124612a5a565b5b602002602001015190506000805b8b51811015611183578b818151811061114f5761114e612a5a565b5b6020026020010151836000015163ffffffff160361117657818061117290612b8e565b9250505b8080600101915050611133565b50600181036111d257600a600c67016345785d8a0000846020015161ffff166111ac9190612aec565b6111b69190612aec565b6111c09190612b5d565b896111cb9190612ab8565b9850611254565b6002810361121457600267016345785d8a0000836020015161ffff166111f89190612aec565b6112029190612aec565b8961120d9190612ab8565b9850611253565b6003810361125257600367016345785d8a0000836020015161ffff1661123a9190612aec565b6112449190612aec565b8961124f9190612ab8565b98505b5b5b50508080600101915050611107565b50611548565b6003600481111561127d5761127c61254c565b5b826000015160048111156112945761129361254c565b5b036113785760005b81518110156113725760008282815181106112ba576112b9612a5a565b5b602002602001015190506000805b8b51811015611318578b81815181106112e4576112e3612a5a565b5b6020026020010151836000015163ffffffff160361130b57818061130790612b8e565b9250505b80806001019150506112c8565b506002811061136357600a604b67016345785d8a0000846020015161ffff166113419190612aec565b61134b9190612aec565b6113559190612b5d565b896113609190612ab8565b98505b5050808060010191505061129c565b50611547565b60048081111561138b5761138a61254c565b5b826000015160048111156113a2576113a161254c565b5b036115465760005b81518110156115445760008282815181106113c8576113c7612a5a565b5b602002602001015190506000805b8b51811015611426578b81815181106113f2576113f1612a5a565b5b6020026020010151836000015163ffffffff160361141957818061141590612b8e565b9250505b80806001019150506113d6565b506003810361146957607867016345785d8a0000836020015161ffff1661144d9190612aec565b6114579190612aec565b896114629190612ab8565b9850611535565b8a60018151811061147d5761147c612a5a565b5b60200260200101518b60008151811061149957611498612a5a565b5b60200260200101511480156114e357508a6002815181106114bd576114bc612a5a565b5b60200260200101518b6001815181106114d9576114d8612a5a565b5b6020026020010151145b80156114f957506007826000015163ffffffff16145b1561153457601467016345785d8a0000836020015161ffff1661151c9190612aec565b6115269190612aec565b896115319190612ab8565b98505b5b505080806001019150506113aa565b505b5b5b5b5b50508080600101915050610b3c565b506000831115611653578247116115a5576040517f08c379a000000000000000000000000000000000000000000000000000000000815260040161159c90612c22565b60405180910390fd5b60008273ffffffffffffffffffffffffffffffffffffffff16846040516115cb90612c73565b60006040518083038185875af1925050503d8060008114611608576040519150601f19603f3d011682016040523d82523d6000602084013e61160d565b606091505b5050905080611651576040517f08c379a000000000000000000000000000000000000000000000000000000000815260040161164890612cd4565b60405180910390fd5b505b5050508080600101915050610973565b5060016012600084815260200190815260200160002060000160006101000a81548160ff021916908315150217905550806012600084815260200190815260200160002060010190805190602001906116bd929190611b6f565b507ffe2e2d779dba245964d4e3ef9b994be63856fd568bf7d3ca9e224755cb1bd54d82826040516116ef929190612db2565b60405180910390a16001601160006101000a81548160ff0219169083600181111561171d5761171c61254c565b5b021790555061172a61192c565b611733816119e9565b5050565b6000600f60008473ffffffffffffffffffffffffffffffffffffffff1673ffffffffffffffffffffffffffffffffffffffff1681526020019081526020016000209050600f60008473ffffffffffffffffffffffffffffffffffffffff1673ffffffffffffffffffffffffffffffffffffffff16815260200190815260200160002060006117c59190611bbc565b60005b82518110156119265760008382815181106117e6576117e5612a5a565b5b60200260200101519050600081602001519050600084600181600181540180825580915050039060005260206000209060020201600101905060005b82518110156118c5578183828151811061183f5761183e612a5a565b5b60200260200101519080600181540180825580915050600190039060005260206000200160009091909190915060008201518160000160006101000a81548163ffffffff021916908363ffffffff16021790555060208201518160000160046101000a81548161ffff021916908361ffff16021790555050508080600101915050611822565b5082600001518585815481106118de576118dd612a5a565b5b906000526020600020906002020160000160006101000a81548160ff021916908360048111156119115761191061254c565b5b021790555050505080806001019150506117c8565b50505050565b60005b6010805490508110156119d85760006010828154811061195257611951612a5a565b5b9060005260206000200160009054906101000a900473ffffffffffffffffffffffffffffffffffffffff169050600f60008273ffffffffffffffffffffffffffffffffffffffff1673ffffffffffffffffffffffffffffffffffffffff16815260200190815260200160002060006119ca9190611bbc565b50808060010191505061192f565b50601060006119e79190611be0565b565b6000600160056119f99190612de2565b90505b6000811115611a875760008160058110611a1957611a18612a5a565b5b600302016000611a299190611c01565b6000600182611a389190612de2565b60058110611a4957611a48612a5a565b5b6003020160008260058110611a6157611a60612a5a565b5b60030201906003611a73929190611c16565b508080611a7f90612b8e565b9150506119fc565b5080600081518110611a9c57611a9b612a5a565b5b602002602001015160008060058110611ab857611ab7612a5a565b5b60030201600060038110611acf57611ace612a5a565b5b018190555080600181518110611ae857611ae7612a5a565b5b602002602001015160008060058110611b0457611b03612a5a565b5b60030201600160038110611b1b57611b1a612a5a565b5b018190555080600281518110611b3457611b33612a5a565b5b602002602001015160008060058110611b5057611b4f612a5a565b5b60030201600260038110611b6757611b66612a5a565b5b018190555050565b828054828255906000526020600020908101928215611bab579160200282015b82811115611baa578251825591602001919060010190611b8f565b5b509050611bb89190611c53565b5090565b5080546000825560020290600052602060002090810190611bdd9190611c70565b50565b5080546000825590600052602060002090810190611bfe9190611c53565b50565b50600081556001016000815560010160009055565b8260038101928215611c42579182015b82811115611c41578254825591600101919060010190611c26565b5b509050611c4f9190611c53565b5090565b5b80821115611c6c576000816000905550600101611c54565b5090565b5b80821115611ca757600080820160006101000a81549060ff0219169055600182016000611c9e9190611cab565b50600201611c71565b5090565b5080546000825590600052602060002090810190611cc99190611ccc565b50565b5b80821115611d0b57600080820160006101000a81549063ffffffff02191690556000820160046101000a81549061ffff021916905550600101611ccd565b5090565b6000604051905090565b600080fd5b600080fd5b6000819050919050565b611d3681611d23565b8114611d4157600080fd5b50565b600081359050611d5381611d2d565b92915050565b600080fd5b6000601f19601f8301169050919050565b7f4e487b7100000000000000000000000000000000000000000000000000000000600052604160045260246000fd5b611da782611d5e565b810181811067ffffffffffffffff82111715611dc657611dc5611d6f565b5b80604052505050565b6000611dd9611d0f565b9050611de58282611d9e565b919050565b600067ffffffffffffffff821115611e0557611e04611d6f565b5b602082029050602081019050919050565b600080fd5b6000611e2e611e2984611dea565b611dcf565b90508083825260208201905060208402830185811115611e5157611e50611e16565b5b835b81811015611e7a5780611e668882611d44565b845260208401935050602081019050611e53565b5050509392505050565b600082601f830112611e9957611e98611d59565b5b8135611ea9848260208601611e1b565b91505092915050565b60008060408385031215611ec957611ec8611d19565b5b6000611ed785828601611d44565b925050602083013567ffffffffffffffff811115611ef857611ef7611d1e565b5b611f0485828601611e84565b9150509250929050565b600067ffffffffffffffff821115611f2957611f28611d6f565b5b602082029050602081019050919050565b600080fd5b600080fd5b60058110611f5157600080fd5b50565b600081359050611f6381611f44565b92915050565b600067ffffffffffffffff821115611f8457611f83611d6f565b5b602082029050602081019050919050565b600063ffffffff82169050919050565b611fae81611f95565b8114611fb957600080fd5b50565b600081359050611fcb81611fa5565b92915050565b600061ffff82169050919050565b611fe881611fd1565b8114611ff357600080fd5b50565b60008135905061200581611fdf565b92915050565b60006040828403121561202157612020611f3a565b5b61202b6040611dcf565b9050600061203b84828501611fbc565b600083015250602061204f84828501611ff6565b60208301525092915050565b600061206e61206984611f69565b611dcf565b9050808382526020820190506040840283018581111561209157612090611e16565b5b835b818110156120ba57806120a6888261200b565b845260208401935050604081019050612093565b5050509392505050565b600082601f8301126120d9576120d8611d59565b5b81356120e984826020860161205b565b91505092915050565b60006040828403121561210857612107611f3a565b5b6121126040611dcf565b9050600061212284828501611f54565b600083015250602082013567ffffffffffffffff81111561214657612145611f3f565b5b612152848285016120c4565b60208301525092915050565b600061217161216c84611f0e565b611dcf565b9050808382526020820190506020840283018581111561219457612193611e16565b5b835b818110156121db57803567ffffffffffffffff8111156121b9576121b8611d59565b5b8086016121c689826120f2565b85526020850194505050602081019050612196565b5050509392505050565b600082601f8301126121fa576121f9611d59565b5b813561220a84826020860161215e565b91505092915050565b60006020828403121561222957612228611d19565b5b600082013567ffffffffffffffff81111561224757612246611d1e565b5b612253848285016121e5565b91505092915050565b600080fd5b60008083601f84011261227757612276611d59565b5b8235905067ffffffffffffffff8111156122945761229361225c565b5b6020830191508360018202830111156122b0576122af611e16565b5b9250929050565b600080602083850312156122ce576122cd611d19565b5b600083013567ffffffffffffffff8111156122ec576122eb611d1e565b5b6122f885828601612261565b92509250509250929050565b600080fd5b600067ffffffffffffffff82111561232457612323611d6f565b5b61232d82611d5e565b9050602081019050919050565b82818337600083830152505050565b600061235c61235784612309565b611dcf565b90508281526020810184848401111561237857612377612304565b5b61238384828561233a565b509392505050565b600082601f8301126123a05761239f611d59565b5b81356123b0848260208601612349565b91505092915050565b6000602082840312156123cf576123ce611d19565b5b600082013567ffffffffffffffff8111156123ed576123ec611d1e565b5b6123f98482850161238b565b91505092915050565b60008115159050919050565b61241781612402565b82525050565b600081519050919050565b600082825260208201905092915050565b60005b8381101561245757808201518184015260208101905061243c565b60008484015250505050565b600061246e8261241d565b6124788185612428565b9350612488818560208601612439565b61249181611d5e565b840191505092915050565b60006040820190506124b1600083018561240e565b81810360208301526124c38184612463565b90509392505050565b6000602082840312156124e2576124e1611d19565b5b60006124f084828501611d44565b91505092915050565b61250281611d23565b82525050565b600060208201905061251d60008301846124f9565b92915050565b6000604082019050612538600083018561240e565b612545602083018461240e565b9392505050565b7f4e487b7100000000000000000000000000000000000000000000000000000000600052602160045260246000fd5b6002811061258c5761258b61254c565b5b50565b600081905061259d8261257b565b919050565b60006125ad8261258f565b9050919050565b6125bd816125a2565b82525050565b60006020820190506125d860008301846125b4565b92915050565b600073ffffffffffffffffffffffffffffffffffffffff82169050919050565b6000612609826125de565b9050919050565b612619816125fe565b82525050565b60006020820190506126346000830184612610565b92915050565b6000806040838503121561265157612650611d19565b5b600061265f85828601611d44565b925050602061267085828601611d44565b9150509250929050565b600081519050919050565b600082825260208201905092915050565b6000819050602082019050919050565b6126af816125fe565b82525050565b60006126c183836126a6565b60208301905092915050565b6000602082019050919050565b60006126e58261267a565b6126ef8185612685565b93506126fa83612696565b8060005b8381101561272b57815161271288826126b5565b975061271d836126cd565b9250506001810190506126fe565b5085935050505092915050565b6000602082019050818103600083015261275281846126da565b905092915050565b6000612765826125de565b9050919050565b6127758161275a565b82525050565b6000604082019050612790600083018561276c565b61279d602083018461276c565b9392505050565b600082825260208201905092915050565b7f4e6f7420656e6f7567682066656520746f206a6f696e00000000000000000000600082015250565b60006127eb6016836127a4565b91506127f6826127b5565b602082019050919050565b6000602082019050818103600083015261281a816127de565b9050919050565b7f42696e676f2069732063616c63756c6174696e67207265776172642100000000600082015250565b6000612857601c836127a4565b915061286282612821565b602082019050919050565b600060208201905081810360008301526128868161284a565b9050919050565b7f4572726f722c204e6f20506c6179657221000000000000000000000000000000600082015250565b60006128c36011836127a4565b91506128ce8261288d565b602082019050919050565b600060208201905081810360008301526128f2816128b6565b9050919050565b6000819050919050565b61290c816128f9565b82525050565b61291b81611fd1565b82525050565b61292a81611f95565b82525050565b600060a0820190506129456000830188612903565b61295260208301876124f9565b61295f6040830186612912565b61296c6060830185612921565b6129796080830184612921565b9695505050505050565b60008151905061299281611d2d565b92915050565b6000602082840312156129ae576129ad611d19565b5b60006129bc84828501612983565b91505092915050565b60006040820190506129da60008301856124f9565b6129e76020830184612921565b9392505050565b7f72657175657374206e6f7420666f756e64000000000000000000000000000000600082015250565b6000612a246011836127a4565b9150612a2f826129ee565b602082019050919050565b60006020820190508181036000830152612a5381612a17565b9050919050565b7f4e487b7100000000000000000000000000000000000000000000000000000000600052603260045260246000fd5b7f4e487b7100000000000000000000000000000000000000000000000000000000600052601160045260246000fd5b6000612ac382611d23565b9150612ace83611d23565b9250828201905080821115612ae657612ae5612a89565b5b92915050565b6000612af782611d23565b9150612b0283611d23565b9250828202612b1081611d23565b91508282048414831517612b2757612b26612a89565b5b5092915050565b7f4e487b7100000000000000000000000000000000000000000000000000000000600052601260045260246000fd5b6000612b6882611d23565b9150612b7383611d23565b925082612b8357612b82612b2e565b5b828204905092915050565b6000612b9982611d23565b91507fffffffffffffffffffffffffffffffffffffffffffffffffffffffffffffffff8203612bcb57612bca612a89565b5b600182019050919050565b7f4e6f7420656e6f7567682066756e6420746f2077697468647261770000000000600082015250565b6000612c0c601b836127a4565b9150612c1782612bd6565b602082019050919050565b60006020820190508181036000830152612c3b81612bff565b9050919050565b600081905092915050565b50565b6000612c5d600083612c42565b9150612c6882612c4d565b600082019050919050565b6000612c7e82612c50565b9150819050919050565b7f4661696c656420746f2073656e64207468652072657761726400000000000000600082015250565b6000612cbe6019836127a4565b9150612cc982612c88565b602082019050919050565b60006020820190508181036000830152612ced81612cb1565b9050919050565b600081519050919050565b600082825260208201905092915050565b6000819050602082019050919050565b612d2981611d23565b82525050565b6000612d3b8383612d20565b60208301905092915050565b6000602082019050919050565b6000612d5f82612cf4565b612d698185612cff565b9350612d7483612d10565b8060005b83811015612da5578151612d8c8882612d2f565b9750612d9783612d47565b925050600181019050612d78565b5085935050505092915050565b6000604082019050612dc760008301856124f9565b8181036020830152612dd98184612d54565b90509392505050565b6000612ded82611d23565b9150612df883611d23565b9250828203905081811115612e1057612e0f612a89565b5b9291505056fea26469706673582212203f9ed0c43a8628bef7d6bd357013008d95d22f67bdb7b0b2c9e452a52900ea6364736f6c63430008180033",
          "opcodes": "PUSH2 0x140 PUSH1 0x40 MSTORE CALLVALUE DUP1 ISZERO PUSH3 0x12 JUMPI PUSH1 0x0 DUP1 REVERT JUMPDEST POP PUSH1 0x40 MLOAD PUSH3 0x31CB CODESIZE SUB DUP1 PUSH3 0x31CB DUP4 CODECOPY DUP2 DUP2 ADD PUSH1 0x40 MSTORE DUP2 ADD SWAP1 PUSH3 0x38 SWAP2 SWAP1 PUSH3 0x271 JUMP JUMPDEST DUP5 DUP1 PUSH20 0xFFFFFFFFFFFFFFFFFFFFFFFFFFFFFFFFFFFFFFFF AND PUSH1 0x80 DUP2 PUSH20 0xFFFFFFFFFFFFFFFFFFFFFFFFFFFFFFFFFFFFFFFF AND DUP2 MSTORE POP POP POP DUP5 PUSH20 0xFFFFFFFFFFFFFFFFFFFFFFFFFFFFFFFFFFFFFFFF AND PUSH1 0xA0 DUP2 PUSH20 0xFFFFFFFFFFFFFFFFFFFFFFFFFFFFFFFFFFFFFFFF AND DUP2 MSTORE POP POP DUP4 PUSH1 0xC0 DUP2 DUP2 MSTORE POP POP DUP3 PUSH1 0xE0 DUP2 DUP2 MSTORE POP POP DUP2 PUSH2 0xFFFF AND PUSH2 0x100 DUP2 PUSH2 0xFFFF AND DUP2 MSTORE POP POP DUP1 PUSH4 0xFFFFFFFF AND PUSH2 0x120 DUP2 PUSH4 0xFFFFFFFF AND DUP2 MSTORE POP POP PUSH1 0x1 PUSH1 0x11 PUSH1 0x0 PUSH2 0x100 EXP DUP2 SLOAD DUP2 PUSH1 0xFF MUL NOT AND SWAP1 DUP4 PUSH1 0x1 DUP2 GT ISZERO PUSH3 0x101 JUMPI PUSH3 0x100 PUSH3 0x2F9 JUMP JUMPDEST JUMPDEST MUL OR SWAP1 SSTORE POP POP POP POP POP POP PUSH3 0x328 JUMP JUMPDEST PUSH1 0x0 DUP1 REVERT JUMPDEST PUSH1 0x0 PUSH20 0xFFFFFFFFFFFFFFFFFFFFFFFFFFFFFFFFFFFFFFFF DUP3 AND SWAP1 POP SWAP2 SWAP1 POP JUMP JUMPDEST PUSH1 0x0 PUSH3 0x143 DUP3 PUSH3 0x116 JUMP JUMPDEST SWAP1 POP SWAP2 SWAP1 POP JUMP JUMPDEST PUSH3 0x155 DUP2 PUSH3 0x136 JUMP JUMPDEST DUP2 EQ PUSH3 0x161 JUMPI PUSH1 0x0 DUP1 REVERT JUMPDEST POP JUMP JUMPDEST PUSH1 0x0 DUP2 MLOAD SWAP1 POP PUSH3 0x175 DUP2 PUSH3 0x14A JUMP JUMPDEST SWAP3 SWAP2 POP POP JUMP JUMPDEST PUSH1 0x0 DUP2 SWAP1 POP SWAP2 SWAP1 POP JUMP JUMPDEST PUSH3 0x190 DUP2 PUSH3 0x17B JUMP JUMPDEST DUP2 EQ PUSH3 0x19C JUMPI PUSH1 0x0 DUP1 REVERT JUMPDEST POP JUMP JUMPDEST PUSH1 0x0 DUP2 MLOAD SWAP1 POP PUSH3 0x1B0 DUP2 PUSH3 0x185 JUMP JUMPDEST SWAP3 SWAP2 POP POP JUMP JUMPDEST PUSH1 0x0 DUP2 SWAP1 POP SWAP2 SWAP1 POP JUMP JUMPDEST PUSH3 0x1CB DUP2 PUSH3 0x1B6 JUMP JUMPDEST DUP2 EQ PUSH3 0x1D7 JUMPI PUSH1 0x0 DUP1 REVERT JUMPDEST POP JUMP JUMPDEST PUSH1 0x0 DUP2 MLOAD SWAP1 POP PUSH3 0x1EB DUP2 PUSH3 0x1C0 JUMP JUMPDEST SWAP3 SWAP2 POP POP JUMP JUMPDEST PUSH1 0x0 PUSH2 0xFFFF DUP3 AND SWAP1 POP SWAP2 SWAP1 POP JUMP JUMPDEST PUSH3 0x20A DUP2 PUSH3 0x1F1 JUMP JUMPDEST DUP2 EQ PUSH3 0x216 JUMPI PUSH1 0x0 DUP1 REVERT JUMPDEST POP JUMP JUMPDEST PUSH1 0x0 DUP2 MLOAD SWAP1 POP PUSH3 0x22A DUP2 PUSH3 0x1FF JUMP JUMPDEST SWAP3 SWAP2 POP POP JUMP JUMPDEST PUSH1 0x0 PUSH4 0xFFFFFFFF DUP3 AND SWAP1 POP SWAP2 SWAP1 POP JUMP JUMPDEST PUSH3 0x24B DUP2 PUSH3 0x230 JUMP JUMPDEST DUP2 EQ PUSH3 0x257 JUMPI PUSH1 0x0 DUP1 REVERT JUMPDEST POP JUMP JUMPDEST PUSH1 0x0 DUP2 MLOAD SWAP1 POP PUSH3 0x26B DUP2 PUSH3 0x240 JUMP JUMPDEST SWAP3 SWAP2 POP POP JUMP JUMPDEST PUSH1 0x0 DUP1 PUSH1 0x0 DUP1 PUSH1 0x0 PUSH1 0xA0 DUP7 DUP9 SUB SLT ISZERO PUSH3 0x290 JUMPI PUSH3 0x28F PUSH3 0x111 JUMP JUMPDEST JUMPDEST PUSH1 0x0 PUSH3 0x2A0 DUP9 DUP3 DUP10 ADD PUSH3 0x164 JUMP JUMPDEST SWAP6 POP POP PUSH1 0x20 PUSH3 0x2B3 DUP9 DUP3 DUP10 ADD PUSH3 0x19F JUMP JUMPDEST SWAP5 POP POP PUSH1 0x40 PUSH3 0x2C6 DUP9 DUP3 DUP10 ADD PUSH3 0x1DA JUMP JUMPDEST SWAP4 POP POP PUSH1 0x60 PUSH3 0x2D9 DUP9 DUP3 DUP10 ADD PUSH3 0x219 JUMP JUMPDEST SWAP3 POP POP PUSH1 0x80 PUSH3 0x2EC DUP9 DUP3 DUP10 ADD PUSH3 0x25A JUMP JUMPDEST SWAP2 POP POP SWAP3 SWAP6 POP SWAP3 SWAP6 SWAP1 SWAP4 POP JUMP JUMPDEST PUSH32 0x4E487B7100000000000000000000000000000000000000000000000000000000 PUSH1 0x0 MSTORE PUSH1 0x21 PUSH1 0x4 MSTORE PUSH1 0x24 PUSH1 0x0 REVERT JUMPDEST PUSH1 0x80 MLOAD PUSH1 0xA0 MLOAD PUSH1 0xC0 MLOAD PUSH1 0xE0 MLOAD PUSH2 0x100 MLOAD PUSH2 0x120 MLOAD PUSH2 0x2E4C PUSH3 0x37F PUSH1 0x0 CODECOPY PUSH1 0x0 PUSH2 0x5A8 ADD MSTORE PUSH1 0x0 PUSH2 0x587 ADD MSTORE PUSH1 0x0 PUSH2 0x566 ADD MSTORE PUSH1 0x0 PUSH2 0x545 ADD MSTORE PUSH1 0x0 PUSH2 0x509 ADD MSTORE PUSH1 0x0 DUP2 DUP2 PUSH2 0x28F ADD MSTORE PUSH2 0x2E3 ADD MSTORE PUSH2 0x2E4C PUSH1 0x0 RETURN INVALID PUSH1 0x80 PUSH1 0x40 MSTORE PUSH1 0x4 CALLDATASIZE LT PUSH2 0x91 JUMPI PUSH1 0x0 CALLDATALOAD PUSH1 0xE0 SHR DUP1 PUSH4 0xA168FA89 GT PUSH2 0x59 JUMPI DUP1 PUSH4 0xA168FA89 EQ PUSH2 0x17F JUMPI DUP1 PUSH4 0xA4C6E86C EQ PUSH2 0x1BD JUMPI DUP1 PUSH4 0xAE771F6B EQ PUSH2 0x1E8 JUMPI DUP1 PUSH4 0xDD09EA3C EQ PUSH2 0x225 JUMPI DUP1 PUSH4 0xE2F412D4 EQ PUSH2 0x262 JUMPI PUSH2 0x91 JUMP JUMPDEST DUP1 PUSH4 0x1FE543E3 EQ PUSH2 0x96 JUMPI DUP1 PUSH4 0x2A8136E0 EQ PUSH2 0xBF JUMPI DUP1 PUSH4 0x4585E33B EQ PUSH2 0xDB JUMPI DUP1 PUSH4 0x6E04FF0D EQ PUSH2 0x104 JUMPI DUP1 PUSH4 0x8796BA8C EQ PUSH2 0x142 JUMPI JUMPDEST PUSH1 0x0 DUP1 REVERT JUMPDEST CALLVALUE DUP1 ISZERO PUSH2 0xA2 JUMPI PUSH1 0x0 DUP1 REVERT JUMPDEST POP PUSH2 0xBD PUSH1 0x4 DUP1 CALLDATASIZE SUB DUP2 ADD SWAP1 PUSH2 0xB8 SWAP2 SWAP1 PUSH2 0x1EB2 JUMP JUMPDEST PUSH2 0x28D JUMP JUMPDEST STOP JUMPDEST PUSH2 0xD9 PUSH1 0x4 DUP1 CALLDATASIZE SUB DUP2 ADD SWAP1 PUSH2 0xD4 SWAP2 SWAP1 PUSH2 0x2213 JUMP JUMPDEST PUSH2 0x34D JUMP JUMPDEST STOP JUMPDEST CALLVALUE DUP1 ISZERO PUSH2 0xE7 JUMPI PUSH1 0x0 DUP1 REVERT JUMPDEST POP PUSH2 0x102 PUSH1 0x4 DUP1 CALLDATASIZE SUB DUP2 ADD SWAP1 PUSH2 0xFD SWAP2 SWAP1 PUSH2 0x22B7 JUMP JUMPDEST PUSH2 0x47C JUMP JUMPDEST STOP JUMPDEST CALLVALUE DUP1 ISZERO PUSH2 0x110 JUMPI PUSH1 0x0 DUP1 REVERT JUMPDEST POP PUSH2 0x12B PUSH1 0x4 DUP1 CALLDATASIZE SUB DUP2 ADD SWAP1 PUSH2 0x126 SWAP2 SWAP1 PUSH2 0x23B9 JUMP JUMPDEST PUSH2 0x774 JUMP JUMPDEST PUSH1 0x40 MLOAD PUSH2 0x139 SWAP3 SWAP2 SWAP1 PUSH2 0x249C JUMP JUMPDEST PUSH1 0x40 MLOAD DUP1 SWAP2 SUB SWAP1 RETURN JUMPDEST CALLVALUE DUP1 ISZERO PUSH2 0x14E JUMPI PUSH1 0x0 DUP1 REVERT JUMPDEST POP PUSH2 0x169 PUSH1 0x4 DUP1 CALLDATASIZE SUB DUP2 ADD SWAP1 PUSH2 0x164 SWAP2 SWAP1 PUSH2 0x24CC JUMP JUMPDEST PUSH2 0x799 JUMP JUMPDEST PUSH1 0x40 MLOAD PUSH2 0x176 SWAP2 SWAP1 PUSH2 0x2508 JUMP JUMPDEST PUSH1 0x40 MLOAD DUP1 SWAP2 SUB SWAP1 RETURN JUMPDEST CALLVALUE DUP1 ISZERO PUSH2 0x18B JUMPI PUSH1 0x0 DUP1 REVERT JUMPDEST POP PUSH2 0x1A6 PUSH1 0x4 DUP1 CALLDATASIZE SUB DUP2 ADD SWAP1 PUSH2 0x1A1 SWAP2 SWAP1 PUSH2 0x24CC JUMP JUMPDEST PUSH2 0x7BD JUMP JUMPDEST PUSH1 0x40 MLOAD PUSH2 0x1B4 SWAP3 SWAP2 SWAP1 PUSH2 0x2523 JUMP JUMPDEST PUSH1 0x40 MLOAD DUP1 SWAP2 SUB SWAP1 RETURN JUMPDEST CALLVALUE DUP1 ISZERO PUSH2 0x1C9 JUMPI PUSH1 0x0 DUP1 REVERT JUMPDEST POP PUSH2 0x1D2 PUSH2 0x7FB JUMP JUMPDEST PUSH1 0x40 MLOAD PUSH2 0x1DF SWAP2 SWAP1 PUSH2 0x25C3 JUMP JUMPDEST PUSH1 0x40 MLOAD DUP1 SWAP2 SUB SWAP1 RETURN JUMPDEST CALLVALUE DUP1 ISZERO PUSH2 0x1F4 JUMPI PUSH1 0x0 DUP1 REVERT JUMPDEST POP PUSH2 0x20F PUSH1 0x4 DUP1 CALLDATASIZE SUB DUP2 ADD SWAP1 PUSH2 0x20A SWAP2 SWAP1 PUSH2 0x24CC JUMP JUMPDEST PUSH2 0x812 JUMP JUMPDEST PUSH1 0x40 MLOAD PUSH2 0x21C SWAP2 SWAP1 PUSH2 0x261F JUMP JUMPDEST PUSH1 0x40 MLOAD DUP1 SWAP2 SUB SWAP1 RETURN JUMPDEST CALLVALUE DUP1 ISZERO PUSH2 0x231 JUMPI PUSH1 0x0 DUP1 REVERT JUMPDEST POP PUSH2 0x24C PUSH1 0x4 DUP1 CALLDATASIZE SUB DUP2 ADD SWAP1 PUSH2 0x247 SWAP2 SWAP1 PUSH2 0x263A JUMP JUMPDEST PUSH2 0x851 JUMP JUMPDEST PUSH1 0x40 MLOAD PUSH2 0x259 SWAP2 SWAP1 PUSH2 0x2508 JUMP JUMPDEST PUSH1 0x40 MLOAD DUP1 SWAP2 SUB SWAP1 RETURN JUMPDEST CALLVALUE DUP1 ISZERO PUSH2 0x26E JUMPI PUSH1 0x0 DUP1 REVERT JUMPDEST POP PUSH2 0x277 PUSH2 0x87F JUMP JUMPDEST PUSH1 0x40 MLOAD PUSH2 0x284 SWAP2 SWAP1 PUSH2 0x2738 JUMP JUMPDEST PUSH1 0x40 MLOAD DUP1 SWAP2 SUB SWAP1 RETURN JUMPDEST PUSH32 0x0 PUSH20 0xFFFFFFFFFFFFFFFFFFFFFFFFFFFFFFFFFFFFFFFF AND CALLER PUSH20 0xFFFFFFFFFFFFFFFFFFFFFFFFFFFFFFFFFFFFFFFF AND EQ PUSH2 0x33F JUMPI CALLER PUSH32 0x0 PUSH1 0x40 MLOAD PUSH32 0x1CF993F400000000000000000000000000000000000000000000000000000000 DUP2 MSTORE PUSH1 0x4 ADD PUSH2 0x336 SWAP3 SWAP2 SWAP1 PUSH2 0x277B JUMP JUMPDEST PUSH1 0x40 MLOAD DUP1 SWAP2 SUB SWAP1 REVERT JUMPDEST PUSH2 0x349 DUP3 DUP3 PUSH2 0x90D JUMP JUMPDEST POP POP JUMP JUMPDEST PUSH8 0x16345785D8A0000 CALLVALUE EQ PUSH2 0x397 JUMPI PUSH1 0x40 MLOAD PUSH32 0x8C379A000000000000000000000000000000000000000000000000000000000 DUP2 MSTORE PUSH1 0x4 ADD PUSH2 0x38E SWAP1 PUSH2 0x2801 JUMP JUMPDEST PUSH1 0x40 MLOAD DUP1 SWAP2 SUB SWAP1 REVERT JUMPDEST PUSH1 0x1 DUP1 DUP2 GT ISZERO PUSH2 0x3AA JUMPI PUSH2 0x3A9 PUSH2 0x254C JUMP JUMPDEST JUMPDEST PUSH1 0x11 PUSH1 0x0 SWAP1 SLOAD SWAP1 PUSH2 0x100 EXP SWAP1 DIV PUSH1 0xFF AND PUSH1 0x1 DUP2 GT ISZERO PUSH2 0x3CC JUMPI PUSH2 0x3CB PUSH2 0x254C JUMP JUMPDEST JUMPDEST EQ PUSH2 0x40C JUMPI PUSH1 0x40 MLOAD PUSH32 0x8C379A000000000000000000000000000000000000000000000000000000000 DUP2 MSTORE PUSH1 0x4 ADD PUSH2 0x403 SWAP1 PUSH2 0x286D JUMP JUMPDEST PUSH1 0x40 MLOAD DUP1 SWAP2 SUB SWAP1 REVERT JUMPDEST PUSH2 0x416 CALLER DUP3 PUSH2 0x1737 JUMP JUMPDEST PUSH1 0x10 CALLER SWAP1 DUP1 PUSH1 0x1 DUP2 SLOAD ADD DUP1 DUP3 SSTORE DUP1 SWAP2 POP POP PUSH1 0x1 SWAP1 SUB SWAP1 PUSH1 0x0 MSTORE PUSH1 0x20 PUSH1 0x0 KECCAK256 ADD PUSH1 0x0 SWAP1 SWAP2 SWAP1 SWAP2 SWAP1 SWAP2 PUSH2 0x100 EXP DUP2 SLOAD DUP2 PUSH20 0xFFFFFFFFFFFFFFFFFFFFFFFFFFFFFFFFFFFFFFFF MUL NOT AND SWAP1 DUP4 PUSH20 0xFFFFFFFFFFFFFFFFFFFFFFFFFFFFFFFFFFFFFFFF AND MUL OR SWAP1 SSTORE POP POP JUMP JUMPDEST PUSH1 0x0 PUSH2 0x496 PUSH1 0x40 MLOAD DUP1 PUSH1 0x20 ADD PUSH1 0x40 MSTORE DUP1 PUSH1 0x0 DUP2 MSTORE POP PUSH2 0x774 JUMP JUMPDEST POP SWAP1 POP DUP1 ISZERO PUSH2 0x4DA JUMPI PUSH1 0x40 MLOAD PUSH32 0x8C379A000000000000000000000000000000000000000000000000000000000 DUP2 MSTORE PUSH1 0x4 ADD PUSH2 0x4D1 SWAP1 PUSH2 0x28D9 JUMP JUMPDEST PUSH1 0x40 MLOAD DUP1 SWAP2 SUB SWAP1 REVERT JUMPDEST PUSH1 0x0 PUSH1 0x11 PUSH1 0x0 PUSH2 0x100 EXP DUP2 SLOAD DUP2 PUSH1 0xFF MUL NOT AND SWAP1 DUP4 PUSH1 0x1 DUP2 GT ISZERO PUSH2 0x500 JUMPI PUSH2 0x4FF PUSH2 0x254C JUMP JUMPDEST JUMPDEST MUL OR SWAP1 SSTORE POP PUSH1 0x0 PUSH32 0x0 PUSH20 0xFFFFFFFFFFFFFFFFFFFFFFFFFFFFFFFFFFFFFFFF AND PUSH4 0xD33D44C1 PUSH32 0x0 PUSH32 0x0 PUSH32 0x0 PUSH32 0x0 PUSH1 0x3 PUSH1 0x40 MLOAD DUP7 PUSH4 0xFFFFFFFF AND PUSH1 0xE0 SHL DUP2 MSTORE PUSH1 0x4 ADD PUSH2 0x5E9 SWAP6 SWAP5 SWAP4 SWAP3 SWAP2 SWAP1 PUSH2 0x2930 JUMP JUMPDEST PUSH1 0x20 PUSH1 0x40 MLOAD DUP1 DUP4 SUB DUP2 PUSH1 0x0 DUP8 GAS CALL ISZERO DUP1 ISZERO PUSH2 0x608 JUMPI RETURNDATASIZE PUSH1 0x0 DUP1 RETURNDATACOPY RETURNDATASIZE PUSH1 0x0 REVERT JUMPDEST POP POP POP POP PUSH1 0x40 MLOAD RETURNDATASIZE PUSH1 0x1F NOT PUSH1 0x1F DUP3 ADD AND DUP3 ADD DUP1 PUSH1 0x40 MSTORE POP DUP2 ADD SWAP1 PUSH2 0x62C SWAP2 SWAP1 PUSH2 0x2998 JUMP JUMPDEST SWAP1 POP PUSH1 0x40 MLOAD DUP1 PUSH1 0x60 ADD PUSH1 0x40 MSTORE DUP1 PUSH1 0x0 ISZERO ISZERO DUP2 MSTORE PUSH1 0x20 ADD PUSH1 0x1 ISZERO ISZERO DUP2 MSTORE PUSH1 0x20 ADD PUSH1 0x0 PUSH8 0xFFFFFFFFFFFFFFFF DUP2 GT ISZERO PUSH2 0x666 JUMPI PUSH2 0x665 PUSH2 0x1D6F JUMP JUMPDEST JUMPDEST PUSH1 0x40 MLOAD SWAP1 DUP1 DUP3 MSTORE DUP1 PUSH1 0x20 MUL PUSH1 0x20 ADD DUP3 ADD PUSH1 0x40 MSTORE DUP1 ISZERO PUSH2 0x694 JUMPI DUP2 PUSH1 0x20 ADD PUSH1 0x20 DUP3 MUL DUP1 CALLDATASIZE DUP4 CALLDATACOPY DUP1 DUP3 ADD SWAP2 POP POP SWAP1 POP JUMPDEST POP DUP2 MSTORE POP PUSH1 0x12 PUSH1 0x0 DUP4 DUP2 MSTORE PUSH1 0x20 ADD SWAP1 DUP2 MSTORE PUSH1 0x20 ADD PUSH1 0x0 KECCAK256 PUSH1 0x0 DUP3 ADD MLOAD DUP2 PUSH1 0x0 ADD PUSH1 0x0 PUSH2 0x100 EXP DUP2 SLOAD DUP2 PUSH1 0xFF MUL NOT AND SWAP1 DUP4 ISZERO ISZERO MUL OR SWAP1 SSTORE POP PUSH1 0x20 DUP3 ADD MLOAD DUP2 PUSH1 0x0 ADD PUSH1 0x1 PUSH2 0x100 EXP DUP2 SLOAD DUP2 PUSH1 0xFF MUL NOT AND SWAP1 DUP4 ISZERO ISZERO MUL OR SWAP1 SSTORE POP PUSH1 0x40 DUP3 ADD MLOAD DUP2 PUSH1 0x1 ADD SWAP1 DUP1 MLOAD SWAP1 PUSH1 0x20 ADD SWAP1 PUSH2 0x707 SWAP3 SWAP2 SWAP1 PUSH2 0x1B6F JUMP JUMPDEST POP SWAP1 POP POP PUSH1 0x13 DUP2 SWAP1 DUP1 PUSH1 0x1 DUP2 SLOAD ADD DUP1 DUP3 SSTORE DUP1 SWAP2 POP POP PUSH1 0x1 SWAP1 SUB SWAP1 PUSH1 0x0 MSTORE PUSH1 0x20 PUSH1 0x0 KECCAK256 ADD PUSH1 0x0 SWAP1 SWAP2 SWAP1 SWAP2 SWAP1 SWAP2 POP SSTORE PUSH32 0xCC58B13AD3EAB50626C6A6300B1D139CD6EBB1688A7CCED9461C2F7E762665EE DUP2 PUSH1 0x3 PUSH1 0x40 MLOAD PUSH2 0x766 SWAP3 SWAP2 SWAP1 PUSH2 0x29C5 JUMP JUMPDEST PUSH1 0x40 MLOAD DUP1 SWAP2 SUB SWAP1 LOG1 POP POP POP POP JUMP JUMPDEST PUSH1 0x0 PUSH1 0x60 PUSH1 0x0 PUSH1 0x10 DUP1 SLOAD SWAP1 POP GT ISZERO PUSH2 0x78F JUMPI PUSH1 0x1 SWAP2 POP PUSH2 0x794 JUMP JUMPDEST PUSH1 0x0 SWAP2 POP JUMPDEST SWAP2 POP SWAP2 JUMP JUMPDEST PUSH1 0x13 DUP2 DUP2 SLOAD DUP2 LT PUSH2 0x7A9 JUMPI PUSH1 0x0 DUP1 REVERT JUMPDEST SWAP1 PUSH1 0x0 MSTORE PUSH1 0x20 PUSH1 0x0 KECCAK256 ADD PUSH1 0x0 SWAP2 POP SWAP1 POP SLOAD DUP2 JUMP JUMPDEST PUSH1 0x12 PUSH1 0x20 MSTORE DUP1 PUSH1 0x0 MSTORE PUSH1 0x40 PUSH1 0x0 KECCAK256 PUSH1 0x0 SWAP2 POP SWAP1 POP DUP1 PUSH1 0x0 ADD PUSH1 0x0 SWAP1 SLOAD SWAP1 PUSH2 0x100 EXP SWAP1 DIV PUSH1 0xFF AND SWAP1 DUP1 PUSH1 0x0 ADD PUSH1 0x1 SWAP1 SLOAD SWAP1 PUSH2 0x100 EXP SWAP1 DIV PUSH1 0xFF AND SWAP1 POP DUP3 JUMP JUMPDEST PUSH1 0x0 PUSH1 0x11 PUSH1 0x0 SWAP1 SLOAD SWAP1 PUSH2 0x100 EXP SWAP1 DIV PUSH1 0xFF AND SWAP1 POP SWAP1 JUMP JUMPDEST PUSH1 0x10 DUP2 DUP2 SLOAD DUP2 LT PUSH2 0x822 JUMPI PUSH1 0x0 DUP1 REVERT JUMPDEST SWAP1 PUSH1 0x0 MSTORE PUSH1 0x20 PUSH1 0x0 KECCAK256 ADD PUSH1 0x0 SWAP2 POP SLOAD SWAP1 PUSH2 0x100 EXP SWAP1 DIV PUSH20 0xFFFFFFFFFFFFFFFFFFFFFFFFFFFFFFFFFFFFFFFF AND DUP2 JUMP JUMPDEST PUSH1 0x0 DUP3 PUSH1 0x5 DUP2 LT PUSH2 0x861 JUMPI PUSH1 0x0 DUP1 REVERT JUMPDEST PUSH1 0x3 MUL ADD DUP2 PUSH1 0x3 DUP2 LT PUSH2 0x873 JUMPI PUSH1 0x0 DUP1 REVERT JUMPDEST ADD PUSH1 0x0 SWAP2 POP SWAP2 POP POP SLOAD DUP2 JUMP JUMPDEST PUSH1 0x60 PUSH1 0x10 DUP1 SLOAD DUP1 PUSH1 0x20 MUL PUSH1 0x20 ADD PUSH1 0x40 MLOAD SWAP1 DUP2 ADD PUSH1 0x40 MSTORE DUP1 SWAP3 SWAP2 SWAP1 DUP2 DUP2 MSTORE PUSH1 0x20 ADD DUP3 DUP1 SLOAD DUP1 ISZERO PUSH2 0x903 JUMPI PUSH1 0x20 MUL DUP3 ADD SWAP2 SWAP1 PUSH1 0x0 MSTORE PUSH1 0x20 PUSH1 0x0 KECCAK256 SWAP1 JUMPDEST DUP2 PUSH1 0x0 SWAP1 SLOAD SWAP1 PUSH2 0x100 EXP SWAP1 DIV PUSH20 0xFFFFFFFFFFFFFFFFFFFFFFFFFFFFFFFFFFFFFFFF AND PUSH20 0xFFFFFFFFFFFFFFFFFFFFFFFFFFFFFFFFFFFFFFFF AND DUP2 MSTORE PUSH1 0x20 ADD SWAP1 PUSH1 0x1 ADD SWAP1 DUP1 DUP4 GT PUSH2 0x8B9 JUMPI JUMPDEST POP POP POP POP POP SWAP1 POP SWAP1 JUMP JUMPDEST PUSH1 0x12 PUSH1 0x0 DUP4 DUP2 MSTORE PUSH1 0x20 ADD SWAP1 DUP2 MSTORE PUSH1 0x20 ADD PUSH1 0x0 KECCAK256 PUSH1 0x0 ADD PUSH1 0x1 SWAP1 SLOAD SWAP1 PUSH2 0x100 EXP SWAP1 DIV PUSH1 0xFF AND PUSH2 0x970 JUMPI PUSH1 0x40 MLOAD PUSH32 0x8C379A000000000000000000000000000000000000000000000000000000000 DUP2 MSTORE PUSH1 0x4 ADD PUSH2 0x967 SWAP1 PUSH2 0x2A3A JUMP JUMPDEST PUSH1 0x40 MLOAD DUP1 SWAP2 SUB SWAP1 REVERT JUMPDEST PUSH1 0x0 JUMPDEST PUSH1 0x10 DUP1 SLOAD SWAP1 POP DUP2 LT ISZERO PUSH2 0x1663 JUMPI PUSH1 0x0 DUP1 PUSH1 0x10 DUP4 DUP2 SLOAD DUP2 LT PUSH2 0x997 JUMPI PUSH2 0x996 PUSH2 0x2A5A JUMP JUMPDEST JUMPDEST SWAP1 PUSH1 0x0 MSTORE PUSH1 0x20 PUSH1 0x0 KECCAK256 ADD PUSH1 0x0 SWAP1 SLOAD SWAP1 PUSH2 0x100 EXP SWAP1 DIV PUSH20 0xFFFFFFFFFFFFFFFFFFFFFFFFFFFFFFFFFFFFFFFF AND SWAP1 POP PUSH1 0x0 PUSH1 0xF PUSH1 0x0 DUP4 PUSH20 0xFFFFFFFFFFFFFFFFFFFFFFFFFFFFFFFFFFFFFFFF AND PUSH20 0xFFFFFFFFFFFFFFFFFFFFFFFFFFFFFFFFFFFFFFFF AND DUP2 MSTORE PUSH1 0x20 ADD SWAP1 DUP2 MSTORE PUSH1 0x20 ADD PUSH1 0x0 KECCAK256 DUP1 SLOAD DUP1 PUSH1 0x20 MUL PUSH1 0x20 ADD PUSH1 0x40 MLOAD SWAP1 DUP2 ADD PUSH1 0x40 MSTORE DUP1 SWAP3 SWAP2 SWAP1 DUP2 DUP2 MSTORE PUSH1 0x20 ADD PUSH1 0x0 SWAP1 JUMPDEST DUP3 DUP3 LT ISZERO PUSH2 0xB33 JUMPI DUP4 DUP3 SWAP1 PUSH1 0x0 MSTORE PUSH1 0x20 PUSH1 0x0 KECCAK256 SWAP1 PUSH1 0x2 MUL ADD PUSH1 0x40 MLOAD DUP1 PUSH1 0x40 ADD PUSH1 0x40 MSTORE SWAP1 DUP2 PUSH1 0x0 DUP3 ADD PUSH1 0x0 SWAP1 SLOAD SWAP1 PUSH2 0x100 EXP SWAP1 DIV PUSH1 0xFF AND PUSH1 0x4 DUP2 GT ISZERO PUSH2 0xA6D JUMPI PUSH2 0xA6C PUSH2 0x254C JUMP JUMPDEST JUMPDEST PUSH1 0x4 DUP2 GT ISZERO PUSH2 0xA7F JUMPI PUSH2 0xA7E PUSH2 0x254C JUMP JUMPDEST JUMPDEST DUP2 MSTORE PUSH1 0x20 ADD PUSH1 0x1 DUP3 ADD DUP1 SLOAD DUP1 PUSH1 0x20 MUL PUSH1 0x20 ADD PUSH1 0x40 MLOAD SWAP1 DUP2 ADD PUSH1 0x40 MSTORE DUP1 SWAP3 SWAP2 SWAP1 DUP2 DUP2 MSTORE PUSH1 0x20 ADD PUSH1 0x0 SWAP1 JUMPDEST DUP3 DUP3 LT ISZERO PUSH2 0xB1C JUMPI DUP4 DUP3 SWAP1 PUSH1 0x0 MSTORE PUSH1 0x20 PUSH1 0x0 KECCAK256 ADD PUSH1 0x40 MLOAD DUP1 PUSH1 0x40 ADD PUSH1 0x40 MSTORE SWAP1 DUP2 PUSH1 0x0 DUP3 ADD PUSH1 0x0 SWAP1 SLOAD SWAP1 PUSH2 0x100 EXP SWAP1 DIV PUSH4 0xFFFFFFFF AND PUSH4 0xFFFFFFFF AND PUSH4 0xFFFFFFFF AND DUP2 MSTORE PUSH1 0x20 ADD PUSH1 0x0 DUP3 ADD PUSH1 0x4 SWAP1 SLOAD SWAP1 PUSH2 0x100 EXP SWAP1 DIV PUSH2 0xFFFF AND PUSH2 0xFFFF AND PUSH2 0xFFFF AND DUP2 MSTORE POP POP DUP2 MSTORE PUSH1 0x20 ADD SWAP1 PUSH1 0x1 ADD SWAP1 PUSH2 0xAA8 JUMP JUMPDEST POP POP POP POP DUP2 MSTORE POP POP DUP2 MSTORE PUSH1 0x20 ADD SWAP1 PUSH1 0x1 ADD SWAP1 PUSH2 0xA25 JUMP JUMPDEST POP POP POP POP SWAP1 POP PUSH1 0x0 JUMPDEST DUP2 MLOAD DUP2 LT ISZERO PUSH2 0x1559 JUMPI PUSH1 0x0 DUP3 DUP3 DUP2 MLOAD DUP2 LT PUSH2 0xB5A JUMPI PUSH2 0xB59 PUSH2 0x2A5A JUMP JUMPDEST JUMPDEST PUSH1 0x20 MUL PUSH1 0x20 ADD ADD MLOAD SWAP1 POP PUSH1 0x0 DUP2 PUSH1 0x20 ADD MLOAD SWAP1 POP PUSH1 0x1 PUSH1 0x4 DUP2 GT ISZERO PUSH2 0xB81 JUMPI PUSH2 0xB80 PUSH2 0x254C JUMP JUMPDEST JUMPDEST DUP3 PUSH1 0x0 ADD MLOAD PUSH1 0x4 DUP2 GT ISZERO PUSH2 0xB98 JUMPI PUSH2 0xB97 PUSH2 0x254C JUMP JUMPDEST JUMPDEST SUB PUSH2 0xD4F JUMPI PUSH1 0x0 DUP9 PUSH1 0x2 DUP2 MLOAD DUP2 LT PUSH2 0xBB3 JUMPI PUSH2 0xBB2 PUSH2 0x2A5A JUMP JUMPDEST JUMPDEST PUSH1 0x20 MUL PUSH1 0x20 ADD ADD MLOAD DUP10 PUSH1 0x1 DUP2 MLOAD DUP2 LT PUSH2 0xBCF JUMPI PUSH2 0xBCE PUSH2 0x2A5A JUMP JUMPDEST JUMPDEST PUSH1 0x20 MUL PUSH1 0x20 ADD ADD MLOAD DUP11 PUSH1 0x0 DUP2 MLOAD DUP2 LT PUSH2 0xBEB JUMPI PUSH2 0xBEA PUSH2 0x2A5A JUMP JUMPDEST JUMPDEST PUSH1 0x20 MUL PUSH1 0x20 ADD ADD MLOAD PUSH2 0xBFD SWAP2 SWAP1 PUSH2 0x2AB8 JUMP JUMPDEST PUSH2 0xC07 SWAP2 SWAP1 PUSH2 0x2AB8 JUMP JUMPDEST SWAP1 POP PUSH1 0x0 JUMPDEST DUP3 MLOAD DUP2 LT ISZERO PUSH2 0xD48 JUMPI PUSH1 0x0 DUP4 DUP3 DUP2 MLOAD DUP2 LT PUSH2 0xC2A JUMPI PUSH2 0xC29 PUSH2 0x2A5A JUMP JUMPDEST JUMPDEST PUSH1 0x20 MUL PUSH1 0x20 ADD ADD MLOAD SWAP1 POP PUSH1 0x3 DUP4 LT ISZERO DUP1 ISZERO PUSH2 0xC46 JUMPI POP PUSH1 0x9 DUP4 GT ISZERO JUMPDEST DUP1 ISZERO PUSH2 0xC5C JUMPI POP PUSH1 0x0 DUP2 PUSH1 0x0 ADD MLOAD PUSH4 0xFFFFFFFF AND EQ JUMPDEST DUP1 PUSH2 0xC8B JUMPI POP PUSH1 0xC DUP4 LT ISZERO DUP1 ISZERO PUSH2 0xC74 JUMPI POP PUSH1 0x12 DUP4 GT ISZERO JUMPDEST DUP1 ISZERO PUSH2 0xC8A JUMPI POP PUSH1 0x2 DUP2 PUSH1 0x0 ADD MLOAD PUSH4 0xFFFFFFFF AND EQ JUMPDEST JUMPDEST ISZERO PUSH2 0xCD6 JUMPI PUSH1 0x2 PUSH1 0x3 PUSH8 0x16345785D8A0000 DUP4 PUSH1 0x20 ADD MLOAD PUSH2 0xFFFF AND PUSH2 0xCB0 SWAP2 SWAP1 PUSH2 0x2AEC JUMP JUMPDEST PUSH2 0xCBA SWAP2 SWAP1 PUSH2 0x2AEC JUMP JUMPDEST PUSH2 0xCC4 SWAP2 SWAP1 PUSH2 0x2B5D JUMP JUMPDEST DUP10 PUSH2 0xCCF SWAP2 SWAP1 PUSH2 0x2AB8 JUMP JUMPDEST SWAP9 POP PUSH2 0xD3A JUMP JUMPDEST PUSH1 0xA DUP4 LT ISZERO DUP1 ISZERO PUSH2 0xCE8 JUMPI POP PUSH1 0xB DUP4 GT ISZERO JUMPDEST DUP1 ISZERO PUSH2 0xCFE JUMPI POP PUSH1 0x1 DUP2 PUSH1 0x0 ADD MLOAD PUSH4 0xFFFFFFFF AND EQ JUMPDEST ISZERO PUSH2 0xD39 JUMPI PUSH1 0x2 PUSH8 0x16345785D8A0000 DUP3 PUSH1 0x20 ADD MLOAD PUSH2 0xFFFF AND PUSH2 0xD21 SWAP2 SWAP1 PUSH2 0x2AEC JUMP JUMPDEST PUSH2 0xD2B SWAP2 SWAP1 PUSH2 0x2AEC JUMP JUMPDEST DUP10 PUSH2 0xD36 SWAP2 SWAP1 PUSH2 0x2AB8 JUMP JUMPDEST SWAP9 POP JUMPDEST JUMPDEST POP DUP1 DUP1 PUSH1 0x1 ADD SWAP2 POP POP PUSH2 0xC0C JUMP JUMPDEST POP POP PUSH2 0x154A JUMP JUMPDEST PUSH1 0x0 PUSH1 0x4 DUP2 GT ISZERO PUSH2 0xD63 JUMPI PUSH2 0xD62 PUSH2 0x254C JUMP JUMPDEST JUMPDEST DUP3 PUSH1 0x0 ADD MLOAD PUSH1 0x4 DUP2 GT ISZERO PUSH2 0xD7A JUMPI PUSH2 0xD79 PUSH2 0x254C JUMP JUMPDEST JUMPDEST SUB PUSH2 0x10D4 JUMPI PUSH1 0x0 DUP9 PUSH1 0x2 DUP2 MLOAD DUP2 LT PUSH2 0xD95 JUMPI PUSH2 0xD94 PUSH2 0x2A5A JUMP JUMPDEST JUMPDEST PUSH1 0x20 MUL PUSH1 0x20 ADD ADD MLOAD DUP10 PUSH1 0x1 DUP2 MLOAD DUP2 LT PUSH2 0xDB1 JUMPI PUSH2 0xDB0 PUSH2 0x2A5A JUMP JUMPDEST JUMPDEST PUSH1 0x20 MUL PUSH1 0x20 ADD ADD MLOAD DUP11 PUSH1 0x0 DUP2 MLOAD DUP2 LT PUSH2 0xDCD JUMPI PUSH2 0xDCC PUSH2 0x2A5A JUMP JUMPDEST JUMPDEST PUSH1 0x20 MUL PUSH1 0x20 ADD ADD MLOAD PUSH2 0xDDF SWAP2 SWAP1 PUSH2 0x2AB8 JUMP JUMPDEST PUSH2 0xDE9 SWAP2 SWAP1 PUSH2 0x2AB8 JUMP JUMPDEST SWAP1 POP PUSH1 0x0 JUMPDEST DUP3 MLOAD DUP2 LT ISZERO PUSH2 0x10CD JUMPI PUSH1 0x0 DUP4 DUP3 DUP2 MLOAD DUP2 LT PUSH2 0xE0C JUMPI PUSH2 0xE0B PUSH2 0x2A5A JUMP JUMPDEST JUMPDEST PUSH1 0x20 MUL PUSH1 0x20 ADD ADD MLOAD SWAP1 POP DUP3 DUP2 PUSH1 0x0 ADD MLOAD PUSH4 0xFFFFFFFF AND SUB PUSH2 0x10BF JUMPI PUSH1 0x3 DUP4 EQ DUP1 PUSH2 0xE36 JUMPI POP PUSH1 0x12 DUP4 EQ JUMPDEST ISZERO PUSH2 0xE75 JUMPI PUSH1 0x78 PUSH8 0x16345785D8A0000 DUP3 PUSH1 0x20 ADD MLOAD PUSH2 0xFFFF AND PUSH2 0xE59 SWAP2 SWAP1 PUSH2 0x2AEC JUMP JUMPDEST PUSH2 0xE63 SWAP2 SWAP1 PUSH2 0x2AEC JUMP JUMPDEST DUP10 PUSH2 0xE6E SWAP2 SWAP1 PUSH2 0x2AB8 JUMP JUMPDEST SWAP9 POP PUSH2 0x10BE JUMP JUMPDEST PUSH1 0x4 DUP4 EQ DUP1 PUSH2 0xE84 JUMPI POP PUSH1 0x11 DUP4 EQ JUMPDEST ISZERO PUSH2 0xEC3 JUMPI PUSH1 0x28 PUSH8 0x16345785D8A0000 DUP3 PUSH1 0x20 ADD MLOAD PUSH2 0xFFFF AND PUSH2 0xEA7 SWAP2 SWAP1 PUSH2 0x2AEC JUMP JUMPDEST PUSH2 0xEB1 SWAP2 SWAP1 PUSH2 0x2AEC JUMP JUMPDEST DUP10 PUSH2 0xEBC SWAP2 SWAP1 PUSH2 0x2AB8 JUMP JUMPDEST SWAP9 POP PUSH2 0x10BD JUMP JUMPDEST PUSH1 0x5 DUP4 EQ DUP1 PUSH2 0xED2 JUMPI POP PUSH1 0x10 DUP4 EQ JUMPDEST ISZERO PUSH2 0xF11 JUMPI PUSH1 0x14 PUSH8 0x16345785D8A0000 DUP3 PUSH1 0x20 ADD MLOAD PUSH2 0xFFFF AND PUSH2 0xEF5 SWAP2 SWAP1 PUSH2 0x2AEC JUMP JUMPDEST PUSH2 0xEFF SWAP2 SWAP1 PUSH2 0x2AEC JUMP JUMPDEST DUP10 PUSH2 0xF0A SWAP2 SWAP1 PUSH2 0x2AB8 JUMP JUMPDEST SWAP9 POP PUSH2 0x10BC JUMP JUMPDEST PUSH1 0x6 DUP4 EQ DUP1 PUSH2 0xF20 JUMPI POP PUSH1 0xF DUP4 EQ JUMPDEST ISZERO PUSH2 0xF5F JUMPI PUSH1 0xC PUSH8 0x16345785D8A0000 DUP3 PUSH1 0x20 ADD MLOAD PUSH2 0xFFFF AND PUSH2 0xF43 SWAP2 SWAP1 PUSH2 0x2AEC JUMP JUMPDEST PUSH2 0xF4D SWAP2 SWAP1 PUSH2 0x2AEC JUMP JUMPDEST DUP10 PUSH2 0xF58 SWAP2 SWAP1 PUSH2 0x2AB8 JUMP JUMPDEST SWAP9 POP PUSH2 0x10BB JUMP JUMPDEST PUSH1 0x7 DUP4 EQ DUP1 PUSH2 0xF6E JUMPI POP PUSH1 0xE DUP4 EQ JUMPDEST ISZERO PUSH2 0xFAD JUMPI PUSH1 0x8 PUSH8 0x16345785D8A0000 DUP3 PUSH1 0x20 ADD MLOAD PUSH2 0xFFFF AND PUSH2 0xF91 SWAP2 SWAP1 PUSH2 0x2AEC JUMP JUMPDEST PUSH2 0xF9B SWAP2 SWAP1 PUSH2 0x2AEC JUMP JUMPDEST DUP10 PUSH2 0xFA6 SWAP2 SWAP1 PUSH2 0x2AB8 JUMP JUMPDEST SWAP9 POP PUSH2 0x10BA JUMP JUMPDEST PUSH1 0x8 DUP4 EQ DUP1 PUSH2 0xFBC JUMPI POP PUSH1 0xD DUP4 EQ JUMPDEST ISZERO PUSH2 0x1007 JUMPI PUSH1 0x2 PUSH1 0xB PUSH8 0x16345785D8A0000 DUP4 PUSH1 0x20 ADD MLOAD PUSH2 0xFFFF AND PUSH2 0xFE1 SWAP2 SWAP1 PUSH2 0x2AEC JUMP JUMPDEST PUSH2 0xFEB SWAP2 SWAP1 PUSH2 0x2AEC JUMP JUMPDEST PUSH2 0xFF5 SWAP2 SWAP1 PUSH2 0x2B5D JUMP JUMPDEST DUP10 PUSH2 0x1000 SWAP2 SWAP1 PUSH2 0x2AB8 JUMP JUMPDEST SWAP9 POP PUSH2 0x10B9 JUMP JUMPDEST PUSH1 0x9 DUP4 EQ DUP1 PUSH2 0x1016 JUMPI POP PUSH1 0xC DUP4 EQ JUMPDEST ISZERO PUSH2 0x1061 JUMPI PUSH1 0xA PUSH1 0x2F PUSH8 0x16345785D8A0000 DUP4 PUSH1 0x20 ADD MLOAD PUSH2 0xFFFF AND PUSH2 0x103B SWAP2 SWAP1 PUSH2 0x2AEC JUMP JUMPDEST PUSH2 0x1045 SWAP2 SWAP1 PUSH2 0x2AEC JUMP JUMPDEST PUSH2 0x104F SWAP2 SWAP1 PUSH2 0x2B5D JUMP JUMPDEST DUP10 PUSH2 0x105A SWAP2 SWAP1 PUSH2 0x2AB8 JUMP JUMPDEST SWAP9 POP PUSH2 0x10B8 JUMP JUMPDEST PUSH1 0xA DUP4 EQ DUP1 PUSH2 0x1070 JUMPI POP PUSH1 0xB DUP4 EQ JUMPDEST ISZERO PUSH2 0x10B7 JUMPI PUSH1 0x5 PUSH1 0x16 PUSH8 0x16345785D8A0000 DUP4 PUSH1 0x20 ADD MLOAD PUSH2 0xFFFF AND PUSH2 0x1095 SWAP2 SWAP1 PUSH2 0x2AEC JUMP JUMPDEST PUSH2 0x109F SWAP2 SWAP1 PUSH2 0x2AEC JUMP JUMPDEST PUSH2 0x10A9 SWAP2 SWAP1 PUSH2 0x2B5D JUMP JUMPDEST DUP10 PUSH2 0x10B4 SWAP2 SWAP1 PUSH2 0x2AB8 JUMP JUMPDEST SWAP9 POP JUMPDEST JUMPDEST JUMPDEST JUMPDEST JUMPDEST JUMPDEST JUMPDEST JUMPDEST JUMPDEST POP DUP1 DUP1 PUSH1 0x1 ADD SWAP2 POP POP PUSH2 0xDEE JUMP JUMPDEST POP POP PUSH2 0x1549 JUMP JUMPDEST PUSH1 0x2 PUSH1 0x4 DUP2 GT ISZERO PUSH2 0x10E8 JUMPI PUSH2 0x10E7 PUSH2 0x254C JUMP JUMPDEST JUMPDEST DUP3 PUSH1 0x0 ADD MLOAD PUSH1 0x4 DUP2 GT ISZERO PUSH2 0x10FF JUMPI PUSH2 0x10FE PUSH2 0x254C JUMP JUMPDEST JUMPDEST SUB PUSH2 0x1269 JUMPI PUSH1 0x0 JUMPDEST DUP2 MLOAD DUP2 LT ISZERO PUSH2 0x1263 JUMPI PUSH1 0x0 DUP3 DUP3 DUP2 MLOAD DUP2 LT PUSH2 0x1125 JUMPI PUSH2 0x1124 PUSH2 0x2A5A JUMP JUMPDEST JUMPDEST PUSH1 0x20 MUL PUSH1 0x20 ADD ADD MLOAD SWAP1 POP PUSH1 0x0 DUP1 JUMPDEST DUP12 MLOAD DUP2 LT ISZERO PUSH2 0x1183 JUMPI DUP12 DUP2 DUP2 MLOAD DUP2 LT PUSH2 0x114F JUMPI PUSH2 0x114E PUSH2 0x2A5A JUMP JUMPDEST JUMPDEST PUSH1 0x20 MUL PUSH1 0x20 ADD ADD MLOAD DUP4 PUSH1 0x0 ADD MLOAD PUSH4 0xFFFFFFFF AND SUB PUSH2 0x1176 JUMPI DUP2 DUP1 PUSH2 0x1172 SWAP1 PUSH2 0x2B8E JUMP JUMPDEST SWAP3 POP POP JUMPDEST DUP1 DUP1 PUSH1 0x1 ADD SWAP2 POP POP PUSH2 0x1133 JUMP JUMPDEST POP PUSH1 0x1 DUP2 SUB PUSH2 0x11D2 JUMPI PUSH1 0xA PUSH1 0xC PUSH8 0x16345785D8A0000 DUP5 PUSH1 0x20 ADD MLOAD PUSH2 0xFFFF AND PUSH2 0x11AC SWAP2 SWAP1 PUSH2 0x2AEC JUMP JUMPDEST PUSH2 0x11B6 SWAP2 SWAP1 PUSH2 0x2AEC JUMP JUMPDEST PUSH2 0x11C0 SWAP2 SWAP1 PUSH2 0x2B5D JUMP JUMPDEST DUP10 PUSH2 0x11CB SWAP2 SWAP1 PUSH2 0x2AB8 JUMP JUMPDEST SWAP9 POP PUSH2 0x1254 JUMP JUMPDEST PUSH1 0x2 DUP2 SUB PUSH2 0x1214 JUMPI PUSH1 0x2 PUSH8 0x16345785D8A0000 DUP4 PUSH1 0x20 ADD MLOAD PUSH2 0xFFFF AND PUSH2 0x11F8 SWAP2 SWAP1 PUSH2 0x2AEC JUMP JUMPDEST PUSH2 0x1202 SWAP2 SWAP1 PUSH2 0x2AEC JUMP JUMPDEST DUP10 PUSH2 0x120D SWAP2 SWAP1 PUSH2 0x2AB8 JUMP JUMPDEST SWAP9 POP PUSH2 0x1253 JUMP JUMPDEST PUSH1 0x3 DUP2 SUB PUSH2 0x1252 JUMPI PUSH1 0x3 PUSH8 0x16345785D8A0000 DUP4 PUSH1 0x20 ADD MLOAD PUSH2 0xFFFF AND PUSH2 0x123A SWAP2 SWAP1 PUSH2 0x2AEC JUMP JUMPDEST PUSH2 0x1244 SWAP2 SWAP1 PUSH2 0x2AEC JUMP JUMPDEST DUP10 PUSH2 0x124F SWAP2 SWAP1 PUSH2 0x2AB8 JUMP JUMPDEST SWAP9 POP JUMPDEST JUMPDEST JUMPDEST POP POP DUP1 DUP1 PUSH1 0x1 ADD SWAP2 POP POP PUSH2 0x1107 JUMP JUMPDEST POP PUSH2 0x1548 JUMP JUMPDEST PUSH1 0x3 PUSH1 0x4 DUP2 GT ISZERO PUSH2 0x127D JUMPI PUSH2 0x127C PUSH2 0x254C JUMP JUMPDEST JUMPDEST DUP3 PUSH1 0x0 ADD MLOAD PUSH1 0x4 DUP2 GT ISZERO PUSH2 0x1294 JUMPI PUSH2 0x1293 PUSH2 0x254C JUMP JUMPDEST JUMPDEST SUB PUSH2 0x1378 JUMPI PUSH1 0x0 JUMPDEST DUP2 MLOAD DUP2 LT ISZERO PUSH2 0x1372 JUMPI PUSH1 0x0 DUP3 DUP3 DUP2 MLOAD DUP2 LT PUSH2 0x12BA JUMPI PUSH2 0x12B9 PUSH2 0x2A5A JUMP JUMPDEST JUMPDEST PUSH1 0x20 MUL PUSH1 0x20 ADD ADD MLOAD SWAP1 POP PUSH1 0x0 DUP1 JUMPDEST DUP12 MLOAD DUP2 LT ISZERO PUSH2 0x1318 JUMPI DUP12 DUP2 DUP2 MLOAD DUP2 LT PUSH2 0x12E4 JUMPI PUSH2 0x12E3 PUSH2 0x2A5A JUMP JUMPDEST JUMPDEST PUSH1 0x20 MUL PUSH1 0x20 ADD ADD MLOAD DUP4 PUSH1 0x0 ADD MLOAD PUSH4 0xFFFFFFFF AND SUB PUSH2 0x130B JUMPI DUP2 DUP1 PUSH2 0x1307 SWAP1 PUSH2 0x2B8E JUMP JUMPDEST SWAP3 POP POP JUMPDEST DUP1 DUP1 PUSH1 0x1 ADD SWAP2 POP POP PUSH2 0x12C8 JUMP JUMPDEST POP PUSH1 0x2 DUP2 LT PUSH2 0x1363 JUMPI PUSH1 0xA PUSH1 0x4B PUSH8 0x16345785D8A0000 DUP5 PUSH1 0x20 ADD MLOAD PUSH2 0xFFFF AND PUSH2 0x1341 SWAP2 SWAP1 PUSH2 0x2AEC JUMP JUMPDEST PUSH2 0x134B SWAP2 SWAP1 PUSH2 0x2AEC JUMP JUMPDEST PUSH2 0x1355 SWAP2 SWAP1 PUSH2 0x2B5D JUMP JUMPDEST DUP10 PUSH2 0x1360 SWAP2 SWAP1 PUSH2 0x2AB8 JUMP JUMPDEST SWAP9 POP JUMPDEST POP POP DUP1 DUP1 PUSH1 0x1 ADD SWAP2 POP POP PUSH2 0x129C JUMP JUMPDEST POP PUSH2 0x1547 JUMP JUMPDEST PUSH1 0x4 DUP1 DUP2 GT ISZERO PUSH2 0x138B JUMPI PUSH2 0x138A PUSH2 0x254C JUMP JUMPDEST JUMPDEST DUP3 PUSH1 0x0 ADD MLOAD PUSH1 0x4 DUP2 GT ISZERO PUSH2 0x13A2 JUMPI PUSH2 0x13A1 PUSH2 0x254C JUMP JUMPDEST JUMPDEST SUB PUSH2 0x1546 JUMPI PUSH1 0x0 JUMPDEST DUP2 MLOAD DUP2 LT ISZERO PUSH2 0x1544 JUMPI PUSH1 0x0 DUP3 DUP3 DUP2 MLOAD DUP2 LT PUSH2 0x13C8 JUMPI PUSH2 0x13C7 PUSH2 0x2A5A JUMP JUMPDEST JUMPDEST PUSH1 0x20 MUL PUSH1 0x20 ADD ADD MLOAD SWAP1 POP PUSH1 0x0 DUP1 JUMPDEST DUP12 MLOAD DUP2 LT ISZERO PUSH2 0x1426 JUMPI DUP12 DUP2 DUP2 MLOAD DUP2 LT PUSH2 0x13F2 JUMPI PUSH2 0x13F1 PUSH2 0x2A5A JUMP JUMPDEST JUMPDEST PUSH1 0x20 MUL PUSH1 0x20 ADD ADD MLOAD DUP4 PUSH1 0x0 ADD MLOAD PUSH4 0xFFFFFFFF AND SUB PUSH2 0x1419 JUMPI DUP2 DUP1 PUSH2 0x1415 SWAP1 PUSH2 0x2B8E JUMP JUMPDEST SWAP3 POP POP JUMPDEST DUP1 DUP1 PUSH1 0x1 ADD SWAP2 POP POP PUSH2 0x13D6 JUMP JUMPDEST POP PUSH1 0x3 DUP2 SUB PUSH2 0x1469 JUMPI PUSH1 0x78 PUSH8 0x16345785D8A0000 DUP4 PUSH1 0x20 ADD MLOAD PUSH2 0xFFFF AND PUSH2 0x144D SWAP2 SWAP1 PUSH2 0x2AEC JUMP JUMPDEST PUSH2 0x1457 SWAP2 SWAP1 PUSH2 0x2AEC JUMP JUMPDEST DUP10 PUSH2 0x1462 SWAP2 SWAP1 PUSH2 0x2AB8 JUMP JUMPDEST SWAP9 POP PUSH2 0x1535 JUMP JUMPDEST DUP11 PUSH1 0x1 DUP2 MLOAD DUP2 LT PUSH2 0x147D JUMPI PUSH2 0x147C PUSH2 0x2A5A JUMP JUMPDEST JUMPDEST PUSH1 0x20 MUL PUSH1 0x20 ADD ADD MLOAD DUP12 PUSH1 0x0 DUP2 MLOAD DUP2 LT PUSH2 0x1499 JUMPI PUSH2 0x1498 PUSH2 0x2A5A JUMP JUMPDEST JUMPDEST PUSH1 0x20 MUL PUSH1 0x20 ADD ADD MLOAD EQ DUP1 ISZERO PUSH2 0x14E3 JUMPI POP DUP11 PUSH1 0x2 DUP2 MLOAD DUP2 LT PUSH2 0x14BD JUMPI PUSH2 0x14BC PUSH2 0x2A5A JUMP JUMPDEST JUMPDEST PUSH1 0x20 MUL PUSH1 0x20 ADD ADD MLOAD DUP12 PUSH1 0x1 DUP2 MLOAD DUP2 LT PUSH2 0x14D9 JUMPI PUSH2 0x14D8 PUSH2 0x2A5A JUMP JUMPDEST JUMPDEST PUSH1 0x20 MUL PUSH1 0x20 ADD ADD MLOAD EQ JUMPDEST DUP1 ISZERO PUSH2 0x14F9 JUMPI POP PUSH1 0x7 DUP3 PUSH1 0x0 ADD MLOAD PUSH4 0xFFFFFFFF AND EQ JUMPDEST ISZERO PUSH2 0x1534 JUMPI PUSH1 0x14 PUSH8 0x16345785D8A0000 DUP4 PUSH1 0x20 ADD MLOAD PUSH2 0xFFFF AND PUSH2 0x151C SWAP2 SWAP1 PUSH2 0x2AEC JUMP JUMPDEST PUSH2 0x1526 SWAP2 SWAP1 PUSH2 0x2AEC JUMP JUMPDEST DUP10 PUSH2 0x1531 SWAP2 SWAP1 PUSH2 0x2AB8 JUMP JUMPDEST SWAP9 POP JUMPDEST JUMPDEST POP POP DUP1 DUP1 PUSH1 0x1 ADD SWAP2 POP POP PUSH2 0x13AA JUMP JUMPDEST POP JUMPDEST JUMPDEST JUMPDEST JUMPDEST JUMPDEST POP POP DUP1 DUP1 PUSH1 0x1 ADD SWAP2 POP POP PUSH2 0xB3C JUMP JUMPDEST POP PUSH1 0x0 DUP4 GT ISZERO PUSH2 0x1653 JUMPI DUP3 SELFBALANCE GT PUSH2 0x15A5 JUMPI PUSH1 0x40 MLOAD PUSH32 0x8C379A000000000000000000000000000000000000000000000000000000000 DUP2 MSTORE PUSH1 0x4 ADD PUSH2 0x159C SWAP1 PUSH2 0x2C22 JUMP JUMPDEST PUSH1 0x40 MLOAD DUP1 SWAP2 SUB SWAP1 REVERT JUMPDEST PUSH1 0x0 DUP3 PUSH20 0xFFFFFFFFFFFFFFFFFFFFFFFFFFFFFFFFFFFFFFFF AND DUP5 PUSH1 0x40 MLOAD PUSH2 0x15CB SWAP1 PUSH2 0x2C73 JUMP JUMPDEST PUSH1 0x0 PUSH1 0x40 MLOAD DUP1 DUP4 SUB DUP2 DUP6 DUP8 GAS CALL SWAP3 POP POP POP RETURNDATASIZE DUP1 PUSH1 0x0 DUP2 EQ PUSH2 0x1608 JUMPI PUSH1 0x40 MLOAD SWAP2 POP PUSH1 0x1F NOT PUSH1 0x3F RETURNDATASIZE ADD AND DUP3 ADD PUSH1 0x40 MSTORE RETURNDATASIZE DUP3 MSTORE RETURNDATASIZE PUSH1 0x0 PUSH1 0x20 DUP5 ADD RETURNDATACOPY PUSH2 0x160D JUMP JUMPDEST PUSH1 0x60 SWAP2 POP JUMPDEST POP POP SWAP1 POP DUP1 PUSH2 0x1651 JUMPI PUSH1 0x40 MLOAD PUSH32 0x8C379A000000000000000000000000000000000000000000000000000000000 DUP2 MSTORE PUSH1 0x4 ADD PUSH2 0x1648 SWAP1 PUSH2 0x2CD4 JUMP JUMPDEST PUSH1 0x40 MLOAD DUP1 SWAP2 SUB SWAP1 REVERT JUMPDEST POP JUMPDEST POP POP POP DUP1 DUP1 PUSH1 0x1 ADD SWAP2 POP POP PUSH2 0x973 JUMP JUMPDEST POP PUSH1 0x1 PUSH1 0x12 PUSH1 0x0 DUP5 DUP2 MSTORE PUSH1 0x20 ADD SWAP1 DUP2 MSTORE PUSH1 0x20 ADD PUSH1 0x0 KECCAK256 PUSH1 0x0 ADD PUSH1 0x0 PUSH2 0x100 EXP DUP2 SLOAD DUP2 PUSH1 0xFF MUL NOT AND SWAP1 DUP4 ISZERO ISZERO MUL OR SWAP1 SSTORE POP DUP1 PUSH1 0x12 PUSH1 0x0 DUP5 DUP2 MSTORE PUSH1 0x20 ADD SWAP1 DUP2 MSTORE PUSH1 0x20 ADD PUSH1 0x0 KECCAK256 PUSH1 0x1 ADD SWAP1 DUP1 MLOAD SWAP1 PUSH1 0x20 ADD SWAP1 PUSH2 0x16BD SWAP3 SWAP2 SWAP1 PUSH2 0x1B6F JUMP JUMPDEST POP PUSH32 0xFE2E2D779DBA245964D4E3EF9B994BE63856FD568BF7D3CA9E224755CB1BD54D DUP3 DUP3 PUSH1 0x40 MLOAD PUSH2 0x16EF SWAP3 SWAP2 SWAP1 PUSH2 0x2DB2 JUMP JUMPDEST PUSH1 0x40 MLOAD DUP1 SWAP2 SUB SWAP1 LOG1 PUSH1 0x1 PUSH1 0x11 PUSH1 0x0 PUSH2 0x100 EXP DUP2 SLOAD DUP2 PUSH1 0xFF MUL NOT AND SWAP1 DUP4 PUSH1 0x1 DUP2 GT ISZERO PUSH2 0x171D JUMPI PUSH2 0x171C PUSH2 0x254C JUMP JUMPDEST JUMPDEST MUL OR SWAP1 SSTORE POP PUSH2 0x172A PUSH2 0x192C JUMP JUMPDEST PUSH2 0x1733 DUP2 PUSH2 0x19E9 JUMP JUMPDEST POP POP JUMP JUMPDEST PUSH1 0x0 PUSH1 0xF PUSH1 0x0 DUP5 PUSH20 0xFFFFFFFFFFFFFFFFFFFFFFFFFFFFFFFFFFFFFFFF AND PUSH20 0xFFFFFFFFFFFFFFFFFFFFFFFFFFFFFFFFFFFFFFFF AND DUP2 MSTORE PUSH1 0x20 ADD SWAP1 DUP2 MSTORE PUSH1 0x20 ADD PUSH1 0x0 KECCAK256 SWAP1 POP PUSH1 0xF PUSH1 0x0 DUP5 PUSH20 0xFFFFFFFFFFFFFFFFFFFFFFFFFFFFFFFFFFFFFFFF AND PUSH20 0xFFFFFFFFFFFFFFFFFFFFFFFFFFFFFFFFFFFFFFFF AND DUP2 MSTORE PUSH1 0x20 ADD SWAP1 DUP2 MSTORE PUSH1 0x20 ADD PUSH1 0x0 KECCAK256 PUSH1 0x0 PUSH2 0x17C5 SWAP2 SWAP1 PUSH2 0x1BBC JUMP JUMPDEST PUSH1 0x0 JUMPDEST DUP3 MLOAD DUP2 LT ISZERO PUSH2 0x1926 JUMPI PUSH1 0x0 DUP4 DUP3 DUP2 MLOAD DUP2 LT PUSH2 0x17E6 JUMPI PUSH2 0x17E5 PUSH2 0x2A5A JUMP JUMPDEST JUMPDEST PUSH1 0x20 MUL PUSH1 0x20 ADD ADD MLOAD SWAP1 POP PUSH1 0x0 DUP2 PUSH1 0x20 ADD MLOAD SWAP1 POP PUSH1 0x0 DUP5 PUSH1 0x1 DUP2 PUSH1 0x1 DUP2 SLOAD ADD DUP1 DUP3 SSTORE DUP1 SWAP2 POP POP SUB SWAP1 PUSH1 0x0 MSTORE PUSH1 0x20 PUSH1 0x0 KECCAK256 SWAP1 PUSH1 0x2 MUL ADD PUSH1 0x1 ADD SWAP1 POP PUSH1 0x0 JUMPDEST DUP3 MLOAD DUP2 LT ISZERO PUSH2 0x18C5 JUMPI DUP2 DUP4 DUP3 DUP2 MLOAD DUP2 LT PUSH2 0x183F JUMPI PUSH2 0x183E PUSH2 0x2A5A JUMP JUMPDEST JUMPDEST PUSH1 0x20 MUL PUSH1 0x20 ADD ADD MLOAD SWAP1 DUP1 PUSH1 0x1 DUP2 SLOAD ADD DUP1 DUP3 SSTORE DUP1 SWAP2 POP POP PUSH1 0x1 SWAP1 SUB SWAP1 PUSH1 0x0 MSTORE PUSH1 0x20 PUSH1 0x0 KECCAK256 ADD PUSH1 0x0 SWAP1 SWAP2 SWAP1 SWAP2 SWAP1 SWAP2 POP PUSH1 0x0 DUP3 ADD MLOAD DUP2 PUSH1 0x0 ADD PUSH1 0x0 PUSH2 0x100 EXP DUP2 SLOAD DUP2 PUSH4 0xFFFFFFFF MUL NOT AND SWAP1 DUP4 PUSH4 0xFFFFFFFF AND MUL OR SWAP1 SSTORE POP PUSH1 0x20 DUP3 ADD MLOAD DUP2 PUSH1 0x0 ADD PUSH1 0x4 PUSH2 0x100 EXP DUP2 SLOAD DUP2 PUSH2 0xFFFF MUL NOT AND SWAP1 DUP4 PUSH2 0xFFFF AND MUL OR SWAP1 SSTORE POP POP POP DUP1 DUP1 PUSH1 0x1 ADD SWAP2 POP POP PUSH2 0x1822 JUMP JUMPDEST POP DUP3 PUSH1 0x0 ADD MLOAD DUP6 DUP6 DUP2 SLOAD DUP2 LT PUSH2 0x18DE JUMPI PUSH2 0x18DD PUSH2 0x2A5A JUMP JUMPDEST JUMPDEST SWAP1 PUSH1 0x0 MSTORE PUSH1 0x20 PUSH1 0x0 KECCAK256 SWAP1 PUSH1 0x2 MUL ADD PUSH1 0x0 ADD PUSH1 0x0 PUSH2 0x100 EXP DUP2 SLOAD DUP2 PUSH1 0xFF MUL NOT AND SWAP1 DUP4 PUSH1 0x4 DUP2 GT ISZERO PUSH2 0x1911 JUMPI PUSH2 0x1910 PUSH2 0x254C JUMP JUMPDEST JUMPDEST MUL OR SWAP1 SSTORE POP POP POP POP DUP1 DUP1 PUSH1 0x1 ADD SWAP2 POP POP PUSH2 0x17C8 JUMP JUMPDEST POP POP POP POP JUMP JUMPDEST PUSH1 0x0 JUMPDEST PUSH1 0x10 DUP1 SLOAD SWAP1 POP DUP2 LT ISZERO PUSH2 0x19D8 JUMPI PUSH1 0x0 PUSH1 0x10 DUP3 DUP2 SLOAD DUP2 LT PUSH2 0x1952 JUMPI PUSH2 0x1951 PUSH2 0x2A5A JUMP JUMPDEST JUMPDEST SWAP1 PUSH1 0x0 MSTORE PUSH1 0x20 PUSH1 0x0 KECCAK256 ADD PUSH1 0x0 SWAP1 SLOAD SWAP1 PUSH2 0x100 EXP SWAP1 DIV PUSH20 0xFFFFFFFFFFFFFFFFFFFFFFFFFFFFFFFFFFFFFFFF AND SWAP1 POP PUSH1 0xF PUSH1 0x0 DUP3 PUSH20 0xFFFFFFFFFFFFFFFFFFFFFFFFFFFFFFFFFFFFFFFF AND PUSH20 0xFFFFFFFFFFFFFFFFFFFFFFFFFFFFFFFFFFFFFFFF AND DUP2 MSTORE PUSH1 0x20 ADD SWAP1 DUP2 MSTORE PUSH1 0x20 ADD PUSH1 0x0 KECCAK256 PUSH1 0x0 PUSH2 0x19CA SWAP2 SWAP1 PUSH2 0x1BBC JUMP JUMPDEST POP DUP1 DUP1 PUSH1 0x1 ADD SWAP2 POP POP PUSH2 0x192F JUMP JUMPDEST POP PUSH1 0x10 PUSH1 0x0 PUSH2 0x19E7 SWAP2 SWAP1 PUSH2 0x1BE0 JUMP JUMPDEST JUMP JUMPDEST PUSH1 0x0 PUSH1 0x1 PUSH1 0x5 PUSH2 0x19F9 SWAP2 SWAP1 PUSH2 0x2DE2 JUMP JUMPDEST SWAP1 POP JUMPDEST PUSH1 0x0 DUP2 GT ISZERO PUSH2 0x1A87 JUMPI PUSH1 0x0 DUP2 PUSH1 0x5 DUP2 LT PUSH2 0x1A19 JUMPI PUSH2 0x1A18 PUSH2 0x2A5A JUMP JUMPDEST JUMPDEST PUSH1 0x3 MUL ADD PUSH1 0x0 PUSH2 0x1A29 SWAP2 SWAP1 PUSH2 0x1C01 JUMP JUMPDEST PUSH1 0x0 PUSH1 0x1 DUP3 PUSH2 0x1A38 SWAP2 SWAP1 PUSH2 0x2DE2 JUMP JUMPDEST PUSH1 0x5 DUP2 LT PUSH2 0x1A49 JUMPI PUSH2 0x1A48 PUSH2 0x2A5A JUMP JUMPDEST JUMPDEST PUSH1 0x3 MUL ADD PUSH1 0x0 DUP3 PUSH1 0x5 DUP2 LT PUSH2 0x1A61 JUMPI PUSH2 0x1A60 PUSH2 0x2A5A JUMP JUMPDEST JUMPDEST PUSH1 0x3 MUL ADD SWAP1 PUSH1 0x3 PUSH2 0x1A73 SWAP3 SWAP2 SWAP1 PUSH2 0x1C16 JUMP JUMPDEST POP DUP1 DUP1 PUSH2 0x1A7F SWAP1 PUSH2 0x2B8E JUMP JUMPDEST SWAP2 POP POP PUSH2 0x19FC JUMP JUMPDEST POP DUP1 PUSH1 0x0 DUP2 MLOAD DUP2 LT PUSH2 0x1A9C JUMPI PUSH2 0x1A9B PUSH2 0x2A5A JUMP JUMPDEST JUMPDEST PUSH1 0x20 MUL PUSH1 0x20 ADD ADD MLOAD PUSH1 0x0 DUP1 PUSH1 0x5 DUP2 LT PUSH2 0x1AB8 JUMPI PUSH2 0x1AB7 PUSH2 0x2A5A JUMP JUMPDEST JUMPDEST PUSH1 0x3 MUL ADD PUSH1 0x0 PUSH1 0x3 DUP2 LT PUSH2 0x1ACF JUMPI PUSH2 0x1ACE PUSH2 0x2A5A JUMP JUMPDEST JUMPDEST ADD DUP2 SWAP1 SSTORE POP DUP1 PUSH1 0x1 DUP2 MLOAD DUP2 LT PUSH2 0x1AE8 JUMPI PUSH2 0x1AE7 PUSH2 0x2A5A JUMP JUMPDEST JUMPDEST PUSH1 0x20 MUL PUSH1 0x20 ADD ADD MLOAD PUSH1 0x0 DUP1 PUSH1 0x5 DUP2 LT PUSH2 0x1B04 JUMPI PUSH2 0x1B03 PUSH2 0x2A5A JUMP JUMPDEST JUMPDEST PUSH1 0x3 MUL ADD PUSH1 0x1 PUSH1 0x3 DUP2 LT PUSH2 0x1B1B JUMPI PUSH2 0x1B1A PUSH2 0x2A5A JUMP JUMPDEST JUMPDEST ADD DUP2 SWAP1 SSTORE POP DUP1 PUSH1 0x2 DUP2 MLOAD DUP2 LT PUSH2 0x1B34 JUMPI PUSH2 0x1B33 PUSH2 0x2A5A JUMP JUMPDEST JUMPDEST PUSH1 0x20 MUL PUSH1 0x20 ADD ADD MLOAD PUSH1 0x0 DUP1 PUSH1 0x5 DUP2 LT PUSH2 0x1B50 JUMPI PUSH2 0x1B4F PUSH2 0x2A5A JUMP JUMPDEST JUMPDEST PUSH1 0x3 MUL ADD PUSH1 0x2 PUSH1 0x3 DUP2 LT PUSH2 0x1B67 JUMPI PUSH2 0x1B66 PUSH2 0x2A5A JUMP JUMPDEST JUMPDEST ADD DUP2 SWAP1 SSTORE POP POP JUMP JUMPDEST DUP3 DUP1 SLOAD DUP3 DUP3 SSTORE SWAP1 PUSH1 0x0 MSTORE PUSH1 0x20 PUSH1 0x0 KECCAK256 SWAP1 DUP2 ADD SWAP3 DUP3 ISZERO PUSH2 0x1BAB JUMPI SWAP2 PUSH1 0x20 MUL DUP3 ADD JUMPDEST DUP3 DUP2 GT ISZERO PUSH2 0x1BAA JUMPI DUP3 MLOAD DUP3 SSTORE SWAP2 PUSH1 0x20 ADD SWAP2 SWAP1 PUSH1 0x1 ADD SWAP1 PUSH2 0x1B8F JUMP JUMPDEST JUMPDEST POP SWAP1 POP PUSH2 0x1BB8 SWAP2 SWAP1 PUSH2 0x1C53 JUMP JUMPDEST POP SWAP1 JUMP JUMPDEST POP DUP1 SLOAD PUSH1 0x0 DUP3 SSTORE PUSH1 0x2 MUL SWAP1 PUSH1 0x0 MSTORE PUSH1 0x20 PUSH1 0x0 KECCAK256 SWAP1 DUP2 ADD SWAP1 PUSH2 0x1BDD SWAP2 SWAP1 PUSH2 0x1C70 JUMP JUMPDEST POP JUMP JUMPDEST POP DUP1 SLOAD PUSH1 0x0 DUP3 SSTORE SWAP1 PUSH1 0x0 MSTORE PUSH1 0x20 PUSH1 0x0 KECCAK256 SWAP1 DUP2 ADD SWAP1 PUSH2 0x1BFE SWAP2 SWAP1 PUSH2 0x1C53 JUMP JUMPDEST POP JUMP JUMPDEST POP PUSH1 0x0 DUP2 SSTORE PUSH1 0x1 ADD PUSH1 0x0 DUP2 SSTORE PUSH1 0x1 ADD PUSH1 0x0 SWAP1 SSTORE JUMP JUMPDEST DUP3 PUSH1 0x3 DUP2 ADD SWAP3 DUP3 ISZERO PUSH2 0x1C42 JUMPI SWAP2 DUP3 ADD JUMPDEST DUP3 DUP2 GT ISZERO PUSH2 0x1C41 JUMPI DUP3 SLOAD DUP3 SSTORE SWAP2 PUSH1 0x1 ADD SWAP2 SWAP1 PUSH1 0x1 ADD SWAP1 PUSH2 0x1C26 JUMP JUMPDEST JUMPDEST POP SWAP1 POP PUSH2 0x1C4F SWAP2 SWAP1 PUSH2 0x1C53 JUMP JUMPDEST POP SWAP1 JUMP JUMPDEST JUMPDEST DUP1 DUP3 GT ISZERO PUSH2 0x1C6C JUMPI PUSH1 0x0 DUP2 PUSH1 0x0 SWAP1 SSTORE POP PUSH1 0x1 ADD PUSH2 0x1C54 JUMP JUMPDEST POP SWAP1 JUMP JUMPDEST JUMPDEST DUP1 DUP3 GT ISZERO PUSH2 0x1CA7 JUMPI PUSH1 0x0 DUP1 DUP3 ADD PUSH1 0x0 PUSH2 0x100 EXP DUP2 SLOAD SWAP1 PUSH1 0xFF MUL NOT AND SWAP1 SSTORE PUSH1 0x1 DUP3 ADD PUSH1 0x0 PUSH2 0x1C9E SWAP2 SWAP1 PUSH2 0x1CAB JUMP JUMPDEST POP PUSH1 0x2 ADD PUSH2 0x1C71 JUMP JUMPDEST POP SWAP1 JUMP JUMPDEST POP DUP1 SLOAD PUSH1 0x0 DUP3 SSTORE SWAP1 PUSH1 0x0 MSTORE PUSH1 0x20 PUSH1 0x0 KECCAK256 SWAP1 DUP2 ADD SWAP1 PUSH2 0x1CC9 SWAP2 SWAP1 PUSH2 0x1CCC JUMP JUMPDEST POP JUMP JUMPDEST JUMPDEST DUP1 DUP3 GT ISZERO PUSH2 0x1D0B JUMPI PUSH1 0x0 DUP1 DUP3 ADD PUSH1 0x0 PUSH2 0x100 EXP DUP2 SLOAD SWAP1 PUSH4 0xFFFFFFFF MUL NOT AND SWAP1 SSTORE PUSH1 0x0 DUP3 ADD PUSH1 0x4 PUSH2 0x100 EXP DUP2 SLOAD SWAP1 PUSH2 0xFFFF MUL NOT AND SWAP1 SSTORE POP PUSH1 0x1 ADD PUSH2 0x1CCD JUMP JUMPDEST POP SWAP1 JUMP JUMPDEST PUSH1 0x0 PUSH1 0x40 MLOAD SWAP1 POP SWAP1 JUMP JUMPDEST PUSH1 0x0 DUP1 REVERT JUMPDEST PUSH1 0x0 DUP1 REVERT JUMPDEST PUSH1 0x0 DUP2 SWAP1 POP SWAP2 SWAP1 POP JUMP JUMPDEST PUSH2 0x1D36 DUP2 PUSH2 0x1D23 JUMP JUMPDEST DUP2 EQ PUSH2 0x1D41 JUMPI PUSH1 0x0 DUP1 REVERT JUMPDEST POP JUMP JUMPDEST PUSH1 0x0 DUP2 CALLDATALOAD SWAP1 POP PUSH2 0x1D53 DUP2 PUSH2 0x1D2D JUMP JUMPDEST SWAP3 SWAP2 POP POP JUMP JUMPDEST PUSH1 0x0 DUP1 REVERT JUMPDEST PUSH1 0x0 PUSH1 0x1F NOT PUSH1 0x1F DUP4 ADD AND SWAP1 POP SWAP2 SWAP1 POP JUMP JUMPDEST PUSH32 0x4E487B7100000000000000000000000000000000000000000000000000000000 PUSH1 0x0 MSTORE PUSH1 0x41 PUSH1 0x4 MSTORE PUSH1 0x24 PUSH1 0x0 REVERT JUMPDEST PUSH2 0x1DA7 DUP3 PUSH2 0x1D5E JUMP JUMPDEST DUP2 ADD DUP2 DUP2 LT PUSH8 0xFFFFFFFFFFFFFFFF DUP3 GT OR ISZERO PUSH2 0x1DC6 JUMPI PUSH2 0x1DC5 PUSH2 0x1D6F JUMP JUMPDEST JUMPDEST DUP1 PUSH1 0x40 MSTORE POP POP POP JUMP JUMPDEST PUSH1 0x0 PUSH2 0x1DD9 PUSH2 0x1D0F JUMP JUMPDEST SWAP1 POP PUSH2 0x1DE5 DUP3 DUP3 PUSH2 0x1D9E JUMP JUMPDEST SWAP2 SWAP1 POP JUMP JUMPDEST PUSH1 0x0 PUSH8 0xFFFFFFFFFFFFFFFF DUP3 GT ISZERO PUSH2 0x1E05 JUMPI PUSH2 0x1E04 PUSH2 0x1D6F JUMP JUMPDEST JUMPDEST PUSH1 0x20 DUP3 MUL SWAP1 POP PUSH1 0x20 DUP2 ADD SWAP1 POP SWAP2 SWAP1 POP JUMP JUMPDEST PUSH1 0x0 DUP1 REVERT JUMPDEST PUSH1 0x0 PUSH2 0x1E2E PUSH2 0x1E29 DUP5 PUSH2 0x1DEA JUMP JUMPDEST PUSH2 0x1DCF JUMP JUMPDEST SWAP1 POP DUP1 DUP4 DUP3 MSTORE PUSH1 0x20 DUP3 ADD SWAP1 POP PUSH1 0x20 DUP5 MUL DUP4 ADD DUP6 DUP2 GT ISZERO PUSH2 0x1E51 JUMPI PUSH2 0x1E50 PUSH2 0x1E16 JUMP JUMPDEST JUMPDEST DUP4 JUMPDEST DUP2 DUP2 LT ISZERO PUSH2 0x1E7A JUMPI DUP1 PUSH2 0x1E66 DUP9 DUP3 PUSH2 0x1D44 JUMP JUMPDEST DUP5 MSTORE PUSH1 0x20 DUP5 ADD SWAP4 POP POP PUSH1 0x20 DUP2 ADD SWAP1 POP PUSH2 0x1E53 JUMP JUMPDEST POP POP POP SWAP4 SWAP3 POP POP POP JUMP JUMPDEST PUSH1 0x0 DUP3 PUSH1 0x1F DUP4 ADD SLT PUSH2 0x1E99 JUMPI PUSH2 0x1E98 PUSH2 0x1D59 JUMP JUMPDEST JUMPDEST DUP2 CALLDATALOAD PUSH2 0x1EA9 DUP5 DUP3 PUSH1 0x20 DUP7 ADD PUSH2 0x1E1B JUMP JUMPDEST SWAP2 POP POP SWAP3 SWAP2 POP POP JUMP JUMPDEST PUSH1 0x0 DUP1 PUSH1 0x40 DUP4 DUP6 SUB SLT ISZERO PUSH2 0x1EC9 JUMPI PUSH2 0x1EC8 PUSH2 0x1D19 JUMP JUMPDEST JUMPDEST PUSH1 0x0 PUSH2 0x1ED7 DUP6 DUP3 DUP7 ADD PUSH2 0x1D44 JUMP JUMPDEST SWAP3 POP POP PUSH1 0x20 DUP4 ADD CALLDATALOAD PUSH8 0xFFFFFFFFFFFFFFFF DUP2 GT ISZERO PUSH2 0x1EF8 JUMPI PUSH2 0x1EF7 PUSH2 0x1D1E JUMP JUMPDEST JUMPDEST PUSH2 0x1F04 DUP6 DUP3 DUP7 ADD PUSH2 0x1E84 JUMP JUMPDEST SWAP2 POP POP SWAP3 POP SWAP3 SWAP1 POP JUMP JUMPDEST PUSH1 0x0 PUSH8 0xFFFFFFFFFFFFFFFF DUP3 GT ISZERO PUSH2 0x1F29 JUMPI PUSH2 0x1F28 PUSH2 0x1D6F JUMP JUMPDEST JUMPDEST PUSH1 0x20 DUP3 MUL SWAP1 POP PUSH1 0x20 DUP2 ADD SWAP1 POP SWAP2 SWAP1 POP JUMP JUMPDEST PUSH1 0x0 DUP1 REVERT JUMPDEST PUSH1 0x0 DUP1 REVERT JUMPDEST PUSH1 0x5 DUP2 LT PUSH2 0x1F51 JUMPI PUSH1 0x0 DUP1 REVERT JUMPDEST POP JUMP JUMPDEST PUSH1 0x0 DUP2 CALLDATALOAD SWAP1 POP PUSH2 0x1F63 DUP2 PUSH2 0x1F44 JUMP JUMPDEST SWAP3 SWAP2 POP POP JUMP JUMPDEST PUSH1 0x0 PUSH8 0xFFFFFFFFFFFFFFFF DUP3 GT ISZERO PUSH2 0x1F84 JUMPI PUSH2 0x1F83 PUSH2 0x1D6F JUMP JUMPDEST JUMPDEST PUSH1 0x20 DUP3 MUL SWAP1 POP PUSH1 0x20 DUP2 ADD SWAP1 POP SWAP2 SWAP1 POP JUMP JUMPDEST PUSH1 0x0 PUSH4 0xFFFFFFFF DUP3 AND SWAP1 POP SWAP2 SWAP1 POP JUMP JUMPDEST PUSH2 0x1FAE DUP2 PUSH2 0x1F95 JUMP JUMPDEST DUP2 EQ PUSH2 0x1FB9 JUMPI PUSH1 0x0 DUP1 REVERT JUMPDEST POP JUMP JUMPDEST PUSH1 0x0 DUP2 CALLDATALOAD SWAP1 POP PUSH2 0x1FCB DUP2 PUSH2 0x1FA5 JUMP JUMPDEST SWAP3 SWAP2 POP POP JUMP JUMPDEST PUSH1 0x0 PUSH2 0xFFFF DUP3 AND SWAP1 POP SWAP2 SWAP1 POP JUMP JUMPDEST PUSH2 0x1FE8 DUP2 PUSH2 0x1FD1 JUMP JUMPDEST DUP2 EQ PUSH2 0x1FF3 JUMPI PUSH1 0x0 DUP1 REVERT JUMPDEST POP JUMP JUMPDEST PUSH1 0x0 DUP2 CALLDATALOAD SWAP1 POP PUSH2 0x2005 DUP2 PUSH2 0x1FDF JUMP JUMPDEST SWAP3 SWAP2 POP POP JUMP JUMPDEST PUSH1 0x0 PUSH1 0x40 DUP3 DUP5 SUB SLT ISZERO PUSH2 0x2021 JUMPI PUSH2 0x2020 PUSH2 0x1F3A JUMP JUMPDEST JUMPDEST PUSH2 0x202B PUSH1 0x40 PUSH2 0x1DCF JUMP JUMPDEST SWAP1 POP PUSH1 0x0 PUSH2 0x203B DUP5 DUP3 DUP6 ADD PUSH2 0x1FBC JUMP JUMPDEST PUSH1 0x0 DUP4 ADD MSTORE POP PUSH1 0x20 PUSH2 0x204F DUP5 DUP3 DUP6 ADD PUSH2 0x1FF6 JUMP JUMPDEST PUSH1 0x20 DUP4 ADD MSTORE POP SWAP3 SWAP2 POP POP JUMP JUMPDEST PUSH1 0x0 PUSH2 0x206E PUSH2 0x2069 DUP5 PUSH2 0x1F69 JUMP JUMPDEST PUSH2 0x1DCF JUMP JUMPDEST SWAP1 POP DUP1 DUP4 DUP3 MSTORE PUSH1 0x20 DUP3 ADD SWAP1 POP PUSH1 0x40 DUP5 MUL DUP4 ADD DUP6 DUP2 GT ISZERO PUSH2 0x2091 JUMPI PUSH2 0x2090 PUSH2 0x1E16 JUMP JUMPDEST JUMPDEST DUP4 JUMPDEST DUP2 DUP2 LT ISZERO PUSH2 0x20BA JUMPI DUP1 PUSH2 0x20A6 DUP9 DUP3 PUSH2 0x200B JUMP JUMPDEST DUP5 MSTORE PUSH1 0x20 DUP5 ADD SWAP4 POP POP PUSH1 0x40 DUP2 ADD SWAP1 POP PUSH2 0x2093 JUMP JUMPDEST POP POP POP SWAP4 SWAP3 POP POP POP JUMP JUMPDEST PUSH1 0x0 DUP3 PUSH1 0x1F DUP4 ADD SLT PUSH2 0x20D9 JUMPI PUSH2 0x20D8 PUSH2 0x1D59 JUMP JUMPDEST JUMPDEST DUP2 CALLDATALOAD PUSH2 0x20E9 DUP5 DUP3 PUSH1 0x20 DUP7 ADD PUSH2 0x205B JUMP JUMPDEST SWAP2 POP POP SWAP3 SWAP2 POP POP JUMP JUMPDEST PUSH1 0x0 PUSH1 0x40 DUP3 DUP5 SUB SLT ISZERO PUSH2 0x2108 JUMPI PUSH2 0x2107 PUSH2 0x1F3A JUMP JUMPDEST JUMPDEST PUSH2 0x2112 PUSH1 0x40 PUSH2 0x1DCF JUMP JUMPDEST SWAP1 POP PUSH1 0x0 PUSH2 0x2122 DUP5 DUP3 DUP6 ADD PUSH2 0x1F54 JUMP JUMPDEST PUSH1 0x0 DUP4 ADD MSTORE POP PUSH1 0x20 DUP3 ADD CALLDATALOAD PUSH8 0xFFFFFFFFFFFFFFFF DUP2 GT ISZERO PUSH2 0x2146 JUMPI PUSH2 0x2145 PUSH2 0x1F3F JUMP JUMPDEST JUMPDEST PUSH2 0x2152 DUP5 DUP3 DUP6 ADD PUSH2 0x20C4 JUMP JUMPDEST PUSH1 0x20 DUP4 ADD MSTORE POP SWAP3 SWAP2 POP POP JUMP JUMPDEST PUSH1 0x0 PUSH2 0x2171 PUSH2 0x216C DUP5 PUSH2 0x1F0E JUMP JUMPDEST PUSH2 0x1DCF JUMP JUMPDEST SWAP1 POP DUP1 DUP4 DUP3 MSTORE PUSH1 0x20 DUP3 ADD SWAP1 POP PUSH1 0x20 DUP5 MUL DUP4 ADD DUP6 DUP2 GT ISZERO PUSH2 0x2194 JUMPI PUSH2 0x2193 PUSH2 0x1E16 JUMP JUMPDEST JUMPDEST DUP4 JUMPDEST DUP2 DUP2 LT ISZERO PUSH2 0x21DB JUMPI DUP1 CALLDATALOAD PUSH8 0xFFFFFFFFFFFFFFFF DUP2 GT ISZERO PUSH2 0x21B9 JUMPI PUSH2 0x21B8 PUSH2 0x1D59 JUMP JUMPDEST JUMPDEST DUP1 DUP7 ADD PUSH2 0x21C6 DUP10 DUP3 PUSH2 0x20F2 JUMP JUMPDEST DUP6 MSTORE PUSH1 0x20 DUP6 ADD SWAP5 POP POP POP PUSH1 0x20 DUP2 ADD SWAP1 POP PUSH2 0x2196 JUMP JUMPDEST POP POP POP SWAP4 SWAP3 POP POP POP JUMP JUMPDEST PUSH1 0x0 DUP3 PUSH1 0x1F DUP4 ADD SLT PUSH2 0x21FA JUMPI PUSH2 0x21F9 PUSH2 0x1D59 JUMP JUMPDEST JUMPDEST DUP2 CALLDATALOAD PUSH2 0x220A DUP5 DUP3 PUSH1 0x20 DUP7 ADD PUSH2 0x215E JUMP JUMPDEST SWAP2 POP POP SWAP3 SWAP2 POP POP JUMP JUMPDEST PUSH1 0x0 PUSH1 0x20 DUP3 DUP5 SUB SLT ISZERO PUSH2 0x2229 JUMPI PUSH2 0x2228 PUSH2 0x1D19 JUMP JUMPDEST JUMPDEST PUSH1 0x0 DUP3 ADD CALLDATALOAD PUSH8 0xFFFFFFFFFFFFFFFF DUP2 GT ISZERO PUSH2 0x2247 JUMPI PUSH2 0x2246 PUSH2 0x1D1E JUMP JUMPDEST JUMPDEST PUSH2 0x2253 DUP5 DUP3 DUP6 ADD PUSH2 0x21E5 JUMP JUMPDEST SWAP2 POP POP SWAP3 SWAP2 POP POP JUMP JUMPDEST PUSH1 0x0 DUP1 REVERT JUMPDEST PUSH1 0x0 DUP1 DUP4 PUSH1 0x1F DUP5 ADD SLT PUSH2 0x2277 JUMPI PUSH2 0x2276 PUSH2 0x1D59 JUMP JUMPDEST JUMPDEST DUP3 CALLDATALOAD SWAP1 POP PUSH8 0xFFFFFFFFFFFFFFFF DUP2 GT ISZERO PUSH2 0x2294 JUMPI PUSH2 0x2293 PUSH2 0x225C JUMP JUMPDEST JUMPDEST PUSH1 0x20 DUP4 ADD SWAP2 POP DUP4 PUSH1 0x1 DUP3 MUL DUP4 ADD GT ISZERO PUSH2 0x22B0 JUMPI PUSH2 0x22AF PUSH2 0x1E16 JUMP JUMPDEST JUMPDEST SWAP3 POP SWAP3 SWAP1 POP JUMP JUMPDEST PUSH1 0x0 DUP1 PUSH1 0x20 DUP4 DUP6 SUB SLT ISZERO PUSH2 0x22CE JUMPI PUSH2 0x22CD PUSH2 0x1D19 JUMP JUMPDEST JUMPDEST PUSH1 0x0 DUP4 ADD CALLDATALOAD PUSH8 0xFFFFFFFFFFFFFFFF DUP2 GT ISZERO PUSH2 0x22EC JUMPI PUSH2 0x22EB PUSH2 0x1D1E JUMP JUMPDEST JUMPDEST PUSH2 0x22F8 DUP6 DUP3 DUP7 ADD PUSH2 0x2261 JUMP JUMPDEST SWAP3 POP SWAP3 POP POP SWAP3 POP SWAP3 SWAP1 POP JUMP JUMPDEST PUSH1 0x0 DUP1 REVERT JUMPDEST PUSH1 0x0 PUSH8 0xFFFFFFFFFFFFFFFF DUP3 GT ISZERO PUSH2 0x2324 JUMPI PUSH2 0x2323 PUSH2 0x1D6F JUMP JUMPDEST JUMPDEST PUSH2 0x232D DUP3 PUSH2 0x1D5E JUMP JUMPDEST SWAP1 POP PUSH1 0x20 DUP2 ADD SWAP1 POP SWAP2 SWAP1 POP JUMP JUMPDEST DUP3 DUP2 DUP4 CALLDATACOPY PUSH1 0x0 DUP4 DUP4 ADD MSTORE POP POP POP JUMP JUMPDEST PUSH1 0x0 PUSH2 0x235C PUSH2 0x2357 DUP5 PUSH2 0x2309 JUMP JUMPDEST PUSH2 0x1DCF JUMP JUMPDEST SWAP1 POP DUP3 DUP2 MSTORE PUSH1 0x20 DUP2 ADD DUP5 DUP5 DUP5 ADD GT ISZERO PUSH2 0x2378 JUMPI PUSH2 0x2377 PUSH2 0x2304 JUMP JUMPDEST JUMPDEST PUSH2 0x2383 DUP5 DUP3 DUP6 PUSH2 0x233A JUMP JUMPDEST POP SWAP4 SWAP3 POP POP POP JUMP JUMPDEST PUSH1 0x0 DUP3 PUSH1 0x1F DUP4 ADD SLT PUSH2 0x23A0 JUMPI PUSH2 0x239F PUSH2 0x1D59 JUMP JUMPDEST JUMPDEST DUP2 CALLDATALOAD PUSH2 0x23B0 DUP5 DUP3 PUSH1 0x20 DUP7 ADD PUSH2 0x2349 JUMP JUMPDEST SWAP2 POP POP SWAP3 SWAP2 POP POP JUMP JUMPDEST PUSH1 0x0 PUSH1 0x20 DUP3 DUP5 SUB SLT ISZERO PUSH2 0x23CF JUMPI PUSH2 0x23CE PUSH2 0x1D19 JUMP JUMPDEST JUMPDEST PUSH1 0x0 DUP3 ADD CALLDATALOAD PUSH8 0xFFFFFFFFFFFFFFFF DUP2 GT ISZERO PUSH2 0x23ED JUMPI PUSH2 0x23EC PUSH2 0x1D1E JUMP JUMPDEST JUMPDEST PUSH2 0x23F9 DUP5 DUP3 DUP6 ADD PUSH2 0x238B JUMP JUMPDEST SWAP2 POP POP SWAP3 SWAP2 POP POP JUMP JUMPDEST PUSH1 0x0 DUP2 ISZERO ISZERO SWAP1 POP SWAP2 SWAP1 POP JUMP JUMPDEST PUSH2 0x2417 DUP2 PUSH2 0x2402 JUMP JUMPDEST DUP3 MSTORE POP POP JUMP JUMPDEST PUSH1 0x0 DUP2 MLOAD SWAP1 POP SWAP2 SWAP1 POP JUMP JUMPDEST PUSH1 0x0 DUP3 DUP3 MSTORE PUSH1 0x20 DUP3 ADD SWAP1 POP SWAP3 SWAP2 POP POP JUMP JUMPDEST PUSH1 0x0 JUMPDEST DUP4 DUP2 LT ISZERO PUSH2 0x2457 JUMPI DUP1 DUP3 ADD MLOAD DUP2 DUP5 ADD MSTORE PUSH1 0x20 DUP2 ADD SWAP1 POP PUSH2 0x243C JUMP JUMPDEST PUSH1 0x0 DUP5 DUP5 ADD MSTORE POP POP POP POP JUMP JUMPDEST PUSH1 0x0 PUSH2 0x246E DUP3 PUSH2 0x241D JUMP JUMPDEST PUSH2 0x2478 DUP2 DUP6 PUSH2 0x2428 JUMP JUMPDEST SWAP4 POP PUSH2 0x2488 DUP2 DUP6 PUSH1 0x20 DUP7 ADD PUSH2 0x2439 JUMP JUMPDEST PUSH2 0x2491 DUP2 PUSH2 0x1D5E JUMP JUMPDEST DUP5 ADD SWAP2 POP POP SWAP3 SWAP2 POP POP JUMP JUMPDEST PUSH1 0x0 PUSH1 0x40 DUP3 ADD SWAP1 POP PUSH2 0x24B1 PUSH1 0x0 DUP4 ADD DUP6 PUSH2 0x240E JUMP JUMPDEST DUP2 DUP2 SUB PUSH1 0x20 DUP4 ADD MSTORE PUSH2 0x24C3 DUP2 DUP5 PUSH2 0x2463 JUMP JUMPDEST SWAP1 POP SWAP4 SWAP3 POP POP POP JUMP JUMPDEST PUSH1 0x0 PUSH1 0x20 DUP3 DUP5 SUB SLT ISZERO PUSH2 0x24E2 JUMPI PUSH2 0x24E1 PUSH2 0x1D19 JUMP JUMPDEST JUMPDEST PUSH1 0x0 PUSH2 0x24F0 DUP5 DUP3 DUP6 ADD PUSH2 0x1D44 JUMP JUMPDEST SWAP2 POP POP SWAP3 SWAP2 POP POP JUMP JUMPDEST PUSH2 0x2502 DUP2 PUSH2 0x1D23 JUMP JUMPDEST DUP3 MSTORE POP POP JUMP JUMPDEST PUSH1 0x0 PUSH1 0x20 DUP3 ADD SWAP1 POP PUSH2 0x251D PUSH1 0x0 DUP4 ADD DUP5 PUSH2 0x24F9 JUMP JUMPDEST SWAP3 SWAP2 POP POP JUMP JUMPDEST PUSH1 0x0 PUSH1 0x40 DUP3 ADD SWAP1 POP PUSH2 0x2538 PUSH1 0x0 DUP4 ADD DUP6 PUSH2 0x240E JUMP JUMPDEST PUSH2 0x2545 PUSH1 0x20 DUP4 ADD DUP5 PUSH2 0x240E JUMP JUMPDEST SWAP4 SWAP3 POP POP POP JUMP JUMPDEST PUSH32 0x4E487B7100000000000000000000000000000000000000000000000000000000 PUSH1 0x0 MSTORE PUSH1 0x21 PUSH1 0x4 MSTORE PUSH1 0x24 PUSH1 0x0 REVERT JUMPDEST PUSH1 0x2 DUP2 LT PUSH2 0x258C JUMPI PUSH2 0x258B PUSH2 0x254C JUMP JUMPDEST JUMPDEST POP JUMP JUMPDEST PUSH1 0x0 DUP2 SWAP1 POP PUSH2 0x259D DUP3 PUSH2 0x257B JUMP JUMPDEST SWAP2 SWAP1 POP JUMP JUMPDEST PUSH1 0x0 PUSH2 0x25AD DUP3 PUSH2 0x258F JUMP JUMPDEST SWAP1 POP SWAP2 SWAP1 POP JUMP JUMPDEST PUSH2 0x25BD DUP2 PUSH2 0x25A2 JUMP JUMPDEST DUP3 MSTORE POP POP JUMP JUMPDEST PUSH1 0x0 PUSH1 0x20 DUP3 ADD SWAP1 POP PUSH2 0x25D8 PUSH1 0x0 DUP4 ADD DUP5 PUSH2 0x25B4 JUMP JUMPDEST SWAP3 SWAP2 POP POP JUMP JUMPDEST PUSH1 0x0 PUSH20 0xFFFFFFFFFFFFFFFFFFFFFFFFFFFFFFFFFFFFFFFF DUP3 AND SWAP1 POP SWAP2 SWAP1 POP JUMP JUMPDEST PUSH1 0x0 PUSH2 0x2609 DUP3 PUSH2 0x25DE JUMP JUMPDEST SWAP1 POP SWAP2 SWAP1 POP JUMP JUMPDEST PUSH2 0x2619 DUP2 PUSH2 0x25FE JUMP JUMPDEST DUP3 MSTORE POP POP JUMP JUMPDEST PUSH1 0x0 PUSH1 0x20 DUP3 ADD SWAP1 POP PUSH2 0x2634 PUSH1 0x0 DUP4 ADD DUP5 PUSH2 0x2610 JUMP JUMPDEST SWAP3 SWAP2 POP POP JUMP JUMPDEST PUSH1 0x0 DUP1 PUSH1 0x40 DUP4 DUP6 SUB SLT ISZERO PUSH2 0x2651 JUMPI PUSH2 0x2650 PUSH2 0x1D19 JUMP JUMPDEST JUMPDEST PUSH1 0x0 PUSH2 0x265F DUP6 DUP3 DUP7 ADD PUSH2 0x1D44 JUMP JUMPDEST SWAP3 POP POP PUSH1 0x20 PUSH2 0x2670 DUP6 DUP3 DUP7 ADD PUSH2 0x1D44 JUMP JUMPDEST SWAP2 POP POP SWAP3 POP SWAP3 SWAP1 POP JUMP JUMPDEST PUSH1 0x0 DUP2 MLOAD SWAP1 POP SWAP2 SWAP1 POP JUMP JUMPDEST PUSH1 0x0 DUP3 DUP3 MSTORE PUSH1 0x20 DUP3 ADD SWAP1 POP SWAP3 SWAP2 POP POP JUMP JUMPDEST PUSH1 0x0 DUP2 SWAP1 POP PUSH1 0x20 DUP3 ADD SWAP1 POP SWAP2 SWAP1 POP JUMP JUMPDEST PUSH2 0x26AF DUP2 PUSH2 0x25FE JUMP JUMPDEST DUP3 MSTORE POP POP JUMP JUMPDEST PUSH1 0x0 PUSH2 0x26C1 DUP4 DUP4 PUSH2 0x26A6 JUMP JUMPDEST PUSH1 0x20 DUP4 ADD SWAP1 POP SWAP3 SWAP2 POP POP JUMP JUMPDEST PUSH1 0x0 PUSH1 0x20 DUP3 ADD SWAP1 POP SWAP2 SWAP1 POP JUMP JUMPDEST PUSH1 0x0 PUSH2 0x26E5 DUP3 PUSH2 0x267A JUMP JUMPDEST PUSH2 0x26EF DUP2 DUP6 PUSH2 0x2685 JUMP JUMPDEST SWAP4 POP PUSH2 0x26FA DUP4 PUSH2 0x2696 JUMP JUMPDEST DUP1 PUSH1 0x0 JUMPDEST DUP4 DUP2 LT ISZERO PUSH2 0x272B JUMPI DUP2 MLOAD PUSH2 0x2712 DUP9 DUP3 PUSH2 0x26B5 JUMP JUMPDEST SWAP8 POP PUSH2 0x271D DUP4 PUSH2 0x26CD JUMP JUMPDEST SWAP3 POP POP PUSH1 0x1 DUP2 ADD SWAP1 POP PUSH2 0x26FE JUMP JUMPDEST POP DUP6 SWAP4 POP POP POP POP SWAP3 SWAP2 POP POP JUMP JUMPDEST PUSH1 0x0 PUSH1 0x20 DUP3 ADD SWAP1 POP DUP2 DUP2 SUB PUSH1 0x0 DUP4 ADD MSTORE PUSH2 0x2752 DUP2 DUP5 PUSH2 0x26DA JUMP JUMPDEST SWAP1 POP SWAP3 SWAP2 POP POP JUMP JUMPDEST PUSH1 0x0 PUSH2 0x2765 DUP3 PUSH2 0x25DE JUMP JUMPDEST SWAP1 POP SWAP2 SWAP1 POP JUMP JUMPDEST PUSH2 0x2775 DUP2 PUSH2 0x275A JUMP JUMPDEST DUP3 MSTORE POP POP JUMP JUMPDEST PUSH1 0x0 PUSH1 0x40 DUP3 ADD SWAP1 POP PUSH2 0x2790 PUSH1 0x0 DUP4 ADD DUP6 PUSH2 0x276C JUMP JUMPDEST PUSH2 0x279D PUSH1 0x20 DUP4 ADD DUP5 PUSH2 0x276C JUMP JUMPDEST SWAP4 SWAP3 POP POP POP JUMP JUMPDEST PUSH1 0x0 DUP3 DUP3 MSTORE PUSH1 0x20 DUP3 ADD SWAP1 POP SWAP3 SWAP2 POP POP JUMP JUMPDEST PUSH32 0x4E6F7420656E6F7567682066656520746F206A6F696E00000000000000000000 PUSH1 0x0 DUP3 ADD MSTORE POP JUMP JUMPDEST PUSH1 0x0 PUSH2 0x27EB PUSH1 0x16 DUP4 PUSH2 0x27A4 JUMP JUMPDEST SWAP2 POP PUSH2 0x27F6 DUP3 PUSH2 0x27B5 JUMP JUMPDEST PUSH1 0x20 DUP3 ADD SWAP1 POP SWAP2 SWAP1 POP JUMP JUMPDEST PUSH1 0x0 PUSH1 0x20 DUP3 ADD SWAP1 POP DUP2 DUP2 SUB PUSH1 0x0 DUP4 ADD MSTORE PUSH2 0x281A DUP2 PUSH2 0x27DE JUMP JUMPDEST SWAP1 POP SWAP2 SWAP1 POP JUMP JUMPDEST PUSH32 0x42696E676F2069732063616C63756C6174696E67207265776172642100000000 PUSH1 0x0 DUP3 ADD MSTORE POP JUMP JUMPDEST PUSH1 0x0 PUSH2 0x2857 PUSH1 0x1C DUP4 PUSH2 0x27A4 JUMP JUMPDEST SWAP2 POP PUSH2 0x2862 DUP3 PUSH2 0x2821 JUMP JUMPDEST PUSH1 0x20 DUP3 ADD SWAP1 POP SWAP2 SWAP1 POP JUMP JUMPDEST PUSH1 0x0 PUSH1 0x20 DUP3 ADD SWAP1 POP DUP2 DUP2 SUB PUSH1 0x0 DUP4 ADD MSTORE PUSH2 0x2886 DUP2 PUSH2 0x284A JUMP JUMPDEST SWAP1 POP SWAP2 SWAP1 POP JUMP JUMPDEST PUSH32 0x4572726F722C204E6F20506C6179657221000000000000000000000000000000 PUSH1 0x0 DUP3 ADD MSTORE POP JUMP JUMPDEST PUSH1 0x0 PUSH2 0x28C3 PUSH1 0x11 DUP4 PUSH2 0x27A4 JUMP JUMPDEST SWAP2 POP PUSH2 0x28CE DUP3 PUSH2 0x288D JUMP JUMPDEST PUSH1 0x20 DUP3 ADD SWAP1 POP SWAP2 SWAP1 POP JUMP JUMPDEST PUSH1 0x0 PUSH1 0x20 DUP3 ADD SWAP1 POP DUP2 DUP2 SUB PUSH1 0x0 DUP4 ADD MSTORE PUSH2 0x28F2 DUP2 PUSH2 0x28B6 JUMP JUMPDEST SWAP1 POP SWAP2 SWAP1 POP JUMP JUMPDEST PUSH1 0x0 DUP2 SWAP1 POP SWAP2 SWAP1 POP JUMP JUMPDEST PUSH2 0x290C DUP2 PUSH2 0x28F9 JUMP JUMPDEST DUP3 MSTORE POP POP JUMP JUMPDEST PUSH2 0x291B DUP2 PUSH2 0x1FD1 JUMP JUMPDEST DUP3 MSTORE POP POP JUMP JUMPDEST PUSH2 0x292A DUP2 PUSH2 0x1F95 JUMP JUMPDEST DUP3 MSTORE POP POP JUMP JUMPDEST PUSH1 0x0 PUSH1 0xA0 DUP3 ADD SWAP1 POP PUSH2 0x2945 PUSH1 0x0 DUP4 ADD DUP9 PUSH2 0x2903 JUMP JUMPDEST PUSH2 0x2952 PUSH1 0x20 DUP4 ADD DUP8 PUSH2 0x24F9 JUMP JUMPDEST PUSH2 0x295F PUSH1 0x40 DUP4 ADD DUP7 PUSH2 0x2912 JUMP JUMPDEST PUSH2 0x296C PUSH1 0x60 DUP4 ADD DUP6 PUSH2 0x2921 JUMP JUMPDEST PUSH2 0x2979 PUSH1 0x80 DUP4 ADD DUP5 PUSH2 0x2921 JUMP JUMPDEST SWAP7 SWAP6 POP POP POP POP POP POP JUMP JUMPDEST PUSH1 0x0 DUP2 MLOAD SWAP1 POP PUSH2 0x2992 DUP2 PUSH2 0x1D2D JUMP JUMPDEST SWAP3 SWAP2 POP POP JUMP JUMPDEST PUSH1 0x0 PUSH1 0x20 DUP3 DUP5 SUB SLT ISZERO PUSH2 0x29AE JUMPI PUSH2 0x29AD PUSH2 0x1D19 JUMP JUMPDEST JUMPDEST PUSH1 0x0 PUSH2 0x29BC DUP5 DUP3 DUP6 ADD PUSH2 0x2983 JUMP JUMPDEST SWAP2 POP POP SWAP3 SWAP2 POP POP JUMP JUMPDEST PUSH1 0x0 PUSH1 0x40 DUP3 ADD SWAP1 POP PUSH2 0x29DA PUSH1 0x0 DUP4 ADD DUP6 PUSH2 0x24F9 JUMP JUMPDEST PUSH2 0x29E7 PUSH1 0x20 DUP4 ADD DUP5 PUSH2 0x2921 JUMP JUMPDEST SWAP4 SWAP3 POP POP POP JUMP JUMPDEST PUSH32 0x72657175657374206E6F7420666F756E64000000000000000000000000000000 PUSH1 0x0 DUP3 ADD MSTORE POP JUMP JUMPDEST PUSH1 0x0 PUSH2 0x2A24 PUSH1 0x11 DUP4 PUSH2 0x27A4 JUMP JUMPDEST SWAP2 POP PUSH2 0x2A2F DUP3 PUSH2 0x29EE JUMP JUMPDEST PUSH1 0x20 DUP3 ADD SWAP1 POP SWAP2 SWAP1 POP JUMP JUMPDEST PUSH1 0x0 PUSH1 0x20 DUP3 ADD SWAP1 POP DUP2 DUP2 SUB PUSH1 0x0 DUP4 ADD MSTORE PUSH2 0x2A53 DUP2 PUSH2 0x2A17 JUMP JUMPDEST SWAP1 POP SWAP2 SWAP1 POP JUMP JUMPDEST PUSH32 0x4E487B7100000000000000000000000000000000000000000000000000000000 PUSH1 0x0 MSTORE PUSH1 0x32 PUSH1 0x4 MSTORE PUSH1 0x24 PUSH1 0x0 REVERT JUMPDEST PUSH32 0x4E487B7100000000000000000000000000000000000000000000000000000000 PUSH1 0x0 MSTORE PUSH1 0x11 PUSH1 0x4 MSTORE PUSH1 0x24 PUSH1 0x0 REVERT JUMPDEST PUSH1 0x0 PUSH2 0x2AC3 DUP3 PUSH2 0x1D23 JUMP JUMPDEST SWAP2 POP PUSH2 0x2ACE DUP4 PUSH2 0x1D23 JUMP JUMPDEST SWAP3 POP DUP3 DUP3 ADD SWAP1 POP DUP1 DUP3 GT ISZERO PUSH2 0x2AE6 JUMPI PUSH2 0x2AE5 PUSH2 0x2A89 JUMP JUMPDEST JUMPDEST SWAP3 SWAP2 POP POP JUMP JUMPDEST PUSH1 0x0 PUSH2 0x2AF7 DUP3 PUSH2 0x1D23 JUMP JUMPDEST SWAP2 POP PUSH2 0x2B02 DUP4 PUSH2 0x1D23 JUMP JUMPDEST SWAP3 POP DUP3 DUP3 MUL PUSH2 0x2B10 DUP2 PUSH2 0x1D23 JUMP JUMPDEST SWAP2 POP DUP3 DUP3 DIV DUP5 EQ DUP4 ISZERO OR PUSH2 0x2B27 JUMPI PUSH2 0x2B26 PUSH2 0x2A89 JUMP JUMPDEST JUMPDEST POP SWAP3 SWAP2 POP POP JUMP JUMPDEST PUSH32 0x4E487B7100000000000000000000000000000000000000000000000000000000 PUSH1 0x0 MSTORE PUSH1 0x12 PUSH1 0x4 MSTORE PUSH1 0x24 PUSH1 0x0 REVERT JUMPDEST PUSH1 0x0 PUSH2 0x2B68 DUP3 PUSH2 0x1D23 JUMP JUMPDEST SWAP2 POP PUSH2 0x2B73 DUP4 PUSH2 0x1D23 JUMP JUMPDEST SWAP3 POP DUP3 PUSH2 0x2B83 JUMPI PUSH2 0x2B82 PUSH2 0x2B2E JUMP JUMPDEST JUMPDEST DUP3 DUP3 DIV SWAP1 POP SWAP3 SWAP2 POP POP JUMP JUMPDEST PUSH1 0x0 PUSH2 0x2B99 DUP3 PUSH2 0x1D23 JUMP JUMPDEST SWAP2 POP PUSH32 0xFFFFFFFFFFFFFFFFFFFFFFFFFFFFFFFFFFFFFFFFFFFFFFFFFFFFFFFFFFFFFFFF DUP3 SUB PUSH2 0x2BCB JUMPI PUSH2 0x2BCA PUSH2 0x2A89 JUMP JUMPDEST JUMPDEST PUSH1 0x1 DUP3 ADD SWAP1 POP SWAP2 SWAP1 POP JUMP JUMPDEST PUSH32 0x4E6F7420656E6F7567682066756E6420746F2077697468647261770000000000 PUSH1 0x0 DUP3 ADD MSTORE POP JUMP JUMPDEST PUSH1 0x0 PUSH2 0x2C0C PUSH1 0x1B DUP4 PUSH2 0x27A4 JUMP JUMPDEST SWAP2 POP PUSH2 0x2C17 DUP3 PUSH2 0x2BD6 JUMP JUMPDEST PUSH1 0x20 DUP3 ADD SWAP1 POP SWAP2 SWAP1 POP JUMP JUMPDEST PUSH1 0x0 PUSH1 0x20 DUP3 ADD SWAP1 POP DUP2 DUP2 SUB PUSH1 0x0 DUP4 ADD MSTORE PUSH2 0x2C3B DUP2 PUSH2 0x2BFF JUMP JUMPDEST SWAP1 POP SWAP2 SWAP1 POP JUMP JUMPDEST PUSH1 0x0 DUP2 SWAP1 POP SWAP3 SWAP2 POP POP JUMP JUMPDEST POP JUMP JUMPDEST PUSH1 0x0 PUSH2 0x2C5D PUSH1 0x0 DUP4 PUSH2 0x2C42 JUMP JUMPDEST SWAP2 POP PUSH2 0x2C68 DUP3 PUSH2 0x2C4D JUMP JUMPDEST PUSH1 0x0 DUP3 ADD SWAP1 POP SWAP2 SWAP1 POP JUMP JUMPDEST PUSH1 0x0 PUSH2 0x2C7E DUP3 PUSH2 0x2C50 JUMP JUMPDEST SWAP2 POP DUP2 SWAP1 POP SWAP2 SWAP1 POP JUMP JUMPDEST PUSH32 0x4661696C656420746F2073656E64207468652072657761726400000000000000 PUSH1 0x0 DUP3 ADD MSTORE POP JUMP JUMPDEST PUSH1 0x0 PUSH2 0x2CBE PUSH1 0x19 DUP4 PUSH2 0x27A4 JUMP JUMPDEST SWAP2 POP PUSH2 0x2CC9 DUP3 PUSH2 0x2C88 JUMP JUMPDEST PUSH1 0x20 DUP3 ADD SWAP1 POP SWAP2 SWAP1 POP JUMP JUMPDEST PUSH1 0x0 PUSH1 0x20 DUP3 ADD SWAP1 POP DUP2 DUP2 SUB PUSH1 0x0 DUP4 ADD MSTORE PUSH2 0x2CED DUP2 PUSH2 0x2CB1 JUMP JUMPDEST SWAP1 POP SWAP2 SWAP1 POP JUMP JUMPDEST PUSH1 0x0 DUP2 MLOAD SWAP1 POP SWAP2 SWAP1 POP JUMP JUMPDEST PUSH1 0x0 DUP3 DUP3 MSTORE PUSH1 0x20 DUP3 ADD SWAP1 POP SWAP3 SWAP2 POP POP JUMP JUMPDEST PUSH1 0x0 DUP2 SWAP1 POP PUSH1 0x20 DUP3 ADD SWAP1 POP SWAP2 SWAP1 POP JUMP JUMPDEST PUSH2 0x2D29 DUP2 PUSH2 0x1D23 JUMP JUMPDEST DUP3 MSTORE POP POP JUMP JUMPDEST PUSH1 0x0 PUSH2 0x2D3B DUP4 DUP4 PUSH2 0x2D20 JUMP JUMPDEST PUSH1 0x20 DUP4 ADD SWAP1 POP SWAP3 SWAP2 POP POP JUMP JUMPDEST PUSH1 0x0 PUSH1 0x20 DUP3 ADD SWAP1 POP SWAP2 SWAP1 POP JUMP JUMPDEST PUSH1 0x0 PUSH2 0x2D5F DUP3 PUSH2 0x2CF4 JUMP JUMPDEST PUSH2 0x2D69 DUP2 DUP6 PUSH2 0x2CFF JUMP JUMPDEST SWAP4 POP PUSH2 0x2D74 DUP4 PUSH2 0x2D10 JUMP JUMPDEST DUP1 PUSH1 0x0 JUMPDEST DUP4 DUP2 LT ISZERO PUSH2 0x2DA5 JUMPI DUP2 MLOAD PUSH2 0x2D8C DUP9 DUP3 PUSH2 0x2D2F JUMP JUMPDEST SWAP8 POP PUSH2 0x2D97 DUP4 PUSH2 0x2D47 JUMP JUMPDEST SWAP3 POP POP PUSH1 0x1 DUP2 ADD SWAP1 POP PUSH2 0x2D78 JUMP JUMPDEST POP DUP6 SWAP4 POP POP POP POP SWAP3 SWAP2 POP POP JUMP JUMPDEST PUSH1 0x0 PUSH1 0x40 DUP3 ADD SWAP1 POP PUSH2 0x2DC7 PUSH1 0x0 DUP4 ADD DUP6 PUSH2 0x24F9 JUMP JUMPDEST DUP2 DUP2 SUB PUSH1 0x20 DUP4 ADD MSTORE PUSH2 0x2DD9 DUP2 DUP5 PUSH2 0x2D54 JUMP JUMPDEST SWAP1 POP SWAP4 SWAP3 POP POP POP JUMP JUMPDEST PUSH1 0x0 PUSH2 0x2DED DUP3 PUSH2 0x1D23 JUMP JUMPDEST SWAP2 POP PUSH2 0x2DF8 DUP4 PUSH2 0x1D23 JUMP JUMPDEST SWAP3 POP DUP3 DUP3 SUB SWAP1 POP DUP2 DUP2 GT ISZERO PUSH2 0x2E10 JUMPI PUSH2 0x2E0F PUSH2 0x2A89 JUMP JUMPDEST JUMPDEST SWAP3 SWAP2 POP POP JUMP INVALID LOG2 PUSH5 0x6970667358 0x22 SLT KECCAK256 EXTCODEHASH SWAP15 0xD0 0xC4 GASPRICE DUP7 0x28 0xBE 0xF7 0xD6 0xBD CALLDATALOAD PUSH17 0x13008D95D22F67BDB7B0B2C9E452A52900 0xEA PUSH4 0x64736F6C PUSH4 0x43000818 STOP CALLER "
        },
        "methodIdentifiers": {
          "checkUpkeep(bytes)": "6e04ff0d",
          "enterBingo((uint8,(uint32,uint16)[])[])": "2a8136e0",
          "getBingoState()": "a4c6e86c",
          "getListOfPlayer()": "e2f412d4",
          "performUpkeep(bytes)": "4585e33b",
          "rawFulfillRandomWords(uint256,uint256[])": "1fe543e3",
          "requestIds(uint256)": "8796ba8c",
          "s_pastResults(uint256,uint256)": "dd09ea3c",
          "s_players(uint256)": "ae771f6b",
          "s_requests(uint256)": "a168fa89"
        }
      }
    }
  }
}