{
  "contracts/Bingo18.sol": {
    "Bingo18": {
      "abi": [
        {
          "inputs": [
            {
              "internalType": "address",
              "name": "vrfCoordinator",
              "type": "address"
            },
            {
              "internalType": "bytes32",
              "name": "keyHash",
              "type": "bytes32"
            },
            {
              "internalType": "uint256",
              "name": "subscriptionId",
              "type": "uint256"
            },
            {
              "internalType": "uint16",
              "name": "requestConfirmations",
              "type": "uint16"
            },
            {
              "internalType": "uint32",
              "name": "callbackGasLimit",
              "type": "uint32"
            }
          ],
          "stateMutability": "nonpayable",
          "type": "constructor"
        },
        {
          "inputs": [
            {
              "internalType": "address",
              "name": "have",
              "type": "address"
            },
            {
              "internalType": "address",
              "name": "want",
              "type": "address"
            }
          ],
          "name": "OnlyCoordinatorCanFulfill",
          "type": "error"
        },
        {
          "anonymous": false,
          "inputs": [
            {
              "indexed": false,
              "internalType": "uint256",
              "name": "requestId",
              "type": "uint256"
            },
            {
              "indexed": false,
              "internalType": "uint256[]",
              "name": "randomWords",
              "type": "uint256[]"
            }
          ],
          "name": "RequestFulfilled",
          "type": "event"
        },
        {
          "anonymous": false,
          "inputs": [
            {
              "indexed": false,
              "internalType": "uint256",
              "name": "requestId",
              "type": "uint256"
            },
            {
              "indexed": false,
              "internalType": "uint32",
              "name": "numWords",
              "type": "uint32"
            }
          ],
          "name": "RequestSent",
          "type": "event"
        },
        {
          "inputs": [
            {
              "internalType": "bytes",
              "name": "",
              "type": "bytes"
            }
          ],
          "name": "checkUpkeep",
          "outputs": [
            {
              "internalType": "bool",
              "name": "upkeepNeeded",
              "type": "bool"
            },
            {
              "internalType": "bytes",
              "name": "",
              "type": "bytes"
            }
          ],
          "stateMutability": "view",
          "type": "function"
        },
        {
          "inputs": [
            {
              "components": [
                {
                  "internalType": "enum Bingo18.Option",
                  "name": "option",
                  "type": "uint8"
                },
                {
                  "components": [
                    {
                      "internalType": "uint32",
                      "name": "value",
                      "type": "uint32"
                    },
                    {
                      "internalType": "uint16",
                      "name": "amount",
                      "type": "uint16"
                    }
                  ],
                  "internalType": "struct Bingo18.Value[]",
                  "name": "values",
                  "type": "tuple[]"
                }
              ],
              "internalType": "struct Bingo18.Ticket[]",
              "name": "options",
              "type": "tuple[]"
            }
          ],
          "name": "enterBingo",
          "outputs": [],
          "stateMutability": "payable",
          "type": "function"
        },
        {
          "inputs": [],
          "name": "get5PastResult",
          "outputs": [
            {
              "internalType": "uint256[3][5]",
              "name": "",
              "type": "uint256[3][5]"
            }
          ],
          "stateMutability": "view",
          "type": "function"
        },
        {
          "inputs": [],
          "name": "getBingoState",
          "outputs": [
            {
              "internalType": "enum Bingo18.BingoState",
              "name": "",
              "type": "uint8"
            }
          ],
          "stateMutability": "view",
          "type": "function"
        },
        {
          "inputs": [],
          "name": "getListOfPlayer",
          "outputs": [
            {
              "internalType": "address payable[]",
              "name": "",
              "type": "address[]"
            }
          ],
          "stateMutability": "view",
          "type": "function"
        },
        {
          "inputs": [
            {
              "internalType": "bytes",
              "name": "",
              "type": "bytes"
            }
          ],
          "name": "performUpkeep",
          "outputs": [],
          "stateMutability": "nonpayable",
          "type": "function"
        },
        {
          "inputs": [
            {
              "internalType": "uint256",
              "name": "requestId",
              "type": "uint256"
            },
            {
              "internalType": "uint256[]",
              "name": "randomWords",
              "type": "uint256[]"
            }
          ],
          "name": "rawFulfillRandomWords",
          "outputs": [],
          "stateMutability": "nonpayable",
          "type": "function"
        },
        {
          "inputs": [
            {
              "internalType": "uint256",
              "name": "",
              "type": "uint256"
            }
          ],
          "name": "requestIds",
          "outputs": [
            {
              "internalType": "uint256",
              "name": "",
              "type": "uint256"
            }
          ],
          "stateMutability": "view",
          "type": "function"
        },
        {
          "inputs": [
            {
              "internalType": "uint256",
              "name": "",
              "type": "uint256"
            },
            {
              "internalType": "uint256",
              "name": "",
              "type": "uint256"
            }
          ],
          "name": "s_pastResults",
          "outputs": [
            {
              "internalType": "uint256",
              "name": "",
              "type": "uint256"
            }
          ],
          "stateMutability": "view",
          "type": "function"
        },
        {
          "inputs": [
            {
              "internalType": "uint256",
              "name": "",
              "type": "uint256"
            }
          ],
          "name": "s_players",
          "outputs": [
            {
              "internalType": "address payable",
              "name": "",
              "type": "address"
            }
          ],
          "stateMutability": "view",
          "type": "function"
        },
        {
          "inputs": [
            {
              "internalType": "uint256",
              "name": "",
              "type": "uint256"
            }
          ],
          "name": "s_requests",
          "outputs": [
            {
              "internalType": "bool",
              "name": "fulfilled",
              "type": "bool"
            },
            {
              "internalType": "bool",
              "name": "exists",
              "type": "bool"
            }
          ],
          "stateMutability": "view",
          "type": "function"
        }
      ],
      "evm": {
        "bytecode": {
          "linkReferences": {},
          "object": "6101406040523480156200001257600080fd5b50604051620034b5380380620034b5833981810160405281019062000038919062000271565b848073ffffffffffffffffffffffffffffffffffffffff1660808173ffffffffffffffffffffffffffffffffffffffff1681525050508473ffffffffffffffffffffffffffffffffffffffff1660a08173ffffffffffffffffffffffffffffffffffffffff16815250508360c081815250508260e081815250508161ffff166101008161ffff16815250508063ffffffff166101208163ffffffff16815250506001601160006101000a81548160ff02191690836001811115620001015762000100620002f9565b5b0217905550505050505062000328565b600080fd5b600073ffffffffffffffffffffffffffffffffffffffff82169050919050565b6000620001438262000116565b9050919050565b620001558162000136565b81146200016157600080fd5b50565b60008151905062000175816200014a565b92915050565b6000819050919050565b62000190816200017b565b81146200019c57600080fd5b50565b600081519050620001b08162000185565b92915050565b6000819050919050565b620001cb81620001b6565b8114620001d757600080fd5b50565b600081519050620001eb81620001c0565b92915050565b600061ffff82169050919050565b6200020a81620001f1565b81146200021657600080fd5b50565b6000815190506200022a81620001ff565b92915050565b600063ffffffff82169050919050565b6200024b8162000230565b81146200025757600080fd5b50565b6000815190506200026b8162000240565b92915050565b600080600080600060a0868803121562000290576200028f62000111565b5b6000620002a08882890162000164565b9550506020620002b3888289016200019f565b9450506040620002c688828901620001da565b9350506060620002d98882890162000219565b9250506080620002ec888289016200025a565b9150509295509295909350565b7f4e487b7100000000000000000000000000000000000000000000000000000000600052602160045260246000fd5b60805160a05160c05160e05161010051610120516131366200037f60003960006105e4015260006105c3015260006105a201526000610581015260006105450152600081816102c5015261031901526131366000f3fe60806040526004361061009c5760003560e01c80638796ba8c116100645780638796ba8c14610178578063a168fa89146101b5578063a4c6e86c146101f3578063ae771f6b1461021e578063dd09ea3c1461025b578063e2f412d4146102985761009c565b80631fe543e3146100a15780632a8136e0146100ca5780634585e33b146100e65780634cd64f291461010f5780636e04ff0d1461013a575b600080fd5b3480156100ad57600080fd5b506100c860048036038101906100c39190612060565b6102c3565b005b6100e460048036038101906100df91906123c1565b610383565b005b3480156100f257600080fd5b5061010d60048036038101906101089190612465565b6104b8565b005b34801561011b57600080fd5b506101246107b0565b60405161013191906125f9565b60405180910390f35b34801561014657600080fd5b50610161600480360381019061015c91906126ca565b610833565b60405161016f9291906127ad565b60405180910390f35b34801561018457600080fd5b5061019f600480360381019061019a91906127dd565b610858565b6040516101ac9190612819565b60405180910390f35b3480156101c157600080fd5b506101dc60048036038101906101d791906127dd565b61087c565b6040516101ea929190612834565b60405180910390f35b3480156101ff57600080fd5b506102086108ba565b60405161021591906128d4565b60405180910390f35b34801561022a57600080fd5b50610245600480360381019061024091906127dd565b6108d1565b6040516102529190612930565b60405180910390f35b34801561026757600080fd5b50610282600480360381019061027d919061294b565b610910565b60405161028f9190612819565b60405180910390f35b3480156102a457600080fd5b506102ad61093e565b6040516102ba9190612a49565b60405180910390f35b7f000000000000000000000000000000000000000000000000000000000000000073ffffffffffffffffffffffffffffffffffffffff163373ffffffffffffffffffffffffffffffffffffffff161461037557337f00000000000000000000000000000000000000000000000000000000000000006040517f1cf993f400000000000000000000000000000000000000000000000000000000815260040161036c929190612a8c565b60405180910390fd5b61037f82826109cc565b5050565b600061038e826117e6565b90508034146103d2576040517f08c379a00000000000000000000000000000000000000000000000000000000081526004016103c990612b12565b60405180910390fd5b6001808111156103e5576103e461285d565b5b601160009054906101000a900460ff1660018111156104075761040661285d565b5b14610447576040517f08c379a000000000000000000000000000000000000000000000000000000000815260040161043e90612b7e565b60405180910390fd5b6104513383611896565b6010339080600181540180825580915050600190039060005260206000200160009091909190916101000a81548173ffffffffffffffffffffffffffffffffffffffff021916908373ffffffffffffffffffffffffffffffffffffffff1602179055505050565b60006104d260405180602001604052806000815250610833565b5090508015610516576040517f08c379a000000000000000000000000000000000000000000000000000000000815260040161050d90612bea565b60405180910390fd5b6000601160006101000a81548160ff0219169083600181111561053c5761053b61285d565b5b021790555060007f000000000000000000000000000000000000000000000000000000000000000073ffffffffffffffffffffffffffffffffffffffff1663d33d44c17f00000000000000000000000000000000000000000000000000000000000000007f00000000000000000000000000000000000000000000000000000000000000007f00000000000000000000000000000000000000000000000000000000000000007f000000000000000000000000000000000000000000000000000000000000000060036040518663ffffffff1660e01b8152600401610625959493929190612c41565b6020604051808303816000875af1158015610644573d6000803e3d6000fd5b505050506040513d601f19601f820116820180604052508101906106689190612ca9565b90506040518060600160405280600015158152602001600115158152602001600067ffffffffffffffff8111156106a2576106a1611f1d565b5b6040519080825280602002602001820160405280156106d05781602001602082028036833780820191505090505b508152506012600083815260200190815260200160002060008201518160000160006101000a81548160ff02191690831515021790555060208201518160000160016101000a81548160ff0219169083151502179055506040820151816001019080519060200190610743929190611cce565b5090505060138190806001815401808255809150506001900390600052602060002001600090919091909150557fcc58b13ad3eab50626c6a6300b1d139cd6ebb1688a7cced9461c2f7e762665ee8160036040516107a2929190612cd6565b60405180910390a150505050565b6107b8611d1b565b6000600580602002604051908101604052809291906000905b8282101561082a57838260030201600380602002604051908101604052809291908260038015610816576020028201915b815481526020019060010190808311610802575b5050505050815260200190600101906107d1565b50505050905090565b600060606000601080549050111561084e5760019150610853565b600091505b915091565b6013818154811061086857600080fd5b906000526020600020016000915090505481565b60126020528060005260406000206000915090508060000160009054906101000a900460ff16908060000160019054906101000a900460ff16905082565b6000601160009054906101000a900460ff16905090565b601081815481106108e157600080fd5b906000526020600020016000915054906101000a900473ffffffffffffffffffffffffffffffffffffffff1681565b6000826005811061092057600080fd5b60030201816003811061093257600080fd5b01600091509150505481565b606060108054806020026020016040519081016040528092919081815260200182805480156109c257602002820191906000526020600020905b8160009054906101000a900473ffffffffffffffffffffffffffffffffffffffff1673ffffffffffffffffffffffffffffffffffffffff1681526020019060010190808311610978575b5050505050905090565b6012600083815260200190815260200160002060000160019054906101000a900460ff16610a2f576040517f08c379a0000000000000000000000000000000000000000000000000000000008152600401610a2690612d4b565b60405180910390fd5b60005b6010805490508110156117125760008060108381548110610a5657610a55612d6b565b5b9060005260206000200160009054906101000a900473ffffffffffffffffffffffffffffffffffffffff1690506000600f60008373ffffffffffffffffffffffffffffffffffffffff1673ffffffffffffffffffffffffffffffffffffffff168152602001908152602001600020805480602002602001604051908101604052809291908181526020016000905b82821015610bf257838290600052602060002090600202016040518060400160405290816000820160009054906101000a900460ff166004811115610b2c57610b2b61285d565b5b6004811115610b3e57610b3d61285d565b5b815260200160018201805480602002602001604051908101604052809291908181526020016000905b82821015610bdb578382906000526020600020016040518060400160405290816000820160009054906101000a900463ffffffff1663ffffffff1663ffffffff1681526020016000820160049054906101000a900461ffff1661ffff1661ffff168152505081526020019060010190610b67565b505050508152505081526020019060010190610ae4565b50505050905060005b8151811015611608576000828281518110610c1957610c18612d6b565b5b6020026020010151905060008160200151905060016004811115610c4057610c3f61285d565b5b82600001516004811115610c5757610c5661285d565b5b03610e0c57600088600281518110610c7257610c71612d6b565b5b602002602001015189600181518110610c8e57610c8d612d6b565b5b60200260200101518a600081518110610caa57610ca9612d6b565b5b6020026020010151610cbc9190612dc9565b610cc69190612dc9565b905060005b8251811015610e05576000838281518110610ce957610ce8612d6b565b5b6020026020010151905060038310158015610d05575060098311155b8015610d1b57506000816000015163ffffffff16145b80610d4a5750600c8310158015610d33575060128311155b8015610d4957506002816000015163ffffffff16145b5b15610d94576002600366038d7ea4c68000836020015161ffff16610d6e9190612dfd565b610d789190612dfd565b610d829190612e6e565b89610d8d9190612dc9565b9850610df7565b600a8310158015610da65750600b8311155b8015610dbc57506001816000015163ffffffff16145b15610df657600266038d7ea4c68000826020015161ffff16610dde9190612dfd565b610de89190612dfd565b89610df39190612dc9565b98505b5b508080600101915050610ccb565b50506115f9565b60006004811115610e2057610e1f61285d565b5b82600001516004811115610e3757610e3661285d565b5b0361118957600088600281518110610e5257610e51612d6b565b5b602002602001015189600181518110610e6e57610e6d612d6b565b5b60200260200101518a600081518110610e8a57610e89612d6b565b5b6020026020010151610e9c9190612dc9565b610ea69190612dc9565b905060005b8251811015611182576000838281518110610ec957610ec8612d6b565b5b6020026020010151905082816000015163ffffffff1603611174576003831480610ef35750601283145b15610f3157607866038d7ea4c68000826020015161ffff16610f159190612dfd565b610f1f9190612dfd565b89610f2a9190612dc9565b9850611173565b6004831480610f405750601183145b15610f7e57602866038d7ea4c68000826020015161ffff16610f629190612dfd565b610f6c9190612dfd565b89610f779190612dc9565b9850611172565b6005831480610f8d5750601083145b15610fcb57601466038d7ea4c68000826020015161ffff16610faf9190612dfd565b610fb99190612dfd565b89610fc49190612dc9565b9850611171565b6006831480610fda5750600f83145b1561101857600c66038d7ea4c68000826020015161ffff16610ffc9190612dfd565b6110069190612dfd565b896110119190612dc9565b9850611170565b60078314806110275750600e83145b1561106557600866038d7ea4c68000826020015161ffff166110499190612dfd565b6110539190612dfd565b8961105e9190612dc9565b985061116f565b60088314806110745750600d83145b156110be576002600b66038d7ea4c68000836020015161ffff166110989190612dfd565b6110a29190612dfd565b6110ac9190612e6e565b896110b79190612dc9565b985061116e565b60098314806110cd5750600c83145b1561111757600a602f66038d7ea4c68000836020015161ffff166110f19190612dfd565b6110fb9190612dfd565b6111059190612e6e565b896111109190612dc9565b985061116d565b600a8314806111265750600b83145b1561116c576005601666038d7ea4c68000836020015161ffff1661114a9190612dfd565b6111549190612dfd565b61115e9190612e6e565b896111699190612dc9565b98505b5b5b5b5b5b5b5b5b508080600101915050610eab565b50506115f8565b6002600481111561119d5761119c61285d565b5b826000015160048111156111b4576111b361285d565b5b0361131b5760005b81518110156113155760008282815181106111da576111d9612d6b565b5b602002602001015190506000805b8b51811015611238578b818151811061120457611203612d6b565b5b6020026020010151836000015163ffffffff160361122b57818061122790612e9f565b9250505b80806001019150506111e8565b506001810361128657600a600c66038d7ea4c68000846020015161ffff166112609190612dfd565b61126a9190612dfd565b6112749190612e6e565b8961127f9190612dc9565b9850611306565b600281036112c757600266038d7ea4c68000836020015161ffff166112ab9190612dfd565b6112b59190612dfd565b896112c09190612dc9565b9850611305565b6003810361130457600366038d7ea4c68000836020015161ffff166112ec9190612dfd565b6112f69190612dfd565b896113019190612dc9565b98505b5b5b505080806001019150506111bc565b506115f7565b6003600481111561132f5761132e61285d565b5b826000015160048111156113465761134561285d565b5b036114295760005b815181101561142357600082828151811061136c5761136b612d6b565b5b602002602001015190506000805b8b518110156113ca578b818151811061139657611395612d6b565b5b6020026020010151836000015163ffffffff16036113bd5781806113b990612e9f565b9250505b808060010191505061137a565b506002811061141457600a604b66038d7ea4c68000846020015161ffff166113f29190612dfd565b6113fc9190612dfd565b6114069190612e6e565b896114119190612dc9565b98505b5050808060010191505061134e565b506115f6565b60048081111561143c5761143b61285d565b5b826000015160048111156114535761145261285d565b5b036115f55760005b81518110156115f357600082828151811061147957611478612d6b565b5b602002602001015190506000805b8b518110156114d7578b81815181106114a3576114a2612d6b565b5b6020026020010151836000015163ffffffff16036114ca5781806114c690612e9f565b9250505b8080600101915050611487565b506003810361151957607866038d7ea4c68000836020015161ffff166114fd9190612dfd565b6115079190612dfd565b896115129190612dc9565b98506115e4565b8a60018151811061152d5761152c612d6b565b5b60200260200101518b60008151811061154957611548612d6b565b5b602002602001015114801561159357508a60028151811061156d5761156c612d6b565b5b60200260200101518b60018151811061158957611588612d6b565b5b6020026020010151145b80156115a957506007826000015163ffffffff16145b156115e357601466038d7ea4c68000836020015161ffff166115cb9190612dfd565b6115d59190612dfd565b896115e09190612dc9565b98505b5b5050808060010191505061145b565b505b5b5b5b5b50508080600101915050610bfb565b50600083111561170257824711611654576040517f08c379a000000000000000000000000000000000000000000000000000000000815260040161164b90612f33565b60405180910390fd5b60008273ffffffffffffffffffffffffffffffffffffffff168460405161167a90612f84565b60006040518083038185875af1925050503d80600081146116b7576040519150601f19603f3d011682016040523d82523d6000602084013e6116bc565b606091505b5050905080611700576040517f08c379a00000000000000000000000000000000000000000000000000000000081526004016116f790612fe5565b60405180910390fd5b505b5050508080600101915050610a32565b5060016012600084815260200190815260200160002060000160006101000a81548160ff0219169083151502179055508060126000848152602001908152602001600020600101908051906020019061176c929190611cce565b507ffe2e2d779dba245964d4e3ef9b994be63856fd568bf7d3ca9e224755cb1bd54d828260405161179e92919061309c565b60405180910390a16001601160006101000a81548160ff021916908360018111156117cc576117cb61285d565b5b02179055506117d9611a8b565b6117e281611b48565b5050565b6000806000905060005b835181101561187a57600084828151811061180e5761180d612d6b565b5b602002602001015160200151905060005b815181101561186b57600082828151811061183d5761183c612d6b565b5b60200260200101519050806020015161ffff168561185b9190612dc9565b945050808060010191505061181f565b505080806001019150506117f0565b5066038d7ea4c680008161188e9190612dfd565b915050919050565b6000600f60008473ffffffffffffffffffffffffffffffffffffffff1673ffffffffffffffffffffffffffffffffffffffff1681526020019081526020016000209050600f60008473ffffffffffffffffffffffffffffffffffffffff1673ffffffffffffffffffffffffffffffffffffffff16815260200190815260200160002060006119249190611d48565b60005b8251811015611a8557600083828151811061194557611944612d6b565b5b60200260200101519050600081602001519050600084600181600181540180825580915050039060005260206000209060020201600101905060005b8251811015611a24578183828151811061199e5761199d612d6b565b5b60200260200101519080600181540180825580915050600190039060005260206000200160009091909190915060008201518160000160006101000a81548163ffffffff021916908363ffffffff16021790555060208201518160000160046101000a81548161ffff021916908361ffff16021790555050508080600101915050611981565b508260000151858581548110611a3d57611a3c612d6b565b5b906000526020600020906002020160000160006101000a81548160ff02191690836004811115611a7057611a6f61285d565b5b02179055505050508080600101915050611927565b50505050565b60005b601080549050811015611b3757600060108281548110611ab157611ab0612d6b565b5b9060005260206000200160009054906101000a900473ffffffffffffffffffffffffffffffffffffffff169050600f60008273ffffffffffffffffffffffffffffffffffffffff1673ffffffffffffffffffffffffffffffffffffffff1681526020019081526020016000206000611b299190611d48565b508080600101915050611a8e565b5060106000611b469190611d6c565b565b600060016005611b5891906130cc565b90505b6000811115611be65760008160058110611b7857611b77612d6b565b5b600302016000611b889190611d8d565b6000600182611b9791906130cc565b60058110611ba857611ba7612d6b565b5b6003020160008260058110611bc057611bbf612d6b565b5b60030201906003611bd2929190611da2565b508080611bde90612e9f565b915050611b5b565b5080600081518110611bfb57611bfa612d6b565b5b602002602001015160008060058110611c1757611c16612d6b565b5b60030201600060038110611c2e57611c2d612d6b565b5b018190555080600181518110611c4757611c46612d6b565b5b602002602001015160008060058110611c6357611c62612d6b565b5b60030201600160038110611c7a57611c79612d6b565b5b018190555080600281518110611c9357611c92612d6b565b5b602002602001015160008060058110611caf57611cae612d6b565b5b60030201600260038110611cc657611cc5612d6b565b5b018190555050565b828054828255906000526020600020908101928215611d0a579160200282015b82811115611d09578251825591602001919060010190611cee565b5b509050611d179190611ddf565b5090565b6040518060a001604052806005905b611d32611dfc565b815260200190600190039081611d2a5790505090565b5080546000825560020290600052602060002090810190611d699190611e1e565b50565b5080546000825590600052602060002090810190611d8a9190611ddf565b50565b50600081556001016000815560010160009055565b8260038101928215611dce579182015b82811115611dcd578254825591600101919060010190611db2565b5b509050611ddb9190611ddf565b5090565b5b80821115611df8576000816000905550600101611de0565b5090565b6040518060600160405280600390602082028036833780820191505090505090565b5b80821115611e5557600080820160006101000a81549060ff0219169055600182016000611e4c9190611e59565b50600201611e1f565b5090565b5080546000825590600052602060002090810190611e779190611e7a565b50565b5b80821115611eb957600080820160006101000a81549063ffffffff02191690556000820160046101000a81549061ffff021916905550600101611e7b565b5090565b6000604051905090565b600080fd5b600080fd5b6000819050919050565b611ee481611ed1565b8114611eef57600080fd5b50565b600081359050611f0181611edb565b92915050565b600080fd5b6000601f19601f8301169050919050565b7f4e487b7100000000000000000000000000000000000000000000000000000000600052604160045260246000fd5b611f5582611f0c565b810181811067ffffffffffffffff82111715611f7457611f73611f1d565b5b80604052505050565b6000611f87611ebd565b9050611f938282611f4c565b919050565b600067ffffffffffffffff821115611fb357611fb2611f1d565b5b602082029050602081019050919050565b600080fd5b6000611fdc611fd784611f98565b611f7d565b90508083825260208201905060208402830185811115611fff57611ffe611fc4565b5b835b8181101561202857806120148882611ef2565b845260208401935050602081019050612001565b5050509392505050565b600082601f83011261204757612046611f07565b5b8135612057848260208601611fc9565b91505092915050565b6000806040838503121561207757612076611ec7565b5b600061208585828601611ef2565b925050602083013567ffffffffffffffff8111156120a6576120a5611ecc565b5b6120b285828601612032565b9150509250929050565b600067ffffffffffffffff8211156120d7576120d6611f1d565b5b602082029050602081019050919050565b600080fd5b600080fd5b600581106120ff57600080fd5b50565b600081359050612111816120f2565b92915050565b600067ffffffffffffffff82111561213257612131611f1d565b5b602082029050602081019050919050565b600063ffffffff82169050919050565b61215c81612143565b811461216757600080fd5b50565b60008135905061217981612153565b92915050565b600061ffff82169050919050565b6121968161217f565b81146121a157600080fd5b50565b6000813590506121b38161218d565b92915050565b6000604082840312156121cf576121ce6120e8565b5b6121d96040611f7d565b905060006121e98482850161216a565b60008301525060206121fd848285016121a4565b60208301525092915050565b600061221c61221784612117565b611f7d565b9050808382526020820190506040840283018581111561223f5761223e611fc4565b5b835b81811015612268578061225488826121b9565b845260208401935050604081019050612241565b5050509392505050565b600082601f83011261228757612286611f07565b5b8135612297848260208601612209565b91505092915050565b6000604082840312156122b6576122b56120e8565b5b6122c06040611f7d565b905060006122d084828501612102565b600083015250602082013567ffffffffffffffff8111156122f4576122f36120ed565b5b61230084828501612272565b60208301525092915050565b600061231f61231a846120bc565b611f7d565b9050808382526020820190506020840283018581111561234257612341611fc4565b5b835b8181101561238957803567ffffffffffffffff81111561236757612366611f07565b5b80860161237489826122a0565b85526020850194505050602081019050612344565b5050509392505050565b600082601f8301126123a8576123a7611f07565b5b81356123b884826020860161230c565b91505092915050565b6000602082840312156123d7576123d6611ec7565b5b600082013567ffffffffffffffff8111156123f5576123f4611ecc565b5b61240184828501612393565b91505092915050565b600080fd5b60008083601f84011261242557612424611f07565b5b8235905067ffffffffffffffff8111156124425761244161240a565b5b60208301915083600182028301111561245e5761245d611fc4565b5b9250929050565b6000806020838503121561247c5761247b611ec7565b5b600083013567ffffffffffffffff81111561249a57612499611ecc565b5b6124a68582860161240f565b92509250509250929050565b600060059050919050565b600081905092915050565b6000819050919050565b600060039050919050565b600081905092915050565b6000819050919050565b6124fb81611ed1565b82525050565b600061250d83836124f2565b60208301905092915050565b6000602082019050919050565b61252f816124d2565b61253981846124dd565b9250612544826124e8565b8060005b8381101561257557815161255c8782612501565b965061256783612519565b925050600181019050612548565b505050505050565b60006125898383612526565b60608301905092915050565b6000602082019050919050565b6125ab816124b2565b6125b581846124bd565b92506125c0826124c8565b8060005b838110156125f15781516125d8878261257d565b96506125e383612595565b9250506001810190506125c4565b505050505050565b60006101e08201905061260f60008301846125a2565b92915050565b600080fd5b600067ffffffffffffffff82111561263557612634611f1d565b5b61263e82611f0c565b9050602081019050919050565b82818337600083830152505050565b600061266d6126688461261a565b611f7d565b90508281526020810184848401111561268957612688612615565b5b61269484828561264b565b509392505050565b600082601f8301126126b1576126b0611f07565b5b81356126c184826020860161265a565b91505092915050565b6000602082840312156126e0576126df611ec7565b5b600082013567ffffffffffffffff8111156126fe576126fd611ecc565b5b61270a8482850161269c565b91505092915050565b60008115159050919050565b61272881612713565b82525050565b600081519050919050565b600082825260208201905092915050565b60005b8381101561276857808201518184015260208101905061274d565b60008484015250505050565b600061277f8261272e565b6127898185612739565b935061279981856020860161274a565b6127a281611f0c565b840191505092915050565b60006040820190506127c2600083018561271f565b81810360208301526127d48184612774565b90509392505050565b6000602082840312156127f3576127f2611ec7565b5b600061280184828501611ef2565b91505092915050565b61281381611ed1565b82525050565b600060208201905061282e600083018461280a565b92915050565b6000604082019050612849600083018561271f565b612856602083018461271f565b9392505050565b7f4e487b7100000000000000000000000000000000000000000000000000000000600052602160045260246000fd5b6002811061289d5761289c61285d565b5b50565b60008190506128ae8261288c565b919050565b60006128be826128a0565b9050919050565b6128ce816128b3565b82525050565b60006020820190506128e960008301846128c5565b92915050565b600073ffffffffffffffffffffffffffffffffffffffff82169050919050565b600061291a826128ef565b9050919050565b61292a8161290f565b82525050565b60006020820190506129456000830184612921565b92915050565b6000806040838503121561296257612961611ec7565b5b600061297085828601611ef2565b925050602061298185828601611ef2565b9150509250929050565b600081519050919050565b600082825260208201905092915050565b6000819050602082019050919050565b6129c08161290f565b82525050565b60006129d283836129b7565b60208301905092915050565b6000602082019050919050565b60006129f68261298b565b612a008185612996565b9350612a0b836129a7565b8060005b83811015612a3c578151612a2388826129c6565b9750612a2e836129de565b925050600181019050612a0f565b5085935050505092915050565b60006020820190508181036000830152612a6381846129eb565b905092915050565b6000612a76826128ef565b9050919050565b612a8681612a6b565b82525050565b6000604082019050612aa16000830185612a7d565b612aae6020830184612a7d565b9392505050565b600082825260208201905092915050565b7f4e6f7420656e6f7567682066656520746f206a6f696e00000000000000000000600082015250565b6000612afc601683612ab5565b9150612b0782612ac6565b602082019050919050565b60006020820190508181036000830152612b2b81612aef565b9050919050565b7f42696e676f2069732063616c63756c6174696e67207265776172642100000000600082015250565b6000612b68601c83612ab5565b9150612b7382612b32565b602082019050919050565b60006020820190508181036000830152612b9781612b5b565b9050919050565b7f4572726f722c204e6f20506c6179657221000000000000000000000000000000600082015250565b6000612bd4601183612ab5565b9150612bdf82612b9e565b602082019050919050565b60006020820190508181036000830152612c0381612bc7565b9050919050565b6000819050919050565b612c1d81612c0a565b82525050565b612c2c8161217f565b82525050565b612c3b81612143565b82525050565b600060a082019050612c566000830188612c14565b612c63602083018761280a565b612c706040830186612c23565b612c7d6060830185612c32565b612c8a6080830184612c32565b9695505050505050565b600081519050612ca381611edb565b92915050565b600060208284031215612cbf57612cbe611ec7565b5b6000612ccd84828501612c94565b91505092915050565b6000604082019050612ceb600083018561280a565b612cf86020830184612c32565b9392505050565b7f72657175657374206e6f7420666f756e64000000000000000000000000000000600082015250565b6000612d35601183612ab5565b9150612d4082612cff565b602082019050919050565b60006020820190508181036000830152612d6481612d28565b9050919050565b7f4e487b7100000000000000000000000000000000000000000000000000000000600052603260045260246000fd5b7f4e487b7100000000000000000000000000000000000000000000000000000000600052601160045260246000fd5b6000612dd482611ed1565b9150612ddf83611ed1565b9250828201905080821115612df757612df6612d9a565b5b92915050565b6000612e0882611ed1565b9150612e1383611ed1565b9250828202612e2181611ed1565b91508282048414831517612e3857612e37612d9a565b5b5092915050565b7f4e487b7100000000000000000000000000000000000000000000000000000000600052601260045260246000fd5b6000612e7982611ed1565b9150612e8483611ed1565b925082612e9457612e93612e3f565b5b828204905092915050565b6000612eaa82611ed1565b91507fffffffffffffffffffffffffffffffffffffffffffffffffffffffffffffffff8203612edc57612edb612d9a565b5b600182019050919050565b7f4e6f7420656e6f7567682066756e6420746f2077697468647261770000000000600082015250565b6000612f1d601b83612ab5565b9150612f2882612ee7565b602082019050919050565b60006020820190508181036000830152612f4c81612f10565b9050919050565b600081905092915050565b50565b6000612f6e600083612f53565b9150612f7982612f5e565b600082019050919050565b6000612f8f82612f61565b9150819050919050565b7f4661696c656420746f2073656e64207468652072657761726400000000000000600082015250565b6000612fcf601983612ab5565b9150612fda82612f99565b602082019050919050565b60006020820190508181036000830152612ffe81612fc2565b9050919050565b600081519050919050565b600082825260208201905092915050565b6000819050602082019050919050565b6000602082019050919050565b600061304982613005565b6130538185613010565b935061305e83613021565b8060005b8381101561308f5781516130768882612501565b975061308183613031565b925050600181019050613062565b5085935050505092915050565b60006040820190506130b1600083018561280a565b81810360208301526130c3818461303e565b90509392505050565b60006130d782611ed1565b91506130e283611ed1565b92508282039050818111156130fa576130f9612d9a565b5b9291505056fea26469706673582212201d1f4c12103c7b78b59c03a7cd8dd3f23a6c281d8ab9fd52326b09f0e4d475a864736f6c63430008180033",
          "opcodes": "PUSH2 0x140 PUSH1 0x40 MSTORE CALLVALUE DUP1 ISZERO PUSH3 0x12 JUMPI PUSH1 0x0 DUP1 REVERT JUMPDEST POP PUSH1 0x40 MLOAD PUSH3 0x34B5 CODESIZE SUB DUP1 PUSH3 0x34B5 DUP4 CODECOPY DUP2 DUP2 ADD PUSH1 0x40 MSTORE DUP2 ADD SWAP1 PUSH3 0x38 SWAP2 SWAP1 PUSH3 0x271 JUMP JUMPDEST DUP5 DUP1 PUSH20 0xFFFFFFFFFFFFFFFFFFFFFFFFFFFFFFFFFFFFFFFF AND PUSH1 0x80 DUP2 PUSH20 0xFFFFFFFFFFFFFFFFFFFFFFFFFFFFFFFFFFFFFFFF AND DUP2 MSTORE POP POP POP DUP5 PUSH20 0xFFFFFFFFFFFFFFFFFFFFFFFFFFFFFFFFFFFFFFFF AND PUSH1 0xA0 DUP2 PUSH20 0xFFFFFFFFFFFFFFFFFFFFFFFFFFFFFFFFFFFFFFFF AND DUP2 MSTORE POP POP DUP4 PUSH1 0xC0 DUP2 DUP2 MSTORE POP POP DUP3 PUSH1 0xE0 DUP2 DUP2 MSTORE POP POP DUP2 PUSH2 0xFFFF AND PUSH2 0x100 DUP2 PUSH2 0xFFFF AND DUP2 MSTORE POP POP DUP1 PUSH4 0xFFFFFFFF AND PUSH2 0x120 DUP2 PUSH4 0xFFFFFFFF AND DUP2 MSTORE POP POP PUSH1 0x1 PUSH1 0x11 PUSH1 0x0 PUSH2 0x100 EXP DUP2 SLOAD DUP2 PUSH1 0xFF MUL NOT AND SWAP1 DUP4 PUSH1 0x1 DUP2 GT ISZERO PUSH3 0x101 JUMPI PUSH3 0x100 PUSH3 0x2F9 JUMP JUMPDEST JUMPDEST MUL OR SWAP1 SSTORE POP POP POP POP POP POP PUSH3 0x328 JUMP JUMPDEST PUSH1 0x0 DUP1 REVERT JUMPDEST PUSH1 0x0 PUSH20 0xFFFFFFFFFFFFFFFFFFFFFFFFFFFFFFFFFFFFFFFF DUP3 AND SWAP1 POP SWAP2 SWAP1 POP JUMP JUMPDEST PUSH1 0x0 PUSH3 0x143 DUP3 PUSH3 0x116 JUMP JUMPDEST SWAP1 POP SWAP2 SWAP1 POP JUMP JUMPDEST PUSH3 0x155 DUP2 PUSH3 0x136 JUMP JUMPDEST DUP2 EQ PUSH3 0x161 JUMPI PUSH1 0x0 DUP1 REVERT JUMPDEST POP JUMP JUMPDEST PUSH1 0x0 DUP2 MLOAD SWAP1 POP PUSH3 0x175 DUP2 PUSH3 0x14A JUMP JUMPDEST SWAP3 SWAP2 POP POP JUMP JUMPDEST PUSH1 0x0 DUP2 SWAP1 POP SWAP2 SWAP1 POP JUMP JUMPDEST PUSH3 0x190 DUP2 PUSH3 0x17B JUMP JUMPDEST DUP2 EQ PUSH3 0x19C JUMPI PUSH1 0x0 DUP1 REVERT JUMPDEST POP JUMP JUMPDEST PUSH1 0x0 DUP2 MLOAD SWAP1 POP PUSH3 0x1B0 DUP2 PUSH3 0x185 JUMP JUMPDEST SWAP3 SWAP2 POP POP JUMP JUMPDEST PUSH1 0x0 DUP2 SWAP1 POP SWAP2 SWAP1 POP JUMP JUMPDEST PUSH3 0x1CB DUP2 PUSH3 0x1B6 JUMP JUMPDEST DUP2 EQ PUSH3 0x1D7 JUMPI PUSH1 0x0 DUP1 REVERT JUMPDEST POP JUMP JUMPDEST PUSH1 0x0 DUP2 MLOAD SWAP1 POP PUSH3 0x1EB DUP2 PUSH3 0x1C0 JUMP JUMPDEST SWAP3 SWAP2 POP POP JUMP JUMPDEST PUSH1 0x0 PUSH2 0xFFFF DUP3 AND SWAP1 POP SWAP2 SWAP1 POP JUMP JUMPDEST PUSH3 0x20A DUP2 PUSH3 0x1F1 JUMP JUMPDEST DUP2 EQ PUSH3 0x216 JUMPI PUSH1 0x0 DUP1 REVERT JUMPDEST POP JUMP JUMPDEST PUSH1 0x0 DUP2 MLOAD SWAP1 POP PUSH3 0x22A DUP2 PUSH3 0x1FF JUMP JUMPDEST SWAP3 SWAP2 POP POP JUMP JUMPDEST PUSH1 0x0 PUSH4 0xFFFFFFFF DUP3 AND SWAP1 POP SWAP2 SWAP1 POP JUMP JUMPDEST PUSH3 0x24B DUP2 PUSH3 0x230 JUMP JUMPDEST DUP2 EQ PUSH3 0x257 JUMPI PUSH1 0x0 DUP1 REVERT JUMPDEST POP JUMP JUMPDEST PUSH1 0x0 DUP2 MLOAD SWAP1 POP PUSH3 0x26B DUP2 PUSH3 0x240 JUMP JUMPDEST SWAP3 SWAP2 POP POP JUMP JUMPDEST PUSH1 0x0 DUP1 PUSH1 0x0 DUP1 PUSH1 0x0 PUSH1 0xA0 DUP7 DUP9 SUB SLT ISZERO PUSH3 0x290 JUMPI PUSH3 0x28F PUSH3 0x111 JUMP JUMPDEST JUMPDEST PUSH1 0x0 PUSH3 0x2A0 DUP9 DUP3 DUP10 ADD PUSH3 0x164 JUMP JUMPDEST SWAP6 POP POP PUSH1 0x20 PUSH3 0x2B3 DUP9 DUP3 DUP10 ADD PUSH3 0x19F JUMP JUMPDEST SWAP5 POP POP PUSH1 0x40 PUSH3 0x2C6 DUP9 DUP3 DUP10 ADD PUSH3 0x1DA JUMP JUMPDEST SWAP4 POP POP PUSH1 0x60 PUSH3 0x2D9 DUP9 DUP3 DUP10 ADD PUSH3 0x219 JUMP JUMPDEST SWAP3 POP POP PUSH1 0x80 PUSH3 0x2EC DUP9 DUP3 DUP10 ADD PUSH3 0x25A JUMP JUMPDEST SWAP2 POP POP SWAP3 SWAP6 POP SWAP3 SWAP6 SWAP1 SWAP4 POP JUMP JUMPDEST PUSH32 0x4E487B7100000000000000000000000000000000000000000000000000000000 PUSH1 0x0 MSTORE PUSH1 0x21 PUSH1 0x4 MSTORE PUSH1 0x24 PUSH1 0x0 REVERT JUMPDEST PUSH1 0x80 MLOAD PUSH1 0xA0 MLOAD PUSH1 0xC0 MLOAD PUSH1 0xE0 MLOAD PUSH2 0x100 MLOAD PUSH2 0x120 MLOAD PUSH2 0x3136 PUSH3 0x37F PUSH1 0x0 CODECOPY PUSH1 0x0 PUSH2 0x5E4 ADD MSTORE PUSH1 0x0 PUSH2 0x5C3 ADD MSTORE PUSH1 0x0 PUSH2 0x5A2 ADD MSTORE PUSH1 0x0 PUSH2 0x581 ADD MSTORE PUSH1 0x0 PUSH2 0x545 ADD MSTORE PUSH1 0x0 DUP2 DUP2 PUSH2 0x2C5 ADD MSTORE PUSH2 0x319 ADD MSTORE PUSH2 0x3136 PUSH1 0x0 RETURN INVALID PUSH1 0x80 PUSH1 0x40 MSTORE PUSH1 0x4 CALLDATASIZE LT PUSH2 0x9C JUMPI PUSH1 0x0 CALLDATALOAD PUSH1 0xE0 SHR DUP1 PUSH4 0x8796BA8C GT PUSH2 0x64 JUMPI DUP1 PUSH4 0x8796BA8C EQ PUSH2 0x178 JUMPI DUP1 PUSH4 0xA168FA89 EQ PUSH2 0x1B5 JUMPI DUP1 PUSH4 0xA4C6E86C EQ PUSH2 0x1F3 JUMPI DUP1 PUSH4 0xAE771F6B EQ PUSH2 0x21E JUMPI DUP1 PUSH4 0xDD09EA3C EQ PUSH2 0x25B JUMPI DUP1 PUSH4 0xE2F412D4 EQ PUSH2 0x298 JUMPI PUSH2 0x9C JUMP JUMPDEST DUP1 PUSH4 0x1FE543E3 EQ PUSH2 0xA1 JUMPI DUP1 PUSH4 0x2A8136E0 EQ PUSH2 0xCA JUMPI DUP1 PUSH4 0x4585E33B EQ PUSH2 0xE6 JUMPI DUP1 PUSH4 0x4CD64F29 EQ PUSH2 0x10F JUMPI DUP1 PUSH4 0x6E04FF0D EQ PUSH2 0x13A JUMPI JUMPDEST PUSH1 0x0 DUP1 REVERT JUMPDEST CALLVALUE DUP1 ISZERO PUSH2 0xAD JUMPI PUSH1 0x0 DUP1 REVERT JUMPDEST POP PUSH2 0xC8 PUSH1 0x4 DUP1 CALLDATASIZE SUB DUP2 ADD SWAP1 PUSH2 0xC3 SWAP2 SWAP1 PUSH2 0x2060 JUMP JUMPDEST PUSH2 0x2C3 JUMP JUMPDEST STOP JUMPDEST PUSH2 0xE4 PUSH1 0x4 DUP1 CALLDATASIZE SUB DUP2 ADD SWAP1 PUSH2 0xDF SWAP2 SWAP1 PUSH2 0x23C1 JUMP JUMPDEST PUSH2 0x383 JUMP JUMPDEST STOP JUMPDEST CALLVALUE DUP1 ISZERO PUSH2 0xF2 JUMPI PUSH1 0x0 DUP1 REVERT JUMPDEST POP PUSH2 0x10D PUSH1 0x4 DUP1 CALLDATASIZE SUB DUP2 ADD SWAP1 PUSH2 0x108 SWAP2 SWAP1 PUSH2 0x2465 JUMP JUMPDEST PUSH2 0x4B8 JUMP JUMPDEST STOP JUMPDEST CALLVALUE DUP1 ISZERO PUSH2 0x11B JUMPI PUSH1 0x0 DUP1 REVERT JUMPDEST POP PUSH2 0x124 PUSH2 0x7B0 JUMP JUMPDEST PUSH1 0x40 MLOAD PUSH2 0x131 SWAP2 SWAP1 PUSH2 0x25F9 JUMP JUMPDEST PUSH1 0x40 MLOAD DUP1 SWAP2 SUB SWAP1 RETURN JUMPDEST CALLVALUE DUP1 ISZERO PUSH2 0x146 JUMPI PUSH1 0x0 DUP1 REVERT JUMPDEST POP PUSH2 0x161 PUSH1 0x4 DUP1 CALLDATASIZE SUB DUP2 ADD SWAP1 PUSH2 0x15C SWAP2 SWAP1 PUSH2 0x26CA JUMP JUMPDEST PUSH2 0x833 JUMP JUMPDEST PUSH1 0x40 MLOAD PUSH2 0x16F SWAP3 SWAP2 SWAP1 PUSH2 0x27AD JUMP JUMPDEST PUSH1 0x40 MLOAD DUP1 SWAP2 SUB SWAP1 RETURN JUMPDEST CALLVALUE DUP1 ISZERO PUSH2 0x184 JUMPI PUSH1 0x0 DUP1 REVERT JUMPDEST POP PUSH2 0x19F PUSH1 0x4 DUP1 CALLDATASIZE SUB DUP2 ADD SWAP1 PUSH2 0x19A SWAP2 SWAP1 PUSH2 0x27DD JUMP JUMPDEST PUSH2 0x858 JUMP JUMPDEST PUSH1 0x40 MLOAD PUSH2 0x1AC SWAP2 SWAP1 PUSH2 0x2819 JUMP JUMPDEST PUSH1 0x40 MLOAD DUP1 SWAP2 SUB SWAP1 RETURN JUMPDEST CALLVALUE DUP1 ISZERO PUSH2 0x1C1 JUMPI PUSH1 0x0 DUP1 REVERT JUMPDEST POP PUSH2 0x1DC PUSH1 0x4 DUP1 CALLDATASIZE SUB DUP2 ADD SWAP1 PUSH2 0x1D7 SWAP2 SWAP1 PUSH2 0x27DD JUMP JUMPDEST PUSH2 0x87C JUMP JUMPDEST PUSH1 0x40 MLOAD PUSH2 0x1EA SWAP3 SWAP2 SWAP1 PUSH2 0x2834 JUMP JUMPDEST PUSH1 0x40 MLOAD DUP1 SWAP2 SUB SWAP1 RETURN JUMPDEST CALLVALUE DUP1 ISZERO PUSH2 0x1FF JUMPI PUSH1 0x0 DUP1 REVERT JUMPDEST POP PUSH2 0x208 PUSH2 0x8BA JUMP JUMPDEST PUSH1 0x40 MLOAD PUSH2 0x215 SWAP2 SWAP1 PUSH2 0x28D4 JUMP JUMPDEST PUSH1 0x40 MLOAD DUP1 SWAP2 SUB SWAP1 RETURN JUMPDEST CALLVALUE DUP1 ISZERO PUSH2 0x22A JUMPI PUSH1 0x0 DUP1 REVERT JUMPDEST POP PUSH2 0x245 PUSH1 0x4 DUP1 CALLDATASIZE SUB DUP2 ADD SWAP1 PUSH2 0x240 SWAP2 SWAP1 PUSH2 0x27DD JUMP JUMPDEST PUSH2 0x8D1 JUMP JUMPDEST PUSH1 0x40 MLOAD PUSH2 0x252 SWAP2 SWAP1 PUSH2 0x2930 JUMP JUMPDEST PUSH1 0x40 MLOAD DUP1 SWAP2 SUB SWAP1 RETURN JUMPDEST CALLVALUE DUP1 ISZERO PUSH2 0x267 JUMPI PUSH1 0x0 DUP1 REVERT JUMPDEST POP PUSH2 0x282 PUSH1 0x4 DUP1 CALLDATASIZE SUB DUP2 ADD SWAP1 PUSH2 0x27D SWAP2 SWAP1 PUSH2 0x294B JUMP JUMPDEST PUSH2 0x910 JUMP JUMPDEST PUSH1 0x40 MLOAD PUSH2 0x28F SWAP2 SWAP1 PUSH2 0x2819 JUMP JUMPDEST PUSH1 0x40 MLOAD DUP1 SWAP2 SUB SWAP1 RETURN JUMPDEST CALLVALUE DUP1 ISZERO PUSH2 0x2A4 JUMPI PUSH1 0x0 DUP1 REVERT JUMPDEST POP PUSH2 0x2AD PUSH2 0x93E JUMP JUMPDEST PUSH1 0x40 MLOAD PUSH2 0x2BA SWAP2 SWAP1 PUSH2 0x2A49 JUMP JUMPDEST PUSH1 0x40 MLOAD DUP1 SWAP2 SUB SWAP1 RETURN JUMPDEST PUSH32 0x0 PUSH20 0xFFFFFFFFFFFFFFFFFFFFFFFFFFFFFFFFFFFFFFFF AND CALLER PUSH20 0xFFFFFFFFFFFFFFFFFFFFFFFFFFFFFFFFFFFFFFFF AND EQ PUSH2 0x375 JUMPI CALLER PUSH32 0x0 PUSH1 0x40 MLOAD PUSH32 0x1CF993F400000000000000000000000000000000000000000000000000000000 DUP2 MSTORE PUSH1 0x4 ADD PUSH2 0x36C SWAP3 SWAP2 SWAP1 PUSH2 0x2A8C JUMP JUMPDEST PUSH1 0x40 MLOAD DUP1 SWAP2 SUB SWAP1 REVERT JUMPDEST PUSH2 0x37F DUP3 DUP3 PUSH2 0x9CC JUMP JUMPDEST POP POP JUMP JUMPDEST PUSH1 0x0 PUSH2 0x38E DUP3 PUSH2 0x17E6 JUMP JUMPDEST SWAP1 POP DUP1 CALLVALUE EQ PUSH2 0x3D2 JUMPI PUSH1 0x40 MLOAD PUSH32 0x8C379A000000000000000000000000000000000000000000000000000000000 DUP2 MSTORE PUSH1 0x4 ADD PUSH2 0x3C9 SWAP1 PUSH2 0x2B12 JUMP JUMPDEST PUSH1 0x40 MLOAD DUP1 SWAP2 SUB SWAP1 REVERT JUMPDEST PUSH1 0x1 DUP1 DUP2 GT ISZERO PUSH2 0x3E5 JUMPI PUSH2 0x3E4 PUSH2 0x285D JUMP JUMPDEST JUMPDEST PUSH1 0x11 PUSH1 0x0 SWAP1 SLOAD SWAP1 PUSH2 0x100 EXP SWAP1 DIV PUSH1 0xFF AND PUSH1 0x1 DUP2 GT ISZERO PUSH2 0x407 JUMPI PUSH2 0x406 PUSH2 0x285D JUMP JUMPDEST JUMPDEST EQ PUSH2 0x447 JUMPI PUSH1 0x40 MLOAD PUSH32 0x8C379A000000000000000000000000000000000000000000000000000000000 DUP2 MSTORE PUSH1 0x4 ADD PUSH2 0x43E SWAP1 PUSH2 0x2B7E JUMP JUMPDEST PUSH1 0x40 MLOAD DUP1 SWAP2 SUB SWAP1 REVERT JUMPDEST PUSH2 0x451 CALLER DUP4 PUSH2 0x1896 JUMP JUMPDEST PUSH1 0x10 CALLER SWAP1 DUP1 PUSH1 0x1 DUP2 SLOAD ADD DUP1 DUP3 SSTORE DUP1 SWAP2 POP POP PUSH1 0x1 SWAP1 SUB SWAP1 PUSH1 0x0 MSTORE PUSH1 0x20 PUSH1 0x0 KECCAK256 ADD PUSH1 0x0 SWAP1 SWAP2 SWAP1 SWAP2 SWAP1 SWAP2 PUSH2 0x100 EXP DUP2 SLOAD DUP2 PUSH20 0xFFFFFFFFFFFFFFFFFFFFFFFFFFFFFFFFFFFFFFFF MUL NOT AND SWAP1 DUP4 PUSH20 0xFFFFFFFFFFFFFFFFFFFFFFFFFFFFFFFFFFFFFFFF AND MUL OR SWAP1 SSTORE POP POP POP JUMP JUMPDEST PUSH1 0x0 PUSH2 0x4D2 PUSH1 0x40 MLOAD DUP1 PUSH1 0x20 ADD PUSH1 0x40 MSTORE DUP1 PUSH1 0x0 DUP2 MSTORE POP PUSH2 0x833 JUMP JUMPDEST POP SWAP1 POP DUP1 ISZERO PUSH2 0x516 JUMPI PUSH1 0x40 MLOAD PUSH32 0x8C379A000000000000000000000000000000000000000000000000000000000 DUP2 MSTORE PUSH1 0x4 ADD PUSH2 0x50D SWAP1 PUSH2 0x2BEA JUMP JUMPDEST PUSH1 0x40 MLOAD DUP1 SWAP2 SUB SWAP1 REVERT JUMPDEST PUSH1 0x0 PUSH1 0x11 PUSH1 0x0 PUSH2 0x100 EXP DUP2 SLOAD DUP2 PUSH1 0xFF MUL NOT AND SWAP1 DUP4 PUSH1 0x1 DUP2 GT ISZERO PUSH2 0x53C JUMPI PUSH2 0x53B PUSH2 0x285D JUMP JUMPDEST JUMPDEST MUL OR SWAP1 SSTORE POP PUSH1 0x0 PUSH32 0x0 PUSH20 0xFFFFFFFFFFFFFFFFFFFFFFFFFFFFFFFFFFFFFFFF AND PUSH4 0xD33D44C1 PUSH32 0x0 PUSH32 0x0 PUSH32 0x0 PUSH32 0x0 PUSH1 0x3 PUSH1 0x40 MLOAD DUP7 PUSH4 0xFFFFFFFF AND PUSH1 0xE0 SHL DUP2 MSTORE PUSH1 0x4 ADD PUSH2 0x625 SWAP6 SWAP5 SWAP4 SWAP3 SWAP2 SWAP1 PUSH2 0x2C41 JUMP JUMPDEST PUSH1 0x20 PUSH1 0x40 MLOAD DUP1 DUP4 SUB DUP2 PUSH1 0x0 DUP8 GAS CALL ISZERO DUP1 ISZERO PUSH2 0x644 JUMPI RETURNDATASIZE PUSH1 0x0 DUP1 RETURNDATACOPY RETURNDATASIZE PUSH1 0x0 REVERT JUMPDEST POP POP POP POP PUSH1 0x40 MLOAD RETURNDATASIZE PUSH1 0x1F NOT PUSH1 0x1F DUP3 ADD AND DUP3 ADD DUP1 PUSH1 0x40 MSTORE POP DUP2 ADD SWAP1 PUSH2 0x668 SWAP2 SWAP1 PUSH2 0x2CA9 JUMP JUMPDEST SWAP1 POP PUSH1 0x40 MLOAD DUP1 PUSH1 0x60 ADD PUSH1 0x40 MSTORE DUP1 PUSH1 0x0 ISZERO ISZERO DUP2 MSTORE PUSH1 0x20 ADD PUSH1 0x1 ISZERO ISZERO DUP2 MSTORE PUSH1 0x20 ADD PUSH1 0x0 PUSH8 0xFFFFFFFFFFFFFFFF DUP2 GT ISZERO PUSH2 0x6A2 JUMPI PUSH2 0x6A1 PUSH2 0x1F1D JUMP JUMPDEST JUMPDEST PUSH1 0x40 MLOAD SWAP1 DUP1 DUP3 MSTORE DUP1 PUSH1 0x20 MUL PUSH1 0x20 ADD DUP3 ADD PUSH1 0x40 MSTORE DUP1 ISZERO PUSH2 0x6D0 JUMPI DUP2 PUSH1 0x20 ADD PUSH1 0x20 DUP3 MUL DUP1 CALLDATASIZE DUP4 CALLDATACOPY DUP1 DUP3 ADD SWAP2 POP POP SWAP1 POP JUMPDEST POP DUP2 MSTORE POP PUSH1 0x12 PUSH1 0x0 DUP4 DUP2 MSTORE PUSH1 0x20 ADD SWAP1 DUP2 MSTORE PUSH1 0x20 ADD PUSH1 0x0 KECCAK256 PUSH1 0x0 DUP3 ADD MLOAD DUP2 PUSH1 0x0 ADD PUSH1 0x0 PUSH2 0x100 EXP DUP2 SLOAD DUP2 PUSH1 0xFF MUL NOT AND SWAP1 DUP4 ISZERO ISZERO MUL OR SWAP1 SSTORE POP PUSH1 0x20 DUP3 ADD MLOAD DUP2 PUSH1 0x0 ADD PUSH1 0x1 PUSH2 0x100 EXP DUP2 SLOAD DUP2 PUSH1 0xFF MUL NOT AND SWAP1 DUP4 ISZERO ISZERO MUL OR SWAP1 SSTORE POP PUSH1 0x40 DUP3 ADD MLOAD DUP2 PUSH1 0x1 ADD SWAP1 DUP1 MLOAD SWAP1 PUSH1 0x20 ADD SWAP1 PUSH2 0x743 SWAP3 SWAP2 SWAP1 PUSH2 0x1CCE JUMP JUMPDEST POP SWAP1 POP POP PUSH1 0x13 DUP2 SWAP1 DUP1 PUSH1 0x1 DUP2 SLOAD ADD DUP1 DUP3 SSTORE DUP1 SWAP2 POP POP PUSH1 0x1 SWAP1 SUB SWAP1 PUSH1 0x0 MSTORE PUSH1 0x20 PUSH1 0x0 KECCAK256 ADD PUSH1 0x0 SWAP1 SWAP2 SWAP1 SWAP2 SWAP1 SWAP2 POP SSTORE PUSH32 0xCC58B13AD3EAB50626C6A6300B1D139CD6EBB1688A7CCED9461C2F7E762665EE DUP2 PUSH1 0x3 PUSH1 0x40 MLOAD PUSH2 0x7A2 SWAP3 SWAP2 SWAP1 PUSH2 0x2CD6 JUMP JUMPDEST PUSH1 0x40 MLOAD DUP1 SWAP2 SUB SWAP1 LOG1 POP POP POP POP JUMP JUMPDEST PUSH2 0x7B8 PUSH2 0x1D1B JUMP JUMPDEST PUSH1 0x0 PUSH1 0x5 DUP1 PUSH1 0x20 MUL PUSH1 0x40 MLOAD SWAP1 DUP2 ADD PUSH1 0x40 MSTORE DUP1 SWAP3 SWAP2 SWAP1 PUSH1 0x0 SWAP1 JUMPDEST DUP3 DUP3 LT ISZERO PUSH2 0x82A JUMPI DUP4 DUP3 PUSH1 0x3 MUL ADD PUSH1 0x3 DUP1 PUSH1 0x20 MUL PUSH1 0x40 MLOAD SWAP1 DUP2 ADD PUSH1 0x40 MSTORE DUP1 SWAP3 SWAP2 SWAP1 DUP3 PUSH1 0x3 DUP1 ISZERO PUSH2 0x816 JUMPI PUSH1 0x20 MUL DUP3 ADD SWAP2 JUMPDEST DUP2 SLOAD DUP2 MSTORE PUSH1 0x20 ADD SWAP1 PUSH1 0x1 ADD SWAP1 DUP1 DUP4 GT PUSH2 0x802 JUMPI JUMPDEST POP POP POP POP POP DUP2 MSTORE PUSH1 0x20 ADD SWAP1 PUSH1 0x1 ADD SWAP1 PUSH2 0x7D1 JUMP JUMPDEST POP POP POP POP SWAP1 POP SWAP1 JUMP JUMPDEST PUSH1 0x0 PUSH1 0x60 PUSH1 0x0 PUSH1 0x10 DUP1 SLOAD SWAP1 POP GT ISZERO PUSH2 0x84E JUMPI PUSH1 0x1 SWAP2 POP PUSH2 0x853 JUMP JUMPDEST PUSH1 0x0 SWAP2 POP JUMPDEST SWAP2 POP SWAP2 JUMP JUMPDEST PUSH1 0x13 DUP2 DUP2 SLOAD DUP2 LT PUSH2 0x868 JUMPI PUSH1 0x0 DUP1 REVERT JUMPDEST SWAP1 PUSH1 0x0 MSTORE PUSH1 0x20 PUSH1 0x0 KECCAK256 ADD PUSH1 0x0 SWAP2 POP SWAP1 POP SLOAD DUP2 JUMP JUMPDEST PUSH1 0x12 PUSH1 0x20 MSTORE DUP1 PUSH1 0x0 MSTORE PUSH1 0x40 PUSH1 0x0 KECCAK256 PUSH1 0x0 SWAP2 POP SWAP1 POP DUP1 PUSH1 0x0 ADD PUSH1 0x0 SWAP1 SLOAD SWAP1 PUSH2 0x100 EXP SWAP1 DIV PUSH1 0xFF AND SWAP1 DUP1 PUSH1 0x0 ADD PUSH1 0x1 SWAP1 SLOAD SWAP1 PUSH2 0x100 EXP SWAP1 DIV PUSH1 0xFF AND SWAP1 POP DUP3 JUMP JUMPDEST PUSH1 0x0 PUSH1 0x11 PUSH1 0x0 SWAP1 SLOAD SWAP1 PUSH2 0x100 EXP SWAP1 DIV PUSH1 0xFF AND SWAP1 POP SWAP1 JUMP JUMPDEST PUSH1 0x10 DUP2 DUP2 SLOAD DUP2 LT PUSH2 0x8E1 JUMPI PUSH1 0x0 DUP1 REVERT JUMPDEST SWAP1 PUSH1 0x0 MSTORE PUSH1 0x20 PUSH1 0x0 KECCAK256 ADD PUSH1 0x0 SWAP2 POP SLOAD SWAP1 PUSH2 0x100 EXP SWAP1 DIV PUSH20 0xFFFFFFFFFFFFFFFFFFFFFFFFFFFFFFFFFFFFFFFF AND DUP2 JUMP JUMPDEST PUSH1 0x0 DUP3 PUSH1 0x5 DUP2 LT PUSH2 0x920 JUMPI PUSH1 0x0 DUP1 REVERT JUMPDEST PUSH1 0x3 MUL ADD DUP2 PUSH1 0x3 DUP2 LT PUSH2 0x932 JUMPI PUSH1 0x0 DUP1 REVERT JUMPDEST ADD PUSH1 0x0 SWAP2 POP SWAP2 POP POP SLOAD DUP2 JUMP JUMPDEST PUSH1 0x60 PUSH1 0x10 DUP1 SLOAD DUP1 PUSH1 0x20 MUL PUSH1 0x20 ADD PUSH1 0x40 MLOAD SWAP1 DUP2 ADD PUSH1 0x40 MSTORE DUP1 SWAP3 SWAP2 SWAP1 DUP2 DUP2 MSTORE PUSH1 0x20 ADD DUP3 DUP1 SLOAD DUP1 ISZERO PUSH2 0x9C2 JUMPI PUSH1 0x20 MUL DUP3 ADD SWAP2 SWAP1 PUSH1 0x0 MSTORE PUSH1 0x20 PUSH1 0x0 KECCAK256 SWAP1 JUMPDEST DUP2 PUSH1 0x0 SWAP1 SLOAD SWAP1 PUSH2 0x100 EXP SWAP1 DIV PUSH20 0xFFFFFFFFFFFFFFFFFFFFFFFFFFFFFFFFFFFFFFFF AND PUSH20 0xFFFFFFFFFFFFFFFFFFFFFFFFFFFFFFFFFFFFFFFF AND DUP2 MSTORE PUSH1 0x20 ADD SWAP1 PUSH1 0x1 ADD SWAP1 DUP1 DUP4 GT PUSH2 0x978 JUMPI JUMPDEST POP POP POP POP POP SWAP1 POP SWAP1 JUMP JUMPDEST PUSH1 0x12 PUSH1 0x0 DUP4 DUP2 MSTORE PUSH1 0x20 ADD SWAP1 DUP2 MSTORE PUSH1 0x20 ADD PUSH1 0x0 KECCAK256 PUSH1 0x0 ADD PUSH1 0x1 SWAP1 SLOAD SWAP1 PUSH2 0x100 EXP SWAP1 DIV PUSH1 0xFF AND PUSH2 0xA2F JUMPI PUSH1 0x40 MLOAD PUSH32 0x8C379A000000000000000000000000000000000000000000000000000000000 DUP2 MSTORE PUSH1 0x4 ADD PUSH2 0xA26 SWAP1 PUSH2 0x2D4B JUMP JUMPDEST PUSH1 0x40 MLOAD DUP1 SWAP2 SUB SWAP1 REVERT JUMPDEST PUSH1 0x0 JUMPDEST PUSH1 0x10 DUP1 SLOAD SWAP1 POP DUP2 LT ISZERO PUSH2 0x1712 JUMPI PUSH1 0x0 DUP1 PUSH1 0x10 DUP4 DUP2 SLOAD DUP2 LT PUSH2 0xA56 JUMPI PUSH2 0xA55 PUSH2 0x2D6B JUMP JUMPDEST JUMPDEST SWAP1 PUSH1 0x0 MSTORE PUSH1 0x20 PUSH1 0x0 KECCAK256 ADD PUSH1 0x0 SWAP1 SLOAD SWAP1 PUSH2 0x100 EXP SWAP1 DIV PUSH20 0xFFFFFFFFFFFFFFFFFFFFFFFFFFFFFFFFFFFFFFFF AND SWAP1 POP PUSH1 0x0 PUSH1 0xF PUSH1 0x0 DUP4 PUSH20 0xFFFFFFFFFFFFFFFFFFFFFFFFFFFFFFFFFFFFFFFF AND PUSH20 0xFFFFFFFFFFFFFFFFFFFFFFFFFFFFFFFFFFFFFFFF AND DUP2 MSTORE PUSH1 0x20 ADD SWAP1 DUP2 MSTORE PUSH1 0x20 ADD PUSH1 0x0 KECCAK256 DUP1 SLOAD DUP1 PUSH1 0x20 MUL PUSH1 0x20 ADD PUSH1 0x40 MLOAD SWAP1 DUP2 ADD PUSH1 0x40 MSTORE DUP1 SWAP3 SWAP2 SWAP1 DUP2 DUP2 MSTORE PUSH1 0x20 ADD PUSH1 0x0 SWAP1 JUMPDEST DUP3 DUP3 LT ISZERO PUSH2 0xBF2 JUMPI DUP4 DUP3 SWAP1 PUSH1 0x0 MSTORE PUSH1 0x20 PUSH1 0x0 KECCAK256 SWAP1 PUSH1 0x2 MUL ADD PUSH1 0x40 MLOAD DUP1 PUSH1 0x40 ADD PUSH1 0x40 MSTORE SWAP1 DUP2 PUSH1 0x0 DUP3 ADD PUSH1 0x0 SWAP1 SLOAD SWAP1 PUSH2 0x100 EXP SWAP1 DIV PUSH1 0xFF AND PUSH1 0x4 DUP2 GT ISZERO PUSH2 0xB2C JUMPI PUSH2 0xB2B PUSH2 0x285D JUMP JUMPDEST JUMPDEST PUSH1 0x4 DUP2 GT ISZERO PUSH2 0xB3E JUMPI PUSH2 0xB3D PUSH2 0x285D JUMP JUMPDEST JUMPDEST DUP2 MSTORE PUSH1 0x20 ADD PUSH1 0x1 DUP3 ADD DUP1 SLOAD DUP1 PUSH1 0x20 MUL PUSH1 0x20 ADD PUSH1 0x40 MLOAD SWAP1 DUP2 ADD PUSH1 0x40 MSTORE DUP1 SWAP3 SWAP2 SWAP1 DUP2 DUP2 MSTORE PUSH1 0x20 ADD PUSH1 0x0 SWAP1 JUMPDEST DUP3 DUP3 LT ISZERO PUSH2 0xBDB JUMPI DUP4 DUP3 SWAP1 PUSH1 0x0 MSTORE PUSH1 0x20 PUSH1 0x0 KECCAK256 ADD PUSH1 0x40 MLOAD DUP1 PUSH1 0x40 ADD PUSH1 0x40 MSTORE SWAP1 DUP2 PUSH1 0x0 DUP3 ADD PUSH1 0x0 SWAP1 SLOAD SWAP1 PUSH2 0x100 EXP SWAP1 DIV PUSH4 0xFFFFFFFF AND PUSH4 0xFFFFFFFF AND PUSH4 0xFFFFFFFF AND DUP2 MSTORE PUSH1 0x20 ADD PUSH1 0x0 DUP3 ADD PUSH1 0x4 SWAP1 SLOAD SWAP1 PUSH2 0x100 EXP SWAP1 DIV PUSH2 0xFFFF AND PUSH2 0xFFFF AND PUSH2 0xFFFF AND DUP2 MSTORE POP POP DUP2 MSTORE PUSH1 0x20 ADD SWAP1 PUSH1 0x1 ADD SWAP1 PUSH2 0xB67 JUMP JUMPDEST POP POP POP POP DUP2 MSTORE POP POP DUP2 MSTORE PUSH1 0x20 ADD SWAP1 PUSH1 0x1 ADD SWAP1 PUSH2 0xAE4 JUMP JUMPDEST POP POP POP POP SWAP1 POP PUSH1 0x0 JUMPDEST DUP2 MLOAD DUP2 LT ISZERO PUSH2 0x1608 JUMPI PUSH1 0x0 DUP3 DUP3 DUP2 MLOAD DUP2 LT PUSH2 0xC19 JUMPI PUSH2 0xC18 PUSH2 0x2D6B JUMP JUMPDEST JUMPDEST PUSH1 0x20 MUL PUSH1 0x20 ADD ADD MLOAD SWAP1 POP PUSH1 0x0 DUP2 PUSH1 0x20 ADD MLOAD SWAP1 POP PUSH1 0x1 PUSH1 0x4 DUP2 GT ISZERO PUSH2 0xC40 JUMPI PUSH2 0xC3F PUSH2 0x285D JUMP JUMPDEST JUMPDEST DUP3 PUSH1 0x0 ADD MLOAD PUSH1 0x4 DUP2 GT ISZERO PUSH2 0xC57 JUMPI PUSH2 0xC56 PUSH2 0x285D JUMP JUMPDEST JUMPDEST SUB PUSH2 0xE0C JUMPI PUSH1 0x0 DUP9 PUSH1 0x2 DUP2 MLOAD DUP2 LT PUSH2 0xC72 JUMPI PUSH2 0xC71 PUSH2 0x2D6B JUMP JUMPDEST JUMPDEST PUSH1 0x20 MUL PUSH1 0x20 ADD ADD MLOAD DUP10 PUSH1 0x1 DUP2 MLOAD DUP2 LT PUSH2 0xC8E JUMPI PUSH2 0xC8D PUSH2 0x2D6B JUMP JUMPDEST JUMPDEST PUSH1 0x20 MUL PUSH1 0x20 ADD ADD MLOAD DUP11 PUSH1 0x0 DUP2 MLOAD DUP2 LT PUSH2 0xCAA JUMPI PUSH2 0xCA9 PUSH2 0x2D6B JUMP JUMPDEST JUMPDEST PUSH1 0x20 MUL PUSH1 0x20 ADD ADD MLOAD PUSH2 0xCBC SWAP2 SWAP1 PUSH2 0x2DC9 JUMP JUMPDEST PUSH2 0xCC6 SWAP2 SWAP1 PUSH2 0x2DC9 JUMP JUMPDEST SWAP1 POP PUSH1 0x0 JUMPDEST DUP3 MLOAD DUP2 LT ISZERO PUSH2 0xE05 JUMPI PUSH1 0x0 DUP4 DUP3 DUP2 MLOAD DUP2 LT PUSH2 0xCE9 JUMPI PUSH2 0xCE8 PUSH2 0x2D6B JUMP JUMPDEST JUMPDEST PUSH1 0x20 MUL PUSH1 0x20 ADD ADD MLOAD SWAP1 POP PUSH1 0x3 DUP4 LT ISZERO DUP1 ISZERO PUSH2 0xD05 JUMPI POP PUSH1 0x9 DUP4 GT ISZERO JUMPDEST DUP1 ISZERO PUSH2 0xD1B JUMPI POP PUSH1 0x0 DUP2 PUSH1 0x0 ADD MLOAD PUSH4 0xFFFFFFFF AND EQ JUMPDEST DUP1 PUSH2 0xD4A JUMPI POP PUSH1 0xC DUP4 LT ISZERO DUP1 ISZERO PUSH2 0xD33 JUMPI POP PUSH1 0x12 DUP4 GT ISZERO JUMPDEST DUP1 ISZERO PUSH2 0xD49 JUMPI POP PUSH1 0x2 DUP2 PUSH1 0x0 ADD MLOAD PUSH4 0xFFFFFFFF AND EQ JUMPDEST JUMPDEST ISZERO PUSH2 0xD94 JUMPI PUSH1 0x2 PUSH1 0x3 PUSH7 0x38D7EA4C68000 DUP4 PUSH1 0x20 ADD MLOAD PUSH2 0xFFFF AND PUSH2 0xD6E SWAP2 SWAP1 PUSH2 0x2DFD JUMP JUMPDEST PUSH2 0xD78 SWAP2 SWAP1 PUSH2 0x2DFD JUMP JUMPDEST PUSH2 0xD82 SWAP2 SWAP1 PUSH2 0x2E6E JUMP JUMPDEST DUP10 PUSH2 0xD8D SWAP2 SWAP1 PUSH2 0x2DC9 JUMP JUMPDEST SWAP9 POP PUSH2 0xDF7 JUMP JUMPDEST PUSH1 0xA DUP4 LT ISZERO DUP1 ISZERO PUSH2 0xDA6 JUMPI POP PUSH1 0xB DUP4 GT ISZERO JUMPDEST DUP1 ISZERO PUSH2 0xDBC JUMPI POP PUSH1 0x1 DUP2 PUSH1 0x0 ADD MLOAD PUSH4 0xFFFFFFFF AND EQ JUMPDEST ISZERO PUSH2 0xDF6 JUMPI PUSH1 0x2 PUSH7 0x38D7EA4C68000 DUP3 PUSH1 0x20 ADD MLOAD PUSH2 0xFFFF AND PUSH2 0xDDE SWAP2 SWAP1 PUSH2 0x2DFD JUMP JUMPDEST PUSH2 0xDE8 SWAP2 SWAP1 PUSH2 0x2DFD JUMP JUMPDEST DUP10 PUSH2 0xDF3 SWAP2 SWAP1 PUSH2 0x2DC9 JUMP JUMPDEST SWAP9 POP JUMPDEST JUMPDEST POP DUP1 DUP1 PUSH1 0x1 ADD SWAP2 POP POP PUSH2 0xCCB JUMP JUMPDEST POP POP PUSH2 0x15F9 JUMP JUMPDEST PUSH1 0x0 PUSH1 0x4 DUP2 GT ISZERO PUSH2 0xE20 JUMPI PUSH2 0xE1F PUSH2 0x285D JUMP JUMPDEST JUMPDEST DUP3 PUSH1 0x0 ADD MLOAD PUSH1 0x4 DUP2 GT ISZERO PUSH2 0xE37 JUMPI PUSH2 0xE36 PUSH2 0x285D JUMP JUMPDEST JUMPDEST SUB PUSH2 0x1189 JUMPI PUSH1 0x0 DUP9 PUSH1 0x2 DUP2 MLOAD DUP2 LT PUSH2 0xE52 JUMPI PUSH2 0xE51 PUSH2 0x2D6B JUMP JUMPDEST JUMPDEST PUSH1 0x20 MUL PUSH1 0x20 ADD ADD MLOAD DUP10 PUSH1 0x1 DUP2 MLOAD DUP2 LT PUSH2 0xE6E JUMPI PUSH2 0xE6D PUSH2 0x2D6B JUMP JUMPDEST JUMPDEST PUSH1 0x20 MUL PUSH1 0x20 ADD ADD MLOAD DUP11 PUSH1 0x0 DUP2 MLOAD DUP2 LT PUSH2 0xE8A JUMPI PUSH2 0xE89 PUSH2 0x2D6B JUMP JUMPDEST JUMPDEST PUSH1 0x20 MUL PUSH1 0x20 ADD ADD MLOAD PUSH2 0xE9C SWAP2 SWAP1 PUSH2 0x2DC9 JUMP JUMPDEST PUSH2 0xEA6 SWAP2 SWAP1 PUSH2 0x2DC9 JUMP JUMPDEST SWAP1 POP PUSH1 0x0 JUMPDEST DUP3 MLOAD DUP2 LT ISZERO PUSH2 0x1182 JUMPI PUSH1 0x0 DUP4 DUP3 DUP2 MLOAD DUP2 LT PUSH2 0xEC9 JUMPI PUSH2 0xEC8 PUSH2 0x2D6B JUMP JUMPDEST JUMPDEST PUSH1 0x20 MUL PUSH1 0x20 ADD ADD MLOAD SWAP1 POP DUP3 DUP2 PUSH1 0x0 ADD MLOAD PUSH4 0xFFFFFFFF AND SUB PUSH2 0x1174 JUMPI PUSH1 0x3 DUP4 EQ DUP1 PUSH2 0xEF3 JUMPI POP PUSH1 0x12 DUP4 EQ JUMPDEST ISZERO PUSH2 0xF31 JUMPI PUSH1 0x78 PUSH7 0x38D7EA4C68000 DUP3 PUSH1 0x20 ADD MLOAD PUSH2 0xFFFF AND PUSH2 0xF15 SWAP2 SWAP1 PUSH2 0x2DFD JUMP JUMPDEST PUSH2 0xF1F SWAP2 SWAP1 PUSH2 0x2DFD JUMP JUMPDEST DUP10 PUSH2 0xF2A SWAP2 SWAP1 PUSH2 0x2DC9 JUMP JUMPDEST SWAP9 POP PUSH2 0x1173 JUMP JUMPDEST PUSH1 0x4 DUP4 EQ DUP1 PUSH2 0xF40 JUMPI POP PUSH1 0x11 DUP4 EQ JUMPDEST ISZERO PUSH2 0xF7E JUMPI PUSH1 0x28 PUSH7 0x38D7EA4C68000 DUP3 PUSH1 0x20 ADD MLOAD PUSH2 0xFFFF AND PUSH2 0xF62 SWAP2 SWAP1 PUSH2 0x2DFD JUMP JUMPDEST PUSH2 0xF6C SWAP2 SWAP1 PUSH2 0x2DFD JUMP JUMPDEST DUP10 PUSH2 0xF77 SWAP2 SWAP1 PUSH2 0x2DC9 JUMP JUMPDEST SWAP9 POP PUSH2 0x1172 JUMP JUMPDEST PUSH1 0x5 DUP4 EQ DUP1 PUSH2 0xF8D JUMPI POP PUSH1 0x10 DUP4 EQ JUMPDEST ISZERO PUSH2 0xFCB JUMPI PUSH1 0x14 PUSH7 0x38D7EA4C68000 DUP3 PUSH1 0x20 ADD MLOAD PUSH2 0xFFFF AND PUSH2 0xFAF SWAP2 SWAP1 PUSH2 0x2DFD JUMP JUMPDEST PUSH2 0xFB9 SWAP2 SWAP1 PUSH2 0x2DFD JUMP JUMPDEST DUP10 PUSH2 0xFC4 SWAP2 SWAP1 PUSH2 0x2DC9 JUMP JUMPDEST SWAP9 POP PUSH2 0x1171 JUMP JUMPDEST PUSH1 0x6 DUP4 EQ DUP1 PUSH2 0xFDA JUMPI POP PUSH1 0xF DUP4 EQ JUMPDEST ISZERO PUSH2 0x1018 JUMPI PUSH1 0xC PUSH7 0x38D7EA4C68000 DUP3 PUSH1 0x20 ADD MLOAD PUSH2 0xFFFF AND PUSH2 0xFFC SWAP2 SWAP1 PUSH2 0x2DFD JUMP JUMPDEST PUSH2 0x1006 SWAP2 SWAP1 PUSH2 0x2DFD JUMP JUMPDEST DUP10 PUSH2 0x1011 SWAP2 SWAP1 PUSH2 0x2DC9 JUMP JUMPDEST SWAP9 POP PUSH2 0x1170 JUMP JUMPDEST PUSH1 0x7 DUP4 EQ DUP1 PUSH2 0x1027 JUMPI POP PUSH1 0xE DUP4 EQ JUMPDEST ISZERO PUSH2 0x1065 JUMPI PUSH1 0x8 PUSH7 0x38D7EA4C68000 DUP3 PUSH1 0x20 ADD MLOAD PUSH2 0xFFFF AND PUSH2 0x1049 SWAP2 SWAP1 PUSH2 0x2DFD JUMP JUMPDEST PUSH2 0x1053 SWAP2 SWAP1 PUSH2 0x2DFD JUMP JUMPDEST DUP10 PUSH2 0x105E SWAP2 SWAP1 PUSH2 0x2DC9 JUMP JUMPDEST SWAP9 POP PUSH2 0x116F JUMP JUMPDEST PUSH1 0x8 DUP4 EQ DUP1 PUSH2 0x1074 JUMPI POP PUSH1 0xD DUP4 EQ JUMPDEST ISZERO PUSH2 0x10BE JUMPI PUSH1 0x2 PUSH1 0xB PUSH7 0x38D7EA4C68000 DUP4 PUSH1 0x20 ADD MLOAD PUSH2 0xFFFF AND PUSH2 0x1098 SWAP2 SWAP1 PUSH2 0x2DFD JUMP JUMPDEST PUSH2 0x10A2 SWAP2 SWAP1 PUSH2 0x2DFD JUMP JUMPDEST PUSH2 0x10AC SWAP2 SWAP1 PUSH2 0x2E6E JUMP JUMPDEST DUP10 PUSH2 0x10B7 SWAP2 SWAP1 PUSH2 0x2DC9 JUMP JUMPDEST SWAP9 POP PUSH2 0x116E JUMP JUMPDEST PUSH1 0x9 DUP4 EQ DUP1 PUSH2 0x10CD JUMPI POP PUSH1 0xC DUP4 EQ JUMPDEST ISZERO PUSH2 0x1117 JUMPI PUSH1 0xA PUSH1 0x2F PUSH7 0x38D7EA4C68000 DUP4 PUSH1 0x20 ADD MLOAD PUSH2 0xFFFF AND PUSH2 0x10F1 SWAP2 SWAP1 PUSH2 0x2DFD JUMP JUMPDEST PUSH2 0x10FB SWAP2 SWAP1 PUSH2 0x2DFD JUMP JUMPDEST PUSH2 0x1105 SWAP2 SWAP1 PUSH2 0x2E6E JUMP JUMPDEST DUP10 PUSH2 0x1110 SWAP2 SWAP1 PUSH2 0x2DC9 JUMP JUMPDEST SWAP9 POP PUSH2 0x116D JUMP JUMPDEST PUSH1 0xA DUP4 EQ DUP1 PUSH2 0x1126 JUMPI POP PUSH1 0xB DUP4 EQ JUMPDEST ISZERO PUSH2 0x116C JUMPI PUSH1 0x5 PUSH1 0x16 PUSH7 0x38D7EA4C68000 DUP4 PUSH1 0x20 ADD MLOAD PUSH2 0xFFFF AND PUSH2 0x114A SWAP2 SWAP1 PUSH2 0x2DFD JUMP JUMPDEST PUSH2 0x1154 SWAP2 SWAP1 PUSH2 0x2DFD JUMP JUMPDEST PUSH2 0x115E SWAP2 SWAP1 PUSH2 0x2E6E JUMP JUMPDEST DUP10 PUSH2 0x1169 SWAP2 SWAP1 PUSH2 0x2DC9 JUMP JUMPDEST SWAP9 POP JUMPDEST JUMPDEST JUMPDEST JUMPDEST JUMPDEST JUMPDEST JUMPDEST JUMPDEST JUMPDEST POP DUP1 DUP1 PUSH1 0x1 ADD SWAP2 POP POP PUSH2 0xEAB JUMP JUMPDEST POP POP PUSH2 0x15F8 JUMP JUMPDEST PUSH1 0x2 PUSH1 0x4 DUP2 GT ISZERO PUSH2 0x119D JUMPI PUSH2 0x119C PUSH2 0x285D JUMP JUMPDEST JUMPDEST DUP3 PUSH1 0x0 ADD MLOAD PUSH1 0x4 DUP2 GT ISZERO PUSH2 0x11B4 JUMPI PUSH2 0x11B3 PUSH2 0x285D JUMP JUMPDEST JUMPDEST SUB PUSH2 0x131B JUMPI PUSH1 0x0 JUMPDEST DUP2 MLOAD DUP2 LT ISZERO PUSH2 0x1315 JUMPI PUSH1 0x0 DUP3 DUP3 DUP2 MLOAD DUP2 LT PUSH2 0x11DA JUMPI PUSH2 0x11D9 PUSH2 0x2D6B JUMP JUMPDEST JUMPDEST PUSH1 0x20 MUL PUSH1 0x20 ADD ADD MLOAD SWAP1 POP PUSH1 0x0 DUP1 JUMPDEST DUP12 MLOAD DUP2 LT ISZERO PUSH2 0x1238 JUMPI DUP12 DUP2 DUP2 MLOAD DUP2 LT PUSH2 0x1204 JUMPI PUSH2 0x1203 PUSH2 0x2D6B JUMP JUMPDEST JUMPDEST PUSH1 0x20 MUL PUSH1 0x20 ADD ADD MLOAD DUP4 PUSH1 0x0 ADD MLOAD PUSH4 0xFFFFFFFF AND SUB PUSH2 0x122B JUMPI DUP2 DUP1 PUSH2 0x1227 SWAP1 PUSH2 0x2E9F JUMP JUMPDEST SWAP3 POP POP JUMPDEST DUP1 DUP1 PUSH1 0x1 ADD SWAP2 POP POP PUSH2 0x11E8 JUMP JUMPDEST POP PUSH1 0x1 DUP2 SUB PUSH2 0x1286 JUMPI PUSH1 0xA PUSH1 0xC PUSH7 0x38D7EA4C68000 DUP5 PUSH1 0x20 ADD MLOAD PUSH2 0xFFFF AND PUSH2 0x1260 SWAP2 SWAP1 PUSH2 0x2DFD JUMP JUMPDEST PUSH2 0x126A SWAP2 SWAP1 PUSH2 0x2DFD JUMP JUMPDEST PUSH2 0x1274 SWAP2 SWAP1 PUSH2 0x2E6E JUMP JUMPDEST DUP10 PUSH2 0x127F SWAP2 SWAP1 PUSH2 0x2DC9 JUMP JUMPDEST SWAP9 POP PUSH2 0x1306 JUMP JUMPDEST PUSH1 0x2 DUP2 SUB PUSH2 0x12C7 JUMPI PUSH1 0x2 PUSH7 0x38D7EA4C68000 DUP4 PUSH1 0x20 ADD MLOAD PUSH2 0xFFFF AND PUSH2 0x12AB SWAP2 SWAP1 PUSH2 0x2DFD JUMP JUMPDEST PUSH2 0x12B5 SWAP2 SWAP1 PUSH2 0x2DFD JUMP JUMPDEST DUP10 PUSH2 0x12C0 SWAP2 SWAP1 PUSH2 0x2DC9 JUMP JUMPDEST SWAP9 POP PUSH2 0x1305 JUMP JUMPDEST PUSH1 0x3 DUP2 SUB PUSH2 0x1304 JUMPI PUSH1 0x3 PUSH7 0x38D7EA4C68000 DUP4 PUSH1 0x20 ADD MLOAD PUSH2 0xFFFF AND PUSH2 0x12EC SWAP2 SWAP1 PUSH2 0x2DFD JUMP JUMPDEST PUSH2 0x12F6 SWAP2 SWAP1 PUSH2 0x2DFD JUMP JUMPDEST DUP10 PUSH2 0x1301 SWAP2 SWAP1 PUSH2 0x2DC9 JUMP JUMPDEST SWAP9 POP JUMPDEST JUMPDEST JUMPDEST POP POP DUP1 DUP1 PUSH1 0x1 ADD SWAP2 POP POP PUSH2 0x11BC JUMP JUMPDEST POP PUSH2 0x15F7 JUMP JUMPDEST PUSH1 0x3 PUSH1 0x4 DUP2 GT ISZERO PUSH2 0x132F JUMPI PUSH2 0x132E PUSH2 0x285D JUMP JUMPDEST JUMPDEST DUP3 PUSH1 0x0 ADD MLOAD PUSH1 0x4 DUP2 GT ISZERO PUSH2 0x1346 JUMPI PUSH2 0x1345 PUSH2 0x285D JUMP JUMPDEST JUMPDEST SUB PUSH2 0x1429 JUMPI PUSH1 0x0 JUMPDEST DUP2 MLOAD DUP2 LT ISZERO PUSH2 0x1423 JUMPI PUSH1 0x0 DUP3 DUP3 DUP2 MLOAD DUP2 LT PUSH2 0x136C JUMPI PUSH2 0x136B PUSH2 0x2D6B JUMP JUMPDEST JUMPDEST PUSH1 0x20 MUL PUSH1 0x20 ADD ADD MLOAD SWAP1 POP PUSH1 0x0 DUP1 JUMPDEST DUP12 MLOAD DUP2 LT ISZERO PUSH2 0x13CA JUMPI DUP12 DUP2 DUP2 MLOAD DUP2 LT PUSH2 0x1396 JUMPI PUSH2 0x1395 PUSH2 0x2D6B JUMP JUMPDEST JUMPDEST PUSH1 0x20 MUL PUSH1 0x20 ADD ADD MLOAD DUP4 PUSH1 0x0 ADD MLOAD PUSH4 0xFFFFFFFF AND SUB PUSH2 0x13BD JUMPI DUP2 DUP1 PUSH2 0x13B9 SWAP1 PUSH2 0x2E9F JUMP JUMPDEST SWAP3 POP POP JUMPDEST DUP1 DUP1 PUSH1 0x1 ADD SWAP2 POP POP PUSH2 0x137A JUMP JUMPDEST POP PUSH1 0x2 DUP2 LT PUSH2 0x1414 JUMPI PUSH1 0xA PUSH1 0x4B PUSH7 0x38D7EA4C68000 DUP5 PUSH1 0x20 ADD MLOAD PUSH2 0xFFFF AND PUSH2 0x13F2 SWAP2 SWAP1 PUSH2 0x2DFD JUMP JUMPDEST PUSH2 0x13FC SWAP2 SWAP1 PUSH2 0x2DFD JUMP JUMPDEST PUSH2 0x1406 SWAP2 SWAP1 PUSH2 0x2E6E JUMP JUMPDEST DUP10 PUSH2 0x1411 SWAP2 SWAP1 PUSH2 0x2DC9 JUMP JUMPDEST SWAP9 POP JUMPDEST POP POP DUP1 DUP1 PUSH1 0x1 ADD SWAP2 POP POP PUSH2 0x134E JUMP JUMPDEST POP PUSH2 0x15F6 JUMP JUMPDEST PUSH1 0x4 DUP1 DUP2 GT ISZERO PUSH2 0x143C JUMPI PUSH2 0x143B PUSH2 0x285D JUMP JUMPDEST JUMPDEST DUP3 PUSH1 0x0 ADD MLOAD PUSH1 0x4 DUP2 GT ISZERO PUSH2 0x1453 JUMPI PUSH2 0x1452 PUSH2 0x285D JUMP JUMPDEST JUMPDEST SUB PUSH2 0x15F5 JUMPI PUSH1 0x0 JUMPDEST DUP2 MLOAD DUP2 LT ISZERO PUSH2 0x15F3 JUMPI PUSH1 0x0 DUP3 DUP3 DUP2 MLOAD DUP2 LT PUSH2 0x1479 JUMPI PUSH2 0x1478 PUSH2 0x2D6B JUMP JUMPDEST JUMPDEST PUSH1 0x20 MUL PUSH1 0x20 ADD ADD MLOAD SWAP1 POP PUSH1 0x0 DUP1 JUMPDEST DUP12 MLOAD DUP2 LT ISZERO PUSH2 0x14D7 JUMPI DUP12 DUP2 DUP2 MLOAD DUP2 LT PUSH2 0x14A3 JUMPI PUSH2 0x14A2 PUSH2 0x2D6B JUMP JUMPDEST JUMPDEST PUSH1 0x20 MUL PUSH1 0x20 ADD ADD MLOAD DUP4 PUSH1 0x0 ADD MLOAD PUSH4 0xFFFFFFFF AND SUB PUSH2 0x14CA JUMPI DUP2 DUP1 PUSH2 0x14C6 SWAP1 PUSH2 0x2E9F JUMP JUMPDEST SWAP3 POP POP JUMPDEST DUP1 DUP1 PUSH1 0x1 ADD SWAP2 POP POP PUSH2 0x1487 JUMP JUMPDEST POP PUSH1 0x3 DUP2 SUB PUSH2 0x1519 JUMPI PUSH1 0x78 PUSH7 0x38D7EA4C68000 DUP4 PUSH1 0x20 ADD MLOAD PUSH2 0xFFFF AND PUSH2 0x14FD SWAP2 SWAP1 PUSH2 0x2DFD JUMP JUMPDEST PUSH2 0x1507 SWAP2 SWAP1 PUSH2 0x2DFD JUMP JUMPDEST DUP10 PUSH2 0x1512 SWAP2 SWAP1 PUSH2 0x2DC9 JUMP JUMPDEST SWAP9 POP PUSH2 0x15E4 JUMP JUMPDEST DUP11 PUSH1 0x1 DUP2 MLOAD DUP2 LT PUSH2 0x152D JUMPI PUSH2 0x152C PUSH2 0x2D6B JUMP JUMPDEST JUMPDEST PUSH1 0x20 MUL PUSH1 0x20 ADD ADD MLOAD DUP12 PUSH1 0x0 DUP2 MLOAD DUP2 LT PUSH2 0x1549 JUMPI PUSH2 0x1548 PUSH2 0x2D6B JUMP JUMPDEST JUMPDEST PUSH1 0x20 MUL PUSH1 0x20 ADD ADD MLOAD EQ DUP1 ISZERO PUSH2 0x1593 JUMPI POP DUP11 PUSH1 0x2 DUP2 MLOAD DUP2 LT PUSH2 0x156D JUMPI PUSH2 0x156C PUSH2 0x2D6B JUMP JUMPDEST JUMPDEST PUSH1 0x20 MUL PUSH1 0x20 ADD ADD MLOAD DUP12 PUSH1 0x1 DUP2 MLOAD DUP2 LT PUSH2 0x1589 JUMPI PUSH2 0x1588 PUSH2 0x2D6B JUMP JUMPDEST JUMPDEST PUSH1 0x20 MUL PUSH1 0x20 ADD ADD MLOAD EQ JUMPDEST DUP1 ISZERO PUSH2 0x15A9 JUMPI POP PUSH1 0x7 DUP3 PUSH1 0x0 ADD MLOAD PUSH4 0xFFFFFFFF AND EQ JUMPDEST ISZERO PUSH2 0x15E3 JUMPI PUSH1 0x14 PUSH7 0x38D7EA4C68000 DUP4 PUSH1 0x20 ADD MLOAD PUSH2 0xFFFF AND PUSH2 0x15CB SWAP2 SWAP1 PUSH2 0x2DFD JUMP JUMPDEST PUSH2 0x15D5 SWAP2 SWAP1 PUSH2 0x2DFD JUMP JUMPDEST DUP10 PUSH2 0x15E0 SWAP2 SWAP1 PUSH2 0x2DC9 JUMP JUMPDEST SWAP9 POP JUMPDEST JUMPDEST POP POP DUP1 DUP1 PUSH1 0x1 ADD SWAP2 POP POP PUSH2 0x145B JUMP JUMPDEST POP JUMPDEST JUMPDEST JUMPDEST JUMPDEST JUMPDEST POP POP DUP1 DUP1 PUSH1 0x1 ADD SWAP2 POP POP PUSH2 0xBFB JUMP JUMPDEST POP PUSH1 0x0 DUP4 GT ISZERO PUSH2 0x1702 JUMPI DUP3 SELFBALANCE GT PUSH2 0x1654 JUMPI PUSH1 0x40 MLOAD PUSH32 0x8C379A000000000000000000000000000000000000000000000000000000000 DUP2 MSTORE PUSH1 0x4 ADD PUSH2 0x164B SWAP1 PUSH2 0x2F33 JUMP JUMPDEST PUSH1 0x40 MLOAD DUP1 SWAP2 SUB SWAP1 REVERT JUMPDEST PUSH1 0x0 DUP3 PUSH20 0xFFFFFFFFFFFFFFFFFFFFFFFFFFFFFFFFFFFFFFFF AND DUP5 PUSH1 0x40 MLOAD PUSH2 0x167A SWAP1 PUSH2 0x2F84 JUMP JUMPDEST PUSH1 0x0 PUSH1 0x40 MLOAD DUP1 DUP4 SUB DUP2 DUP6 DUP8 GAS CALL SWAP3 POP POP POP RETURNDATASIZE DUP1 PUSH1 0x0 DUP2 EQ PUSH2 0x16B7 JUMPI PUSH1 0x40 MLOAD SWAP2 POP PUSH1 0x1F NOT PUSH1 0x3F RETURNDATASIZE ADD AND DUP3 ADD PUSH1 0x40 MSTORE RETURNDATASIZE DUP3 MSTORE RETURNDATASIZE PUSH1 0x0 PUSH1 0x20 DUP5 ADD RETURNDATACOPY PUSH2 0x16BC JUMP JUMPDEST PUSH1 0x60 SWAP2 POP JUMPDEST POP POP SWAP1 POP DUP1 PUSH2 0x1700 JUMPI PUSH1 0x40 MLOAD PUSH32 0x8C379A000000000000000000000000000000000000000000000000000000000 DUP2 MSTORE PUSH1 0x4 ADD PUSH2 0x16F7 SWAP1 PUSH2 0x2FE5 JUMP JUMPDEST PUSH1 0x40 MLOAD DUP1 SWAP2 SUB SWAP1 REVERT JUMPDEST POP JUMPDEST POP POP POP DUP1 DUP1 PUSH1 0x1 ADD SWAP2 POP POP PUSH2 0xA32 JUMP JUMPDEST POP PUSH1 0x1 PUSH1 0x12 PUSH1 0x0 DUP5 DUP2 MSTORE PUSH1 0x20 ADD SWAP1 DUP2 MSTORE PUSH1 0x20 ADD PUSH1 0x0 KECCAK256 PUSH1 0x0 ADD PUSH1 0x0 PUSH2 0x100 EXP DUP2 SLOAD DUP2 PUSH1 0xFF MUL NOT AND SWAP1 DUP4 ISZERO ISZERO MUL OR SWAP1 SSTORE POP DUP1 PUSH1 0x12 PUSH1 0x0 DUP5 DUP2 MSTORE PUSH1 0x20 ADD SWAP1 DUP2 MSTORE PUSH1 0x20 ADD PUSH1 0x0 KECCAK256 PUSH1 0x1 ADD SWAP1 DUP1 MLOAD SWAP1 PUSH1 0x20 ADD SWAP1 PUSH2 0x176C SWAP3 SWAP2 SWAP1 PUSH2 0x1CCE JUMP JUMPDEST POP PUSH32 0xFE2E2D779DBA245964D4E3EF9B994BE63856FD568BF7D3CA9E224755CB1BD54D DUP3 DUP3 PUSH1 0x40 MLOAD PUSH2 0x179E SWAP3 SWAP2 SWAP1 PUSH2 0x309C JUMP JUMPDEST PUSH1 0x40 MLOAD DUP1 SWAP2 SUB SWAP1 LOG1 PUSH1 0x1 PUSH1 0x11 PUSH1 0x0 PUSH2 0x100 EXP DUP2 SLOAD DUP2 PUSH1 0xFF MUL NOT AND SWAP1 DUP4 PUSH1 0x1 DUP2 GT ISZERO PUSH2 0x17CC JUMPI PUSH2 0x17CB PUSH2 0x285D JUMP JUMPDEST JUMPDEST MUL OR SWAP1 SSTORE POP PUSH2 0x17D9 PUSH2 0x1A8B JUMP JUMPDEST PUSH2 0x17E2 DUP2 PUSH2 0x1B48 JUMP JUMPDEST POP POP JUMP JUMPDEST PUSH1 0x0 DUP1 PUSH1 0x0 SWAP1 POP PUSH1 0x0 JUMPDEST DUP4 MLOAD DUP2 LT ISZERO PUSH2 0x187A JUMPI PUSH1 0x0 DUP5 DUP3 DUP2 MLOAD DUP2 LT PUSH2 0x180E JUMPI PUSH2 0x180D PUSH2 0x2D6B JUMP JUMPDEST JUMPDEST PUSH1 0x20 MUL PUSH1 0x20 ADD ADD MLOAD PUSH1 0x20 ADD MLOAD SWAP1 POP PUSH1 0x0 JUMPDEST DUP2 MLOAD DUP2 LT ISZERO PUSH2 0x186B JUMPI PUSH1 0x0 DUP3 DUP3 DUP2 MLOAD DUP2 LT PUSH2 0x183D JUMPI PUSH2 0x183C PUSH2 0x2D6B JUMP JUMPDEST JUMPDEST PUSH1 0x20 MUL PUSH1 0x20 ADD ADD MLOAD SWAP1 POP DUP1 PUSH1 0x20 ADD MLOAD PUSH2 0xFFFF AND DUP6 PUSH2 0x185B SWAP2 SWAP1 PUSH2 0x2DC9 JUMP JUMPDEST SWAP5 POP POP DUP1 DUP1 PUSH1 0x1 ADD SWAP2 POP POP PUSH2 0x181F JUMP JUMPDEST POP POP DUP1 DUP1 PUSH1 0x1 ADD SWAP2 POP POP PUSH2 0x17F0 JUMP JUMPDEST POP PUSH7 0x38D7EA4C68000 DUP2 PUSH2 0x188E SWAP2 SWAP1 PUSH2 0x2DFD JUMP JUMPDEST SWAP2 POP POP SWAP2 SWAP1 POP JUMP JUMPDEST PUSH1 0x0 PUSH1 0xF PUSH1 0x0 DUP5 PUSH20 0xFFFFFFFFFFFFFFFFFFFFFFFFFFFFFFFFFFFFFFFF AND PUSH20 0xFFFFFFFFFFFFFFFFFFFFFFFFFFFFFFFFFFFFFFFF AND DUP2 MSTORE PUSH1 0x20 ADD SWAP1 DUP2 MSTORE PUSH1 0x20 ADD PUSH1 0x0 KECCAK256 SWAP1 POP PUSH1 0xF PUSH1 0x0 DUP5 PUSH20 0xFFFFFFFFFFFFFFFFFFFFFFFFFFFFFFFFFFFFFFFF AND PUSH20 0xFFFFFFFFFFFFFFFFFFFFFFFFFFFFFFFFFFFFFFFF AND DUP2 MSTORE PUSH1 0x20 ADD SWAP1 DUP2 MSTORE PUSH1 0x20 ADD PUSH1 0x0 KECCAK256 PUSH1 0x0 PUSH2 0x1924 SWAP2 SWAP1 PUSH2 0x1D48 JUMP JUMPDEST PUSH1 0x0 JUMPDEST DUP3 MLOAD DUP2 LT ISZERO PUSH2 0x1A85 JUMPI PUSH1 0x0 DUP4 DUP3 DUP2 MLOAD DUP2 LT PUSH2 0x1945 JUMPI PUSH2 0x1944 PUSH2 0x2D6B JUMP JUMPDEST JUMPDEST PUSH1 0x20 MUL PUSH1 0x20 ADD ADD MLOAD SWAP1 POP PUSH1 0x0 DUP2 PUSH1 0x20 ADD MLOAD SWAP1 POP PUSH1 0x0 DUP5 PUSH1 0x1 DUP2 PUSH1 0x1 DUP2 SLOAD ADD DUP1 DUP3 SSTORE DUP1 SWAP2 POP POP SUB SWAP1 PUSH1 0x0 MSTORE PUSH1 0x20 PUSH1 0x0 KECCAK256 SWAP1 PUSH1 0x2 MUL ADD PUSH1 0x1 ADD SWAP1 POP PUSH1 0x0 JUMPDEST DUP3 MLOAD DUP2 LT ISZERO PUSH2 0x1A24 JUMPI DUP2 DUP4 DUP3 DUP2 MLOAD DUP2 LT PUSH2 0x199E JUMPI PUSH2 0x199D PUSH2 0x2D6B JUMP JUMPDEST JUMPDEST PUSH1 0x20 MUL PUSH1 0x20 ADD ADD MLOAD SWAP1 DUP1 PUSH1 0x1 DUP2 SLOAD ADD DUP1 DUP3 SSTORE DUP1 SWAP2 POP POP PUSH1 0x1 SWAP1 SUB SWAP1 PUSH1 0x0 MSTORE PUSH1 0x20 PUSH1 0x0 KECCAK256 ADD PUSH1 0x0 SWAP1 SWAP2 SWAP1 SWAP2 SWAP1 SWAP2 POP PUSH1 0x0 DUP3 ADD MLOAD DUP2 PUSH1 0x0 ADD PUSH1 0x0 PUSH2 0x100 EXP DUP2 SLOAD DUP2 PUSH4 0xFFFFFFFF MUL NOT AND SWAP1 DUP4 PUSH4 0xFFFFFFFF AND MUL OR SWAP1 SSTORE POP PUSH1 0x20 DUP3 ADD MLOAD DUP2 PUSH1 0x0 ADD PUSH1 0x4 PUSH2 0x100 EXP DUP2 SLOAD DUP2 PUSH2 0xFFFF MUL NOT AND SWAP1 DUP4 PUSH2 0xFFFF AND MUL OR SWAP1 SSTORE POP POP POP DUP1 DUP1 PUSH1 0x1 ADD SWAP2 POP POP PUSH2 0x1981 JUMP JUMPDEST POP DUP3 PUSH1 0x0 ADD MLOAD DUP6 DUP6 DUP2 SLOAD DUP2 LT PUSH2 0x1A3D JUMPI PUSH2 0x1A3C PUSH2 0x2D6B JUMP JUMPDEST JUMPDEST SWAP1 PUSH1 0x0 MSTORE PUSH1 0x20 PUSH1 0x0 KECCAK256 SWAP1 PUSH1 0x2 MUL ADD PUSH1 0x0 ADD PUSH1 0x0 PUSH2 0x100 EXP DUP2 SLOAD DUP2 PUSH1 0xFF MUL NOT AND SWAP1 DUP4 PUSH1 0x4 DUP2 GT ISZERO PUSH2 0x1A70 JUMPI PUSH2 0x1A6F PUSH2 0x285D JUMP JUMPDEST JUMPDEST MUL OR SWAP1 SSTORE POP POP POP POP DUP1 DUP1 PUSH1 0x1 ADD SWAP2 POP POP PUSH2 0x1927 JUMP JUMPDEST POP POP POP POP JUMP JUMPDEST PUSH1 0x0 JUMPDEST PUSH1 0x10 DUP1 SLOAD SWAP1 POP DUP2 LT ISZERO PUSH2 0x1B37 JUMPI PUSH1 0x0 PUSH1 0x10 DUP3 DUP2 SLOAD DUP2 LT PUSH2 0x1AB1 JUMPI PUSH2 0x1AB0 PUSH2 0x2D6B JUMP JUMPDEST JUMPDEST SWAP1 PUSH1 0x0 MSTORE PUSH1 0x20 PUSH1 0x0 KECCAK256 ADD PUSH1 0x0 SWAP1 SLOAD SWAP1 PUSH2 0x100 EXP SWAP1 DIV PUSH20 0xFFFFFFFFFFFFFFFFFFFFFFFFFFFFFFFFFFFFFFFF AND SWAP1 POP PUSH1 0xF PUSH1 0x0 DUP3 PUSH20 0xFFFFFFFFFFFFFFFFFFFFFFFFFFFFFFFFFFFFFFFF AND PUSH20 0xFFFFFFFFFFFFFFFFFFFFFFFFFFFFFFFFFFFFFFFF AND DUP2 MSTORE PUSH1 0x20 ADD SWAP1 DUP2 MSTORE PUSH1 0x20 ADD PUSH1 0x0 KECCAK256 PUSH1 0x0 PUSH2 0x1B29 SWAP2 SWAP1 PUSH2 0x1D48 JUMP JUMPDEST POP DUP1 DUP1 PUSH1 0x1 ADD SWAP2 POP POP PUSH2 0x1A8E JUMP JUMPDEST POP PUSH1 0x10 PUSH1 0x0 PUSH2 0x1B46 SWAP2 SWAP1 PUSH2 0x1D6C JUMP JUMPDEST JUMP JUMPDEST PUSH1 0x0 PUSH1 0x1 PUSH1 0x5 PUSH2 0x1B58 SWAP2 SWAP1 PUSH2 0x30CC JUMP JUMPDEST SWAP1 POP JUMPDEST PUSH1 0x0 DUP2 GT ISZERO PUSH2 0x1BE6 JUMPI PUSH1 0x0 DUP2 PUSH1 0x5 DUP2 LT PUSH2 0x1B78 JUMPI PUSH2 0x1B77 PUSH2 0x2D6B JUMP JUMPDEST JUMPDEST PUSH1 0x3 MUL ADD PUSH1 0x0 PUSH2 0x1B88 SWAP2 SWAP1 PUSH2 0x1D8D JUMP JUMPDEST PUSH1 0x0 PUSH1 0x1 DUP3 PUSH2 0x1B97 SWAP2 SWAP1 PUSH2 0x30CC JUMP JUMPDEST PUSH1 0x5 DUP2 LT PUSH2 0x1BA8 JUMPI PUSH2 0x1BA7 PUSH2 0x2D6B JUMP JUMPDEST JUMPDEST PUSH1 0x3 MUL ADD PUSH1 0x0 DUP3 PUSH1 0x5 DUP2 LT PUSH2 0x1BC0 JUMPI PUSH2 0x1BBF PUSH2 0x2D6B JUMP JUMPDEST JUMPDEST PUSH1 0x3 MUL ADD SWAP1 PUSH1 0x3 PUSH2 0x1BD2 SWAP3 SWAP2 SWAP1 PUSH2 0x1DA2 JUMP JUMPDEST POP DUP1 DUP1 PUSH2 0x1BDE SWAP1 PUSH2 0x2E9F JUMP JUMPDEST SWAP2 POP POP PUSH2 0x1B5B JUMP JUMPDEST POP DUP1 PUSH1 0x0 DUP2 MLOAD DUP2 LT PUSH2 0x1BFB JUMPI PUSH2 0x1BFA PUSH2 0x2D6B JUMP JUMPDEST JUMPDEST PUSH1 0x20 MUL PUSH1 0x20 ADD ADD MLOAD PUSH1 0x0 DUP1 PUSH1 0x5 DUP2 LT PUSH2 0x1C17 JUMPI PUSH2 0x1C16 PUSH2 0x2D6B JUMP JUMPDEST JUMPDEST PUSH1 0x3 MUL ADD PUSH1 0x0 PUSH1 0x3 DUP2 LT PUSH2 0x1C2E JUMPI PUSH2 0x1C2D PUSH2 0x2D6B JUMP JUMPDEST JUMPDEST ADD DUP2 SWAP1 SSTORE POP DUP1 PUSH1 0x1 DUP2 MLOAD DUP2 LT PUSH2 0x1C47 JUMPI PUSH2 0x1C46 PUSH2 0x2D6B JUMP JUMPDEST JUMPDEST PUSH1 0x20 MUL PUSH1 0x20 ADD ADD MLOAD PUSH1 0x0 DUP1 PUSH1 0x5 DUP2 LT PUSH2 0x1C63 JUMPI PUSH2 0x1C62 PUSH2 0x2D6B JUMP JUMPDEST JUMPDEST PUSH1 0x3 MUL ADD PUSH1 0x1 PUSH1 0x3 DUP2 LT PUSH2 0x1C7A JUMPI PUSH2 0x1C79 PUSH2 0x2D6B JUMP JUMPDEST JUMPDEST ADD DUP2 SWAP1 SSTORE POP DUP1 PUSH1 0x2 DUP2 MLOAD DUP2 LT PUSH2 0x1C93 JUMPI PUSH2 0x1C92 PUSH2 0x2D6B JUMP JUMPDEST JUMPDEST PUSH1 0x20 MUL PUSH1 0x20 ADD ADD MLOAD PUSH1 0x0 DUP1 PUSH1 0x5 DUP2 LT PUSH2 0x1CAF JUMPI PUSH2 0x1CAE PUSH2 0x2D6B JUMP JUMPDEST JUMPDEST PUSH1 0x3 MUL ADD PUSH1 0x2 PUSH1 0x3 DUP2 LT PUSH2 0x1CC6 JUMPI PUSH2 0x1CC5 PUSH2 0x2D6B JUMP JUMPDEST JUMPDEST ADD DUP2 SWAP1 SSTORE POP POP JUMP JUMPDEST DUP3 DUP1 SLOAD DUP3 DUP3 SSTORE SWAP1 PUSH1 0x0 MSTORE PUSH1 0x20 PUSH1 0x0 KECCAK256 SWAP1 DUP2 ADD SWAP3 DUP3 ISZERO PUSH2 0x1D0A JUMPI SWAP2 PUSH1 0x20 MUL DUP3 ADD JUMPDEST DUP3 DUP2 GT ISZERO PUSH2 0x1D09 JUMPI DUP3 MLOAD DUP3 SSTORE SWAP2 PUSH1 0x20 ADD SWAP2 SWAP1 PUSH1 0x1 ADD SWAP1 PUSH2 0x1CEE JUMP JUMPDEST JUMPDEST POP SWAP1 POP PUSH2 0x1D17 SWAP2 SWAP1 PUSH2 0x1DDF JUMP JUMPDEST POP SWAP1 JUMP JUMPDEST PUSH1 0x40 MLOAD DUP1 PUSH1 0xA0 ADD PUSH1 0x40 MSTORE DUP1 PUSH1 0x5 SWAP1 JUMPDEST PUSH2 0x1D32 PUSH2 0x1DFC JUMP JUMPDEST DUP2 MSTORE PUSH1 0x20 ADD SWAP1 PUSH1 0x1 SWAP1 SUB SWAP1 DUP2 PUSH2 0x1D2A JUMPI SWAP1 POP POP SWAP1 JUMP JUMPDEST POP DUP1 SLOAD PUSH1 0x0 DUP3 SSTORE PUSH1 0x2 MUL SWAP1 PUSH1 0x0 MSTORE PUSH1 0x20 PUSH1 0x0 KECCAK256 SWAP1 DUP2 ADD SWAP1 PUSH2 0x1D69 SWAP2 SWAP1 PUSH2 0x1E1E JUMP JUMPDEST POP JUMP JUMPDEST POP DUP1 SLOAD PUSH1 0x0 DUP3 SSTORE SWAP1 PUSH1 0x0 MSTORE PUSH1 0x20 PUSH1 0x0 KECCAK256 SWAP1 DUP2 ADD SWAP1 PUSH2 0x1D8A SWAP2 SWAP1 PUSH2 0x1DDF JUMP JUMPDEST POP JUMP JUMPDEST POP PUSH1 0x0 DUP2 SSTORE PUSH1 0x1 ADD PUSH1 0x0 DUP2 SSTORE PUSH1 0x1 ADD PUSH1 0x0 SWAP1 SSTORE JUMP JUMPDEST DUP3 PUSH1 0x3 DUP2 ADD SWAP3 DUP3 ISZERO PUSH2 0x1DCE JUMPI SWAP2 DUP3 ADD JUMPDEST DUP3 DUP2 GT ISZERO PUSH2 0x1DCD JUMPI DUP3 SLOAD DUP3 SSTORE SWAP2 PUSH1 0x1 ADD SWAP2 SWAP1 PUSH1 0x1 ADD SWAP1 PUSH2 0x1DB2 JUMP JUMPDEST JUMPDEST POP SWAP1 POP PUSH2 0x1DDB SWAP2 SWAP1 PUSH2 0x1DDF JUMP JUMPDEST POP SWAP1 JUMP JUMPDEST JUMPDEST DUP1 DUP3 GT ISZERO PUSH2 0x1DF8 JUMPI PUSH1 0x0 DUP2 PUSH1 0x0 SWAP1 SSTORE POP PUSH1 0x1 ADD PUSH2 0x1DE0 JUMP JUMPDEST POP SWAP1 JUMP JUMPDEST PUSH1 0x40 MLOAD DUP1 PUSH1 0x60 ADD PUSH1 0x40 MSTORE DUP1 PUSH1 0x3 SWAP1 PUSH1 0x20 DUP3 MUL DUP1 CALLDATASIZE DUP4 CALLDATACOPY DUP1 DUP3 ADD SWAP2 POP POP SWAP1 POP POP SWAP1 JUMP JUMPDEST JUMPDEST DUP1 DUP3 GT ISZERO PUSH2 0x1E55 JUMPI PUSH1 0x0 DUP1 DUP3 ADD PUSH1 0x0 PUSH2 0x100 EXP DUP2 SLOAD SWAP1 PUSH1 0xFF MUL NOT AND SWAP1 SSTORE PUSH1 0x1 DUP3 ADD PUSH1 0x0 PUSH2 0x1E4C SWAP2 SWAP1 PUSH2 0x1E59 JUMP JUMPDEST POP PUSH1 0x2 ADD PUSH2 0x1E1F JUMP JUMPDEST POP SWAP1 JUMP JUMPDEST POP DUP1 SLOAD PUSH1 0x0 DUP3 SSTORE SWAP1 PUSH1 0x0 MSTORE PUSH1 0x20 PUSH1 0x0 KECCAK256 SWAP1 DUP2 ADD SWAP1 PUSH2 0x1E77 SWAP2 SWAP1 PUSH2 0x1E7A JUMP JUMPDEST POP JUMP JUMPDEST JUMPDEST DUP1 DUP3 GT ISZERO PUSH2 0x1EB9 JUMPI PUSH1 0x0 DUP1 DUP3 ADD PUSH1 0x0 PUSH2 0x100 EXP DUP2 SLOAD SWAP1 PUSH4 0xFFFFFFFF MUL NOT AND SWAP1 SSTORE PUSH1 0x0 DUP3 ADD PUSH1 0x4 PUSH2 0x100 EXP DUP2 SLOAD SWAP1 PUSH2 0xFFFF MUL NOT AND SWAP1 SSTORE POP PUSH1 0x1 ADD PUSH2 0x1E7B JUMP JUMPDEST POP SWAP1 JUMP JUMPDEST PUSH1 0x0 PUSH1 0x40 MLOAD SWAP1 POP SWAP1 JUMP JUMPDEST PUSH1 0x0 DUP1 REVERT JUMPDEST PUSH1 0x0 DUP1 REVERT JUMPDEST PUSH1 0x0 DUP2 SWAP1 POP SWAP2 SWAP1 POP JUMP JUMPDEST PUSH2 0x1EE4 DUP2 PUSH2 0x1ED1 JUMP JUMPDEST DUP2 EQ PUSH2 0x1EEF JUMPI PUSH1 0x0 DUP1 REVERT JUMPDEST POP JUMP JUMPDEST PUSH1 0x0 DUP2 CALLDATALOAD SWAP1 POP PUSH2 0x1F01 DUP2 PUSH2 0x1EDB JUMP JUMPDEST SWAP3 SWAP2 POP POP JUMP JUMPDEST PUSH1 0x0 DUP1 REVERT JUMPDEST PUSH1 0x0 PUSH1 0x1F NOT PUSH1 0x1F DUP4 ADD AND SWAP1 POP SWAP2 SWAP1 POP JUMP JUMPDEST PUSH32 0x4E487B7100000000000000000000000000000000000000000000000000000000 PUSH1 0x0 MSTORE PUSH1 0x41 PUSH1 0x4 MSTORE PUSH1 0x24 PUSH1 0x0 REVERT JUMPDEST PUSH2 0x1F55 DUP3 PUSH2 0x1F0C JUMP JUMPDEST DUP2 ADD DUP2 DUP2 LT PUSH8 0xFFFFFFFFFFFFFFFF DUP3 GT OR ISZERO PUSH2 0x1F74 JUMPI PUSH2 0x1F73 PUSH2 0x1F1D JUMP JUMPDEST JUMPDEST DUP1 PUSH1 0x40 MSTORE POP POP POP JUMP JUMPDEST PUSH1 0x0 PUSH2 0x1F87 PUSH2 0x1EBD JUMP JUMPDEST SWAP1 POP PUSH2 0x1F93 DUP3 DUP3 PUSH2 0x1F4C JUMP JUMPDEST SWAP2 SWAP1 POP JUMP JUMPDEST PUSH1 0x0 PUSH8 0xFFFFFFFFFFFFFFFF DUP3 GT ISZERO PUSH2 0x1FB3 JUMPI PUSH2 0x1FB2 PUSH2 0x1F1D JUMP JUMPDEST JUMPDEST PUSH1 0x20 DUP3 MUL SWAP1 POP PUSH1 0x20 DUP2 ADD SWAP1 POP SWAP2 SWAP1 POP JUMP JUMPDEST PUSH1 0x0 DUP1 REVERT JUMPDEST PUSH1 0x0 PUSH2 0x1FDC PUSH2 0x1FD7 DUP5 PUSH2 0x1F98 JUMP JUMPDEST PUSH2 0x1F7D JUMP JUMPDEST SWAP1 POP DUP1 DUP4 DUP3 MSTORE PUSH1 0x20 DUP3 ADD SWAP1 POP PUSH1 0x20 DUP5 MUL DUP4 ADD DUP6 DUP2 GT ISZERO PUSH2 0x1FFF JUMPI PUSH2 0x1FFE PUSH2 0x1FC4 JUMP JUMPDEST JUMPDEST DUP4 JUMPDEST DUP2 DUP2 LT ISZERO PUSH2 0x2028 JUMPI DUP1 PUSH2 0x2014 DUP9 DUP3 PUSH2 0x1EF2 JUMP JUMPDEST DUP5 MSTORE PUSH1 0x20 DUP5 ADD SWAP4 POP POP PUSH1 0x20 DUP2 ADD SWAP1 POP PUSH2 0x2001 JUMP JUMPDEST POP POP POP SWAP4 SWAP3 POP POP POP JUMP JUMPDEST PUSH1 0x0 DUP3 PUSH1 0x1F DUP4 ADD SLT PUSH2 0x2047 JUMPI PUSH2 0x2046 PUSH2 0x1F07 JUMP JUMPDEST JUMPDEST DUP2 CALLDATALOAD PUSH2 0x2057 DUP5 DUP3 PUSH1 0x20 DUP7 ADD PUSH2 0x1FC9 JUMP JUMPDEST SWAP2 POP POP SWAP3 SWAP2 POP POP JUMP JUMPDEST PUSH1 0x0 DUP1 PUSH1 0x40 DUP4 DUP6 SUB SLT ISZERO PUSH2 0x2077 JUMPI PUSH2 0x2076 PUSH2 0x1EC7 JUMP JUMPDEST JUMPDEST PUSH1 0x0 PUSH2 0x2085 DUP6 DUP3 DUP7 ADD PUSH2 0x1EF2 JUMP JUMPDEST SWAP3 POP POP PUSH1 0x20 DUP4 ADD CALLDATALOAD PUSH8 0xFFFFFFFFFFFFFFFF DUP2 GT ISZERO PUSH2 0x20A6 JUMPI PUSH2 0x20A5 PUSH2 0x1ECC JUMP JUMPDEST JUMPDEST PUSH2 0x20B2 DUP6 DUP3 DUP7 ADD PUSH2 0x2032 JUMP JUMPDEST SWAP2 POP POP SWAP3 POP SWAP3 SWAP1 POP JUMP JUMPDEST PUSH1 0x0 PUSH8 0xFFFFFFFFFFFFFFFF DUP3 GT ISZERO PUSH2 0x20D7 JUMPI PUSH2 0x20D6 PUSH2 0x1F1D JUMP JUMPDEST JUMPDEST PUSH1 0x20 DUP3 MUL SWAP1 POP PUSH1 0x20 DUP2 ADD SWAP1 POP SWAP2 SWAP1 POP JUMP JUMPDEST PUSH1 0x0 DUP1 REVERT JUMPDEST PUSH1 0x0 DUP1 REVERT JUMPDEST PUSH1 0x5 DUP2 LT PUSH2 0x20FF JUMPI PUSH1 0x0 DUP1 REVERT JUMPDEST POP JUMP JUMPDEST PUSH1 0x0 DUP2 CALLDATALOAD SWAP1 POP PUSH2 0x2111 DUP2 PUSH2 0x20F2 JUMP JUMPDEST SWAP3 SWAP2 POP POP JUMP JUMPDEST PUSH1 0x0 PUSH8 0xFFFFFFFFFFFFFFFF DUP3 GT ISZERO PUSH2 0x2132 JUMPI PUSH2 0x2131 PUSH2 0x1F1D JUMP JUMPDEST JUMPDEST PUSH1 0x20 DUP3 MUL SWAP1 POP PUSH1 0x20 DUP2 ADD SWAP1 POP SWAP2 SWAP1 POP JUMP JUMPDEST PUSH1 0x0 PUSH4 0xFFFFFFFF DUP3 AND SWAP1 POP SWAP2 SWAP1 POP JUMP JUMPDEST PUSH2 0x215C DUP2 PUSH2 0x2143 JUMP JUMPDEST DUP2 EQ PUSH2 0x2167 JUMPI PUSH1 0x0 DUP1 REVERT JUMPDEST POP JUMP JUMPDEST PUSH1 0x0 DUP2 CALLDATALOAD SWAP1 POP PUSH2 0x2179 DUP2 PUSH2 0x2153 JUMP JUMPDEST SWAP3 SWAP2 POP POP JUMP JUMPDEST PUSH1 0x0 PUSH2 0xFFFF DUP3 AND SWAP1 POP SWAP2 SWAP1 POP JUMP JUMPDEST PUSH2 0x2196 DUP2 PUSH2 0x217F JUMP JUMPDEST DUP2 EQ PUSH2 0x21A1 JUMPI PUSH1 0x0 DUP1 REVERT JUMPDEST POP JUMP JUMPDEST PUSH1 0x0 DUP2 CALLDATALOAD SWAP1 POP PUSH2 0x21B3 DUP2 PUSH2 0x218D JUMP JUMPDEST SWAP3 SWAP2 POP POP JUMP JUMPDEST PUSH1 0x0 PUSH1 0x40 DUP3 DUP5 SUB SLT ISZERO PUSH2 0x21CF JUMPI PUSH2 0x21CE PUSH2 0x20E8 JUMP JUMPDEST JUMPDEST PUSH2 0x21D9 PUSH1 0x40 PUSH2 0x1F7D JUMP JUMPDEST SWAP1 POP PUSH1 0x0 PUSH2 0x21E9 DUP5 DUP3 DUP6 ADD PUSH2 0x216A JUMP JUMPDEST PUSH1 0x0 DUP4 ADD MSTORE POP PUSH1 0x20 PUSH2 0x21FD DUP5 DUP3 DUP6 ADD PUSH2 0x21A4 JUMP JUMPDEST PUSH1 0x20 DUP4 ADD MSTORE POP SWAP3 SWAP2 POP POP JUMP JUMPDEST PUSH1 0x0 PUSH2 0x221C PUSH2 0x2217 DUP5 PUSH2 0x2117 JUMP JUMPDEST PUSH2 0x1F7D JUMP JUMPDEST SWAP1 POP DUP1 DUP4 DUP3 MSTORE PUSH1 0x20 DUP3 ADD SWAP1 POP PUSH1 0x40 DUP5 MUL DUP4 ADD DUP6 DUP2 GT ISZERO PUSH2 0x223F JUMPI PUSH2 0x223E PUSH2 0x1FC4 JUMP JUMPDEST JUMPDEST DUP4 JUMPDEST DUP2 DUP2 LT ISZERO PUSH2 0x2268 JUMPI DUP1 PUSH2 0x2254 DUP9 DUP3 PUSH2 0x21B9 JUMP JUMPDEST DUP5 MSTORE PUSH1 0x20 DUP5 ADD SWAP4 POP POP PUSH1 0x40 DUP2 ADD SWAP1 POP PUSH2 0x2241 JUMP JUMPDEST POP POP POP SWAP4 SWAP3 POP POP POP JUMP JUMPDEST PUSH1 0x0 DUP3 PUSH1 0x1F DUP4 ADD SLT PUSH2 0x2287 JUMPI PUSH2 0x2286 PUSH2 0x1F07 JUMP JUMPDEST JUMPDEST DUP2 CALLDATALOAD PUSH2 0x2297 DUP5 DUP3 PUSH1 0x20 DUP7 ADD PUSH2 0x2209 JUMP JUMPDEST SWAP2 POP POP SWAP3 SWAP2 POP POP JUMP JUMPDEST PUSH1 0x0 PUSH1 0x40 DUP3 DUP5 SUB SLT ISZERO PUSH2 0x22B6 JUMPI PUSH2 0x22B5 PUSH2 0x20E8 JUMP JUMPDEST JUMPDEST PUSH2 0x22C0 PUSH1 0x40 PUSH2 0x1F7D JUMP JUMPDEST SWAP1 POP PUSH1 0x0 PUSH2 0x22D0 DUP5 DUP3 DUP6 ADD PUSH2 0x2102 JUMP JUMPDEST PUSH1 0x0 DUP4 ADD MSTORE POP PUSH1 0x20 DUP3 ADD CALLDATALOAD PUSH8 0xFFFFFFFFFFFFFFFF DUP2 GT ISZERO PUSH2 0x22F4 JUMPI PUSH2 0x22F3 PUSH2 0x20ED JUMP JUMPDEST JUMPDEST PUSH2 0x2300 DUP5 DUP3 DUP6 ADD PUSH2 0x2272 JUMP JUMPDEST PUSH1 0x20 DUP4 ADD MSTORE POP SWAP3 SWAP2 POP POP JUMP JUMPDEST PUSH1 0x0 PUSH2 0x231F PUSH2 0x231A DUP5 PUSH2 0x20BC JUMP JUMPDEST PUSH2 0x1F7D JUMP JUMPDEST SWAP1 POP DUP1 DUP4 DUP3 MSTORE PUSH1 0x20 DUP3 ADD SWAP1 POP PUSH1 0x20 DUP5 MUL DUP4 ADD DUP6 DUP2 GT ISZERO PUSH2 0x2342 JUMPI PUSH2 0x2341 PUSH2 0x1FC4 JUMP JUMPDEST JUMPDEST DUP4 JUMPDEST DUP2 DUP2 LT ISZERO PUSH2 0x2389 JUMPI DUP1 CALLDATALOAD PUSH8 0xFFFFFFFFFFFFFFFF DUP2 GT ISZERO PUSH2 0x2367 JUMPI PUSH2 0x2366 PUSH2 0x1F07 JUMP JUMPDEST JUMPDEST DUP1 DUP7 ADD PUSH2 0x2374 DUP10 DUP3 PUSH2 0x22A0 JUMP JUMPDEST DUP6 MSTORE PUSH1 0x20 DUP6 ADD SWAP5 POP POP POP PUSH1 0x20 DUP2 ADD SWAP1 POP PUSH2 0x2344 JUMP JUMPDEST POP POP POP SWAP4 SWAP3 POP POP POP JUMP JUMPDEST PUSH1 0x0 DUP3 PUSH1 0x1F DUP4 ADD SLT PUSH2 0x23A8 JUMPI PUSH2 0x23A7 PUSH2 0x1F07 JUMP JUMPDEST JUMPDEST DUP2 CALLDATALOAD PUSH2 0x23B8 DUP5 DUP3 PUSH1 0x20 DUP7 ADD PUSH2 0x230C JUMP JUMPDEST SWAP2 POP POP SWAP3 SWAP2 POP POP JUMP JUMPDEST PUSH1 0x0 PUSH1 0x20 DUP3 DUP5 SUB SLT ISZERO PUSH2 0x23D7 JUMPI PUSH2 0x23D6 PUSH2 0x1EC7 JUMP JUMPDEST JUMPDEST PUSH1 0x0 DUP3 ADD CALLDATALOAD PUSH8 0xFFFFFFFFFFFFFFFF DUP2 GT ISZERO PUSH2 0x23F5 JUMPI PUSH2 0x23F4 PUSH2 0x1ECC JUMP JUMPDEST JUMPDEST PUSH2 0x2401 DUP5 DUP3 DUP6 ADD PUSH2 0x2393 JUMP JUMPDEST SWAP2 POP POP SWAP3 SWAP2 POP POP JUMP JUMPDEST PUSH1 0x0 DUP1 REVERT JUMPDEST PUSH1 0x0 DUP1 DUP4 PUSH1 0x1F DUP5 ADD SLT PUSH2 0x2425 JUMPI PUSH2 0x2424 PUSH2 0x1F07 JUMP JUMPDEST JUMPDEST DUP3 CALLDATALOAD SWAP1 POP PUSH8 0xFFFFFFFFFFFFFFFF DUP2 GT ISZERO PUSH2 0x2442 JUMPI PUSH2 0x2441 PUSH2 0x240A JUMP JUMPDEST JUMPDEST PUSH1 0x20 DUP4 ADD SWAP2 POP DUP4 PUSH1 0x1 DUP3 MUL DUP4 ADD GT ISZERO PUSH2 0x245E JUMPI PUSH2 0x245D PUSH2 0x1FC4 JUMP JUMPDEST JUMPDEST SWAP3 POP SWAP3 SWAP1 POP JUMP JUMPDEST PUSH1 0x0 DUP1 PUSH1 0x20 DUP4 DUP6 SUB SLT ISZERO PUSH2 0x247C JUMPI PUSH2 0x247B PUSH2 0x1EC7 JUMP JUMPDEST JUMPDEST PUSH1 0x0 DUP4 ADD CALLDATALOAD PUSH8 0xFFFFFFFFFFFFFFFF DUP2 GT ISZERO PUSH2 0x249A JUMPI PUSH2 0x2499 PUSH2 0x1ECC JUMP JUMPDEST JUMPDEST PUSH2 0x24A6 DUP6 DUP3 DUP7 ADD PUSH2 0x240F JUMP JUMPDEST SWAP3 POP SWAP3 POP POP SWAP3 POP SWAP3 SWAP1 POP JUMP JUMPDEST PUSH1 0x0 PUSH1 0x5 SWAP1 POP SWAP2 SWAP1 POP JUMP JUMPDEST PUSH1 0x0 DUP2 SWAP1 POP SWAP3 SWAP2 POP POP JUMP JUMPDEST PUSH1 0x0 DUP2 SWAP1 POP SWAP2 SWAP1 POP JUMP JUMPDEST PUSH1 0x0 PUSH1 0x3 SWAP1 POP SWAP2 SWAP1 POP JUMP JUMPDEST PUSH1 0x0 DUP2 SWAP1 POP SWAP3 SWAP2 POP POP JUMP JUMPDEST PUSH1 0x0 DUP2 SWAP1 POP SWAP2 SWAP1 POP JUMP JUMPDEST PUSH2 0x24FB DUP2 PUSH2 0x1ED1 JUMP JUMPDEST DUP3 MSTORE POP POP JUMP JUMPDEST PUSH1 0x0 PUSH2 0x250D DUP4 DUP4 PUSH2 0x24F2 JUMP JUMPDEST PUSH1 0x20 DUP4 ADD SWAP1 POP SWAP3 SWAP2 POP POP JUMP JUMPDEST PUSH1 0x0 PUSH1 0x20 DUP3 ADD SWAP1 POP SWAP2 SWAP1 POP JUMP JUMPDEST PUSH2 0x252F DUP2 PUSH2 0x24D2 JUMP JUMPDEST PUSH2 0x2539 DUP2 DUP5 PUSH2 0x24DD JUMP JUMPDEST SWAP3 POP PUSH2 0x2544 DUP3 PUSH2 0x24E8 JUMP JUMPDEST DUP1 PUSH1 0x0 JUMPDEST DUP4 DUP2 LT ISZERO PUSH2 0x2575 JUMPI DUP2 MLOAD PUSH2 0x255C DUP8 DUP3 PUSH2 0x2501 JUMP JUMPDEST SWAP7 POP PUSH2 0x2567 DUP4 PUSH2 0x2519 JUMP JUMPDEST SWAP3 POP POP PUSH1 0x1 DUP2 ADD SWAP1 POP PUSH2 0x2548 JUMP JUMPDEST POP POP POP POP POP POP JUMP JUMPDEST PUSH1 0x0 PUSH2 0x2589 DUP4 DUP4 PUSH2 0x2526 JUMP JUMPDEST PUSH1 0x60 DUP4 ADD SWAP1 POP SWAP3 SWAP2 POP POP JUMP JUMPDEST PUSH1 0x0 PUSH1 0x20 DUP3 ADD SWAP1 POP SWAP2 SWAP1 POP JUMP JUMPDEST PUSH2 0x25AB DUP2 PUSH2 0x24B2 JUMP JUMPDEST PUSH2 0x25B5 DUP2 DUP5 PUSH2 0x24BD JUMP JUMPDEST SWAP3 POP PUSH2 0x25C0 DUP3 PUSH2 0x24C8 JUMP JUMPDEST DUP1 PUSH1 0x0 JUMPDEST DUP4 DUP2 LT ISZERO PUSH2 0x25F1 JUMPI DUP2 MLOAD PUSH2 0x25D8 DUP8 DUP3 PUSH2 0x257D JUMP JUMPDEST SWAP7 POP PUSH2 0x25E3 DUP4 PUSH2 0x2595 JUMP JUMPDEST SWAP3 POP POP PUSH1 0x1 DUP2 ADD SWAP1 POP PUSH2 0x25C4 JUMP JUMPDEST POP POP POP POP POP POP JUMP JUMPDEST PUSH1 0x0 PUSH2 0x1E0 DUP3 ADD SWAP1 POP PUSH2 0x260F PUSH1 0x0 DUP4 ADD DUP5 PUSH2 0x25A2 JUMP JUMPDEST SWAP3 SWAP2 POP POP JUMP JUMPDEST PUSH1 0x0 DUP1 REVERT JUMPDEST PUSH1 0x0 PUSH8 0xFFFFFFFFFFFFFFFF DUP3 GT ISZERO PUSH2 0x2635 JUMPI PUSH2 0x2634 PUSH2 0x1F1D JUMP JUMPDEST JUMPDEST PUSH2 0x263E DUP3 PUSH2 0x1F0C JUMP JUMPDEST SWAP1 POP PUSH1 0x20 DUP2 ADD SWAP1 POP SWAP2 SWAP1 POP JUMP JUMPDEST DUP3 DUP2 DUP4 CALLDATACOPY PUSH1 0x0 DUP4 DUP4 ADD MSTORE POP POP POP JUMP JUMPDEST PUSH1 0x0 PUSH2 0x266D PUSH2 0x2668 DUP5 PUSH2 0x261A JUMP JUMPDEST PUSH2 0x1F7D JUMP JUMPDEST SWAP1 POP DUP3 DUP2 MSTORE PUSH1 0x20 DUP2 ADD DUP5 DUP5 DUP5 ADD GT ISZERO PUSH2 0x2689 JUMPI PUSH2 0x2688 PUSH2 0x2615 JUMP JUMPDEST JUMPDEST PUSH2 0x2694 DUP5 DUP3 DUP6 PUSH2 0x264B JUMP JUMPDEST POP SWAP4 SWAP3 POP POP POP JUMP JUMPDEST PUSH1 0x0 DUP3 PUSH1 0x1F DUP4 ADD SLT PUSH2 0x26B1 JUMPI PUSH2 0x26B0 PUSH2 0x1F07 JUMP JUMPDEST JUMPDEST DUP2 CALLDATALOAD PUSH2 0x26C1 DUP5 DUP3 PUSH1 0x20 DUP7 ADD PUSH2 0x265A JUMP JUMPDEST SWAP2 POP POP SWAP3 SWAP2 POP POP JUMP JUMPDEST PUSH1 0x0 PUSH1 0x20 DUP3 DUP5 SUB SLT ISZERO PUSH2 0x26E0 JUMPI PUSH2 0x26DF PUSH2 0x1EC7 JUMP JUMPDEST JUMPDEST PUSH1 0x0 DUP3 ADD CALLDATALOAD PUSH8 0xFFFFFFFFFFFFFFFF DUP2 GT ISZERO PUSH2 0x26FE JUMPI PUSH2 0x26FD PUSH2 0x1ECC JUMP JUMPDEST JUMPDEST PUSH2 0x270A DUP5 DUP3 DUP6 ADD PUSH2 0x269C JUMP JUMPDEST SWAP2 POP POP SWAP3 SWAP2 POP POP JUMP JUMPDEST PUSH1 0x0 DUP2 ISZERO ISZERO SWAP1 POP SWAP2 SWAP1 POP JUMP JUMPDEST PUSH2 0x2728 DUP2 PUSH2 0x2713 JUMP JUMPDEST DUP3 MSTORE POP POP JUMP JUMPDEST PUSH1 0x0 DUP2 MLOAD SWAP1 POP SWAP2 SWAP1 POP JUMP JUMPDEST PUSH1 0x0 DUP3 DUP3 MSTORE PUSH1 0x20 DUP3 ADD SWAP1 POP SWAP3 SWAP2 POP POP JUMP JUMPDEST PUSH1 0x0 JUMPDEST DUP4 DUP2 LT ISZERO PUSH2 0x2768 JUMPI DUP1 DUP3 ADD MLOAD DUP2 DUP5 ADD MSTORE PUSH1 0x20 DUP2 ADD SWAP1 POP PUSH2 0x274D JUMP JUMPDEST PUSH1 0x0 DUP5 DUP5 ADD MSTORE POP POP POP POP JUMP JUMPDEST PUSH1 0x0 PUSH2 0x277F DUP3 PUSH2 0x272E JUMP JUMPDEST PUSH2 0x2789 DUP2 DUP6 PUSH2 0x2739 JUMP JUMPDEST SWAP4 POP PUSH2 0x2799 DUP2 DUP6 PUSH1 0x20 DUP7 ADD PUSH2 0x274A JUMP JUMPDEST PUSH2 0x27A2 DUP2 PUSH2 0x1F0C JUMP JUMPDEST DUP5 ADD SWAP2 POP POP SWAP3 SWAP2 POP POP JUMP JUMPDEST PUSH1 0x0 PUSH1 0x40 DUP3 ADD SWAP1 POP PUSH2 0x27C2 PUSH1 0x0 DUP4 ADD DUP6 PUSH2 0x271F JUMP JUMPDEST DUP2 DUP2 SUB PUSH1 0x20 DUP4 ADD MSTORE PUSH2 0x27D4 DUP2 DUP5 PUSH2 0x2774 JUMP JUMPDEST SWAP1 POP SWAP4 SWAP3 POP POP POP JUMP JUMPDEST PUSH1 0x0 PUSH1 0x20 DUP3 DUP5 SUB SLT ISZERO PUSH2 0x27F3 JUMPI PUSH2 0x27F2 PUSH2 0x1EC7 JUMP JUMPDEST JUMPDEST PUSH1 0x0 PUSH2 0x2801 DUP5 DUP3 DUP6 ADD PUSH2 0x1EF2 JUMP JUMPDEST SWAP2 POP POP SWAP3 SWAP2 POP POP JUMP JUMPDEST PUSH2 0x2813 DUP2 PUSH2 0x1ED1 JUMP JUMPDEST DUP3 MSTORE POP POP JUMP JUMPDEST PUSH1 0x0 PUSH1 0x20 DUP3 ADD SWAP1 POP PUSH2 0x282E PUSH1 0x0 DUP4 ADD DUP5 PUSH2 0x280A JUMP JUMPDEST SWAP3 SWAP2 POP POP JUMP JUMPDEST PUSH1 0x0 PUSH1 0x40 DUP3 ADD SWAP1 POP PUSH2 0x2849 PUSH1 0x0 DUP4 ADD DUP6 PUSH2 0x271F JUMP JUMPDEST PUSH2 0x2856 PUSH1 0x20 DUP4 ADD DUP5 PUSH2 0x271F JUMP JUMPDEST SWAP4 SWAP3 POP POP POP JUMP JUMPDEST PUSH32 0x4E487B7100000000000000000000000000000000000000000000000000000000 PUSH1 0x0 MSTORE PUSH1 0x21 PUSH1 0x4 MSTORE PUSH1 0x24 PUSH1 0x0 REVERT JUMPDEST PUSH1 0x2 DUP2 LT PUSH2 0x289D JUMPI PUSH2 0x289C PUSH2 0x285D JUMP JUMPDEST JUMPDEST POP JUMP JUMPDEST PUSH1 0x0 DUP2 SWAP1 POP PUSH2 0x28AE DUP3 PUSH2 0x288C JUMP JUMPDEST SWAP2 SWAP1 POP JUMP JUMPDEST PUSH1 0x0 PUSH2 0x28BE DUP3 PUSH2 0x28A0 JUMP JUMPDEST SWAP1 POP SWAP2 SWAP1 POP JUMP JUMPDEST PUSH2 0x28CE DUP2 PUSH2 0x28B3 JUMP JUMPDEST DUP3 MSTORE POP POP JUMP JUMPDEST PUSH1 0x0 PUSH1 0x20 DUP3 ADD SWAP1 POP PUSH2 0x28E9 PUSH1 0x0 DUP4 ADD DUP5 PUSH2 0x28C5 JUMP JUMPDEST SWAP3 SWAP2 POP POP JUMP JUMPDEST PUSH1 0x0 PUSH20 0xFFFFFFFFFFFFFFFFFFFFFFFFFFFFFFFFFFFFFFFF DUP3 AND SWAP1 POP SWAP2 SWAP1 POP JUMP JUMPDEST PUSH1 0x0 PUSH2 0x291A DUP3 PUSH2 0x28EF JUMP JUMPDEST SWAP1 POP SWAP2 SWAP1 POP JUMP JUMPDEST PUSH2 0x292A DUP2 PUSH2 0x290F JUMP JUMPDEST DUP3 MSTORE POP POP JUMP JUMPDEST PUSH1 0x0 PUSH1 0x20 DUP3 ADD SWAP1 POP PUSH2 0x2945 PUSH1 0x0 DUP4 ADD DUP5 PUSH2 0x2921 JUMP JUMPDEST SWAP3 SWAP2 POP POP JUMP JUMPDEST PUSH1 0x0 DUP1 PUSH1 0x40 DUP4 DUP6 SUB SLT ISZERO PUSH2 0x2962 JUMPI PUSH2 0x2961 PUSH2 0x1EC7 JUMP JUMPDEST JUMPDEST PUSH1 0x0 PUSH2 0x2970 DUP6 DUP3 DUP7 ADD PUSH2 0x1EF2 JUMP JUMPDEST SWAP3 POP POP PUSH1 0x20 PUSH2 0x2981 DUP6 DUP3 DUP7 ADD PUSH2 0x1EF2 JUMP JUMPDEST SWAP2 POP POP SWAP3 POP SWAP3 SWAP1 POP JUMP JUMPDEST PUSH1 0x0 DUP2 MLOAD SWAP1 POP SWAP2 SWAP1 POP JUMP JUMPDEST PUSH1 0x0 DUP3 DUP3 MSTORE PUSH1 0x20 DUP3 ADD SWAP1 POP SWAP3 SWAP2 POP POP JUMP JUMPDEST PUSH1 0x0 DUP2 SWAP1 POP PUSH1 0x20 DUP3 ADD SWAP1 POP SWAP2 SWAP1 POP JUMP JUMPDEST PUSH2 0x29C0 DUP2 PUSH2 0x290F JUMP JUMPDEST DUP3 MSTORE POP POP JUMP JUMPDEST PUSH1 0x0 PUSH2 0x29D2 DUP4 DUP4 PUSH2 0x29B7 JUMP JUMPDEST PUSH1 0x20 DUP4 ADD SWAP1 POP SWAP3 SWAP2 POP POP JUMP JUMPDEST PUSH1 0x0 PUSH1 0x20 DUP3 ADD SWAP1 POP SWAP2 SWAP1 POP JUMP JUMPDEST PUSH1 0x0 PUSH2 0x29F6 DUP3 PUSH2 0x298B JUMP JUMPDEST PUSH2 0x2A00 DUP2 DUP6 PUSH2 0x2996 JUMP JUMPDEST SWAP4 POP PUSH2 0x2A0B DUP4 PUSH2 0x29A7 JUMP JUMPDEST DUP1 PUSH1 0x0 JUMPDEST DUP4 DUP2 LT ISZERO PUSH2 0x2A3C JUMPI DUP2 MLOAD PUSH2 0x2A23 DUP9 DUP3 PUSH2 0x29C6 JUMP JUMPDEST SWAP8 POP PUSH2 0x2A2E DUP4 PUSH2 0x29DE JUMP JUMPDEST SWAP3 POP POP PUSH1 0x1 DUP2 ADD SWAP1 POP PUSH2 0x2A0F JUMP JUMPDEST POP DUP6 SWAP4 POP POP POP POP SWAP3 SWAP2 POP POP JUMP JUMPDEST PUSH1 0x0 PUSH1 0x20 DUP3 ADD SWAP1 POP DUP2 DUP2 SUB PUSH1 0x0 DUP4 ADD MSTORE PUSH2 0x2A63 DUP2 DUP5 PUSH2 0x29EB JUMP JUMPDEST SWAP1 POP SWAP3 SWAP2 POP POP JUMP JUMPDEST PUSH1 0x0 PUSH2 0x2A76 DUP3 PUSH2 0x28EF JUMP JUMPDEST SWAP1 POP SWAP2 SWAP1 POP JUMP JUMPDEST PUSH2 0x2A86 DUP2 PUSH2 0x2A6B JUMP JUMPDEST DUP3 MSTORE POP POP JUMP JUMPDEST PUSH1 0x0 PUSH1 0x40 DUP3 ADD SWAP1 POP PUSH2 0x2AA1 PUSH1 0x0 DUP4 ADD DUP6 PUSH2 0x2A7D JUMP JUMPDEST PUSH2 0x2AAE PUSH1 0x20 DUP4 ADD DUP5 PUSH2 0x2A7D JUMP JUMPDEST SWAP4 SWAP3 POP POP POP JUMP JUMPDEST PUSH1 0x0 DUP3 DUP3 MSTORE PUSH1 0x20 DUP3 ADD SWAP1 POP SWAP3 SWAP2 POP POP JUMP JUMPDEST PUSH32 0x4E6F7420656E6F7567682066656520746F206A6F696E00000000000000000000 PUSH1 0x0 DUP3 ADD MSTORE POP JUMP JUMPDEST PUSH1 0x0 PUSH2 0x2AFC PUSH1 0x16 DUP4 PUSH2 0x2AB5 JUMP JUMPDEST SWAP2 POP PUSH2 0x2B07 DUP3 PUSH2 0x2AC6 JUMP JUMPDEST PUSH1 0x20 DUP3 ADD SWAP1 POP SWAP2 SWAP1 POP JUMP JUMPDEST PUSH1 0x0 PUSH1 0x20 DUP3 ADD SWAP1 POP DUP2 DUP2 SUB PUSH1 0x0 DUP4 ADD MSTORE PUSH2 0x2B2B DUP2 PUSH2 0x2AEF JUMP JUMPDEST SWAP1 POP SWAP2 SWAP1 POP JUMP JUMPDEST PUSH32 0x42696E676F2069732063616C63756C6174696E67207265776172642100000000 PUSH1 0x0 DUP3 ADD MSTORE POP JUMP JUMPDEST PUSH1 0x0 PUSH2 0x2B68 PUSH1 0x1C DUP4 PUSH2 0x2AB5 JUMP JUMPDEST SWAP2 POP PUSH2 0x2B73 DUP3 PUSH2 0x2B32 JUMP JUMPDEST PUSH1 0x20 DUP3 ADD SWAP1 POP SWAP2 SWAP1 POP JUMP JUMPDEST PUSH1 0x0 PUSH1 0x20 DUP3 ADD SWAP1 POP DUP2 DUP2 SUB PUSH1 0x0 DUP4 ADD MSTORE PUSH2 0x2B97 DUP2 PUSH2 0x2B5B JUMP JUMPDEST SWAP1 POP SWAP2 SWAP1 POP JUMP JUMPDEST PUSH32 0x4572726F722C204E6F20506C6179657221000000000000000000000000000000 PUSH1 0x0 DUP3 ADD MSTORE POP JUMP JUMPDEST PUSH1 0x0 PUSH2 0x2BD4 PUSH1 0x11 DUP4 PUSH2 0x2AB5 JUMP JUMPDEST SWAP2 POP PUSH2 0x2BDF DUP3 PUSH2 0x2B9E JUMP JUMPDEST PUSH1 0x20 DUP3 ADD SWAP1 POP SWAP2 SWAP1 POP JUMP JUMPDEST PUSH1 0x0 PUSH1 0x20 DUP3 ADD SWAP1 POP DUP2 DUP2 SUB PUSH1 0x0 DUP4 ADD MSTORE PUSH2 0x2C03 DUP2 PUSH2 0x2BC7 JUMP JUMPDEST SWAP1 POP SWAP2 SWAP1 POP JUMP JUMPDEST PUSH1 0x0 DUP2 SWAP1 POP SWAP2 SWAP1 POP JUMP JUMPDEST PUSH2 0x2C1D DUP2 PUSH2 0x2C0A JUMP JUMPDEST DUP3 MSTORE POP POP JUMP JUMPDEST PUSH2 0x2C2C DUP2 PUSH2 0x217F JUMP JUMPDEST DUP3 MSTORE POP POP JUMP JUMPDEST PUSH2 0x2C3B DUP2 PUSH2 0x2143 JUMP JUMPDEST DUP3 MSTORE POP POP JUMP JUMPDEST PUSH1 0x0 PUSH1 0xA0 DUP3 ADD SWAP1 POP PUSH2 0x2C56 PUSH1 0x0 DUP4 ADD DUP9 PUSH2 0x2C14 JUMP JUMPDEST PUSH2 0x2C63 PUSH1 0x20 DUP4 ADD DUP8 PUSH2 0x280A JUMP JUMPDEST PUSH2 0x2C70 PUSH1 0x40 DUP4 ADD DUP7 PUSH2 0x2C23 JUMP JUMPDEST PUSH2 0x2C7D PUSH1 0x60 DUP4 ADD DUP6 PUSH2 0x2C32 JUMP JUMPDEST PUSH2 0x2C8A PUSH1 0x80 DUP4 ADD DUP5 PUSH2 0x2C32 JUMP JUMPDEST SWAP7 SWAP6 POP POP POP POP POP POP JUMP JUMPDEST PUSH1 0x0 DUP2 MLOAD SWAP1 POP PUSH2 0x2CA3 DUP2 PUSH2 0x1EDB JUMP JUMPDEST SWAP3 SWAP2 POP POP JUMP JUMPDEST PUSH1 0x0 PUSH1 0x20 DUP3 DUP5 SUB SLT ISZERO PUSH2 0x2CBF JUMPI PUSH2 0x2CBE PUSH2 0x1EC7 JUMP JUMPDEST JUMPDEST PUSH1 0x0 PUSH2 0x2CCD DUP5 DUP3 DUP6 ADD PUSH2 0x2C94 JUMP JUMPDEST SWAP2 POP POP SWAP3 SWAP2 POP POP JUMP JUMPDEST PUSH1 0x0 PUSH1 0x40 DUP3 ADD SWAP1 POP PUSH2 0x2CEB PUSH1 0x0 DUP4 ADD DUP6 PUSH2 0x280A JUMP JUMPDEST PUSH2 0x2CF8 PUSH1 0x20 DUP4 ADD DUP5 PUSH2 0x2C32 JUMP JUMPDEST SWAP4 SWAP3 POP POP POP JUMP JUMPDEST PUSH32 0x72657175657374206E6F7420666F756E64000000000000000000000000000000 PUSH1 0x0 DUP3 ADD MSTORE POP JUMP JUMPDEST PUSH1 0x0 PUSH2 0x2D35 PUSH1 0x11 DUP4 PUSH2 0x2AB5 JUMP JUMPDEST SWAP2 POP PUSH2 0x2D40 DUP3 PUSH2 0x2CFF JUMP JUMPDEST PUSH1 0x20 DUP3 ADD SWAP1 POP SWAP2 SWAP1 POP JUMP JUMPDEST PUSH1 0x0 PUSH1 0x20 DUP3 ADD SWAP1 POP DUP2 DUP2 SUB PUSH1 0x0 DUP4 ADD MSTORE PUSH2 0x2D64 DUP2 PUSH2 0x2D28 JUMP JUMPDEST SWAP1 POP SWAP2 SWAP1 POP JUMP JUMPDEST PUSH32 0x4E487B7100000000000000000000000000000000000000000000000000000000 PUSH1 0x0 MSTORE PUSH1 0x32 PUSH1 0x4 MSTORE PUSH1 0x24 PUSH1 0x0 REVERT JUMPDEST PUSH32 0x4E487B7100000000000000000000000000000000000000000000000000000000 PUSH1 0x0 MSTORE PUSH1 0x11 PUSH1 0x4 MSTORE PUSH1 0x24 PUSH1 0x0 REVERT JUMPDEST PUSH1 0x0 PUSH2 0x2DD4 DUP3 PUSH2 0x1ED1 JUMP JUMPDEST SWAP2 POP PUSH2 0x2DDF DUP4 PUSH2 0x1ED1 JUMP JUMPDEST SWAP3 POP DUP3 DUP3 ADD SWAP1 POP DUP1 DUP3 GT ISZERO PUSH2 0x2DF7 JUMPI PUSH2 0x2DF6 PUSH2 0x2D9A JUMP JUMPDEST JUMPDEST SWAP3 SWAP2 POP POP JUMP JUMPDEST PUSH1 0x0 PUSH2 0x2E08 DUP3 PUSH2 0x1ED1 JUMP JUMPDEST SWAP2 POP PUSH2 0x2E13 DUP4 PUSH2 0x1ED1 JUMP JUMPDEST SWAP3 POP DUP3 DUP3 MUL PUSH2 0x2E21 DUP2 PUSH2 0x1ED1 JUMP JUMPDEST SWAP2 POP DUP3 DUP3 DIV DUP5 EQ DUP4 ISZERO OR PUSH2 0x2E38 JUMPI PUSH2 0x2E37 PUSH2 0x2D9A JUMP JUMPDEST JUMPDEST POP SWAP3 SWAP2 POP POP JUMP JUMPDEST PUSH32 0x4E487B7100000000000000000000000000000000000000000000000000000000 PUSH1 0x0 MSTORE PUSH1 0x12 PUSH1 0x4 MSTORE PUSH1 0x24 PUSH1 0x0 REVERT JUMPDEST PUSH1 0x0 PUSH2 0x2E79 DUP3 PUSH2 0x1ED1 JUMP JUMPDEST SWAP2 POP PUSH2 0x2E84 DUP4 PUSH2 0x1ED1 JUMP JUMPDEST SWAP3 POP DUP3 PUSH2 0x2E94 JUMPI PUSH2 0x2E93 PUSH2 0x2E3F JUMP JUMPDEST JUMPDEST DUP3 DUP3 DIV SWAP1 POP SWAP3 SWAP2 POP POP JUMP JUMPDEST PUSH1 0x0 PUSH2 0x2EAA DUP3 PUSH2 0x1ED1 JUMP JUMPDEST SWAP2 POP PUSH32 0xFFFFFFFFFFFFFFFFFFFFFFFFFFFFFFFFFFFFFFFFFFFFFFFFFFFFFFFFFFFFFFFF DUP3 SUB PUSH2 0x2EDC JUMPI PUSH2 0x2EDB PUSH2 0x2D9A JUMP JUMPDEST JUMPDEST PUSH1 0x1 DUP3 ADD SWAP1 POP SWAP2 SWAP1 POP JUMP JUMPDEST PUSH32 0x4E6F7420656E6F7567682066756E6420746F2077697468647261770000000000 PUSH1 0x0 DUP3 ADD MSTORE POP JUMP JUMPDEST PUSH1 0x0 PUSH2 0x2F1D PUSH1 0x1B DUP4 PUSH2 0x2AB5 JUMP JUMPDEST SWAP2 POP PUSH2 0x2F28 DUP3 PUSH2 0x2EE7 JUMP JUMPDEST PUSH1 0x20 DUP3 ADD SWAP1 POP SWAP2 SWAP1 POP JUMP JUMPDEST PUSH1 0x0 PUSH1 0x20 DUP3 ADD SWAP1 POP DUP2 DUP2 SUB PUSH1 0x0 DUP4 ADD MSTORE PUSH2 0x2F4C DUP2 PUSH2 0x2F10 JUMP JUMPDEST SWAP1 POP SWAP2 SWAP1 POP JUMP JUMPDEST PUSH1 0x0 DUP2 SWAP1 POP SWAP3 SWAP2 POP POP JUMP JUMPDEST POP JUMP JUMPDEST PUSH1 0x0 PUSH2 0x2F6E PUSH1 0x0 DUP4 PUSH2 0x2F53 JUMP JUMPDEST SWAP2 POP PUSH2 0x2F79 DUP3 PUSH2 0x2F5E JUMP JUMPDEST PUSH1 0x0 DUP3 ADD SWAP1 POP SWAP2 SWAP1 POP JUMP JUMPDEST PUSH1 0x0 PUSH2 0x2F8F DUP3 PUSH2 0x2F61 JUMP JUMPDEST SWAP2 POP DUP2 SWAP1 POP SWAP2 SWAP1 POP JUMP JUMPDEST PUSH32 0x4661696C656420746F2073656E64207468652072657761726400000000000000 PUSH1 0x0 DUP3 ADD MSTORE POP JUMP JUMPDEST PUSH1 0x0 PUSH2 0x2FCF PUSH1 0x19 DUP4 PUSH2 0x2AB5 JUMP JUMPDEST SWAP2 POP PUSH2 0x2FDA DUP3 PUSH2 0x2F99 JUMP JUMPDEST PUSH1 0x20 DUP3 ADD SWAP1 POP SWAP2 SWAP1 POP JUMP JUMPDEST PUSH1 0x0 PUSH1 0x20 DUP3 ADD SWAP1 POP DUP2 DUP2 SUB PUSH1 0x0 DUP4 ADD MSTORE PUSH2 0x2FFE DUP2 PUSH2 0x2FC2 JUMP JUMPDEST SWAP1 POP SWAP2 SWAP1 POP JUMP JUMPDEST PUSH1 0x0 DUP2 MLOAD SWAP1 POP SWAP2 SWAP1 POP JUMP JUMPDEST PUSH1 0x0 DUP3 DUP3 MSTORE PUSH1 0x20 DUP3 ADD SWAP1 POP SWAP3 SWAP2 POP POP JUMP JUMPDEST PUSH1 0x0 DUP2 SWAP1 POP PUSH1 0x20 DUP3 ADD SWAP1 POP SWAP2 SWAP1 POP JUMP JUMPDEST PUSH1 0x0 PUSH1 0x20 DUP3 ADD SWAP1 POP SWAP2 SWAP1 POP JUMP JUMPDEST PUSH1 0x0 PUSH2 0x3049 DUP3 PUSH2 0x3005 JUMP JUMPDEST PUSH2 0x3053 DUP2 DUP6 PUSH2 0x3010 JUMP JUMPDEST SWAP4 POP PUSH2 0x305E DUP4 PUSH2 0x3021 JUMP JUMPDEST DUP1 PUSH1 0x0 JUMPDEST DUP4 DUP2 LT ISZERO PUSH2 0x308F JUMPI DUP2 MLOAD PUSH2 0x3076 DUP9 DUP3 PUSH2 0x2501 JUMP JUMPDEST SWAP8 POP PUSH2 0x3081 DUP4 PUSH2 0x3031 JUMP JUMPDEST SWAP3 POP POP PUSH1 0x1 DUP2 ADD SWAP1 POP PUSH2 0x3062 JUMP JUMPDEST POP DUP6 SWAP4 POP POP POP POP SWAP3 SWAP2 POP POP JUMP JUMPDEST PUSH1 0x0 PUSH1 0x40 DUP3 ADD SWAP1 POP PUSH2 0x30B1 PUSH1 0x0 DUP4 ADD DUP6 PUSH2 0x280A JUMP JUMPDEST DUP2 DUP2 SUB PUSH1 0x20 DUP4 ADD MSTORE PUSH2 0x30C3 DUP2 DUP5 PUSH2 0x303E JUMP JUMPDEST SWAP1 POP SWAP4 SWAP3 POP POP POP JUMP JUMPDEST PUSH1 0x0 PUSH2 0x30D7 DUP3 PUSH2 0x1ED1 JUMP JUMPDEST SWAP2 POP PUSH2 0x30E2 DUP4 PUSH2 0x1ED1 JUMP JUMPDEST SWAP3 POP DUP3 DUP3 SUB SWAP1 POP DUP2 DUP2 GT ISZERO PUSH2 0x30FA JUMPI PUSH2 0x30F9 PUSH2 0x2D9A JUMP JUMPDEST JUMPDEST SWAP3 SWAP2 POP POP JUMP INVALID LOG2 PUSH5 0x6970667358 0x22 SLT KECCAK256 SAR 0x1F 0x4C SLT LT EXTCODECOPY PUSH28 0x78B59C03A7CD8DD3F23A6C281D8AB9FD52326B09F0E4D475A864736F PUSH13 0x63430008180033000000000000 "
        },
        "methodIdentifiers": {
          "checkUpkeep(bytes)": "6e04ff0d",
          "enterBingo((uint8,(uint32,uint16)[])[])": "2a8136e0",
          "get5PastResult()": "4cd64f29",
          "getBingoState()": "a4c6e86c",
          "getListOfPlayer()": "e2f412d4",
          "performUpkeep(bytes)": "4585e33b",
          "rawFulfillRandomWords(uint256,uint256[])": "1fe543e3",
          "requestIds(uint256)": "8796ba8c",
          "s_pastResults(uint256,uint256)": "dd09ea3c",
          "s_players(uint256)": "ae771f6b",
          "s_requests(uint256)": "a168fa89"
        }
      }
    }
  }
}