{
  "contracts/Bingo18.sol": {
    "Bingo18": {
      "abi": [
        {
          "inputs": [
            {
              "internalType": "address",
              "name": "vrfCoordinator",
              "type": "address"
            },
            {
              "internalType": "bytes32",
              "name": "keyHash",
              "type": "bytes32"
            },
            {
              "internalType": "uint256",
              "name": "subscriptionId",
              "type": "uint256"
            },
            {
              "internalType": "uint16",
              "name": "requestConfirmations",
              "type": "uint16"
            },
            {
              "internalType": "uint32",
              "name": "callbackGasLimit",
              "type": "uint32"
            }
          ],
          "stateMutability": "nonpayable",
          "type": "constructor"
        },
        {
          "inputs": [
            {
              "internalType": "address",
              "name": "have",
              "type": "address"
            },
            {
              "internalType": "address",
              "name": "want",
              "type": "address"
            }
          ],
          "name": "OnlyCoordinatorCanFulfill",
          "type": "error"
        },
        {
          "anonymous": false,
          "inputs": [
            {
              "indexed": false,
              "internalType": "uint256",
              "name": "requestId",
              "type": "uint256"
            },
            {
              "indexed": false,
              "internalType": "uint256[]",
              "name": "randomWords",
              "type": "uint256[]"
            }
          ],
          "name": "RequestFulfilled",
          "type": "event"
        },
        {
          "anonymous": false,
          "inputs": [
            {
              "indexed": false,
              "internalType": "uint256",
              "name": "requestId",
              "type": "uint256"
            },
            {
              "indexed": false,
              "internalType": "uint32",
              "name": "numWords",
              "type": "uint32"
            }
          ],
          "name": "RequestSent",
          "type": "event"
        },
        {
          "inputs": [
            {
              "components": [
                {
                  "internalType": "enum Bingo18.Option",
                  "name": "option",
                  "type": "uint8"
                },
                {
                  "components": [
                    {
                      "internalType": "uint32",
                      "name": "value",
                      "type": "uint32"
                    },
                    {
                      "internalType": "uint16",
                      "name": "amount",
                      "type": "uint16"
                    }
                  ],
                  "internalType": "struct Bingo18.Value[]",
                  "name": "values",
                  "type": "tuple[]"
                }
              ],
              "internalType": "struct Bingo18.Ticket[]",
              "name": "options",
              "type": "tuple[]"
            }
          ],
          "name": "enterBingo",
          "outputs": [],
          "stateMutability": "payable",
          "type": "function"
        },
        {
          "inputs": [
            {
              "internalType": "uint256",
              "name": "requestId",
              "type": "uint256"
            },
            {
              "internalType": "uint256[]",
              "name": "randomWords",
              "type": "uint256[]"
            }
          ],
          "name": "rawFulfillRandomWords",
          "outputs": [],
          "stateMutability": "nonpayable",
          "type": "function"
        },
        {
          "inputs": [
            {
              "internalType": "uint256",
              "name": "",
              "type": "uint256"
            }
          ],
          "name": "requestIds",
          "outputs": [
            {
              "internalType": "uint256",
              "name": "",
              "type": "uint256"
            }
          ],
          "stateMutability": "view",
          "type": "function"
        },
        {
          "inputs": [],
          "name": "requestRandomWords",
          "outputs": [
            {
              "internalType": "uint256",
              "name": "requestId",
              "type": "uint256"
            }
          ],
          "stateMutability": "nonpayable",
          "type": "function"
        },
        {
          "inputs": [],
          "name": "rewardPool",
          "outputs": [
            {
              "internalType": "uint256",
              "name": "",
              "type": "uint256"
            }
          ],
          "stateMutability": "view",
          "type": "function"
        },
        {
          "inputs": [
            {
              "internalType": "uint256",
              "name": "",
              "type": "uint256"
            }
          ],
          "name": "s_requests",
          "outputs": [
            {
              "internalType": "bool",
              "name": "fulfilled",
              "type": "bool"
            },
            {
              "internalType": "bool",
              "name": "exists",
              "type": "bool"
            }
          ],
          "stateMutability": "view",
          "type": "function"
        }
      ],
      "evm": {
        "bytecode": {
          "linkReferences": {},
          "object": "6101406040523480156200001257600080fd5b506040516200265638038062002656833981810160405281019062000038919062000243565b848073ffffffffffffffffffffffffffffffffffffffff1660808173ffffffffffffffffffffffffffffffffffffffff1681525050508473ffffffffffffffffffffffffffffffffffffffff1660a08173ffffffffffffffffffffffffffffffffffffffff16815250508360c081815250508260e081815250508161ffff166101008161ffff16815250508063ffffffff166101208163ffffffff16815250505050505050620002cb565b600080fd5b600073ffffffffffffffffffffffffffffffffffffffff82169050919050565b60006200011582620000e8565b9050919050565b620001278162000108565b81146200013357600080fd5b50565b60008151905062000147816200011c565b92915050565b6000819050919050565b62000162816200014d565b81146200016e57600080fd5b50565b600081519050620001828162000157565b92915050565b6000819050919050565b6200019d8162000188565b8114620001a957600080fd5b50565b600081519050620001bd8162000192565b92915050565b600061ffff82169050919050565b620001dc81620001c3565b8114620001e857600080fd5b50565b600081519050620001fc81620001d1565b92915050565b600063ffffffff82169050919050565b6200021d8162000202565b81146200022957600080fd5b50565b6000815190506200023d8162000212565b92915050565b600080600080600060a08688031215620002625762000261620000e3565b5b6000620002728882890162000136565b9550506020620002858882890162000171565b94505060406200029888828901620001ac565b9350506060620002ab88828901620001eb565b9250506080620002be888289016200022c565b9150509295509295909350565b60805160a05160c05160e05161010051610120516123346200032260003960006103f4015260006103d3015260006103b2015260006103910152600061035501526000818161017201526101c601526123346000f3fe6080604052600436106100555760003560e01c80631fe543e31461005a5780632a8136e01461008357806366666aa91461009f5780638796ba8c146100ca578063a168fa8914610107578063e0c8628914610145575b600080fd5b34801561006657600080fd5b50610081600480360381019061007c91906118ba565b610170565b005b61009d60048036038101906100989190611c1b565b610230565b005b3480156100ab57600080fd5b506100b46102e9565b6040516100c19190611c73565b60405180910390f35b3480156100d657600080fd5b506100f160048036038101906100ec9190611c8e565b6102ef565b6040516100fe9190611c73565b60405180910390f35b34801561011357600080fd5b5061012e60048036038101906101299190611c8e565b610313565b60405161013c929190611cd6565b60405180910390f35b34801561015157600080fd5b5061015a610351565b6040516101679190611c73565b60405180910390f35b7f000000000000000000000000000000000000000000000000000000000000000073ffffffffffffffffffffffffffffffffffffffff163373ffffffffffffffffffffffffffffffffffffffff161461022257337f00000000000000000000000000000000000000000000000000000000000000006040517f1cf993f4000000000000000000000000000000000000000000000000000000008152600401610219929190611d40565b60405180910390fd5b61022c82826105bd565b5050565b662386f26fc100003414610279576040517f08c379a000000000000000000000000000000000000000000000000000000000815260040161027090611dc6565b60405180910390fd5b61028333826113f5565b6003339080600181540180825580915050600190039060005260206000200160009091909190916101000a81548173ffffffffffffffffffffffffffffffffffffffff021916908373ffffffffffffffffffffffffffffffffffffffff16021790555050565b60015481565b600581815481106102ff57600080fd5b906000526020600020016000915090505481565b60046020528060005260406000206000915090508060000160009054906101000a900460ff16908060000160019054906101000a900460ff16905082565b60007f000000000000000000000000000000000000000000000000000000000000000073ffffffffffffffffffffffffffffffffffffffff1663d33d44c17f00000000000000000000000000000000000000000000000000000000000000007f00000000000000000000000000000000000000000000000000000000000000007f00000000000000000000000000000000000000000000000000000000000000007f000000000000000000000000000000000000000000000000000000000000000060036040518663ffffffff1660e01b8152600401610435959493929190611e1d565b6020604051808303816000875af1158015610454573d6000803e3d6000fd5b505050506040513d601f19601f820116820180604052508101906104789190611e85565b90506040518060600160405280600015158152602001600115158152602001600067ffffffffffffffff8111156104b2576104b1611777565b5b6040519080825280602002602001820160405280156104e05781602001602082028036833780820191505090505b508152506004600083815260200190815260200160002060008201518160000160006101000a81548160ff02191690831515021790555060208201518160000160016101000a81548160ff02191690831515021790555060408201518160010190805190602001906105539291906115ea565b5090505060058190806001815401808255809150506001900390600052602060002001600090919091909150557fcc58b13ad3eab50626c6a6300b1d139cd6ebb1688a7cced9461c2f7e762665ee8160036040516105b2929190611eb2565b60405180910390a190565b6004600083815260200190815260200160002060000160019054906101000a900460ff16610620576040517f08c379a000000000000000000000000000000000000000000000000000000000815260040161061790611f27565b60405180910390fd5b60005b60038054905081101561135d576000806003838154811061064757610646611f47565b5b9060005260206000200160009054906101000a900473ffffffffffffffffffffffffffffffffffffffff1690506000600260008373ffffffffffffffffffffffffffffffffffffffff1673ffffffffffffffffffffffffffffffffffffffff168152602001908152602001600020805480602002602001604051908101604052809291908181526020016000905b828210156107e357838290600052602060002090600202016040518060400160405290816000820160009054906101000a900460ff16600481111561071d5761071c611f76565b5b600481111561072f5761072e611f76565b5b815260200160018201805480602002602001604051908101604052809291908181526020016000905b828210156107cc578382906000526020600020016040518060400160405290816000820160009054906101000a900463ffffffff1663ffffffff1663ffffffff1681526020016000820160049054906101000a900461ffff1661ffff1661ffff168152505081526020019060010190610758565b5050505081525050815260200190600101906106d5565b50505050905060005b81518110156111f957600082828151811061080a57610809611f47565b5b602002602001015190506000816020015190506001600481111561083157610830611f76565b5b8260000151600481111561084857610847611f76565b5b036109fd5760008860028151811061086357610862611f47565b5b60200260200101518960018151811061087f5761087e611f47565b5b60200260200101518a60008151811061089b5761089a611f47565b5b60200260200101516108ad9190611fd4565b6108b79190611fd4565b905060005b82518110156109f65760008382815181106108da576108d9611f47565b5b60200260200101519050600383101580156108f6575060098311155b801561090c57506000816000015163ffffffff16145b8061093b5750600c8310158015610924575060128311155b801561093a57506002816000015163ffffffff16145b5b156109855760026003662386f26fc10000836020015161ffff1661095f9190612008565b6109699190612008565b6109739190612079565b8961097e9190611fd4565b98506109e8565b600a83101580156109975750600b8311155b80156109ad57506001816000015163ffffffff16145b156109e7576002662386f26fc10000826020015161ffff166109cf9190612008565b6109d99190612008565b896109e49190611fd4565b98505b5b5080806001019150506108bc565b50506111ea565b60006004811115610a1157610a10611f76565b5b82600001516004811115610a2857610a27611f76565b5b03610d7a57600088600281518110610a4357610a42611f47565b5b602002602001015189600181518110610a5f57610a5e611f47565b5b60200260200101518a600081518110610a7b57610a7a611f47565b5b6020026020010151610a8d9190611fd4565b610a979190611fd4565b905060005b8251811015610d73576000838281518110610aba57610ab9611f47565b5b6020026020010151905082816000015163ffffffff1603610d65576003831480610ae45750601283145b15610b22576078662386f26fc10000826020015161ffff16610b069190612008565b610b109190612008565b89610b1b9190611fd4565b9850610d64565b6004831480610b315750601183145b15610b6f576028662386f26fc10000826020015161ffff16610b539190612008565b610b5d9190612008565b89610b689190611fd4565b9850610d63565b6005831480610b7e5750601083145b15610bbc576014662386f26fc10000826020015161ffff16610ba09190612008565b610baa9190612008565b89610bb59190611fd4565b9850610d62565b6006831480610bcb5750600f83145b15610c0957600c662386f26fc10000826020015161ffff16610bed9190612008565b610bf79190612008565b89610c029190611fd4565b9850610d61565b6007831480610c185750600e83145b15610c56576008662386f26fc10000826020015161ffff16610c3a9190612008565b610c449190612008565b89610c4f9190611fd4565b9850610d60565b6008831480610c655750600d83145b15610caf576002600b662386f26fc10000836020015161ffff16610c899190612008565b610c939190612008565b610c9d9190612079565b89610ca89190611fd4565b9850610d5f565b6009831480610cbe5750600c83145b15610d0857600a602f662386f26fc10000836020015161ffff16610ce29190612008565b610cec9190612008565b610cf69190612079565b89610d019190611fd4565b9850610d5e565b600a831480610d175750600b83145b15610d5d5760056016662386f26fc10000836020015161ffff16610d3b9190612008565b610d459190612008565b610d4f9190612079565b89610d5a9190611fd4565b98505b5b5b5b5b5b5b5b5b508080600101915050610a9c565b50506111e9565b60026004811115610d8e57610d8d611f76565b5b82600001516004811115610da557610da4611f76565b5b03610f0c5760005b8151811015610f06576000828281518110610dcb57610dca611f47565b5b602002602001015190506000805b8b51811015610e29578b8181518110610df557610df4611f47565b5b6020026020010151836000015163ffffffff1603610e1c578180610e18906120aa565b9250505b8080600101915050610dd9565b5060018103610e7757600a600c662386f26fc10000846020015161ffff16610e519190612008565b610e5b9190612008565b610e659190612079565b89610e709190611fd4565b9850610ef7565b60028103610eb8576002662386f26fc10000836020015161ffff16610e9c9190612008565b610ea69190612008565b89610eb19190611fd4565b9850610ef6565b60038103610ef5576003662386f26fc10000836020015161ffff16610edd9190612008565b610ee79190612008565b89610ef29190611fd4565b98505b5b5b50508080600101915050610dad565b506111e8565b60036004811115610f2057610f1f611f76565b5b82600001516004811115610f3757610f36611f76565b5b0361101a5760005b8151811015611014576000828281518110610f5d57610f5c611f47565b5b602002602001015190506000805b8b51811015610fbb578b8181518110610f8757610f86611f47565b5b6020026020010151836000015163ffffffff1603610fae578180610faa906120aa565b9250505b8080600101915050610f6b565b506002811061100557600a604b662386f26fc10000846020015161ffff16610fe39190612008565b610fed9190612008565b610ff79190612079565b896110029190611fd4565b98505b50508080600101915050610f3f565b506111e7565b60048081111561102d5761102c611f76565b5b8260000151600481111561104457611043611f76565b5b036111e65760005b81518110156111e457600082828151811061106a57611069611f47565b5b602002602001015190506000805b8b518110156110c8578b818151811061109457611093611f47565b5b6020026020010151836000015163ffffffff16036110bb5781806110b7906120aa565b9250505b8080600101915050611078565b506003810361110a576078662386f26fc10000836020015161ffff166110ee9190612008565b6110f89190612008565b896111039190611fd4565b98506111d5565b8a60018151811061111e5761111d611f47565b5b60200260200101518b60008151811061113a57611139611f47565b5b602002602001015114801561118457508a60028151811061115e5761115d611f47565b5b60200260200101518b60018151811061117a57611179611f47565b5b6020026020010151145b801561119a57506007826000015163ffffffff16145b156111d4576014662386f26fc10000836020015161ffff166111bc9190612008565b6111c69190612008565b896111d19190611fd4565b98505b5b5050808060010191505061104c565b505b5b5b5b5b505080806001019150506107ec565b5060016004600088815260200190815260200160002060000160006101000a81548160ff021916908315150217905550846004600088815260200190815260200160002060010190805190602001906112539291906115ea565b50600083111561134d5782471161129f576040517f08c379a00000000000000000000000000000000000000000000000000000000081526004016112969061213e565b60405180910390fd5b60008273ffffffffffffffffffffffffffffffffffffffff16846040516112c59061218f565b60006040518083038185875af1925050503d8060008114611302576040519150601f19603f3d011682016040523d82523d6000602084013e611307565b606091505b505090508061134b576040517f08c379a0000000000000000000000000000000000000000000000000000000008152600401611342906121f0565b60405180910390fd5b505b5050508080600101915050610623565b5060016004600084815260200190815260200160002060000160006101000a81548160ff021916908315150217905550806004600084815260200190815260200160002060010190805190602001906113b79291906115ea565b507ffe2e2d779dba245964d4e3ef9b994be63856fd568bf7d3ca9e224755cb1bd54d82826040516113e99291906122ce565b60405180910390a15050565b6000600260008473ffffffffffffffffffffffffffffffffffffffff1673ffffffffffffffffffffffffffffffffffffffff1681526020019081526020016000209050600260008473ffffffffffffffffffffffffffffffffffffffff1673ffffffffffffffffffffffffffffffffffffffff16815260200190815260200160002060006114839190611637565b60005b82518110156115e45760008382815181106114a4576114a3611f47565b5b60200260200101519050600081602001519050600084600181600181540180825580915050039060005260206000209060020201600101905060005b825181101561158357818382815181106114fd576114fc611f47565b5b60200260200101519080600181540180825580915050600190039060005260206000200160009091909190915060008201518160000160006101000a81548163ffffffff021916908363ffffffff16021790555060208201518160000160046101000a81548161ffff021916908361ffff160217905550505080806001019150506114e0565b50826000015185858154811061159c5761159b611f47565b5b906000526020600020906002020160000160006101000a81548160ff021916908360048111156115cf576115ce611f76565b5b02179055505050508080600101915050611486565b50505050565b828054828255906000526020600020908101928215611626579160200282015b8281111561162557825182559160200191906001019061160a565b5b509050611633919061165b565b5090565b50805460008255600202906000526020600020908101906116589190611678565b50565b5b8082111561167457600081600090555060010161165c565b5090565b5b808211156116af57600080820160006101000a81549060ff02191690556001820160006116a691906116b3565b50600201611679565b5090565b50805460008255906000526020600020908101906116d191906116d4565b50565b5b8082111561171357600080820160006101000a81549063ffffffff02191690556000820160046101000a81549061ffff0219169055506001016116d5565b5090565b6000604051905090565b600080fd5b600080fd5b6000819050919050565b61173e8161172b565b811461174957600080fd5b50565b60008135905061175b81611735565b92915050565b600080fd5b6000601f19601f8301169050919050565b7f4e487b7100000000000000000000000000000000000000000000000000000000600052604160045260246000fd5b6117af82611766565b810181811067ffffffffffffffff821117156117ce576117cd611777565b5b80604052505050565b60006117e1611717565b90506117ed82826117a6565b919050565b600067ffffffffffffffff82111561180d5761180c611777565b5b602082029050602081019050919050565b600080fd5b6000611836611831846117f2565b6117d7565b905080838252602082019050602084028301858111156118595761185861181e565b5b835b81811015611882578061186e888261174c565b84526020840193505060208101905061185b565b5050509392505050565b600082601f8301126118a1576118a0611761565b5b81356118b1848260208601611823565b91505092915050565b600080604083850312156118d1576118d0611721565b5b60006118df8582860161174c565b925050602083013567ffffffffffffffff811115611900576118ff611726565b5b61190c8582860161188c565b9150509250929050565b600067ffffffffffffffff82111561193157611930611777565b5b602082029050602081019050919050565b600080fd5b600080fd5b6005811061195957600080fd5b50565b60008135905061196b8161194c565b92915050565b600067ffffffffffffffff82111561198c5761198b611777565b5b602082029050602081019050919050565b600063ffffffff82169050919050565b6119b68161199d565b81146119c157600080fd5b50565b6000813590506119d3816119ad565b92915050565b600061ffff82169050919050565b6119f0816119d9565b81146119fb57600080fd5b50565b600081359050611a0d816119e7565b92915050565b600060408284031215611a2957611a28611942565b5b611a3360406117d7565b90506000611a43848285016119c4565b6000830152506020611a57848285016119fe565b60208301525092915050565b6000611a76611a7184611971565b6117d7565b90508083825260208201905060408402830185811115611a9957611a9861181e565b5b835b81811015611ac25780611aae8882611a13565b845260208401935050604081019050611a9b565b5050509392505050565b600082601f830112611ae157611ae0611761565b5b8135611af1848260208601611a63565b91505092915050565b600060408284031215611b1057611b0f611942565b5b611b1a60406117d7565b90506000611b2a8482850161195c565b600083015250602082013567ffffffffffffffff811115611b4e57611b4d611947565b5b611b5a84828501611acc565b60208301525092915050565b6000611b79611b7484611916565b6117d7565b90508083825260208201905060208402830185811115611b9c57611b9b61181e565b5b835b81811015611be357803567ffffffffffffffff811115611bc157611bc0611761565b5b808601611bce8982611afa565b85526020850194505050602081019050611b9e565b5050509392505050565b600082601f830112611c0257611c01611761565b5b8135611c12848260208601611b66565b91505092915050565b600060208284031215611c3157611c30611721565b5b600082013567ffffffffffffffff811115611c4f57611c4e611726565b5b611c5b84828501611bed565b91505092915050565b611c6d8161172b565b82525050565b6000602082019050611c886000830184611c64565b92915050565b600060208284031215611ca457611ca3611721565b5b6000611cb28482850161174c565b91505092915050565b60008115159050919050565b611cd081611cbb565b82525050565b6000604082019050611ceb6000830185611cc7565b611cf86020830184611cc7565b9392505050565b600073ffffffffffffffffffffffffffffffffffffffff82169050919050565b6000611d2a82611cff565b9050919050565b611d3a81611d1f565b82525050565b6000604082019050611d556000830185611d31565b611d626020830184611d31565b9392505050565b600082825260208201905092915050565b7f4e6f7420656e6f7567682066656520746f206a6f696e00000000000000000000600082015250565b6000611db0601683611d69565b9150611dbb82611d7a565b602082019050919050565b60006020820190508181036000830152611ddf81611da3565b9050919050565b6000819050919050565b611df981611de6565b82525050565b611e08816119d9565b82525050565b611e178161199d565b82525050565b600060a082019050611e326000830188611df0565b611e3f6020830187611c64565b611e4c6040830186611dff565b611e596060830185611e0e565b611e666080830184611e0e565b9695505050505050565b600081519050611e7f81611735565b92915050565b600060208284031215611e9b57611e9a611721565b5b6000611ea984828501611e70565b91505092915050565b6000604082019050611ec76000830185611c64565b611ed46020830184611e0e565b9392505050565b7f72657175657374206e6f7420666f756e64000000000000000000000000000000600082015250565b6000611f11601183611d69565b9150611f1c82611edb565b602082019050919050565b60006020820190508181036000830152611f4081611f04565b9050919050565b7f4e487b7100000000000000000000000000000000000000000000000000000000600052603260045260246000fd5b7f4e487b7100000000000000000000000000000000000000000000000000000000600052602160045260246000fd5b7f4e487b7100000000000000000000000000000000000000000000000000000000600052601160045260246000fd5b6000611fdf8261172b565b9150611fea8361172b565b925082820190508082111561200257612001611fa5565b5b92915050565b60006120138261172b565b915061201e8361172b565b925082820261202c8161172b565b9150828204841483151761204357612042611fa5565b5b5092915050565b7f4e487b7100000000000000000000000000000000000000000000000000000000600052601260045260246000fd5b60006120848261172b565b915061208f8361172b565b92508261209f5761209e61204a565b5b828204905092915050565b60006120b58261172b565b91507fffffffffffffffffffffffffffffffffffffffffffffffffffffffffffffffff82036120e7576120e6611fa5565b5b600182019050919050565b7f4e6f7420656e6f7567682066756e6420746f2077697468647261770000000000600082015250565b6000612128601b83611d69565b9150612133826120f2565b602082019050919050565b600060208201905081810360008301526121578161211b565b9050919050565b600081905092915050565b50565b600061217960008361215e565b915061218482612169565b600082019050919050565b600061219a8261216c565b9150819050919050565b7f4661696c656420746f2073656e64207468652072657761726400000000000000600082015250565b60006121da601983611d69565b91506121e5826121a4565b602082019050919050565b60006020820190508181036000830152612209816121cd565b9050919050565b600081519050919050565b600082825260208201905092915050565b6000819050602082019050919050565b6122458161172b565b82525050565b6000612257838361223c565b60208301905092915050565b6000602082019050919050565b600061227b82612210565b612285818561221b565b93506122908361222c565b8060005b838110156122c15781516122a8888261224b565b97506122b383612263565b925050600181019050612294565b5085935050505092915050565b60006040820190506122e36000830185611c64565b81810360208301526122f58184612270565b9050939250505056fea264697066735822122095a1ed6ca41a188e27adf6f895d4f623eeeca66e1d38dbb275767262b288cfe364736f6c63430008180033",
          "opcodes": "PUSH2 0x140 PUSH1 0x40 MSTORE CALLVALUE DUP1 ISZERO PUSH3 0x12 JUMPI PUSH1 0x0 DUP1 REVERT JUMPDEST POP PUSH1 0x40 MLOAD PUSH3 0x2656 CODESIZE SUB DUP1 PUSH3 0x2656 DUP4 CODECOPY DUP2 DUP2 ADD PUSH1 0x40 MSTORE DUP2 ADD SWAP1 PUSH3 0x38 SWAP2 SWAP1 PUSH3 0x243 JUMP JUMPDEST DUP5 DUP1 PUSH20 0xFFFFFFFFFFFFFFFFFFFFFFFFFFFFFFFFFFFFFFFF AND PUSH1 0x80 DUP2 PUSH20 0xFFFFFFFFFFFFFFFFFFFFFFFFFFFFFFFFFFFFFFFF AND DUP2 MSTORE POP POP POP DUP5 PUSH20 0xFFFFFFFFFFFFFFFFFFFFFFFFFFFFFFFFFFFFFFFF AND PUSH1 0xA0 DUP2 PUSH20 0xFFFFFFFFFFFFFFFFFFFFFFFFFFFFFFFFFFFFFFFF AND DUP2 MSTORE POP POP DUP4 PUSH1 0xC0 DUP2 DUP2 MSTORE POP POP DUP3 PUSH1 0xE0 DUP2 DUP2 MSTORE POP POP DUP2 PUSH2 0xFFFF AND PUSH2 0x100 DUP2 PUSH2 0xFFFF AND DUP2 MSTORE POP POP DUP1 PUSH4 0xFFFFFFFF AND PUSH2 0x120 DUP2 PUSH4 0xFFFFFFFF AND DUP2 MSTORE POP POP POP POP POP POP POP PUSH3 0x2CB JUMP JUMPDEST PUSH1 0x0 DUP1 REVERT JUMPDEST PUSH1 0x0 PUSH20 0xFFFFFFFFFFFFFFFFFFFFFFFFFFFFFFFFFFFFFFFF DUP3 AND SWAP1 POP SWAP2 SWAP1 POP JUMP JUMPDEST PUSH1 0x0 PUSH3 0x115 DUP3 PUSH3 0xE8 JUMP JUMPDEST SWAP1 POP SWAP2 SWAP1 POP JUMP JUMPDEST PUSH3 0x127 DUP2 PUSH3 0x108 JUMP JUMPDEST DUP2 EQ PUSH3 0x133 JUMPI PUSH1 0x0 DUP1 REVERT JUMPDEST POP JUMP JUMPDEST PUSH1 0x0 DUP2 MLOAD SWAP1 POP PUSH3 0x147 DUP2 PUSH3 0x11C JUMP JUMPDEST SWAP3 SWAP2 POP POP JUMP JUMPDEST PUSH1 0x0 DUP2 SWAP1 POP SWAP2 SWAP1 POP JUMP JUMPDEST PUSH3 0x162 DUP2 PUSH3 0x14D JUMP JUMPDEST DUP2 EQ PUSH3 0x16E JUMPI PUSH1 0x0 DUP1 REVERT JUMPDEST POP JUMP JUMPDEST PUSH1 0x0 DUP2 MLOAD SWAP1 POP PUSH3 0x182 DUP2 PUSH3 0x157 JUMP JUMPDEST SWAP3 SWAP2 POP POP JUMP JUMPDEST PUSH1 0x0 DUP2 SWAP1 POP SWAP2 SWAP1 POP JUMP JUMPDEST PUSH3 0x19D DUP2 PUSH3 0x188 JUMP JUMPDEST DUP2 EQ PUSH3 0x1A9 JUMPI PUSH1 0x0 DUP1 REVERT JUMPDEST POP JUMP JUMPDEST PUSH1 0x0 DUP2 MLOAD SWAP1 POP PUSH3 0x1BD DUP2 PUSH3 0x192 JUMP JUMPDEST SWAP3 SWAP2 POP POP JUMP JUMPDEST PUSH1 0x0 PUSH2 0xFFFF DUP3 AND SWAP1 POP SWAP2 SWAP1 POP JUMP JUMPDEST PUSH3 0x1DC DUP2 PUSH3 0x1C3 JUMP JUMPDEST DUP2 EQ PUSH3 0x1E8 JUMPI PUSH1 0x0 DUP1 REVERT JUMPDEST POP JUMP JUMPDEST PUSH1 0x0 DUP2 MLOAD SWAP1 POP PUSH3 0x1FC DUP2 PUSH3 0x1D1 JUMP JUMPDEST SWAP3 SWAP2 POP POP JUMP JUMPDEST PUSH1 0x0 PUSH4 0xFFFFFFFF DUP3 AND SWAP1 POP SWAP2 SWAP1 POP JUMP JUMPDEST PUSH3 0x21D DUP2 PUSH3 0x202 JUMP JUMPDEST DUP2 EQ PUSH3 0x229 JUMPI PUSH1 0x0 DUP1 REVERT JUMPDEST POP JUMP JUMPDEST PUSH1 0x0 DUP2 MLOAD SWAP1 POP PUSH3 0x23D DUP2 PUSH3 0x212 JUMP JUMPDEST SWAP3 SWAP2 POP POP JUMP JUMPDEST PUSH1 0x0 DUP1 PUSH1 0x0 DUP1 PUSH1 0x0 PUSH1 0xA0 DUP7 DUP9 SUB SLT ISZERO PUSH3 0x262 JUMPI PUSH3 0x261 PUSH3 0xE3 JUMP JUMPDEST JUMPDEST PUSH1 0x0 PUSH3 0x272 DUP9 DUP3 DUP10 ADD PUSH3 0x136 JUMP JUMPDEST SWAP6 POP POP PUSH1 0x20 PUSH3 0x285 DUP9 DUP3 DUP10 ADD PUSH3 0x171 JUMP JUMPDEST SWAP5 POP POP PUSH1 0x40 PUSH3 0x298 DUP9 DUP3 DUP10 ADD PUSH3 0x1AC JUMP JUMPDEST SWAP4 POP POP PUSH1 0x60 PUSH3 0x2AB DUP9 DUP3 DUP10 ADD PUSH3 0x1EB JUMP JUMPDEST SWAP3 POP POP PUSH1 0x80 PUSH3 0x2BE DUP9 DUP3 DUP10 ADD PUSH3 0x22C JUMP JUMPDEST SWAP2 POP POP SWAP3 SWAP6 POP SWAP3 SWAP6 SWAP1 SWAP4 POP JUMP JUMPDEST PUSH1 0x80 MLOAD PUSH1 0xA0 MLOAD PUSH1 0xC0 MLOAD PUSH1 0xE0 MLOAD PUSH2 0x100 MLOAD PUSH2 0x120 MLOAD PUSH2 0x2334 PUSH3 0x322 PUSH1 0x0 CODECOPY PUSH1 0x0 PUSH2 0x3F4 ADD MSTORE PUSH1 0x0 PUSH2 0x3D3 ADD MSTORE PUSH1 0x0 PUSH2 0x3B2 ADD MSTORE PUSH1 0x0 PUSH2 0x391 ADD MSTORE PUSH1 0x0 PUSH2 0x355 ADD MSTORE PUSH1 0x0 DUP2 DUP2 PUSH2 0x172 ADD MSTORE PUSH2 0x1C6 ADD MSTORE PUSH2 0x2334 PUSH1 0x0 RETURN INVALID PUSH1 0x80 PUSH1 0x40 MSTORE PUSH1 0x4 CALLDATASIZE LT PUSH2 0x55 JUMPI PUSH1 0x0 CALLDATALOAD PUSH1 0xE0 SHR DUP1 PUSH4 0x1FE543E3 EQ PUSH2 0x5A JUMPI DUP1 PUSH4 0x2A8136E0 EQ PUSH2 0x83 JUMPI DUP1 PUSH4 0x66666AA9 EQ PUSH2 0x9F JUMPI DUP1 PUSH4 0x8796BA8C EQ PUSH2 0xCA JUMPI DUP1 PUSH4 0xA168FA89 EQ PUSH2 0x107 JUMPI DUP1 PUSH4 0xE0C86289 EQ PUSH2 0x145 JUMPI JUMPDEST PUSH1 0x0 DUP1 REVERT JUMPDEST CALLVALUE DUP1 ISZERO PUSH2 0x66 JUMPI PUSH1 0x0 DUP1 REVERT JUMPDEST POP PUSH2 0x81 PUSH1 0x4 DUP1 CALLDATASIZE SUB DUP2 ADD SWAP1 PUSH2 0x7C SWAP2 SWAP1 PUSH2 0x18BA JUMP JUMPDEST PUSH2 0x170 JUMP JUMPDEST STOP JUMPDEST PUSH2 0x9D PUSH1 0x4 DUP1 CALLDATASIZE SUB DUP2 ADD SWAP1 PUSH2 0x98 SWAP2 SWAP1 PUSH2 0x1C1B JUMP JUMPDEST PUSH2 0x230 JUMP JUMPDEST STOP JUMPDEST CALLVALUE DUP1 ISZERO PUSH2 0xAB JUMPI PUSH1 0x0 DUP1 REVERT JUMPDEST POP PUSH2 0xB4 PUSH2 0x2E9 JUMP JUMPDEST PUSH1 0x40 MLOAD PUSH2 0xC1 SWAP2 SWAP1 PUSH2 0x1C73 JUMP JUMPDEST PUSH1 0x40 MLOAD DUP1 SWAP2 SUB SWAP1 RETURN JUMPDEST CALLVALUE DUP1 ISZERO PUSH2 0xD6 JUMPI PUSH1 0x0 DUP1 REVERT JUMPDEST POP PUSH2 0xF1 PUSH1 0x4 DUP1 CALLDATASIZE SUB DUP2 ADD SWAP1 PUSH2 0xEC SWAP2 SWAP1 PUSH2 0x1C8E JUMP JUMPDEST PUSH2 0x2EF JUMP JUMPDEST PUSH1 0x40 MLOAD PUSH2 0xFE SWAP2 SWAP1 PUSH2 0x1C73 JUMP JUMPDEST PUSH1 0x40 MLOAD DUP1 SWAP2 SUB SWAP1 RETURN JUMPDEST CALLVALUE DUP1 ISZERO PUSH2 0x113 JUMPI PUSH1 0x0 DUP1 REVERT JUMPDEST POP PUSH2 0x12E PUSH1 0x4 DUP1 CALLDATASIZE SUB DUP2 ADD SWAP1 PUSH2 0x129 SWAP2 SWAP1 PUSH2 0x1C8E JUMP JUMPDEST PUSH2 0x313 JUMP JUMPDEST PUSH1 0x40 MLOAD PUSH2 0x13C SWAP3 SWAP2 SWAP1 PUSH2 0x1CD6 JUMP JUMPDEST PUSH1 0x40 MLOAD DUP1 SWAP2 SUB SWAP1 RETURN JUMPDEST CALLVALUE DUP1 ISZERO PUSH2 0x151 JUMPI PUSH1 0x0 DUP1 REVERT JUMPDEST POP PUSH2 0x15A PUSH2 0x351 JUMP JUMPDEST PUSH1 0x40 MLOAD PUSH2 0x167 SWAP2 SWAP1 PUSH2 0x1C73 JUMP JUMPDEST PUSH1 0x40 MLOAD DUP1 SWAP2 SUB SWAP1 RETURN JUMPDEST PUSH32 0x0 PUSH20 0xFFFFFFFFFFFFFFFFFFFFFFFFFFFFFFFFFFFFFFFF AND CALLER PUSH20 0xFFFFFFFFFFFFFFFFFFFFFFFFFFFFFFFFFFFFFFFF AND EQ PUSH2 0x222 JUMPI CALLER PUSH32 0x0 PUSH1 0x40 MLOAD PUSH32 0x1CF993F400000000000000000000000000000000000000000000000000000000 DUP2 MSTORE PUSH1 0x4 ADD PUSH2 0x219 SWAP3 SWAP2 SWAP1 PUSH2 0x1D40 JUMP JUMPDEST PUSH1 0x40 MLOAD DUP1 SWAP2 SUB SWAP1 REVERT JUMPDEST PUSH2 0x22C DUP3 DUP3 PUSH2 0x5BD JUMP JUMPDEST POP POP JUMP JUMPDEST PUSH7 0x2386F26FC10000 CALLVALUE EQ PUSH2 0x279 JUMPI PUSH1 0x40 MLOAD PUSH32 0x8C379A000000000000000000000000000000000000000000000000000000000 DUP2 MSTORE PUSH1 0x4 ADD PUSH2 0x270 SWAP1 PUSH2 0x1DC6 JUMP JUMPDEST PUSH1 0x40 MLOAD DUP1 SWAP2 SUB SWAP1 REVERT JUMPDEST PUSH2 0x283 CALLER DUP3 PUSH2 0x13F5 JUMP JUMPDEST PUSH1 0x3 CALLER SWAP1 DUP1 PUSH1 0x1 DUP2 SLOAD ADD DUP1 DUP3 SSTORE DUP1 SWAP2 POP POP PUSH1 0x1 SWAP1 SUB SWAP1 PUSH1 0x0 MSTORE PUSH1 0x20 PUSH1 0x0 KECCAK256 ADD PUSH1 0x0 SWAP1 SWAP2 SWAP1 SWAP2 SWAP1 SWAP2 PUSH2 0x100 EXP DUP2 SLOAD DUP2 PUSH20 0xFFFFFFFFFFFFFFFFFFFFFFFFFFFFFFFFFFFFFFFF MUL NOT AND SWAP1 DUP4 PUSH20 0xFFFFFFFFFFFFFFFFFFFFFFFFFFFFFFFFFFFFFFFF AND MUL OR SWAP1 SSTORE POP POP JUMP JUMPDEST PUSH1 0x1 SLOAD DUP2 JUMP JUMPDEST PUSH1 0x5 DUP2 DUP2 SLOAD DUP2 LT PUSH2 0x2FF JUMPI PUSH1 0x0 DUP1 REVERT JUMPDEST SWAP1 PUSH1 0x0 MSTORE PUSH1 0x20 PUSH1 0x0 KECCAK256 ADD PUSH1 0x0 SWAP2 POP SWAP1 POP SLOAD DUP2 JUMP JUMPDEST PUSH1 0x4 PUSH1 0x20 MSTORE DUP1 PUSH1 0x0 MSTORE PUSH1 0x40 PUSH1 0x0 KECCAK256 PUSH1 0x0 SWAP2 POP SWAP1 POP DUP1 PUSH1 0x0 ADD PUSH1 0x0 SWAP1 SLOAD SWAP1 PUSH2 0x100 EXP SWAP1 DIV PUSH1 0xFF AND SWAP1 DUP1 PUSH1 0x0 ADD PUSH1 0x1 SWAP1 SLOAD SWAP1 PUSH2 0x100 EXP SWAP1 DIV PUSH1 0xFF AND SWAP1 POP DUP3 JUMP JUMPDEST PUSH1 0x0 PUSH32 0x0 PUSH20 0xFFFFFFFFFFFFFFFFFFFFFFFFFFFFFFFFFFFFFFFF AND PUSH4 0xD33D44C1 PUSH32 0x0 PUSH32 0x0 PUSH32 0x0 PUSH32 0x0 PUSH1 0x3 PUSH1 0x40 MLOAD DUP7 PUSH4 0xFFFFFFFF AND PUSH1 0xE0 SHL DUP2 MSTORE PUSH1 0x4 ADD PUSH2 0x435 SWAP6 SWAP5 SWAP4 SWAP3 SWAP2 SWAP1 PUSH2 0x1E1D JUMP JUMPDEST PUSH1 0x20 PUSH1 0x40 MLOAD DUP1 DUP4 SUB DUP2 PUSH1 0x0 DUP8 GAS CALL ISZERO DUP1 ISZERO PUSH2 0x454 JUMPI RETURNDATASIZE PUSH1 0x0 DUP1 RETURNDATACOPY RETURNDATASIZE PUSH1 0x0 REVERT JUMPDEST POP POP POP POP PUSH1 0x40 MLOAD RETURNDATASIZE PUSH1 0x1F NOT PUSH1 0x1F DUP3 ADD AND DUP3 ADD DUP1 PUSH1 0x40 MSTORE POP DUP2 ADD SWAP1 PUSH2 0x478 SWAP2 SWAP1 PUSH2 0x1E85 JUMP JUMPDEST SWAP1 POP PUSH1 0x40 MLOAD DUP1 PUSH1 0x60 ADD PUSH1 0x40 MSTORE DUP1 PUSH1 0x0 ISZERO ISZERO DUP2 MSTORE PUSH1 0x20 ADD PUSH1 0x1 ISZERO ISZERO DUP2 MSTORE PUSH1 0x20 ADD PUSH1 0x0 PUSH8 0xFFFFFFFFFFFFFFFF DUP2 GT ISZERO PUSH2 0x4B2 JUMPI PUSH2 0x4B1 PUSH2 0x1777 JUMP JUMPDEST JUMPDEST PUSH1 0x40 MLOAD SWAP1 DUP1 DUP3 MSTORE DUP1 PUSH1 0x20 MUL PUSH1 0x20 ADD DUP3 ADD PUSH1 0x40 MSTORE DUP1 ISZERO PUSH2 0x4E0 JUMPI DUP2 PUSH1 0x20 ADD PUSH1 0x20 DUP3 MUL DUP1 CALLDATASIZE DUP4 CALLDATACOPY DUP1 DUP3 ADD SWAP2 POP POP SWAP1 POP JUMPDEST POP DUP2 MSTORE POP PUSH1 0x4 PUSH1 0x0 DUP4 DUP2 MSTORE PUSH1 0x20 ADD SWAP1 DUP2 MSTORE PUSH1 0x20 ADD PUSH1 0x0 KECCAK256 PUSH1 0x0 DUP3 ADD MLOAD DUP2 PUSH1 0x0 ADD PUSH1 0x0 PUSH2 0x100 EXP DUP2 SLOAD DUP2 PUSH1 0xFF MUL NOT AND SWAP1 DUP4 ISZERO ISZERO MUL OR SWAP1 SSTORE POP PUSH1 0x20 DUP3 ADD MLOAD DUP2 PUSH1 0x0 ADD PUSH1 0x1 PUSH2 0x100 EXP DUP2 SLOAD DUP2 PUSH1 0xFF MUL NOT AND SWAP1 DUP4 ISZERO ISZERO MUL OR SWAP1 SSTORE POP PUSH1 0x40 DUP3 ADD MLOAD DUP2 PUSH1 0x1 ADD SWAP1 DUP1 MLOAD SWAP1 PUSH1 0x20 ADD SWAP1 PUSH2 0x553 SWAP3 SWAP2 SWAP1 PUSH2 0x15EA JUMP JUMPDEST POP SWAP1 POP POP PUSH1 0x5 DUP2 SWAP1 DUP1 PUSH1 0x1 DUP2 SLOAD ADD DUP1 DUP3 SSTORE DUP1 SWAP2 POP POP PUSH1 0x1 SWAP1 SUB SWAP1 PUSH1 0x0 MSTORE PUSH1 0x20 PUSH1 0x0 KECCAK256 ADD PUSH1 0x0 SWAP1 SWAP2 SWAP1 SWAP2 SWAP1 SWAP2 POP SSTORE PUSH32 0xCC58B13AD3EAB50626C6A6300B1D139CD6EBB1688A7CCED9461C2F7E762665EE DUP2 PUSH1 0x3 PUSH1 0x40 MLOAD PUSH2 0x5B2 SWAP3 SWAP2 SWAP1 PUSH2 0x1EB2 JUMP JUMPDEST PUSH1 0x40 MLOAD DUP1 SWAP2 SUB SWAP1 LOG1 SWAP1 JUMP JUMPDEST PUSH1 0x4 PUSH1 0x0 DUP4 DUP2 MSTORE PUSH1 0x20 ADD SWAP1 DUP2 MSTORE PUSH1 0x20 ADD PUSH1 0x0 KECCAK256 PUSH1 0x0 ADD PUSH1 0x1 SWAP1 SLOAD SWAP1 PUSH2 0x100 EXP SWAP1 DIV PUSH1 0xFF AND PUSH2 0x620 JUMPI PUSH1 0x40 MLOAD PUSH32 0x8C379A000000000000000000000000000000000000000000000000000000000 DUP2 MSTORE PUSH1 0x4 ADD PUSH2 0x617 SWAP1 PUSH2 0x1F27 JUMP JUMPDEST PUSH1 0x40 MLOAD DUP1 SWAP2 SUB SWAP1 REVERT JUMPDEST PUSH1 0x0 JUMPDEST PUSH1 0x3 DUP1 SLOAD SWAP1 POP DUP2 LT ISZERO PUSH2 0x135D JUMPI PUSH1 0x0 DUP1 PUSH1 0x3 DUP4 DUP2 SLOAD DUP2 LT PUSH2 0x647 JUMPI PUSH2 0x646 PUSH2 0x1F47 JUMP JUMPDEST JUMPDEST SWAP1 PUSH1 0x0 MSTORE PUSH1 0x20 PUSH1 0x0 KECCAK256 ADD PUSH1 0x0 SWAP1 SLOAD SWAP1 PUSH2 0x100 EXP SWAP1 DIV PUSH20 0xFFFFFFFFFFFFFFFFFFFFFFFFFFFFFFFFFFFFFFFF AND SWAP1 POP PUSH1 0x0 PUSH1 0x2 PUSH1 0x0 DUP4 PUSH20 0xFFFFFFFFFFFFFFFFFFFFFFFFFFFFFFFFFFFFFFFF AND PUSH20 0xFFFFFFFFFFFFFFFFFFFFFFFFFFFFFFFFFFFFFFFF AND DUP2 MSTORE PUSH1 0x20 ADD SWAP1 DUP2 MSTORE PUSH1 0x20 ADD PUSH1 0x0 KECCAK256 DUP1 SLOAD DUP1 PUSH1 0x20 MUL PUSH1 0x20 ADD PUSH1 0x40 MLOAD SWAP1 DUP2 ADD PUSH1 0x40 MSTORE DUP1 SWAP3 SWAP2 SWAP1 DUP2 DUP2 MSTORE PUSH1 0x20 ADD PUSH1 0x0 SWAP1 JUMPDEST DUP3 DUP3 LT ISZERO PUSH2 0x7E3 JUMPI DUP4 DUP3 SWAP1 PUSH1 0x0 MSTORE PUSH1 0x20 PUSH1 0x0 KECCAK256 SWAP1 PUSH1 0x2 MUL ADD PUSH1 0x40 MLOAD DUP1 PUSH1 0x40 ADD PUSH1 0x40 MSTORE SWAP1 DUP2 PUSH1 0x0 DUP3 ADD PUSH1 0x0 SWAP1 SLOAD SWAP1 PUSH2 0x100 EXP SWAP1 DIV PUSH1 0xFF AND PUSH1 0x4 DUP2 GT ISZERO PUSH2 0x71D JUMPI PUSH2 0x71C PUSH2 0x1F76 JUMP JUMPDEST JUMPDEST PUSH1 0x4 DUP2 GT ISZERO PUSH2 0x72F JUMPI PUSH2 0x72E PUSH2 0x1F76 JUMP JUMPDEST JUMPDEST DUP2 MSTORE PUSH1 0x20 ADD PUSH1 0x1 DUP3 ADD DUP1 SLOAD DUP1 PUSH1 0x20 MUL PUSH1 0x20 ADD PUSH1 0x40 MLOAD SWAP1 DUP2 ADD PUSH1 0x40 MSTORE DUP1 SWAP3 SWAP2 SWAP1 DUP2 DUP2 MSTORE PUSH1 0x20 ADD PUSH1 0x0 SWAP1 JUMPDEST DUP3 DUP3 LT ISZERO PUSH2 0x7CC JUMPI DUP4 DUP3 SWAP1 PUSH1 0x0 MSTORE PUSH1 0x20 PUSH1 0x0 KECCAK256 ADD PUSH1 0x40 MLOAD DUP1 PUSH1 0x40 ADD PUSH1 0x40 MSTORE SWAP1 DUP2 PUSH1 0x0 DUP3 ADD PUSH1 0x0 SWAP1 SLOAD SWAP1 PUSH2 0x100 EXP SWAP1 DIV PUSH4 0xFFFFFFFF AND PUSH4 0xFFFFFFFF AND PUSH4 0xFFFFFFFF AND DUP2 MSTORE PUSH1 0x20 ADD PUSH1 0x0 DUP3 ADD PUSH1 0x4 SWAP1 SLOAD SWAP1 PUSH2 0x100 EXP SWAP1 DIV PUSH2 0xFFFF AND PUSH2 0xFFFF AND PUSH2 0xFFFF AND DUP2 MSTORE POP POP DUP2 MSTORE PUSH1 0x20 ADD SWAP1 PUSH1 0x1 ADD SWAP1 PUSH2 0x758 JUMP JUMPDEST POP POP POP POP DUP2 MSTORE POP POP DUP2 MSTORE PUSH1 0x20 ADD SWAP1 PUSH1 0x1 ADD SWAP1 PUSH2 0x6D5 JUMP JUMPDEST POP POP POP POP SWAP1 POP PUSH1 0x0 JUMPDEST DUP2 MLOAD DUP2 LT ISZERO PUSH2 0x11F9 JUMPI PUSH1 0x0 DUP3 DUP3 DUP2 MLOAD DUP2 LT PUSH2 0x80A JUMPI PUSH2 0x809 PUSH2 0x1F47 JUMP JUMPDEST JUMPDEST PUSH1 0x20 MUL PUSH1 0x20 ADD ADD MLOAD SWAP1 POP PUSH1 0x0 DUP2 PUSH1 0x20 ADD MLOAD SWAP1 POP PUSH1 0x1 PUSH1 0x4 DUP2 GT ISZERO PUSH2 0x831 JUMPI PUSH2 0x830 PUSH2 0x1F76 JUMP JUMPDEST JUMPDEST DUP3 PUSH1 0x0 ADD MLOAD PUSH1 0x4 DUP2 GT ISZERO PUSH2 0x848 JUMPI PUSH2 0x847 PUSH2 0x1F76 JUMP JUMPDEST JUMPDEST SUB PUSH2 0x9FD JUMPI PUSH1 0x0 DUP9 PUSH1 0x2 DUP2 MLOAD DUP2 LT PUSH2 0x863 JUMPI PUSH2 0x862 PUSH2 0x1F47 JUMP JUMPDEST JUMPDEST PUSH1 0x20 MUL PUSH1 0x20 ADD ADD MLOAD DUP10 PUSH1 0x1 DUP2 MLOAD DUP2 LT PUSH2 0x87F JUMPI PUSH2 0x87E PUSH2 0x1F47 JUMP JUMPDEST JUMPDEST PUSH1 0x20 MUL PUSH1 0x20 ADD ADD MLOAD DUP11 PUSH1 0x0 DUP2 MLOAD DUP2 LT PUSH2 0x89B JUMPI PUSH2 0x89A PUSH2 0x1F47 JUMP JUMPDEST JUMPDEST PUSH1 0x20 MUL PUSH1 0x20 ADD ADD MLOAD PUSH2 0x8AD SWAP2 SWAP1 PUSH2 0x1FD4 JUMP JUMPDEST PUSH2 0x8B7 SWAP2 SWAP1 PUSH2 0x1FD4 JUMP JUMPDEST SWAP1 POP PUSH1 0x0 JUMPDEST DUP3 MLOAD DUP2 LT ISZERO PUSH2 0x9F6 JUMPI PUSH1 0x0 DUP4 DUP3 DUP2 MLOAD DUP2 LT PUSH2 0x8DA JUMPI PUSH2 0x8D9 PUSH2 0x1F47 JUMP JUMPDEST JUMPDEST PUSH1 0x20 MUL PUSH1 0x20 ADD ADD MLOAD SWAP1 POP PUSH1 0x3 DUP4 LT ISZERO DUP1 ISZERO PUSH2 0x8F6 JUMPI POP PUSH1 0x9 DUP4 GT ISZERO JUMPDEST DUP1 ISZERO PUSH2 0x90C JUMPI POP PUSH1 0x0 DUP2 PUSH1 0x0 ADD MLOAD PUSH4 0xFFFFFFFF AND EQ JUMPDEST DUP1 PUSH2 0x93B JUMPI POP PUSH1 0xC DUP4 LT ISZERO DUP1 ISZERO PUSH2 0x924 JUMPI POP PUSH1 0x12 DUP4 GT ISZERO JUMPDEST DUP1 ISZERO PUSH2 0x93A JUMPI POP PUSH1 0x2 DUP2 PUSH1 0x0 ADD MLOAD PUSH4 0xFFFFFFFF AND EQ JUMPDEST JUMPDEST ISZERO PUSH2 0x985 JUMPI PUSH1 0x2 PUSH1 0x3 PUSH7 0x2386F26FC10000 DUP4 PUSH1 0x20 ADD MLOAD PUSH2 0xFFFF AND PUSH2 0x95F SWAP2 SWAP1 PUSH2 0x2008 JUMP JUMPDEST PUSH2 0x969 SWAP2 SWAP1 PUSH2 0x2008 JUMP JUMPDEST PUSH2 0x973 SWAP2 SWAP1 PUSH2 0x2079 JUMP JUMPDEST DUP10 PUSH2 0x97E SWAP2 SWAP1 PUSH2 0x1FD4 JUMP JUMPDEST SWAP9 POP PUSH2 0x9E8 JUMP JUMPDEST PUSH1 0xA DUP4 LT ISZERO DUP1 ISZERO PUSH2 0x997 JUMPI POP PUSH1 0xB DUP4 GT ISZERO JUMPDEST DUP1 ISZERO PUSH2 0x9AD JUMPI POP PUSH1 0x1 DUP2 PUSH1 0x0 ADD MLOAD PUSH4 0xFFFFFFFF AND EQ JUMPDEST ISZERO PUSH2 0x9E7 JUMPI PUSH1 0x2 PUSH7 0x2386F26FC10000 DUP3 PUSH1 0x20 ADD MLOAD PUSH2 0xFFFF AND PUSH2 0x9CF SWAP2 SWAP1 PUSH2 0x2008 JUMP JUMPDEST PUSH2 0x9D9 SWAP2 SWAP1 PUSH2 0x2008 JUMP JUMPDEST DUP10 PUSH2 0x9E4 SWAP2 SWAP1 PUSH2 0x1FD4 JUMP JUMPDEST SWAP9 POP JUMPDEST JUMPDEST POP DUP1 DUP1 PUSH1 0x1 ADD SWAP2 POP POP PUSH2 0x8BC JUMP JUMPDEST POP POP PUSH2 0x11EA JUMP JUMPDEST PUSH1 0x0 PUSH1 0x4 DUP2 GT ISZERO PUSH2 0xA11 JUMPI PUSH2 0xA10 PUSH2 0x1F76 JUMP JUMPDEST JUMPDEST DUP3 PUSH1 0x0 ADD MLOAD PUSH1 0x4 DUP2 GT ISZERO PUSH2 0xA28 JUMPI PUSH2 0xA27 PUSH2 0x1F76 JUMP JUMPDEST JUMPDEST SUB PUSH2 0xD7A JUMPI PUSH1 0x0 DUP9 PUSH1 0x2 DUP2 MLOAD DUP2 LT PUSH2 0xA43 JUMPI PUSH2 0xA42 PUSH2 0x1F47 JUMP JUMPDEST JUMPDEST PUSH1 0x20 MUL PUSH1 0x20 ADD ADD MLOAD DUP10 PUSH1 0x1 DUP2 MLOAD DUP2 LT PUSH2 0xA5F JUMPI PUSH2 0xA5E PUSH2 0x1F47 JUMP JUMPDEST JUMPDEST PUSH1 0x20 MUL PUSH1 0x20 ADD ADD MLOAD DUP11 PUSH1 0x0 DUP2 MLOAD DUP2 LT PUSH2 0xA7B JUMPI PUSH2 0xA7A PUSH2 0x1F47 JUMP JUMPDEST JUMPDEST PUSH1 0x20 MUL PUSH1 0x20 ADD ADD MLOAD PUSH2 0xA8D SWAP2 SWAP1 PUSH2 0x1FD4 JUMP JUMPDEST PUSH2 0xA97 SWAP2 SWAP1 PUSH2 0x1FD4 JUMP JUMPDEST SWAP1 POP PUSH1 0x0 JUMPDEST DUP3 MLOAD DUP2 LT ISZERO PUSH2 0xD73 JUMPI PUSH1 0x0 DUP4 DUP3 DUP2 MLOAD DUP2 LT PUSH2 0xABA JUMPI PUSH2 0xAB9 PUSH2 0x1F47 JUMP JUMPDEST JUMPDEST PUSH1 0x20 MUL PUSH1 0x20 ADD ADD MLOAD SWAP1 POP DUP3 DUP2 PUSH1 0x0 ADD MLOAD PUSH4 0xFFFFFFFF AND SUB PUSH2 0xD65 JUMPI PUSH1 0x3 DUP4 EQ DUP1 PUSH2 0xAE4 JUMPI POP PUSH1 0x12 DUP4 EQ JUMPDEST ISZERO PUSH2 0xB22 JUMPI PUSH1 0x78 PUSH7 0x2386F26FC10000 DUP3 PUSH1 0x20 ADD MLOAD PUSH2 0xFFFF AND PUSH2 0xB06 SWAP2 SWAP1 PUSH2 0x2008 JUMP JUMPDEST PUSH2 0xB10 SWAP2 SWAP1 PUSH2 0x2008 JUMP JUMPDEST DUP10 PUSH2 0xB1B SWAP2 SWAP1 PUSH2 0x1FD4 JUMP JUMPDEST SWAP9 POP PUSH2 0xD64 JUMP JUMPDEST PUSH1 0x4 DUP4 EQ DUP1 PUSH2 0xB31 JUMPI POP PUSH1 0x11 DUP4 EQ JUMPDEST ISZERO PUSH2 0xB6F JUMPI PUSH1 0x28 PUSH7 0x2386F26FC10000 DUP3 PUSH1 0x20 ADD MLOAD PUSH2 0xFFFF AND PUSH2 0xB53 SWAP2 SWAP1 PUSH2 0x2008 JUMP JUMPDEST PUSH2 0xB5D SWAP2 SWAP1 PUSH2 0x2008 JUMP JUMPDEST DUP10 PUSH2 0xB68 SWAP2 SWAP1 PUSH2 0x1FD4 JUMP JUMPDEST SWAP9 POP PUSH2 0xD63 JUMP JUMPDEST PUSH1 0x5 DUP4 EQ DUP1 PUSH2 0xB7E JUMPI POP PUSH1 0x10 DUP4 EQ JUMPDEST ISZERO PUSH2 0xBBC JUMPI PUSH1 0x14 PUSH7 0x2386F26FC10000 DUP3 PUSH1 0x20 ADD MLOAD PUSH2 0xFFFF AND PUSH2 0xBA0 SWAP2 SWAP1 PUSH2 0x2008 JUMP JUMPDEST PUSH2 0xBAA SWAP2 SWAP1 PUSH2 0x2008 JUMP JUMPDEST DUP10 PUSH2 0xBB5 SWAP2 SWAP1 PUSH2 0x1FD4 JUMP JUMPDEST SWAP9 POP PUSH2 0xD62 JUMP JUMPDEST PUSH1 0x6 DUP4 EQ DUP1 PUSH2 0xBCB JUMPI POP PUSH1 0xF DUP4 EQ JUMPDEST ISZERO PUSH2 0xC09 JUMPI PUSH1 0xC PUSH7 0x2386F26FC10000 DUP3 PUSH1 0x20 ADD MLOAD PUSH2 0xFFFF AND PUSH2 0xBED SWAP2 SWAP1 PUSH2 0x2008 JUMP JUMPDEST PUSH2 0xBF7 SWAP2 SWAP1 PUSH2 0x2008 JUMP JUMPDEST DUP10 PUSH2 0xC02 SWAP2 SWAP1 PUSH2 0x1FD4 JUMP JUMPDEST SWAP9 POP PUSH2 0xD61 JUMP JUMPDEST PUSH1 0x7 DUP4 EQ DUP1 PUSH2 0xC18 JUMPI POP PUSH1 0xE DUP4 EQ JUMPDEST ISZERO PUSH2 0xC56 JUMPI PUSH1 0x8 PUSH7 0x2386F26FC10000 DUP3 PUSH1 0x20 ADD MLOAD PUSH2 0xFFFF AND PUSH2 0xC3A SWAP2 SWAP1 PUSH2 0x2008 JUMP JUMPDEST PUSH2 0xC44 SWAP2 SWAP1 PUSH2 0x2008 JUMP JUMPDEST DUP10 PUSH2 0xC4F SWAP2 SWAP1 PUSH2 0x1FD4 JUMP JUMPDEST SWAP9 POP PUSH2 0xD60 JUMP JUMPDEST PUSH1 0x8 DUP4 EQ DUP1 PUSH2 0xC65 JUMPI POP PUSH1 0xD DUP4 EQ JUMPDEST ISZERO PUSH2 0xCAF JUMPI PUSH1 0x2 PUSH1 0xB PUSH7 0x2386F26FC10000 DUP4 PUSH1 0x20 ADD MLOAD PUSH2 0xFFFF AND PUSH2 0xC89 SWAP2 SWAP1 PUSH2 0x2008 JUMP JUMPDEST PUSH2 0xC93 SWAP2 SWAP1 PUSH2 0x2008 JUMP JUMPDEST PUSH2 0xC9D SWAP2 SWAP1 PUSH2 0x2079 JUMP JUMPDEST DUP10 PUSH2 0xCA8 SWAP2 SWAP1 PUSH2 0x1FD4 JUMP JUMPDEST SWAP9 POP PUSH2 0xD5F JUMP JUMPDEST PUSH1 0x9 DUP4 EQ DUP1 PUSH2 0xCBE JUMPI POP PUSH1 0xC DUP4 EQ JUMPDEST ISZERO PUSH2 0xD08 JUMPI PUSH1 0xA PUSH1 0x2F PUSH7 0x2386F26FC10000 DUP4 PUSH1 0x20 ADD MLOAD PUSH2 0xFFFF AND PUSH2 0xCE2 SWAP2 SWAP1 PUSH2 0x2008 JUMP JUMPDEST PUSH2 0xCEC SWAP2 SWAP1 PUSH2 0x2008 JUMP JUMPDEST PUSH2 0xCF6 SWAP2 SWAP1 PUSH2 0x2079 JUMP JUMPDEST DUP10 PUSH2 0xD01 SWAP2 SWAP1 PUSH2 0x1FD4 JUMP JUMPDEST SWAP9 POP PUSH2 0xD5E JUMP JUMPDEST PUSH1 0xA DUP4 EQ DUP1 PUSH2 0xD17 JUMPI POP PUSH1 0xB DUP4 EQ JUMPDEST ISZERO PUSH2 0xD5D JUMPI PUSH1 0x5 PUSH1 0x16 PUSH7 0x2386F26FC10000 DUP4 PUSH1 0x20 ADD MLOAD PUSH2 0xFFFF AND PUSH2 0xD3B SWAP2 SWAP1 PUSH2 0x2008 JUMP JUMPDEST PUSH2 0xD45 SWAP2 SWAP1 PUSH2 0x2008 JUMP JUMPDEST PUSH2 0xD4F SWAP2 SWAP1 PUSH2 0x2079 JUMP JUMPDEST DUP10 PUSH2 0xD5A SWAP2 SWAP1 PUSH2 0x1FD4 JUMP JUMPDEST SWAP9 POP JUMPDEST JUMPDEST JUMPDEST JUMPDEST JUMPDEST JUMPDEST JUMPDEST JUMPDEST JUMPDEST POP DUP1 DUP1 PUSH1 0x1 ADD SWAP2 POP POP PUSH2 0xA9C JUMP JUMPDEST POP POP PUSH2 0x11E9 JUMP JUMPDEST PUSH1 0x2 PUSH1 0x4 DUP2 GT ISZERO PUSH2 0xD8E JUMPI PUSH2 0xD8D PUSH2 0x1F76 JUMP JUMPDEST JUMPDEST DUP3 PUSH1 0x0 ADD MLOAD PUSH1 0x4 DUP2 GT ISZERO PUSH2 0xDA5 JUMPI PUSH2 0xDA4 PUSH2 0x1F76 JUMP JUMPDEST JUMPDEST SUB PUSH2 0xF0C JUMPI PUSH1 0x0 JUMPDEST DUP2 MLOAD DUP2 LT ISZERO PUSH2 0xF06 JUMPI PUSH1 0x0 DUP3 DUP3 DUP2 MLOAD DUP2 LT PUSH2 0xDCB JUMPI PUSH2 0xDCA PUSH2 0x1F47 JUMP JUMPDEST JUMPDEST PUSH1 0x20 MUL PUSH1 0x20 ADD ADD MLOAD SWAP1 POP PUSH1 0x0 DUP1 JUMPDEST DUP12 MLOAD DUP2 LT ISZERO PUSH2 0xE29 JUMPI DUP12 DUP2 DUP2 MLOAD DUP2 LT PUSH2 0xDF5 JUMPI PUSH2 0xDF4 PUSH2 0x1F47 JUMP JUMPDEST JUMPDEST PUSH1 0x20 MUL PUSH1 0x20 ADD ADD MLOAD DUP4 PUSH1 0x0 ADD MLOAD PUSH4 0xFFFFFFFF AND SUB PUSH2 0xE1C JUMPI DUP2 DUP1 PUSH2 0xE18 SWAP1 PUSH2 0x20AA JUMP JUMPDEST SWAP3 POP POP JUMPDEST DUP1 DUP1 PUSH1 0x1 ADD SWAP2 POP POP PUSH2 0xDD9 JUMP JUMPDEST POP PUSH1 0x1 DUP2 SUB PUSH2 0xE77 JUMPI PUSH1 0xA PUSH1 0xC PUSH7 0x2386F26FC10000 DUP5 PUSH1 0x20 ADD MLOAD PUSH2 0xFFFF AND PUSH2 0xE51 SWAP2 SWAP1 PUSH2 0x2008 JUMP JUMPDEST PUSH2 0xE5B SWAP2 SWAP1 PUSH2 0x2008 JUMP JUMPDEST PUSH2 0xE65 SWAP2 SWAP1 PUSH2 0x2079 JUMP JUMPDEST DUP10 PUSH2 0xE70 SWAP2 SWAP1 PUSH2 0x1FD4 JUMP JUMPDEST SWAP9 POP PUSH2 0xEF7 JUMP JUMPDEST PUSH1 0x2 DUP2 SUB PUSH2 0xEB8 JUMPI PUSH1 0x2 PUSH7 0x2386F26FC10000 DUP4 PUSH1 0x20 ADD MLOAD PUSH2 0xFFFF AND PUSH2 0xE9C SWAP2 SWAP1 PUSH2 0x2008 JUMP JUMPDEST PUSH2 0xEA6 SWAP2 SWAP1 PUSH2 0x2008 JUMP JUMPDEST DUP10 PUSH2 0xEB1 SWAP2 SWAP1 PUSH2 0x1FD4 JUMP JUMPDEST SWAP9 POP PUSH2 0xEF6 JUMP JUMPDEST PUSH1 0x3 DUP2 SUB PUSH2 0xEF5 JUMPI PUSH1 0x3 PUSH7 0x2386F26FC10000 DUP4 PUSH1 0x20 ADD MLOAD PUSH2 0xFFFF AND PUSH2 0xEDD SWAP2 SWAP1 PUSH2 0x2008 JUMP JUMPDEST PUSH2 0xEE7 SWAP2 SWAP1 PUSH2 0x2008 JUMP JUMPDEST DUP10 PUSH2 0xEF2 SWAP2 SWAP1 PUSH2 0x1FD4 JUMP JUMPDEST SWAP9 POP JUMPDEST JUMPDEST JUMPDEST POP POP DUP1 DUP1 PUSH1 0x1 ADD SWAP2 POP POP PUSH2 0xDAD JUMP JUMPDEST POP PUSH2 0x11E8 JUMP JUMPDEST PUSH1 0x3 PUSH1 0x4 DUP2 GT ISZERO PUSH2 0xF20 JUMPI PUSH2 0xF1F PUSH2 0x1F76 JUMP JUMPDEST JUMPDEST DUP3 PUSH1 0x0 ADD MLOAD PUSH1 0x4 DUP2 GT ISZERO PUSH2 0xF37 JUMPI PUSH2 0xF36 PUSH2 0x1F76 JUMP JUMPDEST JUMPDEST SUB PUSH2 0x101A JUMPI PUSH1 0x0 JUMPDEST DUP2 MLOAD DUP2 LT ISZERO PUSH2 0x1014 JUMPI PUSH1 0x0 DUP3 DUP3 DUP2 MLOAD DUP2 LT PUSH2 0xF5D JUMPI PUSH2 0xF5C PUSH2 0x1F47 JUMP JUMPDEST JUMPDEST PUSH1 0x20 MUL PUSH1 0x20 ADD ADD MLOAD SWAP1 POP PUSH1 0x0 DUP1 JUMPDEST DUP12 MLOAD DUP2 LT ISZERO PUSH2 0xFBB JUMPI DUP12 DUP2 DUP2 MLOAD DUP2 LT PUSH2 0xF87 JUMPI PUSH2 0xF86 PUSH2 0x1F47 JUMP JUMPDEST JUMPDEST PUSH1 0x20 MUL PUSH1 0x20 ADD ADD MLOAD DUP4 PUSH1 0x0 ADD MLOAD PUSH4 0xFFFFFFFF AND SUB PUSH2 0xFAE JUMPI DUP2 DUP1 PUSH2 0xFAA SWAP1 PUSH2 0x20AA JUMP JUMPDEST SWAP3 POP POP JUMPDEST DUP1 DUP1 PUSH1 0x1 ADD SWAP2 POP POP PUSH2 0xF6B JUMP JUMPDEST POP PUSH1 0x2 DUP2 LT PUSH2 0x1005 JUMPI PUSH1 0xA PUSH1 0x4B PUSH7 0x2386F26FC10000 DUP5 PUSH1 0x20 ADD MLOAD PUSH2 0xFFFF AND PUSH2 0xFE3 SWAP2 SWAP1 PUSH2 0x2008 JUMP JUMPDEST PUSH2 0xFED SWAP2 SWAP1 PUSH2 0x2008 JUMP JUMPDEST PUSH2 0xFF7 SWAP2 SWAP1 PUSH2 0x2079 JUMP JUMPDEST DUP10 PUSH2 0x1002 SWAP2 SWAP1 PUSH2 0x1FD4 JUMP JUMPDEST SWAP9 POP JUMPDEST POP POP DUP1 DUP1 PUSH1 0x1 ADD SWAP2 POP POP PUSH2 0xF3F JUMP JUMPDEST POP PUSH2 0x11E7 JUMP JUMPDEST PUSH1 0x4 DUP1 DUP2 GT ISZERO PUSH2 0x102D JUMPI PUSH2 0x102C PUSH2 0x1F76 JUMP JUMPDEST JUMPDEST DUP3 PUSH1 0x0 ADD MLOAD PUSH1 0x4 DUP2 GT ISZERO PUSH2 0x1044 JUMPI PUSH2 0x1043 PUSH2 0x1F76 JUMP JUMPDEST JUMPDEST SUB PUSH2 0x11E6 JUMPI PUSH1 0x0 JUMPDEST DUP2 MLOAD DUP2 LT ISZERO PUSH2 0x11E4 JUMPI PUSH1 0x0 DUP3 DUP3 DUP2 MLOAD DUP2 LT PUSH2 0x106A JUMPI PUSH2 0x1069 PUSH2 0x1F47 JUMP JUMPDEST JUMPDEST PUSH1 0x20 MUL PUSH1 0x20 ADD ADD MLOAD SWAP1 POP PUSH1 0x0 DUP1 JUMPDEST DUP12 MLOAD DUP2 LT ISZERO PUSH2 0x10C8 JUMPI DUP12 DUP2 DUP2 MLOAD DUP2 LT PUSH2 0x1094 JUMPI PUSH2 0x1093 PUSH2 0x1F47 JUMP JUMPDEST JUMPDEST PUSH1 0x20 MUL PUSH1 0x20 ADD ADD MLOAD DUP4 PUSH1 0x0 ADD MLOAD PUSH4 0xFFFFFFFF AND SUB PUSH2 0x10BB JUMPI DUP2 DUP1 PUSH2 0x10B7 SWAP1 PUSH2 0x20AA JUMP JUMPDEST SWAP3 POP POP JUMPDEST DUP1 DUP1 PUSH1 0x1 ADD SWAP2 POP POP PUSH2 0x1078 JUMP JUMPDEST POP PUSH1 0x3 DUP2 SUB PUSH2 0x110A JUMPI PUSH1 0x78 PUSH7 0x2386F26FC10000 DUP4 PUSH1 0x20 ADD MLOAD PUSH2 0xFFFF AND PUSH2 0x10EE SWAP2 SWAP1 PUSH2 0x2008 JUMP JUMPDEST PUSH2 0x10F8 SWAP2 SWAP1 PUSH2 0x2008 JUMP JUMPDEST DUP10 PUSH2 0x1103 SWAP2 SWAP1 PUSH2 0x1FD4 JUMP JUMPDEST SWAP9 POP PUSH2 0x11D5 JUMP JUMPDEST DUP11 PUSH1 0x1 DUP2 MLOAD DUP2 LT PUSH2 0x111E JUMPI PUSH2 0x111D PUSH2 0x1F47 JUMP JUMPDEST JUMPDEST PUSH1 0x20 MUL PUSH1 0x20 ADD ADD MLOAD DUP12 PUSH1 0x0 DUP2 MLOAD DUP2 LT PUSH2 0x113A JUMPI PUSH2 0x1139 PUSH2 0x1F47 JUMP JUMPDEST JUMPDEST PUSH1 0x20 MUL PUSH1 0x20 ADD ADD MLOAD EQ DUP1 ISZERO PUSH2 0x1184 JUMPI POP DUP11 PUSH1 0x2 DUP2 MLOAD DUP2 LT PUSH2 0x115E JUMPI PUSH2 0x115D PUSH2 0x1F47 JUMP JUMPDEST JUMPDEST PUSH1 0x20 MUL PUSH1 0x20 ADD ADD MLOAD DUP12 PUSH1 0x1 DUP2 MLOAD DUP2 LT PUSH2 0x117A JUMPI PUSH2 0x1179 PUSH2 0x1F47 JUMP JUMPDEST JUMPDEST PUSH1 0x20 MUL PUSH1 0x20 ADD ADD MLOAD EQ JUMPDEST DUP1 ISZERO PUSH2 0x119A JUMPI POP PUSH1 0x7 DUP3 PUSH1 0x0 ADD MLOAD PUSH4 0xFFFFFFFF AND EQ JUMPDEST ISZERO PUSH2 0x11D4 JUMPI PUSH1 0x14 PUSH7 0x2386F26FC10000 DUP4 PUSH1 0x20 ADD MLOAD PUSH2 0xFFFF AND PUSH2 0x11BC SWAP2 SWAP1 PUSH2 0x2008 JUMP JUMPDEST PUSH2 0x11C6 SWAP2 SWAP1 PUSH2 0x2008 JUMP JUMPDEST DUP10 PUSH2 0x11D1 SWAP2 SWAP1 PUSH2 0x1FD4 JUMP JUMPDEST SWAP9 POP JUMPDEST JUMPDEST POP POP DUP1 DUP1 PUSH1 0x1 ADD SWAP2 POP POP PUSH2 0x104C JUMP JUMPDEST POP JUMPDEST JUMPDEST JUMPDEST JUMPDEST JUMPDEST POP POP DUP1 DUP1 PUSH1 0x1 ADD SWAP2 POP POP PUSH2 0x7EC JUMP JUMPDEST POP PUSH1 0x1 PUSH1 0x4 PUSH1 0x0 DUP9 DUP2 MSTORE PUSH1 0x20 ADD SWAP1 DUP2 MSTORE PUSH1 0x20 ADD PUSH1 0x0 KECCAK256 PUSH1 0x0 ADD PUSH1 0x0 PUSH2 0x100 EXP DUP2 SLOAD DUP2 PUSH1 0xFF MUL NOT AND SWAP1 DUP4 ISZERO ISZERO MUL OR SWAP1 SSTORE POP DUP5 PUSH1 0x4 PUSH1 0x0 DUP9 DUP2 MSTORE PUSH1 0x20 ADD SWAP1 DUP2 MSTORE PUSH1 0x20 ADD PUSH1 0x0 KECCAK256 PUSH1 0x1 ADD SWAP1 DUP1 MLOAD SWAP1 PUSH1 0x20 ADD SWAP1 PUSH2 0x1253 SWAP3 SWAP2 SWAP1 PUSH2 0x15EA JUMP JUMPDEST POP PUSH1 0x0 DUP4 GT ISZERO PUSH2 0x134D JUMPI DUP3 SELFBALANCE GT PUSH2 0x129F JUMPI PUSH1 0x40 MLOAD PUSH32 0x8C379A000000000000000000000000000000000000000000000000000000000 DUP2 MSTORE PUSH1 0x4 ADD PUSH2 0x1296 SWAP1 PUSH2 0x213E JUMP JUMPDEST PUSH1 0x40 MLOAD DUP1 SWAP2 SUB SWAP1 REVERT JUMPDEST PUSH1 0x0 DUP3 PUSH20 0xFFFFFFFFFFFFFFFFFFFFFFFFFFFFFFFFFFFFFFFF AND DUP5 PUSH1 0x40 MLOAD PUSH2 0x12C5 SWAP1 PUSH2 0x218F JUMP JUMPDEST PUSH1 0x0 PUSH1 0x40 MLOAD DUP1 DUP4 SUB DUP2 DUP6 DUP8 GAS CALL SWAP3 POP POP POP RETURNDATASIZE DUP1 PUSH1 0x0 DUP2 EQ PUSH2 0x1302 JUMPI PUSH1 0x40 MLOAD SWAP2 POP PUSH1 0x1F NOT PUSH1 0x3F RETURNDATASIZE ADD AND DUP3 ADD PUSH1 0x40 MSTORE RETURNDATASIZE DUP3 MSTORE RETURNDATASIZE PUSH1 0x0 PUSH1 0x20 DUP5 ADD RETURNDATACOPY PUSH2 0x1307 JUMP JUMPDEST PUSH1 0x60 SWAP2 POP JUMPDEST POP POP SWAP1 POP DUP1 PUSH2 0x134B JUMPI PUSH1 0x40 MLOAD PUSH32 0x8C379A000000000000000000000000000000000000000000000000000000000 DUP2 MSTORE PUSH1 0x4 ADD PUSH2 0x1342 SWAP1 PUSH2 0x21F0 JUMP JUMPDEST PUSH1 0x40 MLOAD DUP1 SWAP2 SUB SWAP1 REVERT JUMPDEST POP JUMPDEST POP POP POP DUP1 DUP1 PUSH1 0x1 ADD SWAP2 POP POP PUSH2 0x623 JUMP JUMPDEST POP PUSH1 0x1 PUSH1 0x4 PUSH1 0x0 DUP5 DUP2 MSTORE PUSH1 0x20 ADD SWAP1 DUP2 MSTORE PUSH1 0x20 ADD PUSH1 0x0 KECCAK256 PUSH1 0x0 ADD PUSH1 0x0 PUSH2 0x100 EXP DUP2 SLOAD DUP2 PUSH1 0xFF MUL NOT AND SWAP1 DUP4 ISZERO ISZERO MUL OR SWAP1 SSTORE POP DUP1 PUSH1 0x4 PUSH1 0x0 DUP5 DUP2 MSTORE PUSH1 0x20 ADD SWAP1 DUP2 MSTORE PUSH1 0x20 ADD PUSH1 0x0 KECCAK256 PUSH1 0x1 ADD SWAP1 DUP1 MLOAD SWAP1 PUSH1 0x20 ADD SWAP1 PUSH2 0x13B7 SWAP3 SWAP2 SWAP1 PUSH2 0x15EA JUMP JUMPDEST POP PUSH32 0xFE2E2D779DBA245964D4E3EF9B994BE63856FD568BF7D3CA9E224755CB1BD54D DUP3 DUP3 PUSH1 0x40 MLOAD PUSH2 0x13E9 SWAP3 SWAP2 SWAP1 PUSH2 0x22CE JUMP JUMPDEST PUSH1 0x40 MLOAD DUP1 SWAP2 SUB SWAP1 LOG1 POP POP JUMP JUMPDEST PUSH1 0x0 PUSH1 0x2 PUSH1 0x0 DUP5 PUSH20 0xFFFFFFFFFFFFFFFFFFFFFFFFFFFFFFFFFFFFFFFF AND PUSH20 0xFFFFFFFFFFFFFFFFFFFFFFFFFFFFFFFFFFFFFFFF AND DUP2 MSTORE PUSH1 0x20 ADD SWAP1 DUP2 MSTORE PUSH1 0x20 ADD PUSH1 0x0 KECCAK256 SWAP1 POP PUSH1 0x2 PUSH1 0x0 DUP5 PUSH20 0xFFFFFFFFFFFFFFFFFFFFFFFFFFFFFFFFFFFFFFFF AND PUSH20 0xFFFFFFFFFFFFFFFFFFFFFFFFFFFFFFFFFFFFFFFF AND DUP2 MSTORE PUSH1 0x20 ADD SWAP1 DUP2 MSTORE PUSH1 0x20 ADD PUSH1 0x0 KECCAK256 PUSH1 0x0 PUSH2 0x1483 SWAP2 SWAP1 PUSH2 0x1637 JUMP JUMPDEST PUSH1 0x0 JUMPDEST DUP3 MLOAD DUP2 LT ISZERO PUSH2 0x15E4 JUMPI PUSH1 0x0 DUP4 DUP3 DUP2 MLOAD DUP2 LT PUSH2 0x14A4 JUMPI PUSH2 0x14A3 PUSH2 0x1F47 JUMP JUMPDEST JUMPDEST PUSH1 0x20 MUL PUSH1 0x20 ADD ADD MLOAD SWAP1 POP PUSH1 0x0 DUP2 PUSH1 0x20 ADD MLOAD SWAP1 POP PUSH1 0x0 DUP5 PUSH1 0x1 DUP2 PUSH1 0x1 DUP2 SLOAD ADD DUP1 DUP3 SSTORE DUP1 SWAP2 POP POP SUB SWAP1 PUSH1 0x0 MSTORE PUSH1 0x20 PUSH1 0x0 KECCAK256 SWAP1 PUSH1 0x2 MUL ADD PUSH1 0x1 ADD SWAP1 POP PUSH1 0x0 JUMPDEST DUP3 MLOAD DUP2 LT ISZERO PUSH2 0x1583 JUMPI DUP2 DUP4 DUP3 DUP2 MLOAD DUP2 LT PUSH2 0x14FD JUMPI PUSH2 0x14FC PUSH2 0x1F47 JUMP JUMPDEST JUMPDEST PUSH1 0x20 MUL PUSH1 0x20 ADD ADD MLOAD SWAP1 DUP1 PUSH1 0x1 DUP2 SLOAD ADD DUP1 DUP3 SSTORE DUP1 SWAP2 POP POP PUSH1 0x1 SWAP1 SUB SWAP1 PUSH1 0x0 MSTORE PUSH1 0x20 PUSH1 0x0 KECCAK256 ADD PUSH1 0x0 SWAP1 SWAP2 SWAP1 SWAP2 SWAP1 SWAP2 POP PUSH1 0x0 DUP3 ADD MLOAD DUP2 PUSH1 0x0 ADD PUSH1 0x0 PUSH2 0x100 EXP DUP2 SLOAD DUP2 PUSH4 0xFFFFFFFF MUL NOT AND SWAP1 DUP4 PUSH4 0xFFFFFFFF AND MUL OR SWAP1 SSTORE POP PUSH1 0x20 DUP3 ADD MLOAD DUP2 PUSH1 0x0 ADD PUSH1 0x4 PUSH2 0x100 EXP DUP2 SLOAD DUP2 PUSH2 0xFFFF MUL NOT AND SWAP1 DUP4 PUSH2 0xFFFF AND MUL OR SWAP1 SSTORE POP POP POP DUP1 DUP1 PUSH1 0x1 ADD SWAP2 POP POP PUSH2 0x14E0 JUMP JUMPDEST POP DUP3 PUSH1 0x0 ADD MLOAD DUP6 DUP6 DUP2 SLOAD DUP2 LT PUSH2 0x159C JUMPI PUSH2 0x159B PUSH2 0x1F47 JUMP JUMPDEST JUMPDEST SWAP1 PUSH1 0x0 MSTORE PUSH1 0x20 PUSH1 0x0 KECCAK256 SWAP1 PUSH1 0x2 MUL ADD PUSH1 0x0 ADD PUSH1 0x0 PUSH2 0x100 EXP DUP2 SLOAD DUP2 PUSH1 0xFF MUL NOT AND SWAP1 DUP4 PUSH1 0x4 DUP2 GT ISZERO PUSH2 0x15CF JUMPI PUSH2 0x15CE PUSH2 0x1F76 JUMP JUMPDEST JUMPDEST MUL OR SWAP1 SSTORE POP POP POP POP DUP1 DUP1 PUSH1 0x1 ADD SWAP2 POP POP PUSH2 0x1486 JUMP JUMPDEST POP POP POP POP JUMP JUMPDEST DUP3 DUP1 SLOAD DUP3 DUP3 SSTORE SWAP1 PUSH1 0x0 MSTORE PUSH1 0x20 PUSH1 0x0 KECCAK256 SWAP1 DUP2 ADD SWAP3 DUP3 ISZERO PUSH2 0x1626 JUMPI SWAP2 PUSH1 0x20 MUL DUP3 ADD JUMPDEST DUP3 DUP2 GT ISZERO PUSH2 0x1625 JUMPI DUP3 MLOAD DUP3 SSTORE SWAP2 PUSH1 0x20 ADD SWAP2 SWAP1 PUSH1 0x1 ADD SWAP1 PUSH2 0x160A JUMP JUMPDEST JUMPDEST POP SWAP1 POP PUSH2 0x1633 SWAP2 SWAP1 PUSH2 0x165B JUMP JUMPDEST POP SWAP1 JUMP JUMPDEST POP DUP1 SLOAD PUSH1 0x0 DUP3 SSTORE PUSH1 0x2 MUL SWAP1 PUSH1 0x0 MSTORE PUSH1 0x20 PUSH1 0x0 KECCAK256 SWAP1 DUP2 ADD SWAP1 PUSH2 0x1658 SWAP2 SWAP1 PUSH2 0x1678 JUMP JUMPDEST POP JUMP JUMPDEST JUMPDEST DUP1 DUP3 GT ISZERO PUSH2 0x1674 JUMPI PUSH1 0x0 DUP2 PUSH1 0x0 SWAP1 SSTORE POP PUSH1 0x1 ADD PUSH2 0x165C JUMP JUMPDEST POP SWAP1 JUMP JUMPDEST JUMPDEST DUP1 DUP3 GT ISZERO PUSH2 0x16AF JUMPI PUSH1 0x0 DUP1 DUP3 ADD PUSH1 0x0 PUSH2 0x100 EXP DUP2 SLOAD SWAP1 PUSH1 0xFF MUL NOT AND SWAP1 SSTORE PUSH1 0x1 DUP3 ADD PUSH1 0x0 PUSH2 0x16A6 SWAP2 SWAP1 PUSH2 0x16B3 JUMP JUMPDEST POP PUSH1 0x2 ADD PUSH2 0x1679 JUMP JUMPDEST POP SWAP1 JUMP JUMPDEST POP DUP1 SLOAD PUSH1 0x0 DUP3 SSTORE SWAP1 PUSH1 0x0 MSTORE PUSH1 0x20 PUSH1 0x0 KECCAK256 SWAP1 DUP2 ADD SWAP1 PUSH2 0x16D1 SWAP2 SWAP1 PUSH2 0x16D4 JUMP JUMPDEST POP JUMP JUMPDEST JUMPDEST DUP1 DUP3 GT ISZERO PUSH2 0x1713 JUMPI PUSH1 0x0 DUP1 DUP3 ADD PUSH1 0x0 PUSH2 0x100 EXP DUP2 SLOAD SWAP1 PUSH4 0xFFFFFFFF MUL NOT AND SWAP1 SSTORE PUSH1 0x0 DUP3 ADD PUSH1 0x4 PUSH2 0x100 EXP DUP2 SLOAD SWAP1 PUSH2 0xFFFF MUL NOT AND SWAP1 SSTORE POP PUSH1 0x1 ADD PUSH2 0x16D5 JUMP JUMPDEST POP SWAP1 JUMP JUMPDEST PUSH1 0x0 PUSH1 0x40 MLOAD SWAP1 POP SWAP1 JUMP JUMPDEST PUSH1 0x0 DUP1 REVERT JUMPDEST PUSH1 0x0 DUP1 REVERT JUMPDEST PUSH1 0x0 DUP2 SWAP1 POP SWAP2 SWAP1 POP JUMP JUMPDEST PUSH2 0x173E DUP2 PUSH2 0x172B JUMP JUMPDEST DUP2 EQ PUSH2 0x1749 JUMPI PUSH1 0x0 DUP1 REVERT JUMPDEST POP JUMP JUMPDEST PUSH1 0x0 DUP2 CALLDATALOAD SWAP1 POP PUSH2 0x175B DUP2 PUSH2 0x1735 JUMP JUMPDEST SWAP3 SWAP2 POP POP JUMP JUMPDEST PUSH1 0x0 DUP1 REVERT JUMPDEST PUSH1 0x0 PUSH1 0x1F NOT PUSH1 0x1F DUP4 ADD AND SWAP1 POP SWAP2 SWAP1 POP JUMP JUMPDEST PUSH32 0x4E487B7100000000000000000000000000000000000000000000000000000000 PUSH1 0x0 MSTORE PUSH1 0x41 PUSH1 0x4 MSTORE PUSH1 0x24 PUSH1 0x0 REVERT JUMPDEST PUSH2 0x17AF DUP3 PUSH2 0x1766 JUMP JUMPDEST DUP2 ADD DUP2 DUP2 LT PUSH8 0xFFFFFFFFFFFFFFFF DUP3 GT OR ISZERO PUSH2 0x17CE JUMPI PUSH2 0x17CD PUSH2 0x1777 JUMP JUMPDEST JUMPDEST DUP1 PUSH1 0x40 MSTORE POP POP POP JUMP JUMPDEST PUSH1 0x0 PUSH2 0x17E1 PUSH2 0x1717 JUMP JUMPDEST SWAP1 POP PUSH2 0x17ED DUP3 DUP3 PUSH2 0x17A6 JUMP JUMPDEST SWAP2 SWAP1 POP JUMP JUMPDEST PUSH1 0x0 PUSH8 0xFFFFFFFFFFFFFFFF DUP3 GT ISZERO PUSH2 0x180D JUMPI PUSH2 0x180C PUSH2 0x1777 JUMP JUMPDEST JUMPDEST PUSH1 0x20 DUP3 MUL SWAP1 POP PUSH1 0x20 DUP2 ADD SWAP1 POP SWAP2 SWAP1 POP JUMP JUMPDEST PUSH1 0x0 DUP1 REVERT JUMPDEST PUSH1 0x0 PUSH2 0x1836 PUSH2 0x1831 DUP5 PUSH2 0x17F2 JUMP JUMPDEST PUSH2 0x17D7 JUMP JUMPDEST SWAP1 POP DUP1 DUP4 DUP3 MSTORE PUSH1 0x20 DUP3 ADD SWAP1 POP PUSH1 0x20 DUP5 MUL DUP4 ADD DUP6 DUP2 GT ISZERO PUSH2 0x1859 JUMPI PUSH2 0x1858 PUSH2 0x181E JUMP JUMPDEST JUMPDEST DUP4 JUMPDEST DUP2 DUP2 LT ISZERO PUSH2 0x1882 JUMPI DUP1 PUSH2 0x186E DUP9 DUP3 PUSH2 0x174C JUMP JUMPDEST DUP5 MSTORE PUSH1 0x20 DUP5 ADD SWAP4 POP POP PUSH1 0x20 DUP2 ADD SWAP1 POP PUSH2 0x185B JUMP JUMPDEST POP POP POP SWAP4 SWAP3 POP POP POP JUMP JUMPDEST PUSH1 0x0 DUP3 PUSH1 0x1F DUP4 ADD SLT PUSH2 0x18A1 JUMPI PUSH2 0x18A0 PUSH2 0x1761 JUMP JUMPDEST JUMPDEST DUP2 CALLDATALOAD PUSH2 0x18B1 DUP5 DUP3 PUSH1 0x20 DUP7 ADD PUSH2 0x1823 JUMP JUMPDEST SWAP2 POP POP SWAP3 SWAP2 POP POP JUMP JUMPDEST PUSH1 0x0 DUP1 PUSH1 0x40 DUP4 DUP6 SUB SLT ISZERO PUSH2 0x18D1 JUMPI PUSH2 0x18D0 PUSH2 0x1721 JUMP JUMPDEST JUMPDEST PUSH1 0x0 PUSH2 0x18DF DUP6 DUP3 DUP7 ADD PUSH2 0x174C JUMP JUMPDEST SWAP3 POP POP PUSH1 0x20 DUP4 ADD CALLDATALOAD PUSH8 0xFFFFFFFFFFFFFFFF DUP2 GT ISZERO PUSH2 0x1900 JUMPI PUSH2 0x18FF PUSH2 0x1726 JUMP JUMPDEST JUMPDEST PUSH2 0x190C DUP6 DUP3 DUP7 ADD PUSH2 0x188C JUMP JUMPDEST SWAP2 POP POP SWAP3 POP SWAP3 SWAP1 POP JUMP JUMPDEST PUSH1 0x0 PUSH8 0xFFFFFFFFFFFFFFFF DUP3 GT ISZERO PUSH2 0x1931 JUMPI PUSH2 0x1930 PUSH2 0x1777 JUMP JUMPDEST JUMPDEST PUSH1 0x20 DUP3 MUL SWAP1 POP PUSH1 0x20 DUP2 ADD SWAP1 POP SWAP2 SWAP1 POP JUMP JUMPDEST PUSH1 0x0 DUP1 REVERT JUMPDEST PUSH1 0x0 DUP1 REVERT JUMPDEST PUSH1 0x5 DUP2 LT PUSH2 0x1959 JUMPI PUSH1 0x0 DUP1 REVERT JUMPDEST POP JUMP JUMPDEST PUSH1 0x0 DUP2 CALLDATALOAD SWAP1 POP PUSH2 0x196B DUP2 PUSH2 0x194C JUMP JUMPDEST SWAP3 SWAP2 POP POP JUMP JUMPDEST PUSH1 0x0 PUSH8 0xFFFFFFFFFFFFFFFF DUP3 GT ISZERO PUSH2 0x198C JUMPI PUSH2 0x198B PUSH2 0x1777 JUMP JUMPDEST JUMPDEST PUSH1 0x20 DUP3 MUL SWAP1 POP PUSH1 0x20 DUP2 ADD SWAP1 POP SWAP2 SWAP1 POP JUMP JUMPDEST PUSH1 0x0 PUSH4 0xFFFFFFFF DUP3 AND SWAP1 POP SWAP2 SWAP1 POP JUMP JUMPDEST PUSH2 0x19B6 DUP2 PUSH2 0x199D JUMP JUMPDEST DUP2 EQ PUSH2 0x19C1 JUMPI PUSH1 0x0 DUP1 REVERT JUMPDEST POP JUMP JUMPDEST PUSH1 0x0 DUP2 CALLDATALOAD SWAP1 POP PUSH2 0x19D3 DUP2 PUSH2 0x19AD JUMP JUMPDEST SWAP3 SWAP2 POP POP JUMP JUMPDEST PUSH1 0x0 PUSH2 0xFFFF DUP3 AND SWAP1 POP SWAP2 SWAP1 POP JUMP JUMPDEST PUSH2 0x19F0 DUP2 PUSH2 0x19D9 JUMP JUMPDEST DUP2 EQ PUSH2 0x19FB JUMPI PUSH1 0x0 DUP1 REVERT JUMPDEST POP JUMP JUMPDEST PUSH1 0x0 DUP2 CALLDATALOAD SWAP1 POP PUSH2 0x1A0D DUP2 PUSH2 0x19E7 JUMP JUMPDEST SWAP3 SWAP2 POP POP JUMP JUMPDEST PUSH1 0x0 PUSH1 0x40 DUP3 DUP5 SUB SLT ISZERO PUSH2 0x1A29 JUMPI PUSH2 0x1A28 PUSH2 0x1942 JUMP JUMPDEST JUMPDEST PUSH2 0x1A33 PUSH1 0x40 PUSH2 0x17D7 JUMP JUMPDEST SWAP1 POP PUSH1 0x0 PUSH2 0x1A43 DUP5 DUP3 DUP6 ADD PUSH2 0x19C4 JUMP JUMPDEST PUSH1 0x0 DUP4 ADD MSTORE POP PUSH1 0x20 PUSH2 0x1A57 DUP5 DUP3 DUP6 ADD PUSH2 0x19FE JUMP JUMPDEST PUSH1 0x20 DUP4 ADD MSTORE POP SWAP3 SWAP2 POP POP JUMP JUMPDEST PUSH1 0x0 PUSH2 0x1A76 PUSH2 0x1A71 DUP5 PUSH2 0x1971 JUMP JUMPDEST PUSH2 0x17D7 JUMP JUMPDEST SWAP1 POP DUP1 DUP4 DUP3 MSTORE PUSH1 0x20 DUP3 ADD SWAP1 POP PUSH1 0x40 DUP5 MUL DUP4 ADD DUP6 DUP2 GT ISZERO PUSH2 0x1A99 JUMPI PUSH2 0x1A98 PUSH2 0x181E JUMP JUMPDEST JUMPDEST DUP4 JUMPDEST DUP2 DUP2 LT ISZERO PUSH2 0x1AC2 JUMPI DUP1 PUSH2 0x1AAE DUP9 DUP3 PUSH2 0x1A13 JUMP JUMPDEST DUP5 MSTORE PUSH1 0x20 DUP5 ADD SWAP4 POP POP PUSH1 0x40 DUP2 ADD SWAP1 POP PUSH2 0x1A9B JUMP JUMPDEST POP POP POP SWAP4 SWAP3 POP POP POP JUMP JUMPDEST PUSH1 0x0 DUP3 PUSH1 0x1F DUP4 ADD SLT PUSH2 0x1AE1 JUMPI PUSH2 0x1AE0 PUSH2 0x1761 JUMP JUMPDEST JUMPDEST DUP2 CALLDATALOAD PUSH2 0x1AF1 DUP5 DUP3 PUSH1 0x20 DUP7 ADD PUSH2 0x1A63 JUMP JUMPDEST SWAP2 POP POP SWAP3 SWAP2 POP POP JUMP JUMPDEST PUSH1 0x0 PUSH1 0x40 DUP3 DUP5 SUB SLT ISZERO PUSH2 0x1B10 JUMPI PUSH2 0x1B0F PUSH2 0x1942 JUMP JUMPDEST JUMPDEST PUSH2 0x1B1A PUSH1 0x40 PUSH2 0x17D7 JUMP JUMPDEST SWAP1 POP PUSH1 0x0 PUSH2 0x1B2A DUP5 DUP3 DUP6 ADD PUSH2 0x195C JUMP JUMPDEST PUSH1 0x0 DUP4 ADD MSTORE POP PUSH1 0x20 DUP3 ADD CALLDATALOAD PUSH8 0xFFFFFFFFFFFFFFFF DUP2 GT ISZERO PUSH2 0x1B4E JUMPI PUSH2 0x1B4D PUSH2 0x1947 JUMP JUMPDEST JUMPDEST PUSH2 0x1B5A DUP5 DUP3 DUP6 ADD PUSH2 0x1ACC JUMP JUMPDEST PUSH1 0x20 DUP4 ADD MSTORE POP SWAP3 SWAP2 POP POP JUMP JUMPDEST PUSH1 0x0 PUSH2 0x1B79 PUSH2 0x1B74 DUP5 PUSH2 0x1916 JUMP JUMPDEST PUSH2 0x17D7 JUMP JUMPDEST SWAP1 POP DUP1 DUP4 DUP3 MSTORE PUSH1 0x20 DUP3 ADD SWAP1 POP PUSH1 0x20 DUP5 MUL DUP4 ADD DUP6 DUP2 GT ISZERO PUSH2 0x1B9C JUMPI PUSH2 0x1B9B PUSH2 0x181E JUMP JUMPDEST JUMPDEST DUP4 JUMPDEST DUP2 DUP2 LT ISZERO PUSH2 0x1BE3 JUMPI DUP1 CALLDATALOAD PUSH8 0xFFFFFFFFFFFFFFFF DUP2 GT ISZERO PUSH2 0x1BC1 JUMPI PUSH2 0x1BC0 PUSH2 0x1761 JUMP JUMPDEST JUMPDEST DUP1 DUP7 ADD PUSH2 0x1BCE DUP10 DUP3 PUSH2 0x1AFA JUMP JUMPDEST DUP6 MSTORE PUSH1 0x20 DUP6 ADD SWAP5 POP POP POP PUSH1 0x20 DUP2 ADD SWAP1 POP PUSH2 0x1B9E JUMP JUMPDEST POP POP POP SWAP4 SWAP3 POP POP POP JUMP JUMPDEST PUSH1 0x0 DUP3 PUSH1 0x1F DUP4 ADD SLT PUSH2 0x1C02 JUMPI PUSH2 0x1C01 PUSH2 0x1761 JUMP JUMPDEST JUMPDEST DUP2 CALLDATALOAD PUSH2 0x1C12 DUP5 DUP3 PUSH1 0x20 DUP7 ADD PUSH2 0x1B66 JUMP JUMPDEST SWAP2 POP POP SWAP3 SWAP2 POP POP JUMP JUMPDEST PUSH1 0x0 PUSH1 0x20 DUP3 DUP5 SUB SLT ISZERO PUSH2 0x1C31 JUMPI PUSH2 0x1C30 PUSH2 0x1721 JUMP JUMPDEST JUMPDEST PUSH1 0x0 DUP3 ADD CALLDATALOAD PUSH8 0xFFFFFFFFFFFFFFFF DUP2 GT ISZERO PUSH2 0x1C4F JUMPI PUSH2 0x1C4E PUSH2 0x1726 JUMP JUMPDEST JUMPDEST PUSH2 0x1C5B DUP5 DUP3 DUP6 ADD PUSH2 0x1BED JUMP JUMPDEST SWAP2 POP POP SWAP3 SWAP2 POP POP JUMP JUMPDEST PUSH2 0x1C6D DUP2 PUSH2 0x172B JUMP JUMPDEST DUP3 MSTORE POP POP JUMP JUMPDEST PUSH1 0x0 PUSH1 0x20 DUP3 ADD SWAP1 POP PUSH2 0x1C88 PUSH1 0x0 DUP4 ADD DUP5 PUSH2 0x1C64 JUMP JUMPDEST SWAP3 SWAP2 POP POP JUMP JUMPDEST PUSH1 0x0 PUSH1 0x20 DUP3 DUP5 SUB SLT ISZERO PUSH2 0x1CA4 JUMPI PUSH2 0x1CA3 PUSH2 0x1721 JUMP JUMPDEST JUMPDEST PUSH1 0x0 PUSH2 0x1CB2 DUP5 DUP3 DUP6 ADD PUSH2 0x174C JUMP JUMPDEST SWAP2 POP POP SWAP3 SWAP2 POP POP JUMP JUMPDEST PUSH1 0x0 DUP2 ISZERO ISZERO SWAP1 POP SWAP2 SWAP1 POP JUMP JUMPDEST PUSH2 0x1CD0 DUP2 PUSH2 0x1CBB JUMP JUMPDEST DUP3 MSTORE POP POP JUMP JUMPDEST PUSH1 0x0 PUSH1 0x40 DUP3 ADD SWAP1 POP PUSH2 0x1CEB PUSH1 0x0 DUP4 ADD DUP6 PUSH2 0x1CC7 JUMP JUMPDEST PUSH2 0x1CF8 PUSH1 0x20 DUP4 ADD DUP5 PUSH2 0x1CC7 JUMP JUMPDEST SWAP4 SWAP3 POP POP POP JUMP JUMPDEST PUSH1 0x0 PUSH20 0xFFFFFFFFFFFFFFFFFFFFFFFFFFFFFFFFFFFFFFFF DUP3 AND SWAP1 POP SWAP2 SWAP1 POP JUMP JUMPDEST PUSH1 0x0 PUSH2 0x1D2A DUP3 PUSH2 0x1CFF JUMP JUMPDEST SWAP1 POP SWAP2 SWAP1 POP JUMP JUMPDEST PUSH2 0x1D3A DUP2 PUSH2 0x1D1F JUMP JUMPDEST DUP3 MSTORE POP POP JUMP JUMPDEST PUSH1 0x0 PUSH1 0x40 DUP3 ADD SWAP1 POP PUSH2 0x1D55 PUSH1 0x0 DUP4 ADD DUP6 PUSH2 0x1D31 JUMP JUMPDEST PUSH2 0x1D62 PUSH1 0x20 DUP4 ADD DUP5 PUSH2 0x1D31 JUMP JUMPDEST SWAP4 SWAP3 POP POP POP JUMP JUMPDEST PUSH1 0x0 DUP3 DUP3 MSTORE PUSH1 0x20 DUP3 ADD SWAP1 POP SWAP3 SWAP2 POP POP JUMP JUMPDEST PUSH32 0x4E6F7420656E6F7567682066656520746F206A6F696E00000000000000000000 PUSH1 0x0 DUP3 ADD MSTORE POP JUMP JUMPDEST PUSH1 0x0 PUSH2 0x1DB0 PUSH1 0x16 DUP4 PUSH2 0x1D69 JUMP JUMPDEST SWAP2 POP PUSH2 0x1DBB DUP3 PUSH2 0x1D7A JUMP JUMPDEST PUSH1 0x20 DUP3 ADD SWAP1 POP SWAP2 SWAP1 POP JUMP JUMPDEST PUSH1 0x0 PUSH1 0x20 DUP3 ADD SWAP1 POP DUP2 DUP2 SUB PUSH1 0x0 DUP4 ADD MSTORE PUSH2 0x1DDF DUP2 PUSH2 0x1DA3 JUMP JUMPDEST SWAP1 POP SWAP2 SWAP1 POP JUMP JUMPDEST PUSH1 0x0 DUP2 SWAP1 POP SWAP2 SWAP1 POP JUMP JUMPDEST PUSH2 0x1DF9 DUP2 PUSH2 0x1DE6 JUMP JUMPDEST DUP3 MSTORE POP POP JUMP JUMPDEST PUSH2 0x1E08 DUP2 PUSH2 0x19D9 JUMP JUMPDEST DUP3 MSTORE POP POP JUMP JUMPDEST PUSH2 0x1E17 DUP2 PUSH2 0x199D JUMP JUMPDEST DUP3 MSTORE POP POP JUMP JUMPDEST PUSH1 0x0 PUSH1 0xA0 DUP3 ADD SWAP1 POP PUSH2 0x1E32 PUSH1 0x0 DUP4 ADD DUP9 PUSH2 0x1DF0 JUMP JUMPDEST PUSH2 0x1E3F PUSH1 0x20 DUP4 ADD DUP8 PUSH2 0x1C64 JUMP JUMPDEST PUSH2 0x1E4C PUSH1 0x40 DUP4 ADD DUP7 PUSH2 0x1DFF JUMP JUMPDEST PUSH2 0x1E59 PUSH1 0x60 DUP4 ADD DUP6 PUSH2 0x1E0E JUMP JUMPDEST PUSH2 0x1E66 PUSH1 0x80 DUP4 ADD DUP5 PUSH2 0x1E0E JUMP JUMPDEST SWAP7 SWAP6 POP POP POP POP POP POP JUMP JUMPDEST PUSH1 0x0 DUP2 MLOAD SWAP1 POP PUSH2 0x1E7F DUP2 PUSH2 0x1735 JUMP JUMPDEST SWAP3 SWAP2 POP POP JUMP JUMPDEST PUSH1 0x0 PUSH1 0x20 DUP3 DUP5 SUB SLT ISZERO PUSH2 0x1E9B JUMPI PUSH2 0x1E9A PUSH2 0x1721 JUMP JUMPDEST JUMPDEST PUSH1 0x0 PUSH2 0x1EA9 DUP5 DUP3 DUP6 ADD PUSH2 0x1E70 JUMP JUMPDEST SWAP2 POP POP SWAP3 SWAP2 POP POP JUMP JUMPDEST PUSH1 0x0 PUSH1 0x40 DUP3 ADD SWAP1 POP PUSH2 0x1EC7 PUSH1 0x0 DUP4 ADD DUP6 PUSH2 0x1C64 JUMP JUMPDEST PUSH2 0x1ED4 PUSH1 0x20 DUP4 ADD DUP5 PUSH2 0x1E0E JUMP JUMPDEST SWAP4 SWAP3 POP POP POP JUMP JUMPDEST PUSH32 0x72657175657374206E6F7420666F756E64000000000000000000000000000000 PUSH1 0x0 DUP3 ADD MSTORE POP JUMP JUMPDEST PUSH1 0x0 PUSH2 0x1F11 PUSH1 0x11 DUP4 PUSH2 0x1D69 JUMP JUMPDEST SWAP2 POP PUSH2 0x1F1C DUP3 PUSH2 0x1EDB JUMP JUMPDEST PUSH1 0x20 DUP3 ADD SWAP1 POP SWAP2 SWAP1 POP JUMP JUMPDEST PUSH1 0x0 PUSH1 0x20 DUP3 ADD SWAP1 POP DUP2 DUP2 SUB PUSH1 0x0 DUP4 ADD MSTORE PUSH2 0x1F40 DUP2 PUSH2 0x1F04 JUMP JUMPDEST SWAP1 POP SWAP2 SWAP1 POP JUMP JUMPDEST PUSH32 0x4E487B7100000000000000000000000000000000000000000000000000000000 PUSH1 0x0 MSTORE PUSH1 0x32 PUSH1 0x4 MSTORE PUSH1 0x24 PUSH1 0x0 REVERT JUMPDEST PUSH32 0x4E487B7100000000000000000000000000000000000000000000000000000000 PUSH1 0x0 MSTORE PUSH1 0x21 PUSH1 0x4 MSTORE PUSH1 0x24 PUSH1 0x0 REVERT JUMPDEST PUSH32 0x4E487B7100000000000000000000000000000000000000000000000000000000 PUSH1 0x0 MSTORE PUSH1 0x11 PUSH1 0x4 MSTORE PUSH1 0x24 PUSH1 0x0 REVERT JUMPDEST PUSH1 0x0 PUSH2 0x1FDF DUP3 PUSH2 0x172B JUMP JUMPDEST SWAP2 POP PUSH2 0x1FEA DUP4 PUSH2 0x172B JUMP JUMPDEST SWAP3 POP DUP3 DUP3 ADD SWAP1 POP DUP1 DUP3 GT ISZERO PUSH2 0x2002 JUMPI PUSH2 0x2001 PUSH2 0x1FA5 JUMP JUMPDEST JUMPDEST SWAP3 SWAP2 POP POP JUMP JUMPDEST PUSH1 0x0 PUSH2 0x2013 DUP3 PUSH2 0x172B JUMP JUMPDEST SWAP2 POP PUSH2 0x201E DUP4 PUSH2 0x172B JUMP JUMPDEST SWAP3 POP DUP3 DUP3 MUL PUSH2 0x202C DUP2 PUSH2 0x172B JUMP JUMPDEST SWAP2 POP DUP3 DUP3 DIV DUP5 EQ DUP4 ISZERO OR PUSH2 0x2043 JUMPI PUSH2 0x2042 PUSH2 0x1FA5 JUMP JUMPDEST JUMPDEST POP SWAP3 SWAP2 POP POP JUMP JUMPDEST PUSH32 0x4E487B7100000000000000000000000000000000000000000000000000000000 PUSH1 0x0 MSTORE PUSH1 0x12 PUSH1 0x4 MSTORE PUSH1 0x24 PUSH1 0x0 REVERT JUMPDEST PUSH1 0x0 PUSH2 0x2084 DUP3 PUSH2 0x172B JUMP JUMPDEST SWAP2 POP PUSH2 0x208F DUP4 PUSH2 0x172B JUMP JUMPDEST SWAP3 POP DUP3 PUSH2 0x209F JUMPI PUSH2 0x209E PUSH2 0x204A JUMP JUMPDEST JUMPDEST DUP3 DUP3 DIV SWAP1 POP SWAP3 SWAP2 POP POP JUMP JUMPDEST PUSH1 0x0 PUSH2 0x20B5 DUP3 PUSH2 0x172B JUMP JUMPDEST SWAP2 POP PUSH32 0xFFFFFFFFFFFFFFFFFFFFFFFFFFFFFFFFFFFFFFFFFFFFFFFFFFFFFFFFFFFFFFFF DUP3 SUB PUSH2 0x20E7 JUMPI PUSH2 0x20E6 PUSH2 0x1FA5 JUMP JUMPDEST JUMPDEST PUSH1 0x1 DUP3 ADD SWAP1 POP SWAP2 SWAP1 POP JUMP JUMPDEST PUSH32 0x4E6F7420656E6F7567682066756E6420746F2077697468647261770000000000 PUSH1 0x0 DUP3 ADD MSTORE POP JUMP JUMPDEST PUSH1 0x0 PUSH2 0x2128 PUSH1 0x1B DUP4 PUSH2 0x1D69 JUMP JUMPDEST SWAP2 POP PUSH2 0x2133 DUP3 PUSH2 0x20F2 JUMP JUMPDEST PUSH1 0x20 DUP3 ADD SWAP1 POP SWAP2 SWAP1 POP JUMP JUMPDEST PUSH1 0x0 PUSH1 0x20 DUP3 ADD SWAP1 POP DUP2 DUP2 SUB PUSH1 0x0 DUP4 ADD MSTORE PUSH2 0x2157 DUP2 PUSH2 0x211B JUMP JUMPDEST SWAP1 POP SWAP2 SWAP1 POP JUMP JUMPDEST PUSH1 0x0 DUP2 SWAP1 POP SWAP3 SWAP2 POP POP JUMP JUMPDEST POP JUMP JUMPDEST PUSH1 0x0 PUSH2 0x2179 PUSH1 0x0 DUP4 PUSH2 0x215E JUMP JUMPDEST SWAP2 POP PUSH2 0x2184 DUP3 PUSH2 0x2169 JUMP JUMPDEST PUSH1 0x0 DUP3 ADD SWAP1 POP SWAP2 SWAP1 POP JUMP JUMPDEST PUSH1 0x0 PUSH2 0x219A DUP3 PUSH2 0x216C JUMP JUMPDEST SWAP2 POP DUP2 SWAP1 POP SWAP2 SWAP1 POP JUMP JUMPDEST PUSH32 0x4661696C656420746F2073656E64207468652072657761726400000000000000 PUSH1 0x0 DUP3 ADD MSTORE POP JUMP JUMPDEST PUSH1 0x0 PUSH2 0x21DA PUSH1 0x19 DUP4 PUSH2 0x1D69 JUMP JUMPDEST SWAP2 POP PUSH2 0x21E5 DUP3 PUSH2 0x21A4 JUMP JUMPDEST PUSH1 0x20 DUP3 ADD SWAP1 POP SWAP2 SWAP1 POP JUMP JUMPDEST PUSH1 0x0 PUSH1 0x20 DUP3 ADD SWAP1 POP DUP2 DUP2 SUB PUSH1 0x0 DUP4 ADD MSTORE PUSH2 0x2209 DUP2 PUSH2 0x21CD JUMP JUMPDEST SWAP1 POP SWAP2 SWAP1 POP JUMP JUMPDEST PUSH1 0x0 DUP2 MLOAD SWAP1 POP SWAP2 SWAP1 POP JUMP JUMPDEST PUSH1 0x0 DUP3 DUP3 MSTORE PUSH1 0x20 DUP3 ADD SWAP1 POP SWAP3 SWAP2 POP POP JUMP JUMPDEST PUSH1 0x0 DUP2 SWAP1 POP PUSH1 0x20 DUP3 ADD SWAP1 POP SWAP2 SWAP1 POP JUMP JUMPDEST PUSH2 0x2245 DUP2 PUSH2 0x172B JUMP JUMPDEST DUP3 MSTORE POP POP JUMP JUMPDEST PUSH1 0x0 PUSH2 0x2257 DUP4 DUP4 PUSH2 0x223C JUMP JUMPDEST PUSH1 0x20 DUP4 ADD SWAP1 POP SWAP3 SWAP2 POP POP JUMP JUMPDEST PUSH1 0x0 PUSH1 0x20 DUP3 ADD SWAP1 POP SWAP2 SWAP1 POP JUMP JUMPDEST PUSH1 0x0 PUSH2 0x227B DUP3 PUSH2 0x2210 JUMP JUMPDEST PUSH2 0x2285 DUP2 DUP6 PUSH2 0x221B JUMP JUMPDEST SWAP4 POP PUSH2 0x2290 DUP4 PUSH2 0x222C JUMP JUMPDEST DUP1 PUSH1 0x0 JUMPDEST DUP4 DUP2 LT ISZERO PUSH2 0x22C1 JUMPI DUP2 MLOAD PUSH2 0x22A8 DUP9 DUP3 PUSH2 0x224B JUMP JUMPDEST SWAP8 POP PUSH2 0x22B3 DUP4 PUSH2 0x2263 JUMP JUMPDEST SWAP3 POP POP PUSH1 0x1 DUP2 ADD SWAP1 POP PUSH2 0x2294 JUMP JUMPDEST POP DUP6 SWAP4 POP POP POP POP SWAP3 SWAP2 POP POP JUMP JUMPDEST PUSH1 0x0 PUSH1 0x40 DUP3 ADD SWAP1 POP PUSH2 0x22E3 PUSH1 0x0 DUP4 ADD DUP6 PUSH2 0x1C64 JUMP JUMPDEST DUP2 DUP2 SUB PUSH1 0x20 DUP4 ADD MSTORE PUSH2 0x22F5 DUP2 DUP5 PUSH2 0x2270 JUMP JUMPDEST SWAP1 POP SWAP4 SWAP3 POP POP POP JUMP INVALID LOG2 PUSH5 0x6970667358 0x22 SLT KECCAK256 SWAP6 LOG1 0xED PUSH13 0xA41A188E27ADF6F895D4F623EE 0xEC 0xA6 PUSH15 0x1D38DBB275767262B288CFE364736F PUSH13 0x63430008180033000000000000 "
        },
        "methodIdentifiers": {
          "enterBingo((uint8,(uint32,uint16)[])[])": "2a8136e0",
          "rawFulfillRandomWords(uint256,uint256[])": "1fe543e3",
          "requestIds(uint256)": "8796ba8c",
          "requestRandomWords()": "e0c86289",
          "rewardPool()": "66666aa9",
          "s_requests(uint256)": "a168fa89"
        }
      }
    }
  }
}