{
  "_format": "hh-sol-artifact-1",
  "contractName": "Bingo18",
  "sourceName": "contracts/Bingo18.sol",
  "abi": [
    {
      "inputs": [
        {
          "internalType": "address",
          "name": "vrfCoordinator",
          "type": "address"
        },
        {
          "internalType": "bytes32",
          "name": "keyHash",
          "type": "bytes32"
        },
        {
          "internalType": "uint256",
          "name": "subscriptionId",
          "type": "uint256"
        },
        {
          "internalType": "uint16",
          "name": "requestConfirmations",
          "type": "uint16"
        },
        {
          "internalType": "uint32",
          "name": "callbackGasLimit",
          "type": "uint32"
        }
      ],
      "stateMutability": "nonpayable",
      "type": "constructor"
    },
    {
      "inputs": [
        {
          "internalType": "address",
          "name": "have",
          "type": "address"
        },
        {
          "internalType": "address",
          "name": "want",
          "type": "address"
        }
      ],
      "name": "OnlyCoordinatorCanFulfill",
      "type": "error"
    },
    {
      "anonymous": false,
      "inputs": [
        {
          "indexed": false,
          "internalType": "uint256",
          "name": "requestId",
          "type": "uint256"
        },
        {
          "indexed": false,
          "internalType": "uint256[]",
          "name": "randomWords",
          "type": "uint256[]"
        }
      ],
      "name": "RequestFulfilled",
      "type": "event"
    },
    {
      "anonymous": false,
      "inputs": [
        {
          "indexed": false,
          "internalType": "uint256",
          "name": "requestId",
          "type": "uint256"
        },
        {
          "indexed": false,
          "internalType": "uint32",
          "name": "numWords",
          "type": "uint32"
        }
      ],
      "name": "RequestSent",
      "type": "event"
    },
    {
      "inputs": [
        {
          "components": [
            {
              "internalType": "enum Bingo18.Option",
              "name": "option",
              "type": "uint8"
            },
            {
              "components": [
                {
                  "internalType": "uint32",
                  "name": "value",
                  "type": "uint32"
                },
                {
                  "internalType": "uint16",
                  "name": "amount",
                  "type": "uint16"
                }
              ],
              "internalType": "struct Bingo18.Value[]",
              "name": "values",
              "type": "tuple[]"
            }
          ],
          "internalType": "struct Bingo18.Ticket[]",
          "name": "options",
          "type": "tuple[]"
        }
      ],
      "name": "enterBingo",
      "outputs": [],
      "stateMutability": "payable",
      "type": "function"
    },
    {
      "inputs": [
        {
          "internalType": "uint256",
          "name": "requestId",
          "type": "uint256"
        },
        {
          "internalType": "uint256[]",
          "name": "randomWords",
          "type": "uint256[]"
        }
      ],
      "name": "rawFulfillRandomWords",
      "outputs": [],
      "stateMutability": "nonpayable",
      "type": "function"
    },
    {
      "inputs": [
        {
          "internalType": "uint256",
          "name": "",
          "type": "uint256"
        }
      ],
      "name": "requestIds",
      "outputs": [
        {
          "internalType": "uint256",
          "name": "",
          "type": "uint256"
        }
      ],
      "stateMutability": "view",
      "type": "function"
    },
    {
      "inputs": [],
      "name": "requestRandomWords",
      "outputs": [
        {
          "internalType": "uint256",
          "name": "requestId",
          "type": "uint256"
        }
      ],
      "stateMutability": "nonpayable",
      "type": "function"
    },
    {
      "inputs": [],
      "name": "rewardPool",
      "outputs": [
        {
          "internalType": "uint256",
          "name": "",
          "type": "uint256"
        }
      ],
      "stateMutability": "view",
      "type": "function"
    },
    {
      "inputs": [
        {
          "internalType": "uint256",
          "name": "",
          "type": "uint256"
        }
      ],
      "name": "s_requests",
      "outputs": [
        {
          "internalType": "bool",
          "name": "fulfilled",
          "type": "bool"
        },
        {
          "internalType": "bool",
          "name": "exists",
          "type": "bool"
        }
      ],
      "stateMutability": "view",
      "type": "function"
    }
  ],
  "bytecode": "0x6101406040523480156200001257600080fd5b506040516200265638038062002656833981810160405281019062000038919062000243565b848073ffffffffffffffffffffffffffffffffffffffff1660808173ffffffffffffffffffffffffffffffffffffffff1681525050508473ffffffffffffffffffffffffffffffffffffffff1660a08173ffffffffffffffffffffffffffffffffffffffff16815250508360c081815250508260e081815250508161ffff166101008161ffff16815250508063ffffffff166101208163ffffffff16815250505050505050620002cb565b600080fd5b600073ffffffffffffffffffffffffffffffffffffffff82169050919050565b60006200011582620000e8565b9050919050565b620001278162000108565b81146200013357600080fd5b50565b60008151905062000147816200011c565b92915050565b6000819050919050565b62000162816200014d565b81146200016e57600080fd5b50565b600081519050620001828162000157565b92915050565b6000819050919050565b6200019d8162000188565b8114620001a957600080fd5b50565b600081519050620001bd8162000192565b92915050565b600061ffff82169050919050565b620001dc81620001c3565b8114620001e857600080fd5b50565b600081519050620001fc81620001d1565b92915050565b600063ffffffff82169050919050565b6200021d8162000202565b81146200022957600080fd5b50565b6000815190506200023d8162000212565b92915050565b600080600080600060a08688031215620002625762000261620000e3565b5b6000620002728882890162000136565b9550506020620002858882890162000171565b94505060406200029888828901620001ac565b9350506060620002ab88828901620001eb565b9250506080620002be888289016200022c565b9150509295509295909350565b60805160a05160c05160e05161010051610120516123346200032260003960006103f4015260006103d3015260006103b2015260006103910152600061035501526000818161017201526101c601526123346000f3fe6080604052600436106100555760003560e01c80631fe543e31461005a5780632a8136e01461008357806366666aa91461009f5780638796ba8c146100ca578063a168fa8914610107578063e0c8628914610145575b600080fd5b34801561006657600080fd5b50610081600480360381019061007c91906118ba565b610170565b005b61009d60048036038101906100989190611c1b565b610230565b005b3480156100ab57600080fd5b506100b46102e9565b6040516100c19190611c73565b60405180910390f35b3480156100d657600080fd5b506100f160048036038101906100ec9190611c8e565b6102ef565b6040516100fe9190611c73565b60405180910390f35b34801561011357600080fd5b5061012e60048036038101906101299190611c8e565b610313565b60405161013c929190611cd6565b60405180910390f35b34801561015157600080fd5b5061015a610351565b6040516101679190611c73565b60405180910390f35b7f000000000000000000000000000000000000000000000000000000000000000073ffffffffffffffffffffffffffffffffffffffff163373ffffffffffffffffffffffffffffffffffffffff161461022257337f00000000000000000000000000000000000000000000000000000000000000006040517f1cf993f4000000000000000000000000000000000000000000000000000000008152600401610219929190611d40565b60405180910390fd5b61022c82826105bd565b5050565b662386f26fc100003414610279576040517f08c379a000000000000000000000000000000000000000000000000000000000815260040161027090611dc6565b60405180910390fd5b61028333826113f5565b6003339080600181540180825580915050600190039060005260206000200160009091909190916101000a81548173ffffffffffffffffffffffffffffffffffffffff021916908373ffffffffffffffffffffffffffffffffffffffff16021790555050565b60015481565b600581815481106102ff57600080fd5b906000526020600020016000915090505481565b60046020528060005260406000206000915090508060000160009054906101000a900460ff16908060000160019054906101000a900460ff16905082565b60007f000000000000000000000000000000000000000000000000000000000000000073ffffffffffffffffffffffffffffffffffffffff1663d33d44c17f00000000000000000000000000000000000000000000000000000000000000007f00000000000000000000000000000000000000000000000000000000000000007f00000000000000000000000000000000000000000000000000000000000000007f000000000000000000000000000000000000000000000000000000000000000060036040518663ffffffff1660e01b8152600401610435959493929190611e1d565b6020604051808303816000875af1158015610454573d6000803e3d6000fd5b505050506040513d601f19601f820116820180604052508101906104789190611e85565b90506040518060600160405280600015158152602001600115158152602001600067ffffffffffffffff8111156104b2576104b1611777565b5b6040519080825280602002602001820160405280156104e05781602001602082028036833780820191505090505b508152506004600083815260200190815260200160002060008201518160000160006101000a81548160ff02191690831515021790555060208201518160000160016101000a81548160ff02191690831515021790555060408201518160010190805190602001906105539291906115ea565b5090505060058190806001815401808255809150506001900390600052602060002001600090919091909150557fcc58b13ad3eab50626c6a6300b1d139cd6ebb1688a7cced9461c2f7e762665ee8160036040516105b2929190611eb2565b60405180910390a190565b6004600083815260200190815260200160002060000160019054906101000a900460ff16610620576040517f08c379a000000000000000000000000000000000000000000000000000000000815260040161061790611f27565b60405180910390fd5b60005b60038054905081101561135d576000806003838154811061064757610646611f47565b5b9060005260206000200160009054906101000a900473ffffffffffffffffffffffffffffffffffffffff1690506000600260008373ffffffffffffffffffffffffffffffffffffffff1673ffffffffffffffffffffffffffffffffffffffff168152602001908152602001600020805480602002602001604051908101604052809291908181526020016000905b828210156107e357838290600052602060002090600202016040518060400160405290816000820160009054906101000a900460ff16600481111561071d5761071c611f76565b5b600481111561072f5761072e611f76565b5b815260200160018201805480602002602001604051908101604052809291908181526020016000905b828210156107cc578382906000526020600020016040518060400160405290816000820160009054906101000a900463ffffffff1663ffffffff1663ffffffff1681526020016000820160049054906101000a900461ffff1661ffff1661ffff168152505081526020019060010190610758565b5050505081525050815260200190600101906106d5565b50505050905060005b81518110156111f957600082828151811061080a57610809611f47565b5b602002602001015190506000816020015190506001600481111561083157610830611f76565b5b8260000151600481111561084857610847611f76565b5b036109fd5760008860028151811061086357610862611f47565b5b60200260200101518960018151811061087f5761087e611f47565b5b60200260200101518a60008151811061089b5761089a611f47565b5b60200260200101516108ad9190611fd4565b6108b79190611fd4565b905060005b82518110156109f65760008382815181106108da576108d9611f47565b5b60200260200101519050600383101580156108f6575060098311155b801561090c57506000816000015163ffffffff16145b8061093b5750600c8310158015610924575060128311155b801561093a57506002816000015163ffffffff16145b5b156109855760026003662386f26fc10000836020015161ffff1661095f9190612008565b6109699190612008565b6109739190612079565b8961097e9190611fd4565b98506109e8565b600a83101580156109975750600b8311155b80156109ad57506001816000015163ffffffff16145b156109e7576002662386f26fc10000826020015161ffff166109cf9190612008565b6109d99190612008565b896109e49190611fd4565b98505b5b5080806001019150506108bc565b50506111ea565b60006004811115610a1157610a10611f76565b5b82600001516004811115610a2857610a27611f76565b5b03610d7a57600088600281518110610a4357610a42611f47565b5b602002602001015189600181518110610a5f57610a5e611f47565b5b60200260200101518a600081518110610a7b57610a7a611f47565b5b6020026020010151610a8d9190611fd4565b610a979190611fd4565b905060005b8251811015610d73576000838281518110610aba57610ab9611f47565b5b6020026020010151905082816000015163ffffffff1603610d65576003831480610ae45750601283145b15610b22576078662386f26fc10000826020015161ffff16610b069190612008565b610b109190612008565b89610b1b9190611fd4565b9850610d64565b6004831480610b315750601183145b15610b6f576028662386f26fc10000826020015161ffff16610b539190612008565b610b5d9190612008565b89610b689190611fd4565b9850610d63565b6005831480610b7e5750601083145b15610bbc576014662386f26fc10000826020015161ffff16610ba09190612008565b610baa9190612008565b89610bb59190611fd4565b9850610d62565b6006831480610bcb5750600f83145b15610c0957600c662386f26fc10000826020015161ffff16610bed9190612008565b610bf79190612008565b89610c029190611fd4565b9850610d61565b6007831480610c185750600e83145b15610c56576008662386f26fc10000826020015161ffff16610c3a9190612008565b610c449190612008565b89610c4f9190611fd4565b9850610d60565b6008831480610c655750600d83145b15610caf576002600b662386f26fc10000836020015161ffff16610c899190612008565b610c939190612008565b610c9d9190612079565b89610ca89190611fd4565b9850610d5f565b6009831480610cbe5750600c83145b15610d0857600a602f662386f26fc10000836020015161ffff16610ce29190612008565b610cec9190612008565b610cf69190612079565b89610d019190611fd4565b9850610d5e565b600a831480610d175750600b83145b15610d5d5760056016662386f26fc10000836020015161ffff16610d3b9190612008565b610d459190612008565b610d4f9190612079565b89610d5a9190611fd4565b98505b5b5b5b5b5b5b5b5b508080600101915050610a9c565b50506111e9565b60026004811115610d8e57610d8d611f76565b5b82600001516004811115610da557610da4611f76565b5b03610f0c5760005b8151811015610f06576000828281518110610dcb57610dca611f47565b5b602002602001015190506000805b8b51811015610e29578b8181518110610df557610df4611f47565b5b6020026020010151836000015163ffffffff1603610e1c578180610e18906120aa565b9250505b8080600101915050610dd9565b5060018103610e7757600a600c662386f26fc10000846020015161ffff16610e519190612008565b610e5b9190612008565b610e659190612079565b89610e709190611fd4565b9850610ef7565b60028103610eb8576002662386f26fc10000836020015161ffff16610e9c9190612008565b610ea69190612008565b89610eb19190611fd4565b9850610ef6565b60038103610ef5576003662386f26fc10000836020015161ffff16610edd9190612008565b610ee79190612008565b89610ef29190611fd4565b98505b5b5b50508080600101915050610dad565b506111e8565b60036004811115610f2057610f1f611f76565b5b82600001516004811115610f3757610f36611f76565b5b0361101a5760005b8151811015611014576000828281518110610f5d57610f5c611f47565b5b602002602001015190506000805b8b51811015610fbb578b8181518110610f8757610f86611f47565b5b6020026020010151836000015163ffffffff1603610fae578180610faa906120aa565b9250505b8080600101915050610f6b565b506002811061100557600a604b662386f26fc10000846020015161ffff16610fe39190612008565b610fed9190612008565b610ff79190612079565b896110029190611fd4565b98505b50508080600101915050610f3f565b506111e7565b60048081111561102d5761102c611f76565b5b8260000151600481111561104457611043611f76565b5b036111e65760005b81518110156111e457600082828151811061106a57611069611f47565b5b602002602001015190506000805b8b518110156110c8578b818151811061109457611093611f47565b5b6020026020010151836000015163ffffffff16036110bb5781806110b7906120aa565b9250505b8080600101915050611078565b506003810361110a576078662386f26fc10000836020015161ffff166110ee9190612008565b6110f89190612008565b896111039190611fd4565b98506111d5565b8a60018151811061111e5761111d611f47565b5b60200260200101518b60008151811061113a57611139611f47565b5b602002602001015114801561118457508a60028151811061115e5761115d611f47565b5b60200260200101518b60018151811061117a57611179611f47565b5b6020026020010151145b801561119a57506007826000015163ffffffff16145b156111d4576014662386f26fc10000836020015161ffff166111bc9190612008565b6111c69190612008565b896111d19190611fd4565b98505b5b5050808060010191505061104c565b505b5b5b5b5b505080806001019150506107ec565b5060016004600088815260200190815260200160002060000160006101000a81548160ff021916908315150217905550846004600088815260200190815260200160002060010190805190602001906112539291906115ea565b50600083111561134d5782471161129f576040517f08c379a00000000000000000000000000000000000000000000000000000000081526004016112969061213e565b60405180910390fd5b60008273ffffffffffffffffffffffffffffffffffffffff16846040516112c59061218f565b60006040518083038185875af1925050503d8060008114611302576040519150601f19603f3d011682016040523d82523d6000602084013e611307565b606091505b505090508061134b576040517f08c379a0000000000000000000000000000000000000000000000000000000008152600401611342906121f0565b60405180910390fd5b505b5050508080600101915050610623565b5060016004600084815260200190815260200160002060000160006101000a81548160ff021916908315150217905550806004600084815260200190815260200160002060010190805190602001906113b79291906115ea565b507ffe2e2d779dba245964d4e3ef9b994be63856fd568bf7d3ca9e224755cb1bd54d82826040516113e99291906122ce565b60405180910390a15050565b6000600260008473ffffffffffffffffffffffffffffffffffffffff1673ffffffffffffffffffffffffffffffffffffffff1681526020019081526020016000209050600260008473ffffffffffffffffffffffffffffffffffffffff1673ffffffffffffffffffffffffffffffffffffffff16815260200190815260200160002060006114839190611637565b60005b82518110156115e45760008382815181106114a4576114a3611f47565b5b60200260200101519050600081602001519050600084600181600181540180825580915050039060005260206000209060020201600101905060005b825181101561158357818382815181106114fd576114fc611f47565b5b60200260200101519080600181540180825580915050600190039060005260206000200160009091909190915060008201518160000160006101000a81548163ffffffff021916908363ffffffff16021790555060208201518160000160046101000a81548161ffff021916908361ffff160217905550505080806001019150506114e0565b50826000015185858154811061159c5761159b611f47565b5b906000526020600020906002020160000160006101000a81548160ff021916908360048111156115cf576115ce611f76565b5b02179055505050508080600101915050611486565b50505050565b828054828255906000526020600020908101928215611626579160200282015b8281111561162557825182559160200191906001019061160a565b5b509050611633919061165b565b5090565b50805460008255600202906000526020600020908101906116589190611678565b50565b5b8082111561167457600081600090555060010161165c565b5090565b5b808211156116af57600080820160006101000a81549060ff02191690556001820160006116a691906116b3565b50600201611679565b5090565b50805460008255906000526020600020908101906116d191906116d4565b50565b5b8082111561171357600080820160006101000a81549063ffffffff02191690556000820160046101000a81549061ffff0219169055506001016116d5565b5090565b6000604051905090565b600080fd5b600080fd5b6000819050919050565b61173e8161172b565b811461174957600080fd5b50565b60008135905061175b81611735565b92915050565b600080fd5b6000601f19601f8301169050919050565b7f4e487b7100000000000000000000000000000000000000000000000000000000600052604160045260246000fd5b6117af82611766565b810181811067ffffffffffffffff821117156117ce576117cd611777565b5b80604052505050565b60006117e1611717565b90506117ed82826117a6565b919050565b600067ffffffffffffffff82111561180d5761180c611777565b5b602082029050602081019050919050565b600080fd5b6000611836611831846117f2565b6117d7565b905080838252602082019050602084028301858111156118595761185861181e565b5b835b81811015611882578061186e888261174c565b84526020840193505060208101905061185b565b5050509392505050565b600082601f8301126118a1576118a0611761565b5b81356118b1848260208601611823565b91505092915050565b600080604083850312156118d1576118d0611721565b5b60006118df8582860161174c565b925050602083013567ffffffffffffffff811115611900576118ff611726565b5b61190c8582860161188c565b9150509250929050565b600067ffffffffffffffff82111561193157611930611777565b5b602082029050602081019050919050565b600080fd5b600080fd5b6005811061195957600080fd5b50565b60008135905061196b8161194c565b92915050565b600067ffffffffffffffff82111561198c5761198b611777565b5b602082029050602081019050919050565b600063ffffffff82169050919050565b6119b68161199d565b81146119c157600080fd5b50565b6000813590506119d3816119ad565b92915050565b600061ffff82169050919050565b6119f0816119d9565b81146119fb57600080fd5b50565b600081359050611a0d816119e7565b92915050565b600060408284031215611a2957611a28611942565b5b611a3360406117d7565b90506000611a43848285016119c4565b6000830152506020611a57848285016119fe565b60208301525092915050565b6000611a76611a7184611971565b6117d7565b90508083825260208201905060408402830185811115611a9957611a9861181e565b5b835b81811015611ac25780611aae8882611a13565b845260208401935050604081019050611a9b565b5050509392505050565b600082601f830112611ae157611ae0611761565b5b8135611af1848260208601611a63565b91505092915050565b600060408284031215611b1057611b0f611942565b5b611b1a60406117d7565b90506000611b2a8482850161195c565b600083015250602082013567ffffffffffffffff811115611b4e57611b4d611947565b5b611b5a84828501611acc565b60208301525092915050565b6000611b79611b7484611916565b6117d7565b90508083825260208201905060208402830185811115611b9c57611b9b61181e565b5b835b81811015611be357803567ffffffffffffffff811115611bc157611bc0611761565b5b808601611bce8982611afa565b85526020850194505050602081019050611b9e565b5050509392505050565b600082601f830112611c0257611c01611761565b5b8135611c12848260208601611b66565b91505092915050565b600060208284031215611c3157611c30611721565b5b600082013567ffffffffffffffff811115611c4f57611c4e611726565b5b611c5b84828501611bed565b91505092915050565b611c6d8161172b565b82525050565b6000602082019050611c886000830184611c64565b92915050565b600060208284031215611ca457611ca3611721565b5b6000611cb28482850161174c565b91505092915050565b60008115159050919050565b611cd081611cbb565b82525050565b6000604082019050611ceb6000830185611cc7565b611cf86020830184611cc7565b9392505050565b600073ffffffffffffffffffffffffffffffffffffffff82169050919050565b6000611d2a82611cff565b9050919050565b611d3a81611d1f565b82525050565b6000604082019050611d556000830185611d31565b611d626020830184611d31565b9392505050565b600082825260208201905092915050565b7f4e6f7420656e6f7567682066656520746f206a6f696e00000000000000000000600082015250565b6000611db0601683611d69565b9150611dbb82611d7a565b602082019050919050565b60006020820190508181036000830152611ddf81611da3565b9050919050565b6000819050919050565b611df981611de6565b82525050565b611e08816119d9565b82525050565b611e178161199d565b82525050565b600060a082019050611e326000830188611df0565b611e3f6020830187611c64565b611e4c6040830186611dff565b611e596060830185611e0e565b611e666080830184611e0e565b9695505050505050565b600081519050611e7f81611735565b92915050565b600060208284031215611e9b57611e9a611721565b5b6000611ea984828501611e70565b91505092915050565b6000604082019050611ec76000830185611c64565b611ed46020830184611e0e565b9392505050565b7f72657175657374206e6f7420666f756e64000000000000000000000000000000600082015250565b6000611f11601183611d69565b9150611f1c82611edb565b602082019050919050565b60006020820190508181036000830152611f4081611f04565b9050919050565b7f4e487b7100000000000000000000000000000000000000000000000000000000600052603260045260246000fd5b7f4e487b7100000000000000000000000000000000000000000000000000000000600052602160045260246000fd5b7f4e487b7100000000000000000000000000000000000000000000000000000000600052601160045260246000fd5b6000611fdf8261172b565b9150611fea8361172b565b925082820190508082111561200257612001611fa5565b5b92915050565b60006120138261172b565b915061201e8361172b565b925082820261202c8161172b565b9150828204841483151761204357612042611fa5565b5b5092915050565b7f4e487b7100000000000000000000000000000000000000000000000000000000600052601260045260246000fd5b60006120848261172b565b915061208f8361172b565b92508261209f5761209e61204a565b5b828204905092915050565b60006120b58261172b565b91507fffffffffffffffffffffffffffffffffffffffffffffffffffffffffffffffff82036120e7576120e6611fa5565b5b600182019050919050565b7f4e6f7420656e6f7567682066756e6420746f2077697468647261770000000000600082015250565b6000612128601b83611d69565b9150612133826120f2565b602082019050919050565b600060208201905081810360008301526121578161211b565b9050919050565b600081905092915050565b50565b600061217960008361215e565b915061218482612169565b600082019050919050565b600061219a8261216c565b9150819050919050565b7f4661696c656420746f2073656e64207468652072657761726400000000000000600082015250565b60006121da601983611d69565b91506121e5826121a4565b602082019050919050565b60006020820190508181036000830152612209816121cd565b9050919050565b600081519050919050565b600082825260208201905092915050565b6000819050602082019050919050565b6122458161172b565b82525050565b6000612257838361223c565b60208301905092915050565b6000602082019050919050565b600061227b82612210565b612285818561221b565b93506122908361222c565b8060005b838110156122c15781516122a8888261224b565b97506122b383612263565b925050600181019050612294565b5085935050505092915050565b60006040820190506122e36000830185611c64565b81810360208301526122f58184612270565b9050939250505056fea264697066735822122095a1ed6ca41a188e27adf6f895d4f623eeeca66e1d38dbb275767262b288cfe364736f6c63430008180033",
  "linkReferences": {},
  "deployedLinkReferences": {}
}